:04000000C7EF15F041
:08000800046ED8CF05F0E0CF33
:1000100006F00001E9CF0CF0EACF07F0E1CF08F0DD
:10002000E2CF09F0D9CF0AF0DACF0BF0F3CF12F01C
:10003000F4CF13F0FACF14F000C00EF001C00FF0AF
:1000400002C010F003C011F0F2AA2AEF00F0F2B4DF
:1000500057EF00F09DA030EF00F09EB05BEF00F096
:10006000A0A236EF00F0A1B25FEF00F00EC000F0EA
:100070000FC001F010C002F011C003F00CC0E9FF86
:1000800007C0EAFF078E08C0E1FF09C0E2FF0AC00F
:10009000D9FF0BC0DAFF12C0F3FF13C0F4FF14C086
:1000A000FAFF045006C0E0FF05C0D8FF10002F84FF
:1000B000F29436EF00F02F809E9036EF00F02F8202
:1000C000A19236EF00F0534F4C4441444F5220412F
:1000D00055544F4D415449434F200A0D0000505292
:1000E0004F473A20202020202020202020202020A0
:1000F00020200A0D00004D4F443A202020202020CF
:10010000202020202020202020200A0D0000506FD9
:100110006E746F2020200A0D000020202020202057
:1001200020202020202046313A45444954410A0DE0
:1001300000002020202020202020202020204632C7
:100140003A43524941200A0D00002020202020205F
:1001500020202020202046333A44454C20200A0D00
:1001600000002020202020202020202020202020CF
:100170002020202020200A0D00003C2D2D00454984
:10018000584F20582C5920202020202020200A0DB4
:1001900000004549584F20205A20202020202020B0
:1001A00020200A0D00004549584F20524F5441432A
:1001B000494F4E414C200A0D0000454D50555252BA
:1001C00041444F5220454E542E200A0D0000444514
:1001D000444F5320454E54524144412020200A0DA3
:1001E000000050524553534F522020202020202001
:1001F00020200A0D0000454D5055525241444F52A7
:100200002053414944410A0D00004445444F5320C6
:10021000534149444120202020200A0D00004C4930
:100220004D5041444F5220202020202020200A0DF4
:100230000000414C494D454E542E20534F4C4441F3
:1002400020200A0D0000464552524F2044452053BD
:100250004F4C444120200A0D0000444542554720A0
:100260002053454E534F524553200A0D000044453C
:1002700042554720205341494441532020200A0D34
:100280000000202020202020204549584F20585988
:100290002020202020200A0D0000583A3030303035
:1002A0002053443A4F46462053453A4F46460A0D9E
:1002B0000000593A303030302053443A4F464620FF
:1002C00053453A4F46460A0D000020204549584FF5
:1002D00020524F544143494F4E414C2020200A0D9B
:1002E00000005A3A303030302053543A4F464620BE
:1002F00053423A4F46460A0D00002020202045492F
:10030000584F205A202020202020202020200A0D75
:100310000000523A303030302053443A4F464620A5
:1003200053453A4F46460A0D000020454D50555260
:100330005241444F5220454E54524144410A0D000F
:1003400046313A4156414E434120202020535F41DF
:100350003A4F46460A0D000046323A52454355414F
:100360002020202020535F523A4F46460A0D0000BD
:10037000202020202020202020535F504C4143414A
:100380003A4F46460A0D00004F4E20004F464600A9
:100390004F4E20004F4646004F4E20004F4646002D
:1003A00020204445444F5320454E54524144410A75
:1003B0000D0046313A4156414E4341202020535FC3
:1003C00041313A4F46460A0D000046323A52454303
:1003D000554120202020535F41323A4F46460A0DB6
:1003E00000004F4E20004F4646004F4E20004F4623
:1003F0004600202020202020202050524553534FDB
:100400005220202020200A0D000046313A4156415A
:100410004E434120202020535F413A4F46460A0D6B
:10042000000046323A5245435541202020202053B7
:100430005F523A4F46460A0D00004F4E20004F468D
:1004400046004F4E20004F464600202020454D508C
:1004500055525241444F52205341494441200A0DC4
:10046000000046313A4156414E434120202020535E
:100470005F413A4F46460A0D000046323A52454324
:1004800055412020202020535F523A4F46460A0D06
:1004900000004F4E20004F4646004F4E20004F4672
:1004A000460020202020204445444F5320534149FA
:1004B0004441202020200A0D000046313A41564197
:1004C0004E434120202020535F413A4F46460A0DBB
:1004D000000046323A524543554120202020205307
:1004E0005F523A4F46460A0D00004F4E20004F46DD
:1004F00046004F4E20004F4646002020202020205E
:100500004C494D5041444F522020202020200A0DBC
:10051000000046313A4C494741202020202020202D
:100520002020200A0D0046313A4445534C494741AA
:10053000202020202020200A0D0020414C494D453C
:100540004E5441444F5220534F4C444120200A0DF9
:10055000000046313A4C494741202020200A0D0036
:1005600046323A4445534C494741200A0D00202069
:10057000464552524F20534F4C44412031202020B9
:100580000A0D000046313A4156414E434120202099
:1005900020535F413A4F46460A0D000046323A5218
:1005A000454355412020202020535F523A4F464674
:1005B0000A0D00004F4E20004F4646004F4E2000CF
:1005C0004F464600535F504C4143410920202020B4
:1005D000202020202000535F4445444F5F494E5F58
:1005E0004C5331200920202020200000535F444537
:1005F000444F5F494E5F4C53322009202020202079
:100600000000535F454D5055525241444F525F498F
:100610004E5F4C5331092000535F454D50555252A7
:1006200041444F525F494E5F4C5332202000535F8C
:1006300050524553534F525F4C53312020202009D4
:100640002000535F50524553534F525F4C5332205A
:10065000202020092000535F50524F544543414F02
:1006600020202020202009200000535F585F4C5399
:100670003120202020202020202009200000535F4E
:10068000585F4C53320920202020202020200920B0
:100690000000535F595F4C5331092020202020096E
:1006A0002000535F595F4C5332202020202020200F
:1006B00020092000535F524F544143414F5F4C5338
:1006C00031202020202009200000535F524F544148
:1006D00043414F5F4C533220202009200000535FDC
:1006E0005A5F4C5331202020202020202009200058
:1006F000535F5A5F4C5332202020202020202009B5
:100700002000535F464552524F5F534F4C44413196
:100710005F4C533109200000535F464552524F5FF2
:10072000534F4C4441315F4C533209200000535F1A
:10073000464552524F5F534F4C4441325F4C533108
:1007400009200000535F464552524F5F534F4C44BF
:1007500041325F4C533209200000535F4445444FFF
:100760005F4F55545F4C5331092009200000535FFF
:100770004445444F5F4F55545F4C53320920200984
:100780002000535F454D5055525241444F525F4FE8
:1007900055545F4C53310000535F454D50555252F4
:1007A00041444F525F4F55545F4C5332000020205C
:1007B00044454255472053454E534F5245530A0D29
:1007C00000002020444542554720534149444153AD
:1007D0000A0D00003C2D2D00202020003C2D2D0076
:1007E000202020003C2D2D0046313A4544495441FB
:1007F00020504F4E544F2020202020200A0D000072
:1008000046323A4D414E5554454E43414F202020EB
:10081000202020200A0D0000202020202020202041
:100820002020202020202020202020200A0D000031
:1008300020202020202020202020202020202020B8
:1008400020202000524331393820200052433131DA
:1008500032202000524333313920200052433139B5
:10086000392020005243323837202000524332359D
:10087000352020005243333135202000524333319C
:10088000342020005243313533202000494E535448
:10089000495455544F2020494354532020200A0DD9
:1008A00000005445434E4F4C4F47494120454D2091
:1008B000202020200A0D000020202020534F4654E5
:1008C000574152452020202020200A0D0000948608
:1008D0009488D3EF16F0080E016E050E006E002E00
:1008E000FED78B969496060E006E002EFED703015F
:1008F00008378B98D8B09488D8A09498948682A60C
:10090000FED7012E01D002D00001E7D7050E006E00
:10091000002EFED78B96949600009488060E006EEB
:10092000002EFED7060E006E002EFED7948682A6FD
:10093000FED7016A060E006E002EFED782B8018037
:100940008B9694968B989498000112009488050ECB
:10095000006E002EFED79486060E006E002EFED787
:100960008B989498050E006E002EFED78B96949669
:10097000D890030100354009026F086F0001ABDF1A
:1009800001502F9601B02F8601C308F3A4DF015058
:100990002F9601B02F8694980000948682A6FED7E9
:1009A000050E006E002EFED700D000009488050EC4
:1009B000006E002EFED72F761200020EEA6EFB0E9E
:1009C000E96EEF500DE0060E016E006A002EFED7B4
:1009D000012EFBD77B0E006E002EFED7EF2EF3D735
:1009E0001200310E006E002EFED700D00301006B06
:1009F000FFC201F30001AADF310E006E002EFED708
:100A000000D092908980310E006E002EFED700D06B
:100A100092908990310E006E002EFED700D0120009
:100A2000939A8A9AFEC2FFF2DCDF12000301006B88
:100A3000016900018BDF92908990939A8A8A0F0E48
:100A40000201FB6F0001B9DF380E0201FE6F0001E9
:100A5000E7DF0F0E0201FB6F0001AFDF0C0E02019A
:100A6000FE6F0001DDDF0F0E0201FB6F0001A5DF4D
:100A7000060E0201FE6F0001D3DF0F0E0201FB6FB5
:100A800000019BDF010E2D6E2E6ED5EF16F09488BF
:100A9000050E006E002EFED79486060E006E002E08
:100AA000FED78B989498050E006E002EFED78B967D
:100AB0009496D890030102354009066F086F000133
:100AC0000ADF01502F9601B02F8603C308F303DF1E
:100AD00001502F9601B02F8605C308F3FCDE0150AC
:100AE0002F9601B02F8604C308F3F5DE01502F9630
:100AF00001B02F8694980000948682A6FED7050E3A
:100B0000006E002EFED700D000009488050E006E07
:100B1000002EFED72F761200010E0301026F060E83
:100B2000036F0469F80E056F0001B1DF010E0301C8
:100B3000026F020E036F046B070E056F0001A7DF43
:100B4000D7EF16F0030E0301026F060E036F046960
:100B5000056900019CDFD9EF16F0020E0301026F58
:100B6000060E036F046B056B000191DFDBEF16F0DF
:100B70001D681C681CC0E5F202011DC0E6F2020EF1
:100B80000301026F036FE6C204F3E5C205F300013F
:100B90007EDFDDEF16F0010E0201FE6F000140DF87
:100BA000050E0201FB6F000108DF13EF06F0FCC227
:100BB0002DF0FBC22EF00201FB2D03D0010EFC5DD7
:100BC000FD6FFB51020804E1400EFC25FF0FFD6F95
:100BD000FB51030804E1140EFC25FF0FFD6FFB51D0
:100BE000040804E1540EFC25FF0FFD6FFD8FFDC2CC
:100BF000FEF2000115DFA60E006E002EFED70000EB
:100C00001200939A8A8AFBC2FFF2EBDE29EF06F00C
:100C10000201FA510C0A000105E0060A08E0070A81
:100C20000DE014D0B8D7010E2E6E2D6E12D02E2AE4
:100C30002EC0FBF22DC0FCF2BADF0BD02EC0FBF2AF
:100C4000010E0201FC6F0001B2DF03D0FAC2FBF219
:100C5000D8D712000900F5520CE0F6CFF8F2F7CF22
:100C6000F9F2F5CFFAF2D4DFF8C2F6FFF9C2F7FFD6
:100C7000F1D712000201EA51016AE95D03E2E9C21B
:100C800000F00CD0006A080EEB6FE9370036EA512D
:100C9000005CD8B0006E0136EB2FF7D700011200D0
:100CA0000150E7C2E9F2640E0201EA6F0001E2DFDF
:100CB00000C0E7F20150300E08E10201E8A30FD0B6
:100CC000E8B70DD0E8B9200E04D00201E897E89902
:100CD000E881012601C0FAF200019ADF0201E7C2B1
:100CE000E9F20A0EEA6F0001C5DF00C0E7F2015029
:100CF000300E08E10201E8B70AD0E8A108D0E8B94F
:100D0000200E0001012601C0FAF282DF0201300E3E
:100D1000E727E7C2FAF200017BDF12000C0E0201A6
:100D2000FA6F000175DFC60EF66E000EF76E92DFE9
:100D3000DE0EF66E000EF76E8DDFF60EF66E000E0E
:100D4000F76E88DF020E0201FB6F060EFC6F0001DA
:100D50002EDF010E02013125E66FE76F110EE86FFD
:100D600000019EDF1200030E0201FB6F070EFC6FF5
:100D700000011DDF02013151000A000111E0010AEA
:100D800015E0030A19E0010A1DE0070A21E0010A43
:100D900025E0030A29E0010A2DE00F0A31E036D0F0
:100DA000440EF66E080EF76E55DF30D04C0EF66E20
:100DB000080EF76E4FDF2AD0540EF66E080EF76E4F
:100DC00049DF24D05C0EF66E080EF76E43DF1ED0AE
:100DD000640EF66E080EF76E3DDF18D06C0EF66EE0
:100DE000080EF76E37DF12D0740EF66E080EF76E2F
:100DF00031DF0CD07C0EF66E080EF76E2BDF06D0BE
:100E0000840EF66E080EF76E25DF00D01200080E75
:100E10000301086F00C009F39488060E006E002ECF
:100E2000FED7948682A6FED782B8D88082A8D890B2
:100E30000136050E006E002EFED794968B96082F75
:100E4000EBD79488060E006E002EFED78B980951C2
:100E5000D8A494980000948682A6FED7050E006E52
:100E6000002EFED78B969496060E006E002EFED7AF
:100E70008B989498000112000301056B046B066BBC
:100E80009488050E006E002EFED79486060E006E26
:100E9000002EFED78B989498050E006E002EFED77C
:100EA0008B969496D89002354009076F086F000121
:100EB00012DD01502F9601B02F8603C308F30BDD1E
:100EC00001502F9601B02F869488050E006E002EDB
:100ED000FED79486060E006E002EFED782A6FED7A1
:100EE0008B989498050E006E002EFED78B969496E4
:100EF000D890030102354109076F086F0001EBDC50
:100F000001502F9601B02F86010E006E80DF01C0C8
:100F100006F3006A7CDF01C005F30301046B9498BB
:100F20000000948682A6FED7050E006E002EFED726
:100F300000D000009488050E006E002EFED72F769C
:100F40000651041304C301F005C302F000011200AE
:100F50000201FD6BFC6B060EFE6F7F0EFF6F03013F
:100F6000016B006B015343E10051020840E3005163
:100F70000201FE5F010E0301026F020E036F046B9C
:100F8000FEC205F3000183DD010E0301026F036B56
:100F9000000172DF030102300201FD6F0301013025
:100FA0000201FC6FFD33FC33FD33FC331F0EFD17D4
:100FB000FF51FC17FD6B7F0ED880FC57000EFD57CC
:100FC000FC5302E1FD530EE000C301F30301006B8B
:100FD00000510201FC13030101510201FD13030141
:100FE00006D002010301002BD8B4012BBBD70201AC
:100FF000FCC201F0FDC202F0000105EF08F00201A1
:10100000FA6BF96BFB6B0001A3D702C0FAF201C0C7
:10101000F9F20201F95306E1FA5304E1FB69FBC25C
:1010200001F00CD1F951006EFA51036E010E035C10
:1010300006E1400E005C0001D8B4ABD002010350C1
:1010400006E1080E005C0001D8B4A6D00201010E32
:10105000035C06E1080E005C0001D8B4A1D00201D7
:10106000020E035C06E1080E005C0001D8B49CD0BF
:101070000201035006E1100E005C0001D8B498D0C4
:101080000201010E035C06E1100E005C0001D8B401
:1010900093D00201020E035C06E1100E005C000119
:1010A000D8B48ED00201035006E1200E005C00018E
:1010B000D8B48AD00201010E035C06E1200E005C68
:1010C0000001D8B485D00201020E035C06E1200EB7
:1010D000005C0001D8B480D00201035006E1010E8B
:1010E000005C0001D8B47CD00201020E035C06E172
:1010F000010E005C0001D8B477D00201035006E174
:10110000040E005C0001D8B473D00201020E035C2F
:1011100006E1040E005C0001D8B46ED00201035059
:1011200006E1400E005C0001D8B46AD00201020E54
:10113000035C06E1400E005C0001D8B465D00201FA
:10114000010E035C06E1010E005C0001D8B460D022
:101150000201035005E1020E005C00015DE00201A6
:10116000020E035C05E1020E005C000159E0020181
:10117000010E035C05E1040E005C000155E0020174
:10118000010E035C05E1020E005C000151E002016A
:1011900053D00201FB6B50D0010E0201FB6F4CD00B
:1011A000020E0201FB6F48D0030E0201FB6F44D018
:1011B000040E0201FB6F40D0050E0201FB6F3CD014
:1011C000060E0201FB6F38D0070E0201FB6F34D010
:1011D000080E0201FB6F30D0090E0201FB6F2CD00C
:1011E0000A0E0201FB6F28D00B0E0201FB6F24D008
:1011F0000C0E0201FB6F20D00D0E0201FB6F1CD004
:10120000120E0201FB6F18D0130E0201FB6F14D0F7
:101210000E0E0201FB6F10D0110E0201FB6F0CD0FD
:10122000100E0201FB6F08D00F0E0201FB6F04D0FD
:10123000140E0201FB6F00D0FBC201F0000112008E
:10124000010E0201FB6FFC6F0001B1DCE80EF66ECF
:10125000070EF76EFFDC000EF66E080EF76EFADC76
:10126000180EF66E080EF76EF5DC300EF66E080EF0
:10127000F76EF0DC12000201F86B0001C0DE01C065
:10128000F8F20201F83D01D006D00001B8DE01C03D
:10129000F8F2F7D70201000112000201E76B010E1C
:1012A000E86F0C0EFA6F0001B3DC1A0EF66E010E39
:1012B000F76ED0DC320EF66E010EF76ECBDC4A0E06
:1012C000F66E010EF76EC6DC620EF66E010EF76E5C
:1012D000C1DC95DE01C0E7F20201E7510A0A000114
:1012E00007E0010A05E0070A03E01E0A01E000D05A
:1012F0000201E7511208D8B403D00001EAD7020175
:101300000001B9DF62EF15F0EDC2FBF2110E020130
:10131000FC6F00014CDC7A0EF66E010EF76E9ADC63
:10132000010E0201FB6FFC6F000141DC0201EE6B5C
:10133000EE510308D8A06FD0EC51EE25000A000151
:1013400019E0010A1DE0030A21E0010A25E0070A6D
:1013500029E0010A2DE0030A31E0010A35E00F0A15
:1013600039E0010A3DE0030A41E0010A45E0070ACD
:1013700049E04ED07E0EF66E010EF76E6BDC48D063
:10138000920EF66E010EF76E65DC42D0A60EF66E7A
:10139000010EF76E5FDC3CD0BA0EF66E010EF76EF2
:1013A00059DC36D0CE0EF66E010EF76E53DC30D01F
:1013B000E20EF66E010EF76E4DDC2AD0F60EF66EDA
:1013C000010EF76E47DC24D00A0EF66E020EF76EA1
:1013D00041DC1ED01E0EF66E020EF76E3BDC18D0FE
:1013E000320EF66E020EF76E35DC12D0460EF66E39
:1013F000020EF76E2FDC0CD05A0EF66E020EF76E50
:1014000029DC06D06E0EF66E020EF76E23DC00D0DD
:101410000201EE2B8DD7000112002F882F9A959292
:101420008C82DEEF0AF095908C90120095948C845B
:10143000100E006E002EFED7000095948C942FA8FD
:1014400006D00201352BD8B4362B0AD00001020198
:10145000355302E1365304E03551D8B43607350729
:1014600000011200030E0201F05F0AE3020EEA6EB1
:10147000F00EE96EEF5004E001D000D0EF2EFDD762
:1014800000011200EACFF7F2E9CFF6F20201F039DB
:10149000F009F26FF227E20FF36F320FF56FF051A0
:1014A0000F0BF327F327F527E90FF46FF427F42741
:1014B000EF390F0BF427F527F437F537F51FF5371C
:1014C000EF510F0BF527F237070EF16F0A0EF407F5
:1014D000F527FDE3F307F427FDE3F207F327FDE328
:1014E000F107F227FDE3020EEA6EF10EE96E070E38
:1014F000F615F69DE926000EEA22E950F50804E10A
:10150000EA50020801E1F68DEF50006E08E1F6BDE9
:1015100006D0F6B916D0F6B702D0200E03D0F68763
:10152000F699300E0026EACFF0F2E9CFEFF200C0D4
:10153000FAF2000108EC06F0F0C2EAFFEFC2E9FFA0
:101540000201EE50F6ADD9D70001120095908C90B3
:1015500012002F982F8A95928C9211EF0BF00201B6
:10156000EE6B0C0EFA6F000108EC06F0820EF66EC0
:10157000020EF76E2AEC06F09A0EF66E020EF76E69
:101580002AEC06F0B20EF66E020EF76E2AEC06F0AA
:101590000201366B356B000132DD01C0EEF2020153
:1015A000EE51100A000109E0010A3AE01F0AD8B41E
:1015B0006AD0010AD8B468D068D02FD734DF640E5F
:1015C0000201FB6F0001DDEC04F019DD0150100891
:1015D0001AE12CDF020E0201EF6FF90EF06F00012D
:1015E00041DF0201EF2FF9D7020EFB6F030EFC6FF4
:1015F0000001D7EC05F0100EE96E36C2F0F235C2EC
:10160000EFF240DFE2D7FBDC013C01D001D0FBD799
:101610009DDF320E0201FB6F0001DDEC04F035D0DE
:1016200098D701DF640E0201FB6F0001DDEC04F0CE
:10163000E6DC015011081AE1F9DE020E0201EF6F3B
:10164000F90EF06F00010EDF0201EF2FF9D7020E45
:10165000FB6F030EFC6F0001D7EC05F0100EE96E76
:1016600036C2F0F235C2EFF20DDFE2D7C8DC013C42
:1016700001D001D0FBD76ADF320E0201FB6F0001FF
:10168000DDEC04F002D001D000D00201EE511208CE
:10169000D8B401D080D70001EEDD640E0201FB6FEB
:1016A0000001DDEC04F097EF14F002013D813D9361
:1016B000929889880001B0EF0BF0929689961200FB
:1016C000929A898A100E006E002EFED70000929A20
:1016D000899A02013DA304D03B2BD8B43C2B08D0FF
:1016E0003B5302E13C5304E03B51D8B43C073B0779
:1016F0000001120092968996120002013D913D83ED
:10170000929889980001E2EF0BF00201EE6B0C0E4B
:10171000FA6F000108EC06F0FA0EF66E020EF76E94
:101720002AEC06F00A0E0201FA6F000108EC06F03E
:101730000D0E0201FA6F000108EC06F0120EF66EB3
:10174000030EF76E2AEC06F05ADC01C0EEF202013D
:10175000EE510E0A000103E0010A33E065D0A5D77F
:10176000ACDF640E0201FB6F0001DDEC04F047DC2E
:1017700001500E0819E1A4DF020E0201EF6FF90E0D
:10178000F06F00016FDE0201EF2FF9D7030EFB6F40
:10179000FC6F0001D7EC05F0100EE96E3CC2F0F2D0
:1017A0003BC2EFF26FDEE3D72ADC013C01D001D06F
:1017B000FBD7A0DF320E0201FB6F0001DDEC04F06D
:1017C00033D09BD77ADF640E0201FB6F0001DDECA2
:1017D00004F015DC01500F0819E172DF020E02015E
:1017E000EF6FF90EF06F00013DDE0201EF2FF9D728
:1017F000030EFB6FFC6F0001D7EC05F0100EE96ED5
:101800003CC2F0F23BC2EFF23DDEE3D7FFEC07F063
:10181000013C01D001D0FAD76DDF320E0201FB6F1F
:101820000001DDEC04F000D00201EE511208D8B442
:1018300003D0000189D7020100011DDD640E020101
:10184000FB6F0001DDEC04F097EF14F002013D8521
:101850003D9796928D92000182EF0CF096908D90BC
:10186000120096948D84100E006E002EFED700009C
:1018700096948D9402013DA504D0392BD8B43A2B0F
:1018800008D0395302E13A5304E03951D8B43A0749
:1018900039070001120096908D90120002013D95CB
:1018A0003D8796928D820001B6EF0CF00201EE6B3F
:1018B0000C0EFA6F000108EC06F0CA0EF66E020E6E
:1018C000F76E2AEC06F00A0E0201FA6F000108EC2E
:1018D00006F00D0E0201FA6F000108EC06F0E20EB0
:1018E000F66E020EF76E2AEC06F0FFEC07F001C070
:1018F000EEF20201EE51100A000103E0010A35E0A8
:1019000069D0A4D7ABDF640E0201FB6F0001DDECF0
:1019100004F0FFEC07F00150100819E1A2DF020EFD
:101920000201EF6FF90EF06F00019CDD0201EF2F55
:10193000F9D7030EFB6FFC6F0001D7EC05F0100E1A
:10194000E96E3AC2F0F239C2EFF29CDDE2D7FFEC69
:1019500007F0013C01D001D0FAD79DDF320E020121
:10196000FB6F0001DDEC04F035D098D777DF640E13
:101970000201FB6F0001DDEC04F0FFEC07F0015009
:10198000110819E16EDF020E0201EF6FF90EF06F20
:10199000000168DD0201EF2FF9D7030EFB6FFC6F2A
:1019A0000001D7EC05F0100EE96E3AC2F0F239C230
:1019B000EFF268DDE2D7FFEC07F0013C01D001D087
:1019C000FAD769DF320E0201FB6F0001DDEC04F093
:1019D00001D000D00201EE511208D8B403D00001AA
:1019E00084D70201000147DC640E0201FB6F000195
:1019F000DDEC04F097EF14F0036A010E026E0201B1
:101A0000EF51006E05E0D89002360336002EFBD76A
:101A100002501C1203501D121CC0F1F21DC0F2F244
:101A2000020E0301026F036FF2C204F3F1C205F369
:101A3000000147EC05F01200036A010E026E02017C
:101A4000EF51006E05E0D89002360336002EFBD72A
:101A50000250FF0A006EFF0E031A00501C160350BE
:101A60001D161CC0F1F21DC0F2F2020E0301026F3E
:101A7000036FF2C204F3F1C205F3000147EC05F075
:101A800012009488050E006E002EFED79486060E76
:101A9000006E002EFED78B989498050E006E002ED7
:101AA000FED78B969496D8900201F4357109F66FA3
:101AB000E8CF08F300016BEC04F0006A07EC07F0D4
:101AC00001C0F5F294980000948682A6FED7050E18
:101AD000006E002EFED700D000009488050E006E28
:101AE000002EFED72F760201F5C201F00001120090
:101AF0000201F26BF16BF36BEF510F083CE3030E45
:101B00000301026F036B00013CEC07F002C0F2F22C
:101B100001C0F1F2F2C203F00201F1C202F0EF5192
:101B2000006E05E0D89003320232002EFBD702503F
:101B300002B01DD0310E006E002EFED700D0F2C2D2
:101B400003F0F1C202F0EF51006E05E0D8900332CD
:101B50000232002EFBD7025002B004D0F081010EF9
:101B6000016ECAD0F091000E016EC6D004D0F09183
:101B7000000E016EC1D0EF510F0838E2EF51170887
:101B800035E3040EF46F00017CDF01C0F3F2100EA8
:101B90000201EF5DF46FF3C200F0F451016E04E056
:101BA000D8900032012EFCD700B01CD0310E006E50
:101BB000002EFED700D0100EEF5DF46FF3C200F0E0
:101BC000F451016E04E0D8900032012EFCD700B031
:101BD00004D0F081010E016E8FD0F091000E016EE5
:101BE0008BD004D0F091000E016E86D0EF51170813
:101BF000D8B082D0EF511B08D8A07ED0180EEF5D70
:101C0000FC0FD8B079D0040F00017EEF0EF0938066
:101C100081B014D0310E006E002EFED700D093801C
:101C200081B006D00201F081010E016E65D0000185
:101C30000201F091000E016E5FD005D00201F0911B
:101C4000000E016E59D058D0938281B214D0310E5B
:101C5000006E002EFED700D0938281B206D0020122
:101C6000F081010E016E48D000010201F091000EDA
:101C7000016E42D005D00201F091000E016E3CD001
:101C80003BD0938681B614D0310E006E002EFED765
:101C900000D0938681B606D00201F081010E016E5C
:101CA0002BD000010201F091000E016E25D005D06D
:101CB0000201F091000E016E1FD01ED0938881B8F2
:101CC00014D0310E006E002EFED700D0938881B85C
:101CD00006D00201F081010E016E0ED0000102015A
:101CE000F091000E016E08D005D00201F091000EB7
:101CF000016E02D001D0020100011200F2CF0DF0FE
:101D0000F29EE824F76AF736210FF66E1D0EF722D1
:101D10000A00F550FA6E0800F5500DBEF28EF96E0D
:101D20000E1C481C821CBC1C0201EE6B0C0EFA6FD0
:101D3000000108EC06F02A0EF66E030EF76E2AEC90
:101D400006F0400EF66E030EF76E2AEC06F0580E03
:101D5000F66E030EF76E2AEC06F0700EF66E030EAA
:101D6000F76E2AEC06F0FFEC07F001C0EEF202017C
:101D7000EE510A0A000103E0010A0EE01AD0020146
:101D8000F06B050EEF6F000137DE0201F06B060EFF
:101D9000EF6F000151DE0DD00201F06B060EEF6F08
:101DA00000012ADE0201F06B050EEF6F000144DE38
:101DB00000D0030E0201EF6F00019ADE012C0FD05C
:101DC000020E0201FB6F120EFC6F0001D7EC05F052
:101DD000880EF66E030EF76E2AEC06F00ED0020E99
:101DE0000201FB6F120EFC6F0001D7EC05F08C0EA8
:101DF000F66E030EF76E2AEC06F0040E0201EF6F8A
:101E0000000176DE012C0FD0030E0201FB6F120ED3
:101E1000FC6F0001D7EC05F0900EF66E030EF76E26
:101E20002AEC06F00ED0030E0201FB6F120EFC6FBF
:101E30000001D7EC05F0940EF66E030EF76E2AEC57
:101E400006F00201EF6B000153DE012C0FD0040EEF
:101E50000201FB6F120EFC6F0001D7EC05F0980E2B
:101E6000F66E030EF76E2AEC06F00ED0040E020199
:101E7000FB6F120EFC6F0001D7EC05F09C0EF66EA6
:101E8000030EF76E2AEC06F00201EE511208D8B4E8
:101E900003D0000168D7020100013BEC09F0640E99
:101EA0000201FB6F0001DDEC04F097EF14F002017A
:101EB000EE6B0C0EFA6F000108EC06F0A00EF66E49
:101EC000030EF76E2AEC06F00A0E0201FA6F00010B
:101ED00008EC06F00D0E0201FA6F000108EC06F0A6
:101EE000B20EF66E030EF76E2AEC06F0CA0EF66E10
:101EF000030EF76E2AEC06F0FFEC07F001C0EEF2DD
:101F00000201EE510A0A000103E0010A08E00ED0C6
:101F10000201F06B070EEF6F00018EDD07D00201AA
:101F2000F06B070EEF6F000167DD00D0010E0201BC
:101F3000EF6F0001DDDD012C0FD0030E0201FB6FFE
:101F4000120EFC6F0001D7EC05F0E20EF66E030EE8
:101F5000F76E2AEC06F00ED0030E0201FB6F120E94
:101F6000FC6F0001D7EC05F0E60EF66E030EF76E7F
:101F70002AEC06F0020E0201EF6F0001B9DD012C20
:101F80000FD0040E0201FB6F120EFC6F0001D7ECA4
:101F900005F0EA0EF66E030EF76E2AEC06F00ED090
:101FA000040E0201FB6F120EFC6F0001D7EC05F06E
:101FB000EE0EF66E030EF76E2AEC06F00201EE51FD
:101FC0001208D8B403D0000197D7020100013BECFE
:101FD00009F0640E0201FB6F0001DDEC04F097EFE5
:101FE00014F00201EE6B0C0EFA6F000108EC06F023
:101FF000F20EF66E030EF76E2AEC06F00A0E0201E0
:10200000FA6F000108EC06F00D0E0201FA6F0001F4
:1020100008EC06F00A0EF66E040EF76E2AEC06F0D7
:10202000220EF66E040EF76E2AEC06F0FFEC07F0B7
:1020300001C0EEF20201EE510A0A000103E0010ABA
:1020400008E00ED00201F06B040EEF6F0001F4DC2B
:1020500007D00201F06B040EEF6F0001CDDC00D061
:10206000050E0201EF6F000143DD012C0FD0030EBE
:102070000201FB6F120EFC6F0001D7EC05F03A0E67
:10208000F66E040EF76E2AEC06F00ED0030E020177
:10209000FB6F120EFC6F0001D7EC05F03E0EF66EE2
:1020A000040EF76E2AEC06F0060E0201EF6F000137
:1020B0001FDD012C0FD0040E0201FB6F120EFC6F0E
:1020C0000001D7EC05F0420EF66E040EF76E2AEC16
:1020D00006F00ED0040E0201FB6F120EFC6F000121
:1020E000D7EC05F0460EF66E040EF76E2AEC06F0FD
:1020F0000201EE511208D8B403D0000197D70201B3
:1021000000013BEC09F0640E0201FB6F0001DDEC05
:1021100004F097EF14F00201EE6B0C0EFA6F000161
:1021200008EC06F04A0EF66E040EF76E2AEC06F086
:102130000A0E0201FA6F000108EC06F00D0E020112
:10214000FA6F000108EC06F0620EF66E040EF76EF0
:102150002AEC06F07A0EF66E040EF76E2AEC06F004
:10216000FFEC07F001C0EEF20201EE510A0A000195
:1021700003E0010A0DE018D00201F06B0F0EEF6FC3
:1021800000013ADC0201F06BEF6B000155DC0CD072
:102190000201F06BEF6B00012FDC0201F06B0F0E00
:1021A000EF6F000149DC00D0160E0201EF6F000155
:1021B0009FDC012C0FD0030E0201FB6F120EFC6F8F
:1021C0000001D7EC05F0920EF66E040EF76E2AECC5
:1021D00006F00ED0030E0201FB6F120EFC6F000121
:1021E000D7EC05F0960EF66E040EF76E2AEC06F0AC
:1021F000170E0201EF6F00017BDC012C0FD0040EE3
:102200000201FB6F120EFC6F0001D7EC05F09A0E75
:10221000F66E040EF76E2AEC06F00ED0040E0201E4
:10222000FB6F120EFC6F0001D7EC05F09E0EF66EF0
:10223000040EF76E2AEC06F00201EE511208D8B433
:1022400003D000018DD7020100013BEC09F0640EC0
:102250000201FB6F0001DDEC04F097EF14F00201C6
:10226000EE6B0C0EFA6F000108EC06F0A20EF66E93
:10227000040EF76E2AEC06F00A0E0201FA6F000156
:1022800008EC06F00D0E0201FA6F000108EC06F0F2
:10229000BA0EF66E040EF76E2AEC06F0D20EF66E4B
:1022A000040EF76E2AEC06F0FFEC07F001C0EEF228
:1022B0000201EE510A0A000103E0010A09E010D010
:1022C0000201F06B010EEF6F00011CEC0DF008D065
:1022D0000201F06B010EEF6F0001FCEC0CF000D07E
:1022E000140E0201EF6F000103DC012C0FD0030E6E
:1022F0000201FB6F120EFC6F0001D7EC05F0EA0E35
:10230000F66E040EF76E2AEC06F00ED0030E0201F4
:10231000FB6F120EFC6F0001D7EC05F0EE0EF66EAF
:10232000040EF76E2AEC06F0150E0201EF6F0001A5
:1023300078EC0DF0012C0FD0040E0201FB6F120E91
:10234000FC6F0001D7EC05F0F20EF66E040EF76E8E
:102350002AEC06F00ED0040E0201FB6F120EFC6F89
:102360000001D7EC05F0F60EF66E040EF76E2AECBF
:1023700006F00201EE511208D8B403D0000194D740
:10238000020100013BEC09F0640E0201FB6F000149
:10239000DDEC04F097EF14F00201EE6B0C0EFA6F17
:1023A000000108EC06F0FA0EF66E040EF76E2AEC49
:1023B00006F00A0E0201FA6F000108EC06F00D0E9D
:1023C0000201FA6F000108EC06F0120EF66E050E1F
:1023D000F76E2AEC06F0260EF66E050EF76E2AEC66
:1023E00006F0FFEC07F001C0EEF20201EE510A0A1E
:1023F000000103E0010A09E010D00201F06B0E0EAB
:10240000EF6F00011CEC0DF008D00201F06B0E0E16
:10241000EF6F0001FCEC0CF000D00201EE5112084D
:10242000D8B403D00001DDD7020100013BEC09F074
:10243000640E0201FB6F0001DDEC04F097EF14F075
:102440000201EE6B0C0EFA6F000108EC06F03A0E7A
:10245000F66E050EF76E2AEC06F00A0E0201FA6F10
:10246000000108EC06F00D0E0201FA6F000108EC05
:1024700006F0520EF66E050EF76E2AEC06F0600EB0
:10248000F66E050EF76E2AEC06F0FFEC07F001C0C1
:10249000EEF20201EE510A0A000103E0010A09E02E
:1024A00010D00201F06B0D0EEF6F00011CEC0DF06F
:1024B00008D00201F06B0D0EEF6F0001FCEC0CF088
:1024C00000D00201EE511208D8B403D00001DDD7CC
:1024D000020100013BEC09F0640E0201FB6F0001F8
:1024E000DDEC04F097EF14F00201EE6B0C0EFA6FC6
:1024F000000108EC06F06E0EF66E050EF76E2AEC83
:1025000006F00A0E0201FA6F000108EC06F00D0E4B
:102510000201FA6F000108EC06F0840EF66E050E5B
:10252000F76E2AEC06F09C0EF66E050EF76E2AEC9E
:1025300006F0FFEC07F001C0EEF20201EE510A0ACC
:10254000000103E0010A09E010D00201F06B030E64
:10255000EF6F00011CEC0DF008D00201F06B030ED0
:10256000EF6F0001FCEC0CF000D0100E0201EF6FD9
:10257000000178EC0DF0012C0FD0030E0201FB6F6F
:10258000120EFC6F0001D7EC05F0B40EF66E050ECE
:10259000F76E2AEC06F00ED0030E0201FB6F120E4E
:1025A000FC6F0001D7EC05F0B80EF66E050EF76E65
:1025B0002AEC06F0110E0201EF6F000178EC0DF02D
:1025C000012C0FD0040E0201FB6F120EFC6F0001F4
:1025D000D7EC05F0BC0EF66E050EF76E2AEC06F091
:1025E0000ED0040E0201FB6F120EFC6F0001D7EC3F
:1025F00005F0C00EF66E050EF76E2AEC06F002012D
:10260000EE511208D8B403D0000193D702010001A3
:102610003BEC09F0640E0201FB6F0001DDEC04F0FD
:1026200097EF14F00201F9BF12D00F0E006EF839C7
:1026300000160A0E005C03E2300E002602D0F951AB
:10264000002600C0FAF2000108EC06F002010F0EAD
:10265000F8170A0EF85D02E2300E02D0F99FF95128
:10266000F827F8C2FAF2000108EC06F012000201A5
:10267000EE6BF06BEF6BF16B0C0EFA6F000108EC78
:1026800006F0AE0EF66E070EF76E2AEC06F0FFECC3
:1026900007F001C0EEF2020E0201FB6F050EFC6FA7
:1026A0000001D7EC05F0030E0301026F036B00017C
:1026B0003CEC07F002C0F0F201C0EFF2F0C2F8F219
:1026C000370E0201F96F0001ADDFEFC2F8F2370EED
:1026D0000201F96F0001A6DF040E0201F46F000190
:1026E00041EC0DF001C0F1F2030E0201FB6F050E8B
:1026F000FC6F0001D7EC05F0F1C2F8F2370E0201D1
:10270000F96F00018FDF0A0E0201FB6F0001DDECA3
:1027100004F00201EE511208D8B403D00001B7D77B
:10272000020100013BEC09F0640E0201FB6F0001A5
:10273000DDEC04F097EF14F00201EE6BF06BEF6B41
:10274000F16B0C0EFA6F000108EC06F0C20EF66E8B
:10275000070EF76E2AEC06F0FFEC07F001C0EEF270
:10276000020E0201FB6F050EFC6F0001D7EC05F0B5
:10277000030E0301026F036B00013CEC07F002C083
:10278000F0F201C0EFF2F0C2F8F2370E0201F96F79
:10279000000148DFEFC2F8F2370E0201F96F0001C5
:1027A00041DF0201EFC2F3F2F0C2F4F2070EF66F5E
:1027B000F56BF551070827E3F3C200F0F551016E00
:1027C00004E0D8900032012EFCD700A00DD0010EFD
:1027D000006EF651016E04E0D8900036012EFCD751
:1027E0000050F713F6070DD0010E006EF651016E82
:1027F00004E0D8900036012EFCD70050FF0AF717EE
:10280000F607F52BD6D7F7C2F3F2070EF66FF56B86
:10281000F551070827E3F4C200F0F551016E04E01A
:10282000D8900032012EFCD700A00DD0010E006E12
:10283000F651016E04E0D8900036012EFCD700500E
:10284000F713F6070DD0010E006EF651016E04E08D
:10285000D8900036012EFCD70050FF0AF717F60774
:10286000F52BD6D7F7C2F4F2020E0301026F036F05
:10287000F4C204F3F3C205F3000147EC05F00A0EBD
:102880000201FB6F0001DDEC04F00201EE511208C1
:10289000D8B403D0000160D7020100013BEC09F07D
:1028A000640E0201FB6F0001DDEC04F097EF14F001
:1028B0000201ED51EC25010A000119E0030A1AE0BA
:1028C000010A1BE0070A1CE0010A1DE0030A1EE0E2
:1028D000010A1FE00F0A1FE0010A1FE0030A1FE0C0
:1028E000010A1FE0070A1FE0010A1FE020D0AFEF36
:1028F0000AF01DD085EF0BF01AD056EF0CF017D070
:1029000094EF0EF014D057EF0FF011D0F1EF0FF05D
:102910000ED001D40CD0A3D40AD03ED508D090D587
:1029200006D0E2D504D0A3D602D006D700D034EF2B
:1029300015F00201E76BE86BE96B010EEA6F0D0E13
:10294000EB6F0C0EFA6F000108EC06F00201E76B6A
:10295000E75103080AE3E8C2ECF2EAC2EDF2000133
:1029600084EC09F00201E72BF3D7010EFB6F110E87
:10297000FC6F0001D7EC05F0D40EF66E070EF76E73
:102980002AEC06F0FFEC07F001C0E9F20201E95180
:102990000E0A000105E0010A32E01C0A60E064D082
:1029A000EAC2FBF2110E0201FC6F0001D7EC05F048
:1029B000D80EF66E070EF76E2AEC06F00201EA0753
:1029C000EA530FE1010EEA6FE807E83D01D0E86B3A
:1029D000E8C2ECF2EAC2EDF2000184EC09F00ED09C
:1029E0000201EAC2FBF2110EFC6F0001D7EC05F008
:1029F000DC0EF66E070EF76E2AEC06F035D0EAC252
:102A0000FBF2110E0201FC6F0001D7EC05F0E00EA5
:102A1000F66E070EF76E2AEC06F00201EA2BEA5179
:102A200004080FE2040EEA6FEB5DE85D01E2E82BBB
:102A3000E8C2ECF2EAC2EDF2000184EC09F00ED03B
:102A40000201EAC2FBF2110EFC6F0001D7EC05F0A7
:102A5000E40EF66E070EF76E2AEC06F005D0E8C21B
:102A6000ECF2EAC2EDF224D7C80E0201FB6F0001BE
:102A7000DDEC04F00201E9511208D8B403D00001E2
:102A800081D7020100013BEC09F0640E0201FB6FEB
:102A90000001DDEC04F066EF15F00201E66B0001C9
:102AA00020EC09F0FFEC07F001C0E6F20201E6516C
:102AB0000A0A000105E0010A08E0190A0AE00AD042
:102AC0004DEF09F020EC09F005D033D720EC09F0E8
:102AD00001D000D00201E6511208D8B403D00001A1
:102AE000E1D7020100013BEC09F0BEEF15F0020155
:102AF000E56B0001B3EC06F0FFEC07F001C0E5F276
:102B00000201E53D01D040D0E5510E0A000105E08B
:102B1000010A19E01B0A31E034D00201312B020E08
:102B2000FB6F060EFC6F0001D7EC05F0010E0201F1
:102B30003125E66FE76F110EE86F000150EC06F0EB
:102B4000B3EC06F01ED00201315315E03107020E3E
:102B5000FB6F060EFC6F0001D7EC05F0010E0201C1
:102B60003125E66FE76F110EE86F000150EC06F0BB
:102B7000B3EC06F00201000104D08FD78EEC06F012
:102B800000D03BEC09F0020100010CEF17F0F86AED
:102B9000D09E078E010E2D6E2E6E02015A6B3D994E
:102BA0003D9B3D9D646B636BC150C00B0F09C16EB3
:102BB000070EB46E166A176A666B656B640E6B6FF0
:102BC0006C6B500E6D6F6E6B780E6F6F706B320E9C
:102BD000716F726B960E736F746B640E756F766B9C
:102BE000C80E776F786B1E0E796F7A6B5A0E7B6FFB
:102BF0007C6B780E7D6F7E6B4C0E7F6F040E806F4A
:102C0000F40E816F010E826F640E836F846BBC0EB5
:102C1000856F020E866FF40E876F010E886F840E2B
:102C2000896F030E8A6FBC0E8B6F020E8C6FE80EDD
:102C30008D6F030E8E6F1E0E8F6F906B640E916FF3
:102C4000926B140E936F946B0C0E956F966B8C0EAB
:102C5000976F986B640E996F9A6B780E9B6F9C6B55
:102C6000320E9D6F9E6B500E9F6FA06B640EA16F16
:102C7000A26B1E0EA36FA46B640EA56FA66BA76F4D
:102C8000A86BF40EA96F010EAA6F200EAB6F030E96
:102C9000AC6FBC0EAD6F020EAE6FE80EAF6F030EE1
:102CA000B06F1E0EB16FB26B840EB36F030EB46FB4
:102CB000B00EB56F040EB66F5A0EB76FB86B2C0E10
:102CC000B96F010EBA6F640EBB6FBC6B1E0EBD6F89
:102CD000BE6B840EBF6F030EC06FB00EC16F040ECB
:102CE000C26F5A0EC36FC46B2C0EC56F010EC66F38
:102CF000E80EC76F030EC86F1E0EC96FCA6BF40EC5
:102D0000CB6F010ECC6F2C0ECD6F010ECE6FE80E87
:102D1000CF6F030ED06FF40ED16F010ED26FD00EB5
:102D2000D36F070ED46FBC0ED56F020ED66F320E66
:102D3000D76FD86BF40ED96F010EDA6F840EDB6F8C
:102D4000030EDC6FB00EDD6F040EDE6F840EDF6FDE
:102D5000030EE06F320EE16FE26BE46BE36BC29047
:102D6000F00EBD16BA16F29CF29EF2BEFDD79698F2
:102D700094948B9494928B9294908B8095948C9451
:102D800095928C9295908C80929A899A9298899833
:102D90009296898696948D9496928D9296908D8037
:102DA000000167EF04F016EF05F08CEF05F0A2EFDD
:102DB00005F0ADEF05F0B8EF05F00C0E0201FA6F6B
:102DC000000108EC06F08C0EF66E080EF76E2AEC89
:102DD00006F0A20EF66E080EF76E2AEC06F0B80E9C
:102DE000F66E080EF76E2AEC06F0040E0201E56F8F
:102DF000FA0EFB6F0001DDEC04F00201E52FF8D7BD
:102E000000018EEC06F00201366B356B386B376BC8
:0C2E10003A6B396B00016BD6FED7030053
:020000040030CA
:0E00000000C21E1E0087810000C00FE00F40EE
:00000001FF
;PIC18F4620
;CRC=AD3F  CREATED="12-jun-17 17:11"
