:04000000B4EF57F012
:08000800046ED8CF05F0E0CF33
:1000100006F00001E9CF0CF0EACF07F0E1CF08F0DD
:10002000E2CF09F0D9CF0AF0DACF0BF0F3CF12F01C
:10003000F4CF13F0FACF14F000C00EF001C00FF0AF
:1000400002C010F003C011F0F2AA2AEF00F0F2B4DF
:10005000ECEF0DF09DA030EF00F09EB015EF0EF02C
:10006000A0A236EF00F0A1B219EF0EF0F0A63CEF1F
:1000700000F0F0B02DEF0EF00EC000F00FC001F058
:1000800010C002F011C003F00CC0E9FF07C0EAFF86
:10009000078E08C0E1FF09C0E2FF0AC0D9FF0BC00C
:1000A000DAFF12C0F3FF13C0F4FF14C0FAFF0450CC
:1000B00006C0E0FF05C0D8FF10006572726F2064B3
:1000C00065206573637269746120000020202045FB
:1000D0004550524F4D2020202020202000006572E6
:1000E000726F206465206C656974757261202000F0
:1000F0002020202020454550524F4D2020202020F8
:100100002000202020202020204549584F205859E9
:100110002020202020200A0D0000583A30303030B6
:1001200020202020202020202020202020200A0DF8
:100130000000593A3030303020202020202020206C
:100140002020202020200A0D000020204549584F63
:1001500020524F544143494F4E414C2020200A0D1C
:1001600000005A3A3030303020202020202020203B
:100170002020202020200A0D0000202020202020E8
:100180002020204549584F205A202020200A0D00C9
:10019000523A3030303020202020202020202020D3
:1001A000202020200A0D000020454D50555252417C
:1001B000444F5220454E54524144410A0D004631AD
:1001C0003A4156414E434120202020535F413A4F4F
:1001D00046460A0D000046323A524543554120201A
:1001E000202020535F523A4F46460A0D000020203F
:1001F00020202020202020535F504C4143413A4F83
:1002000046460A0D00004F4E20004F4646004F4E16
:1002100020004F46460020204445444F5320454E81
:1002200054524144410A0D0046313A4156414E4331
:1002300041202020535F41313A4F46460A0D0000CD
:1002400046323A524543554120202020535F4132E7
:100250003A4F46460A0D00004F4E20004F464600DA
:100260004F4E20004F4646002020202020202020F6
:1002700050524553534F5220202020200A0D000099
:1002800046313A4156414E434120202020535F41A0
:100290003A4F46460A0D000046323A524543554110
:1002A0002020202020535F523A4F46460A0D00007E
:1002B0004F4E20004F4646002020204449535045D1
:1002C0004E5341444F5220202020200A0D00463139
:1002D0003A4156414E434120202020535F413A4F3E
:1002E00046460A0D000046323A5245435541202009
:1002F000202020535F523A4F46460A0D00004F4ED1
:1003000020004F4646004F4E20004F46460020201A
:100310002020204445444F5320534149444120204C
:1003200020200A0D000046313A4156414E434120FB
:10033000202020535F413A4F46460A0D00004632C6
:100340003A52454355412020202020535F523A4FD6
:1003500046460A0D00004F4E20004F4646004F4EC5
:1003600020004F4646002020202020204C494D50A0
:1003700041444F522020202020200A0D0000463109
:100380003A4C494741202020202020202020200ACC
:100390000D0046313A4445534C4947412020202026
:1003A0002020200A0D0020202020204553544549BC
:1003B000524120202020202020200A0D000046311C
:1003C0003A4156414E434120202020535F413A4F4D
:1003D00046460A0D000046323A5245435541202018
:1003E000202020202020202020200A0D00004F4E19
:1003F00020004F46460020414C494D454E54414453
:100400004F5220534F4C444120200A0D00004631EA
:100410003A203120202046333A203320202020204B
:1004200020200A0D000046323A20322020202020D1
:10043000202020202020202020200A0D0000202025
:10044000464552524F20534F4C44412031202020EA
:100450000A0D000046313A4156414E4341202020CA
:1004600020535F413A4F46460A0D000046323A5249
:10047000454355412020202020535F523A4F4646A5
:100480000A0D00004F4E20004F46460020204645F2
:1004900052524F20534F4C444120322020200A0D0D
:1004A000000046313A4156414E434120202020531E
:1004B0005F413A4F46460A0D000046323A524543E4
:1004C00055412020202020535F523A4F46460A0DC6
:1004D00000004F4E20004F464600535F4445444FB6
:1004E0005F494E5F4C53312009202020202000001E
:1004F000535F4445444F5F494E5F4C5332200920BF
:10050000202020200000535F454D50555252414459
:100510004F525F494E5F4C5331092000535F454DA8
:100520005055525241444F525F494E5F4C53322016
:100530002000535F50524553534F525F4C5331206C
:1005400020202009200020535F585F44495245492C
:1005500054412020202009200000535F585F45535C
:1005600051554552444120202020202020092000C0
:10057000535F595F4652454E54452020202020208D
:10058000202009200000535F595F415452415320FD
:100590002020202020200920000050524F544543A5
:1005A000414F3109202020202009200050524F5473
:1005B0004543414F31202020202020092000535F57
:1005C000524F544143414F5F4C5331202020202053
:1005D00009200000535F464552524F5F534F4C4431
:1005E0004131202020092000535F5A5F544F502092
:1005F00020202020202020092000535F5A5F424FF6
:1006000054544F4D2020202020202020092000007D
:10061000535F464552524F5F534F4C444132202066
:1006200009200000535F4445444F5F4F55545F31EC
:1006300020202020202020200000535F4445444FEC
:100640005F4F55545F320920202020200000535F67
:10065000454D5055525241444F525F4F55545F4C97
:1006600053310000535F454D5055525241444F5253
:100670005F4F55545F4C5332000020535F585F4327
:10068000454E54524F2020202020202009200000D9
:1006900020535F595F43454E54524F202020202065
:1006A00020202020000020535F46494F5F534F4CCD
:1006B00044413120202020202020000020535F468C
:1006C000494F5F534F4C44413209202020202000E5
:1006D00020535F46494F5F534F4C44413320202005
:1006E000202020200000202044454255472053452B
:1006F0004E534F5245530A0D0000202044454255A9
:1007000047205341494441530A0D0000504F53497B
:10071000434F4553204D415155494E410A0D00006C
:1007200020202020202020202020202020202020C9
:100730000A0D0000504F534943414F20484F4D454B
:10074000312020202020200A0D00202020202020E1
:10075000202020202020202020202020200A0D00E2
:10076000504F534943414F20484F4D4532202020A0
:100770002020200A0D0020202020202020202020C2
:100780002020202020202020200A0D00504F5349F7
:1007900043414F20414C494D454E5441444F520A2C
:1007A0000D0020202020202020202020202020207C
:1007B00020202020200A0D00504F534943414F2054
:1007C000534F4C44412020202020200A0D0020457A
:1007D00053544147494F3120202020202020202001
:1007E000200A0D00504F534943414F20534F4C4472
:1007F000412020202020200A0D002045535441474D
:10080000494F32202020202020202020200A0D00C7
:10081000504F534943414F2044495350454E534153
:10082000444F520A0D00202020202020202020208C
:100830002020202020202020200A0D00504F534946
:1008400043414F20484F4D45203320202020200A8F
:100850000D002020202020202020202020202020CB
:1008600020202020200A0D002020202020202020D1
:100870002053544F502020202020200A0D002020FB
:100880002020202020202020202020202020202068
:10089000200A0D00313A484F4D4531202020353A8D
:1008A000455354414732200A0D00323A484F4D45D6
:1008B00032202020363A444953502E20200A0D0081
:1008C000333A414C494D454E5420373A494E444500
:1008D0005445520A0D00343A4553544147312020C3
:1008E000383A53544F502020200A0D00504F53499E
:1008F00043414F20484F4D45312020202020200AE1
:100900000D0020202020202020202020202020201A
:1009100020202020200A0D00504F534943414F20F2
:10092000484F4D45322020202020200A0D00202055
:1009300020202020202020202020202020202020B7
:10094000200A0D00504F534943414F20414C494D1F
:10095000454E5441444F520A0D00202020202020B3
:10096000202020202020202020202020200A0D00D0
:10097000504F534943414F20534F4C444120202076
:100980002020200A0D00204553544147494F312073
:100990002020202020202020200A0D00504F5349E5
:1009A00043414F20534F4C44412020202020200A17
:1009B0000D00204553544147494F3220202020202C
:1009C00020202020200A0D00504F534943414F2042
:1009D00044495350454E5341444F520A0D00202084
:1009E0002020202020202020202020202020202007
:1009F000200A0D00504F534943414F20484F4D4569
:100A0000332020202020200A0D002020202020201C
:100A1000202020202020202020202020200A0D001F
:100A200020202020202020202053544F5020202000
:100A30002020200A0D0020202020202020202020FF
:100A40002020202020202020200A0D00313A484F6D
:100A50004D4531202020353A455354414732200A34
:100A60000D00323A484F4D4532202020363A444955
:100A700053502E20200A0D00333A414C494D454E2B
:100A80005420373A494E44455445520A0D00343AF1
:100A90004553544147312020383A53544F50202079
:100AA000200A0D00534F4C4441444F5220415554AD
:100AB0004F4D415449434F200A0D000050524F47BB
:100AC0003A202020204D415155494E413A202020C6
:100AD0000A0D00004D4F443A2020202020202020E5
:100AE00020202020202020200A0D0000202020008F
:100AF0003C2D2D004E455700202020202020202076
:100B0000000046313A454449542000004553433AD9
:100B1000534149200000504F4E544F3A202020208E
:100B2000202020202020202020200A0D0000583ADC
:100B30003030303020202020202020202020202075
:100B400020200A0D0000593A303030302020204556
:100B50004E5445523A53414C56410A0D00005A3A00
:100B6000303030302020204553433A534149202033
:100B700020200A0D000020202020202020202045B9
:100B80004E5445523A45444954410A0D0000202034
:100B90002020202020202046323A43524941202064
:100BA00020200A0D00002020202020202020204688
:100BB000333A44454C20202020200A0D00002020FC
:100BC0002020202020202046343A534F4C444120FE
:100BD000502E0A0D000054454D2043455254455AAD
:100BE000413F000046313D53494D000046323D4EE5
:100BF000414F0000434F4F52442E20464F52414D2B
:100C00002053414C56415300504F534943494F4E96
:100C100045204120504C4143412020200A0D000036
:100C20004520505245535320454E544552202020D4
:100C3000202020200A0D00005041524120414C4903
:100C40004D454E5441522020202020200A0D000006
:100C50002020202020202020202020202020202094
:100C6000202020200A0D00004553504552414E449B
:100C70004F20204D415155494E41310A0D004952F6
:100C8000205041524120484F4D4531202020202006
:100C90002000504F534943494F4E45204120504C6E
:100CA0004143412020200A0D000045205052455369
:100CB0005320454E544552202020202020200A0D4C
:100CC00000005041524120414C494D454E54415243
:100CD0002020202020200A0D00002020202020207D
:100CE00020202020202020202020202020200A0D2D
:100CF00000003C2D2D003C2D2D00202020003C2DFF
:100D00002D00202020003C2D2D00494E444F205026
:100D100041524120504F534943414F2020200A0D5A
:100D20000000444520414C494D454E544143414FFC
:100D30002020202020200A0D0000494E444F205042
:100D400041524120504F534943414F2020200A0D2A
:100D50000000202020202020484F4D453120202019
:100D60002020202020200A0D00004549584F2058FF
:100D70002C592020202020202020202020200A0D57
:100D800000004549584F20205A20202020202020B4
:100D90002020202020200A0D00004549584F2052D5
:100DA0004F544143494F4E414C20202020200A0DF2
:100DB0000000454D5055525241444F5220454E542B
:100DC0002E20202020200A0D00004445444F5320AF
:100DD000454E5452414441202020202020200A0D1D
:100DE000000050524553534F5220202020202020F5
:100DF0002020202020200A0D0000454D5055525241
:100E000041444F52205341494441202020200A0DA3
:100E100000004445444F5320534149444120202081
:100E20002020202020200A0D00004C494D50414434
:100E30004F522020202020202020202020200A0D7A
:100E40000000414C494D454E542E20534F4C4441D7
:100E50002020202020200A0D0000464552524F201D
:100E6000444520534F4C44412031202020200A0D7E
:100E70000000464552524F20444520534F4C4441B8
:100E80002032202020200A0D0000444542554720F2
:100E90002053454E534F52455320202020200A0D09
:100EA00000004445425547202053414944415320C6
:100EB0002020202020200A0D000053544154555377
:100EC00020504F5349434F455320202020200A0DE6
:100ED0000000454E56494120504F5349434F45531A
:100EE0002020202020200A0D0000444542554720A4
:100EF000534F4C444147454D2020202020200A0DCF
:100F0000000044454255472045535445495241202D
:100F10002020202020200A0D00003C2D2D003C2DFB
:100F20002D00202020003C2D2D00202020003C2DD5
:100F30002D0046313A454449544120504F4E544FBC
:100F40002020202020200A0D000046323A4D414E3C
:100F50005554454E43414F202020202020200A0D8B
:100F600000002020202020202020202020202020C1
:100F70002020202020200A0D0000202020202020DA
:100F800020202020202020202020202020004D4F25
:100F900044454C4F312020004D4F44454C4F3220AA
:100FA00020004D4F44454C4F332020004D4F4445C9
:100FB0004C4F342020004D4F44454C4F35202000ED
:100FC0004D4F44454C4F362020004D4F44454C4F2B
:100FD000372020004D4F44454C4F382020004D4FC6
:100FE00044454C4F392020004D4F44454C4F313043
:100FF00020004D4F44454C4F313120004D4F44456A
:101000004C4F313200004D4F44454C4F31330000BE
:101010004D4F44454C4F313400004D4F44454C4FEB
:1010200031350000504C414341312000504C414388
:1010300041322000504C414341332000504C414349
:1010400041342000504C4143413520004D4F56491A
:101050004D454E54414E444F20504F534943414F0C
:101060000A0D0000414C494D454E544143414F202B
:10107000504C41434120202000004D4F56494D45E2
:101080004E54414E444F20504F534943414F0A0D57
:101090000000414C494D454E544143414F20504C76
:1010A00041434120202000004D4F56494D454E54AC
:1010B000414E444F20504F534943414F0A0D0000C9
:1010C0002020202020444520534F4C444147454D8B
:1010D000202020200000503A202020202020202006
:1010E000202020202020202020200A0D0000202069
:1010F00020202020202020202020202020202020F0
:1011000020200A0D00002020202020534F4C444175
:101110004E444F202020202020200A0D00002020B7
:101120002020204553544147494F32202020202081
:1011300020200000503A20202020202020202020A5
:1011400020202020202020200A0D00002020202008
:10115000202020202020202020202020202020208F
:101160000A0D00002020202020534F4C44414E44C3
:101170004F202020202020200A0D000020202020A9
:10118000204553544147494F312020202020202022
:10119000000020202020202020202020202020208F
:1011A0002020202020200A0D0000202020202020A8
:1011B00020202020202020202020202020200A0D58
:1011C00000004D4F56494D454E54414E444F20501E
:1011D0004F534943414F0A0D00002020202020207A
:1011E00020484F4D453220202020202020004D4F08
:1011F00056494D454E54414E444F20504F5349435C
:10120000414F0A0D000044495350454E5341444F4D
:101210005220504C41434120202000004D4F564960
:101220004D454E54414E444F20504F534943414F3A
:101230000A0D000020202020202020484F4D45315D
:1012400020202020202020004143494F4E414E4481
:101250004F204445444F5320202020200A0D0000F9
:101260002020444520454E54524144412020202016
:10127000202020200000202020204143494F4E41C3
:101280004E444F202020202020200A0D0000414CF9
:10129000494D454E5441444F5220504C414341200A
:1012A000202000004143494F4E414E444F205052B0
:1012B0004553534F522020200A0D000020202020AB
:1012C000202020202020202020202020202020201E
:1012D00000004445534143494F4E2E205052455340
:1012E000534F5220200A0D002020202020202020B3
:1012F00020202020202020202020202000004143EA
:10130000494F4E414E444F204445444F53202020E6
:1013100020200A0D00002020202020534149444174
:101320002020202020202020202000004445534160
:1013300043494F4E414E444F204445444F53200AA9
:101340000D0020202020205341494441202020200E
:101350002020202020002020204143494F4E414E94
:10136000444F20202020202020200A0D000020446F
:10137000495350454E5341444F5220504C414341F4
:10138000202000004553504552414E444F204D41CE
:101390005155494E4120320A0D00534149522045D2
:1013A00053544147494F31202020202020004553ED
:1013B000504552414E444F204D415155494E4120D8
:1013C000320A0D00534149522044495350454E536F
:1013D00041444F52202020004553504552414E4435
:1013E0004F204D415155494E4120320A0D00534185
:1013F00049522044495350454E5341444F522020B6
:1014000020004553504552414E444F204D415155C7
:10141000494E4120320A0D00534149522045535450
:101420004147494F2031202020200000455350459E
:1014300052414E444F204D415155494E4120320AB0
:101440000D005341495220414C494D454E544144B1
:101450004F52202020004553504552414E444F20CA
:101460004D415155494E4120320A0D0053414952D8
:101470002044495350454E5341444F5220202000B0
:101480004553504552414E444F204D415155494ED0
:101490004120320A0D002020202053414952205380
:1014A000544F502020202020202020202000455371
:1014B000504552414E444F20204D415155494E41D7
:1014C000320A0D004952205041524120484F4D45AB
:1014D00031202020202020004553504552414E44C9
:1014E0004F20204D415155494E41310A0D0049527E
:1014F000205041524120414C494D454E54414341B9
:101500004F00202020202020204552524F20202014
:1015100020202020200A0D00504F534943414F20E6
:10152000414C494D454E544143414F0A0D004449F9
:1015300056455247454E43494120504F5349434138
:101540004F0A0D002020535F595F444952454954CA
:10155000412050524F54200A0D004D4F562E20501E
:101560004F534943414F20534F4C4441520A0D00C1
:10157000444956455247454E43494120504F5349EF
:1015800043414F0A0D0020202020535F595F4652EF
:10159000454E544520202020200A0D00504F53492D
:1015A00043414F20534F4C44415220202020200AD9
:1015B0000D00434F4F5244454E41444120464F5247
:1015C00041204441200A0D00504F534943414F20D0
:1015D0004553544147494F203220200A0D00504FB7
:1015E000534943414F20484F4D4532202020202071
:1015F000200A0D00444956455247454E4349412073
:10160000504F534943414F0A0D0020202020535F83
:10161000595F41545241532020202020200A0D00C0
:10162000504F534943414F20484F4D4532202020D1
:101630002020200A0D00444956455247454E434953
:101640004120504F534943414F0A0D002020205361
:101650005F585F455351554552444120202020207A
:101660000A0D0000202020535F585F44495245492D
:10167000544120202020200A0D00504F534943415F
:101680004F2044495350454E5341444F520A0D0098
:10169000444956455247454E43494120504F5349CE
:1016A00043414F0A0D00202020535F585F444952A8
:1016B0004549544120202020200A0D00202020539D
:1016C0005F585F4553515545524441202020200A20
:1016D0000D00504F534943414F20484F4D45203353
:1016E00020202020200A0D00444956455247454EEF
:1016F00043494120504F534943414F0A0D00202098
:10170000535F595F41545241532020202020202014
:10171000200A0D00504F534943414F20484F4D453B
:10172000203120202020200A0D00444956455247F0
:10173000454E43494120504F534943414F0A0D0004
:101740002020535F595F4652454E544520202020AB
:101750002020200A0D00504F534943414F20484F4D
:101760004D45203120202020200A0D0044495645B7
:101770005247454E43494120504F534943414F0A38
:101780000D002020535F585F455351554552444149
:1017900020202020200A0D002020535F585F44495C
:1017A00052454954412020202020200A0D004C455C
:1017B000495455524120444520504F534943414FCD
:1017C000200A0D00494E434F4552454E54452020B6
:1017D000202020202020200A0D00504F5349434153
:1017E0004F2050524F49424944412020200A0D00C9
:1017F000504152412047495241522042414E4445B6
:101800004A41200A0D0020202054494D45204F55C3
:101810005420202020202020200A0D0020535F4447
:1018200045444F5F494E5F4C533120202020200A11
:101830000D0020202054494D45204F555420202094
:1018400020202020200A0D0020535F4445444F5F94
:10185000494E5F4C533220202020200A0D002020CA
:101860002054494D45204F55542020202020202031
:10187000200A0D00535F454D5055525241444F527E
:101880005F494E5F4C53320A0D0020202054494DD1
:1018900045204F555420202020202020200A0D00D4
:1018A00020535F4445444F5F4F55545F4C533120A4
:1018B0002020200A0D0020202054494D45204F555E
:1018C0005420202020202020200A0D00535F444572
:1018D000444F5F4F55545F4C533220202020200A44
:1018E0000D0020202054494D45204F5554202020E4
:1018F00020202020200A0D00535F50524553534FA3
:10190000525F4C53322020202020200A0D0020203E
:101910002054494D45204F55542020202020202080
:10192000200A0D00535F454D5055525241444F52CD
:101930005F494E5F4C53310A0D0020202054494D21
:1019400045204F555420202020202020200A0D0023
:10195000535F454D5055525241444F525F494E5F7F
:101960004C53320A0D002020204F5554204F462062
:1019700052414E474520582020200A0D00002020CB
:101980002020202020204D415820202020202020D1
:1019900020200A0D00002020204F5554204F4620C3
:1019A00052414E474520592020200A0D000020209A
:1019B0002020202020204D415820202020202020A1
:1019C00020200A0D00002020204F5554204F462093
:1019D00052414E4745205A2020200A0D0000202069
:1019E0002020202020204D41582020202020202071
:1019F00020200A0D00002020204F5554204F462063
:101A000052414E474520582020200A0D000020203A
:101A10002020202020204D494E2020202020202042
:101A200020200A0D00002020204F5554204F462032
:101A300052414E474520592020200A0D0000202009
:101A40002020202020204D494E2020202020202012
:101A500020200A0D00002020204F5554204F462002
:101A600052414E4745205A2020200A0D00002020D8
:101A70002020202020204D494E20202020202020E2
:101A800020200A0D000020202054494D455F4F556D
:101A90005420202020202020200A0D002020205328
:101AA0002E2042414E44454A412020202020200A39
:101AB0000D0020202054494D455F4F5554202020D3
:101AC00020202020200A0D0020535F454D50555204
:101AD0005241444F525F524543554F200A0D00007A
:101AE000414755415244414E444F20504C4143419F
:101AF000202020200A0D0000414755415244414E0C
:101B0000444F20504C414341202020200A0D00002A
:101B1000414755415244414E444F20504C4143416E
:101B2000202020200A0D0000C69E9E9623C2C9FFD9
:101B3000020EC6BE05D09EA6FED7000EC5BC010E85
:101B4000016E1200C580C5B0FED7D89002011E35C7
:101B50004009226F236F0001E7DF01501E9E01B094
:101B60001E8E1FC223F2E0DF01501E9E01B01E8EAA
:101B700021C223F2D9DF01501E9E01B01E8E20C269
:101B800023F2D2DF01501E9E01B01E8EC584C5B463
:101B9000FED71E7E1200036A010E026E02011A5168
:101BA000006E05E0D89002360336002EFBD70250B7
:101BB000010176130350771376C11CF2020177C13D
:101BC0001DF20201020E1E6F1F6F1DC220F21CC209
:101BD00021F20001B7DF12001E8C1EA423D01F2AA1
:101BE000D8B4202A2050245C09E303E123501F5C71
:101BF00005E222C0D7FF21C0D6FF14D002011B6B23
:101C00000E0E1A6F0001C7DF02011B6B0D0E1A6F5B
:101C10000001C1DF02011B6B0C0E1A6F0001BBDF5C
:101C2000F29AD56AF2943CEF00F01E889E903CEF49
:101C300000F01E8AA1923CEF00F0030E02011B5F30
:101C40000AE3020EEA6E1B0EE96EEF5004E001D0CB
:101C500000D0EF2EFDD7000112001EB0FED7020EFD
:101C600002011A6FF90E1B6F0001E7DF02011A2F44
:101C7000F9D7938281A202D008D007D01B6B0A0E3D
:101C80001A6F000188DF1E820201F09000013CEF14
:101C900000F02056414C4F52455320444546415593
:101CA0004C542020200A0D0020202052455354413E
:101CB000555241444F5320202020200A0D00494E08
:101CC0005354495455544F20204943545320202005
:101CD0000A0D00005445434E4F4C4F4749412020C8
:101CE00020454D2020200A0D000020202020534FA9
:101CF0004654574152452020202020200A0D000044
:101D0000C580C5B0FED7D8900101AA354009AC6F97
:101D1000166AF2BE168EF29EE8CF23F2000104DFAF
:101D200016BEF28E01501E9E01B01E8E166AF2BEC5
:101D3000168EF29EABC123F2F7DE16BEF28E015074
:101D40001E9E01B01E8EC584C5B4FED71E7E120035
:101D5000020EEA6E170EE96EEF500DE0060E016EF0
:101D6000006A002EFED7012EFBD77B0E006E002EE0
:101D7000FED7EF2EF3D71200310E006E002EFED7E5
:101D800000D00101AA6BA9C1ABF10001B9DF310E8E
:101D9000006E002EFED700D092908980310E006E2A
:101DA000002EFED700D092908990310E006E002E4A
:101DB000FED700D01200939A8A9AA8C1A9F1DCDF5D
:101DC00012000101AA6BAB6900019ADF9290899021
:101DD000939A8A8A0F0E0201176F0001B9DF380E3D
:101DE0000101A86F0001E7DF0F0E0201176F00016C
:101DF000AFDF0C0E0101A86F0001DDDF0F0E020145
:101E0000176F0001A5DF060E0101A86F0001D3DFE7
:101E10000F0E0201176F00019BDF010E0101746FAD
:101E2000756F0001ADEF58F0166AF2BE168EF29E85
:101E3000010E02011E6F060E1F6F2069F80E216F42
:101E4000000180DE16BEF28E166AF2BE168EF29E7B
:101E5000010E02011E6F020E1F6F206B070E216F15
:101E6000000170DE16BEF28EAFEF58F0166AF2BEB9
:101E7000168EF29E030E02011E6F060E1F6F206962
:101E8000216900015FDE16BEF28EB1EF58F0166ACE
:101E9000F2BE168EF29E020E02011E6F060E1F6F1C
:101EA000206B216B00014EDE16BEF28EB3EF58F0B0
:101EB00001017769766976C194F177C195F1166A67
:101EC000F2BE168EF29E020E02011E6F1F6F95C1AA
:101ED00020F294C121F2000135DE16BEF28E12000E
:101EE000F29CF29EF2BEFDD7C580C5B0FED7166A41
:101EF000F2BE168EF29EA00E0201236F000114DEC8
:101F000016BEF28E01501E9E01B01E8E15C217F233
:101F10000201186B166AF2BE168EF29E15C223F2EB
:101F2000000102DE16BEF28E01501E9E01B01E8E12
:101F3000166AF2BE168EF29E14C223F2F5DD16BEAC
:101F4000F28E01501E9E01B01E8E166AF2BE168ED3
:101F5000F29E16C223F2E8DD16BEF28E01501E9EDE
:101F600001B01E8EC584C5B4FED71E7E050E0201CB
:101F7000176F0001EDDEC00EF2121200010E01011A
:101F8000A86F000118DF050E0201176F0001E0DEE7
:101F90001200A6C174F1A5C175F10101A52D03D0F0
:101FA000010EA65DA76FA551020804E1400EA6250B
:101FB000FF0FA76FA551030804E1140EA625FF0F1C
:101FC000A76FA551040804E1540EA625FF0FA76FC3
:101FD000A78FA7C1A8F10001EEDEA60E006E002EAD
:101FE000FED700001200939A8A8AA5C1A9F1C4DE27
:101FF00012000900F5520CE0F6CF99F1F7CF9AF1F3
:10200000F5CFA5F1F0DF99C1F6FF9AC1F7FFF1D73F
:102010001200C69CC586C5B6FED700B0C59A00A002
:10202000C58AC588C5B8FED7C9CF01F01200F29C99
:10203000F29EF2BEFDD7C580C5B0FED7166AF2BECD
:10204000168EF29EA00E0201236F00016DDD16BEFA
:10205000F28E8DC18FF10101906B166AF2BE168E61
:10206000F29E8DC123F200015FDD16BEF28E166A6C
:10207000F2BE168EF29E8CC123F256DD16BEF28E93
:10208000C582C5B2FED7166AF2BE168EF29EA10EAA
:102090000201236F000148DD16BEF28E006AB9DF2F
:1020A00001C08EF1C584C5B4FED71E7E050E0201A7
:1020B000176F00014DDEC00EF21201018EC101F05A
:1020C00000011200948694880201156B1469AA0E0F
:1020D000166F000105DF1EBE19D050DF010E010191
:1020E000A56FA66F000155DFBA0EF66E000EF76EF3
:1020F00080DF020E0101A56F010EA66F000149DF0E
:10210000CC0EF66E000EF76E74DFFFD7050E0201DF
:10211000176F00011DDE01018D6B8C69000187DFE7
:1021200001C08BF101018B51AA081BE0000126DFE1
:10213000010E0101A56FA66F00012BDFDE0EF66E0A
:10214000000EF76E56DF020E0101A56F010EA66F9D
:1021500000011FDFF00EF66E000EF76E4ADFFFD7AC
:1021600001010001B7EF58F0F2CF8BF1F29EAA6A9D
:10217000A96AA69CA69EA680A85001018BBFF28EDC
:10218000AA080EE1F2CF8BF1F29EAA6A020EA96EA6
:10219000A69CA69EA680A8508BBFF28E296E2CD03E
:1021A000296AF250006EF29EAA6A020EA96E29C038
:1021B000A8FFA69CA69EA6840F01550EA76EAA0E88
:1021C000A76EA682A6B2FED7A6940050F212F2CF56
:1021D00000F0F29EAA6AA96AAA0EA86EA69CA69E04
:1021E000A684550EA76EAA0EA76EA682A6B2FED72B
:1021F000A6940050F21201010001B9EF58F001015C
:10220000A86BA76BA96BC580C5B0FED7D890A535C4
:102210004009AA6F166AF2BE168EF29EE8CF23F22C
:10222000000182DC16BEF28E01501E9E01B01E8E91
:10223000166AF2BE168EF29EA6C123F275DC16BE99
:10224000F28E01501E9E01B01E8EC582C5B2FED711
:10225000D8900101A5354109AA6F166AF2BE168E03
:10226000F29EE8CF23F200015FDC16BEF28E015031
:102270001E9E01B01E8E010E006ECBDE01C0A9F1C4
:10228000006AC7DE01C0A8F10101A76BC584C5B40F
:10229000FED71E7EA951A713A7C101F0A8C102F065
:1022A000000112000101A06B9F6B060EA16F7F0E53
:1022B000A26FA46BA36BA4533EE1A35102083BE3BE
:1022C000A351A15F166AF2BE168EF29E010E0201A4
:1022D0001E6F020E1F6F206BA1C121F2000132DCC4
:1022E00016BEF28E010E0101A56FA66B000187DFFD
:1022F00001010230A06F01309F6FA0339F33A033E4
:102300009F331F0EA017A2519F17A06B7F0ED8807E
:102310009F57000EA0579F5302E1A05308E0A3C1AE
:10232000A4F1A36BA3519F13A451A01304D0A32B1A
:10233000D8B4A42BC0D79FC101F0A0C102F0000106
:10234000A8EF11F001019D6B9C6B9E6B0001AAD759
:1023500002C09DF101C09CF101019C5306E19D5317
:1023600004E19E699EC101F00CD19C51006E9D510B
:10237000036E010E035C06E1400E005C0001D8B460
:10238000ABD00101035006E1080E005C0001D8B497
:10239000A6D00101010E035C06E1080E005C0001FD
:1023A000D8B4A1D00101020E035C06E1080E005C66
:1023B0000001D8B49CD00101035006E1100E005C6E
:1023C0000001D8B498D00101010E035C06E1100EA3
:1023D000005C0001D8B493D00101020E035C06E159
:1023E000100E005C0001D8B48ED00101035006E14C
:1023F000200E005C0001D8B48AD00101010E035CFC
:1024000006E1200E005C0001D8B485D00101020E67
:10241000035C06E1200E005C0001D8B480D001010D
:10242000035006E1010E005C0001D8B47CD001012C
:10243000020E035C06E1010E005C0001D8B477D007
:102440000101035006E1040E005C0001D8B473D012
:102450000101020E035C06E1040E005C0001D8B429
:102460006ED00101035006E1400E005C0001D8B4BB
:102470006AD00101020E035C06E1400E005C00011F
:10248000D8B465D00101010E035C06E1010E005CC9
:102490000001D8B460D00101035005E1020E005CD8
:1024A00000015DE00101020E035C05E1020E005C2B
:1024B000000159E00101010E035C05E1040E005C1E
:1024C000000155E00101010E035C05E1020E005C14
:1024D000000151E0010153D001019E6B50D0010E6B
:1024E00001019E6F4CD0020E01019E6F48D0030E79
:1024F00001019E6F44D0040E01019E6F40D0050E75
:1025000001019E6F3CD0060E01019E6F38D0070E70
:1025100001019E6F34D0080E01019E6F30D0090E6C
:1025200001019E6F2CD00A0E01019E6F28D00B0E68
:1025300001019E6F24D00C0E01019E6F20D00D0E64
:1025400001019E6F1CD0120E01019E6F18D0130E58
:1025500001019E6F14D00E0E01019E6F10D0110E5E
:1025600001019E6F0CD0100E01019E6F08D00F0E5E
:1025700001019E6F04D0140E01019E6F00D09EC118
:1025800001F0000112000101A4510C0A000105E054
:10259000060A09E0070A11E01AD0F0DC010E010179
:1025A000756F746F18D00101752B75C1A5F174C1D9
:1025B000A6F10001EEDC01010ED075C1A5F1010EFE
:1025C0000101A66F0001E5DC010105D00001A4C1F5
:1025D000A5F109DD0101000112000900F5520CE02E
:1025E000F6CFA1F1F7CFA2F1F5CFA4F1CCDFA1C1D5
:1025F000F6FFA2C1F7FFF1D7120001019D51016A58
:102600009C5D03E29CC100F00CD0006A080E9E6F36
:102610009C3700369D51005CD8B0006E01369E2F6D
:10262000F7D70001120001509AC19CF1640E01011C
:102630009D6F0001E2DF00C09AF10150300E08E109
:1026400001019BA30FD09BB70DD09BB9200E04D0E6
:1026500001019B979B999B81012601C0A4F1000178
:1026600092DF01019AC19CF10A0E9D6F0001C5DF46
:1026700000C09AF10150300E08E101019BB70AD069
:102680009BA108D09BB9200E0001012601C0A4F136
:102690007ADF0101300E9A279AC1A4F1000173DF9D
:1026A00012000C0E0101A46F00016DDFA40EF66E86
:1026B0000A0EF76E92DFBC0EF66E0A0EF76E8DDF15
:1026C000D40EF66E0A0EF76E88DF020E0101A56FBA
:1026D000060EA66F00015DDC010E292401018C6F3E
:1026E0009A6F110E9B6F00019EDF020E0101A56F14
:1026F000120EA66F00014DDC1DC09AF1110E0101F2
:102700009B6F000190DF12000101956B166AF2BE0B
:10271000168EF29E02011B6B070E1A6F0001CBECA6
:102720000DF016BEF28E166AF2BE168EF29E0201F1
:102730001B6B050E1A6F0001CBEC0DF016BEF28E6E
:10274000166AF2BE168EF29E02011B6B060E1A6FFF
:102750000001CBEC0DF016BEF28E010195C101F027
:10276000000112000101956B166AF2BE168EF29EF0
:1027700002011B6B010E1A6F0001CBEC0DF016BEAF
:10278000F28E166AF2BE168EF29E02011B6B0F0EBF
:102790001A6F0001CBEC0DF016BEF28E166AF2BE77
:1027A000168EF29E02011B6B1A6B0001CBEC0DF032
:1027B00016BEF28E010195C101F000011200020166
:1027C00014511603F3CF01F0F4CF00F01703F350C8
:1027D000002615511603F3500020026E000112006E
:1027E00001018C6B8B6B8E6B8D6B906B8F6BF40E12
:1027F000916F0D0E926F150E936F0E0E946F9C0ECF
:10280000956F0E0E966FC50E976F0E0E986F7A0E1F
:10281000996F0E0E9A6FCF0E9B6F0E0E9C6F5F0E10
:102820009D6F0D0E9E6F2C0E9F6F0D0EA06FA16BF6
:10283000A26BA36BA46BA56BA66BA76BA86BA96B14
:10284000AA6BAB6BAC6BAD6BAE6BAF6BB06BB16BC4
:10285000B26BB36BB46BB56BB66BB76BB86B360E54
:10286000B96F110EBA6F360EBB6F110EBC6FF90E39
:10287000BD6F090EBE6FF90EBF6F090EC06FC30E9C
:10288000C16F090EC26FC30EC36F090EC46FC30EB2
:10289000C56F090EC66FC30EC76F090EC86FC96B2F
:1028A000CA6BCB6BCC6BCD6BCE6BCF6BD06BD16B64
:1028B000D26BD36BD46BD56BD66BD76BD86BD96B14
:1028C000DA6BDB6BDC6BDD6BDE6BDF6BE06B4A0EB8
:1028D000E16F010EE26F4A0EE36F010EE46F4A0EE4
:1028E000E56F010EE66F4A0EE76F010EE86F500EBE
:1028F000E96F010EEA6F4A0EEB6F010EEC6F500E9E
:10290000ED6F010EEE6F4A0EEF6F010EF06FF16B7F
:10291000F26BF36BF46BF56BF66BF76BF86BF96BB3
:10292000FA6BFB6BFC6BFD6BFE6BFF6B0201006BCC
:10293000016B026B036B046B056B066B076B086B1B
:102940000A6B096B0C6FE30E0B6F040E0E6F270EF4
:102950000D6F060E106F0A0E0F6F070E126FF70E37
:10296000116F01018C6B0F0E8B6F8C53D8A413D198
:102970008B511308D8A00FD18E6B8D6B8E53D8A4BA
:1029800006D18D510708D8A002D1D8908D35026E9E
:102990008E35036E0250910FE96E010E0320EA6E30
:1029A000ECCF90F1ED52EFCF8FF18B5110080AE18F
:1029B0008C5308E102010B5101018F5F02010C51A0
:1029C0000101905B8B5111080AE18C5308E102016F
:1029D0000D5101018F5F02010E510101905B8B517E
:1029E00012080AE18C5308E102010F5101018F5FC7
:1029F000020110510101905B8B5113080AE18C53C5
:102A000008E10201115101018F5F02011251010120
:102A1000905B8CC115F28BC114F20201176BC80ECA
:102A2000166F0001CCDE030E02010124556E000E6C
:102A30000220566E8EC115F28DC114F2176B0C0E6A
:102A4000166F0001BCDE015055260250562290C17F
:102A500013F2020156C015F255C014F213C216F259
:102A6000000170EC0FF0552AD8B4562A8FC113F22A
:102A7000020156C015F255C014F213C216F200013D
:102A800070EC0FF0552AD8B4562AD89001018D3534
:102A9000026E8E35036E0250B90FE96E010E0320EF
:102AA000EA6EECCF15F2ED52EFCF14F2020115C22F
:102AB00013F256C015F255C014F213C216F20001FB
:102AC00070EC0FF0552AD8B4562AD89001018D35F4
:102AD000026E8E35036E0250B90FE96E010E0320AF
:102AE000EA6EECCF15F2ED52EFCF14F2020114C2F0
:102AF00013F256C015F255C014F213C216F20001BB
:102B000070EC0FF0552AD8B4562AD89001018D35B3
:102B1000026E8E35036E0250E10FE96E010E032046
:102B2000EA6EECCF15F2ED52EFCF14F2020115C2AE
:102B300013F256C015F255C014F213C216F200017A
:102B400070EC0FF0552AD8B4562AD89001018D3573
:102B5000026E8E35036E0250E10FE96E010E032006
:102B6000EA6EECCF15F2ED52EFCF14F2020114C26F
:102B700013F256C015F255C014F213C216F200013A
:102B800070EC0FF001018D2BD8B48E2BF7D68B2B68
:102B9000D8B48C2BEAD600013AEF5BF0F29CF29E9F
:102BA000F2BEFDD701018C6B29C08BF18CC115F2EF
:102BB00029C014F20201176BC80E166F0001FFDD69
:102BC00002C056F001C055F056C08DF155C08CF1D1
:102BD00017EC10F001C031F0552AD8B4562A56C06F
:102BE0008DF155C08CF117EC10F001C057F0552A4B
:102BF000D8B4562A56C08DF155C08CF117EC10F0A0
:102C000001C028F0C00EF2123CEF5BF0929689965C
:102C10001200C580C5B0FED7D8900101A135710959
:102C2000A36F166AF2BE168EF29EE8CF23F2000161
:102C300094EC0DF016BEF28E006A09EC10F001C0A3
:102C4000A2F1C584C5B4FED71E7E0101A2C101F068
:102C50000001120001019F6B9E6BA06B9C510F083D
:102C60003BE3030EA56FA66B0001FFEC10F002C062
:102C70009FF101C09EF19FC103F001019EC102F0CE
:102C80009C51006E05E0D89003320232002EFBD733
:102C9000025002B01DD0310E006E002EFED700D0C3
:102CA0009FC103F09EC102F09C51006E05E0D890D8
:102CB00003320232002EFBD7025002B004D09D81B5
:102CC000010E016ECAD09D91000E016EC6D004D0D7
:102CD0009D91000E016EC1D09C510F0838E29C51AD
:102CE000170835E3040EA16F000193DF01C0A0F1C6
:102CF000100E01019C5DA16FA0C100F0A151016EF9
:102D000004E0D8900032012EFCD700B01CD0310E68
:102D1000006E002EFED700D0100E9C5DA16FA0C1EA
:102D200000F0A151016E04E0D8900032012EFCD7D2
:102D300000B004D09D81010E016E8FD09D91000ED8
:102D4000016E8BD004D09D91000E016E86D09C51F7
:102D50001708D8B082D09C511B08D8A07ED0180E7E
:102D60009C5DFC0FD8B079D0040F00012FEF17F055
:102D7000938081B014D0310E006E002EFED700D0AB
:102D8000938081B006D001019D81010E016E65D056
:102D9000000101019D91000E016E5FD005D001017F
:102DA0009D91000E016E59D058D0938281B214D0FB
:102DB000310E006E002EFED700D0938281B206D075
:102DC00001019D81010E016E48D0000101019D911C
:102DD000000E016E42D005D001019D91000E016EE2
:102DE0003CD03BD0938681B614D0310E006E002EBD
:102DF000FED700D0938681B606D001019D81010ED9
:102E0000016E2BD0000101019D91000E016E25D0B5
:102E100005D001019D91000E016E1FD01ED0938838
:102E200081B814D0310E006E002EFED700D09388EA
:102E300081B806D001019D81010E016E0ED0000106
:102E400001019D91000E016E08D005D001019D91F8
:102E5000000E016E02D001D0010100011200F2CF7C
:102E60000DF0F29EE824F76AF736830FF66E2E0E09
:102E7000F7220A00F550FA6E0800F5500DBEF28EEA
:102E8000F96E702DAA2DE42D1E2E01018099808BE4
:102E90009298898800011200929A898A100E006E19
:102EA000002EFED70000929A899A010180AB04D0CF
:102EB0007E2BD8B47F2B08D07E5302E17F5304E0F1
:102EC0007E51D8B47F077E0700011200010180897E
:102ED000809B929889980001120092968996120020
:102EE00095DE320E0201176F0001A8EC0EF00D0EF8
:102EF00001019C6F0001AEDE012C40D0C6DF320E16
:102F00000201176F0001A8EC0EF001019A6B9A51B3
:102F100032080BE30001C0DF020E0201176F00014F
:102F2000A8EC0EF001019A2BF2D70001CFDF320E90
:102F30000201176F0001A8EC0EF00D0E01019C6F4D
:102F4000000188DE015208E1A7DF020E0201176FBF
:102F50000001A8EC0EF0F1D701019A6B9A5112080A
:102F60000BE3000199DF020E0201176F0001A8ECCC
:102F70000EF001019A2BF2D727D00001A7DF320E05
:102F80000201176F0001A8EC0EF00D0E01019C6FFD
:102F9000000160DE015208E17FDF020E0201176FBF
:102FA0000001A8EC0EF0F1D701019A6B9A511208BA
:102FB0000BE3000171DF020E0201176F0001A8ECA4
:102FC0000EF001019A2BF2D77F6B7E6B000185DF3B
:102FD0001200036A010E026E0101A051006E05E0AD
:102FE000D89002360336002EFBD70250FF0A006E3F
:102FF000FF0E031A005076170350771776C1A2F11F
:1030000077C1A3F1166AF2BE168EF29E020E02017D
:103010001E6F1F6FA3C120F2A2C121F20001A2EC1A
:103020000DF016BEF28E12000101976B996B986B32
:103030000F0E9B6FA00E9A6F166AF2BE168EF29E4E
:1030400002011B6B1A6B0001CBEC0DF016BEF28E69
:103050000101A16B0F0EA06F0001BBDF130E010178
:103060009C6F0001F7DD015217E1010E0201176F9D
:103070000001A8EC0EF00101982BD8B4992B9B51BC
:10308000995D08E303E19A51985D04E30E0E976F92
:10309000016E10D00001E2D7166AF2BE168EF29EC3
:1030A00002011B6B0F0E1A6F0001CBEC0DF016BE68
:1030B000F28E0101000112000101976B996B986B70
:1030C000270E9B6F100E9A6F166AF2BE168EF29E36
:1030D00002011B6B060E1A6F0001CBEC0DF016BE41
:1030E000F28E0101A16B050EA06F000172DF0101DC
:1030F000996B986B030E9C6F0001ACDD015217E1D8
:10310000010E0201176F0001A8EC0EF00101982BCF
:10311000D8B4992B9B51995D08E303E19A51985DCE
:1031200004E31B0E976F016E12D0E4D70001166AFC
:10313000F2BE168EF29E02011B6B050E1A6F000185
:10314000CBEC0DF016BEF28E010197C101F000012B
:10315000120094908B9012000101808580979492C8
:103160008B920001120094948B84100E006E002E3E
:10317000FED7000094948B94010180A704D07A2B91
:10318000D8B47B2B08D07A5302E17B5304E07A5108
:10319000D8B47B077A07000112000101809580876F
:1031A00094928B820001120094908B901200D1DFD8
:1031B000320E0201176F0001A8EC0EF0080E01019B
:1031C0009C6F000147DD012C4FD0C6DF320E02019B
:1031D000176F0001A8EC0EF0080E01019C6F0001B2
:1031E00039DD012C08D0BFDF020E0201176F00018C
:1031F000A8EC0EF0F1D70101976B975128080BE36B
:103200000001B1DF020E0201176F0001A8EC0EF001
:103210000101972BF2D70001C0DF320E0201176FB8
:103220000001A8EC0EF0080E01019C6F000112DDF8
:10323000015208E198DF020E0201176F0001A8ECAD
:103240000EF0F1D70101976B975128080BE30001AD
:103250008ADF020E0201176F0001A8EC0EF00101D7
:10326000972BF2D727D0000198DF320E0201176F9B
:103270000001A8EC0EF0080E01019C6F0001EADCD1
:10328000015208E170DF020E0201176F0001A8EC85
:103290000EF0F1D70101976B975128080BE300015D
:1032A00062DF020E0201176F0001A8EC0EF00101AF
:1032B000972BF2D77B6B7A6B000176DF120095902B
:1032C0008C90120001018081809395928C92000174
:1032D000120095948C84100E006E002EFED7000014
:1032E00095948C94010180A304D0782BD8B4792BC9
:1032F00008D0785302E1795304E07851D8B47907C3
:1033000078070001120001018091808395928C82E0
:103310000001120095908C901200D1DF320E020154
:10332000176F0001A8EC0EF0060E01019C6F000162
:1033300091DC012C4FD0C6DF320E0201176F000165
:10334000A8EC0EF0060E01019C6F000183DC012C3D
:1033500008D0BFDF020E0201176F0001A8EC0EF0CB
:10336000F1D70101976B975128080BE30001B1DFFA
:10337000020E0201176F0001A8EC0EF00101972B5D
:10338000F2D70001C0DF320E0201176F0001A8EC76
:103390000EF0060E01019C6F00015CDC015208E199
:1033A00098DF020E0201176F0001A8EC0EF0F1D7B2
:1033B0000101976B975128080BE300018ADF020E89
:1033C0000201176F0001A8EC0EF00101972BF2D754
:1033D00027D0000198DF320E0201176F0001A8EC20
:1033E0000EF0060E01019C6F000134DC015208E171
:1033F00070DF020E0201176F0001A8EC0EF0F1D78A
:103400000101976B975128080BE3000162DF020E60
:103410000201176F0001A8EC0EF00101972BF2D703
:10342000796B786B000176DF120093DE320E0201B9
:10343000176F0001A8EC0EF0070E01019C6F000150
:1034400009DC012C51D0A9DE320E0201176F0001F8
:10345000A8EC0EF0070E01019C6F00012AEC16F09B
:10346000012C08D080DE020E0201176F0001A8ECCB
:103470000EF0F0D70101976B975128080BE300017C
:1034800072DE020E0201176F0001A8EC0EF00101BE
:10349000972BF2D7000160DE320E0201176F000198
:1034A000A8EC0EF0070E01019C6F00012AEC16F04B
:1034B000015208E158DE020E0201176F0001A8EC6C
:1034C0000EF0F0D70101976B975128080BE300012C
:1034D0004ADE020E0201176F0001A8EC0EF0010196
:1034E000972BF2D728D0000137DE320E0201176F7A
:1034F0000001A8EC0EF0070E01019C6F00012AEC00
:1035000016F0015208E12FDE020E0201176F0001D2
:10351000A8EC0EF0F0D70101976B975128080BE348
:10352000000121DE020E0201176F0001A8EC0EF06F
:103530000101972BF2D77B6B7A6B000135DE12000D
:1035400001019B51070B006E9B31016E013201326C
:103550001F0E011601509D25E96E000E9E21EA6E98
:10356000016A012A002A01D00136002EFDD79C53A2
:1035700003E00150EF1203D0011E0150EF160001CD
:10358000120001019B51070B006E9B31016E01324D
:1035900001321F0E011601509C25E96E000E9D217F
:1035A000EA6EEFCF01F0002A01D00132002EFDD7E4
:1035B0000001120099C19BF1010E01019C6F0F0ED9
:1035C0009E6F920E9D6F0001BBDF99C19BF10F0EA4
:1035D00001019D6F800E9C6F0001D3DF01A006D01A
:1035E00001019A81010E016E26D00001310E006E9C
:1035F000002EFED700D099C19BF1010E01019C6FF6
:103600000F0E9E6F920E9D6F00019ADF99C19BF184
:103610000F0E01019D6F800E9C6F0001B2DF01B0A3
:1036200006D001019A91000E016E05D00001010142
:103630009A81010E016E000112000101986B1F0EAC
:10364000996F0001B7DF015204E10101989103D0A5
:103650000001010198811E0E996F0001ABDF01523C
:1036600004E10101989303D00001010198831D0E2C
:10367000996F00019FDF015204E10101989503D089
:1036800000010101988598C101F00001120017DEC8
:10369000320E0201176F0001A8EC0EF0050E0101B9
:1036A0009C6F00012AEC16F0012C51D02CDE320E5A
:1036B0000201176F0001A8EC0EF0050E01019C6FCE
:1036C00000012AEC16F0012C08D003DE020E0201E4
:1036D000176F0001A8EC0EF0F0D70101976B97511E
:1036E00028080BE30001F5DD020E0201176F00014F
:1036F000A8EC0EF00101972BF2D70001E3DD320EAA
:103700000201176F0001A8EC0EF0050E01019C6F7D
:1037100000012AEC16F0015208E1DBDD020E020185
:10372000176F0001A8EC0EF0F0D70101976B9751CD
:1037300028080BE30001CDDD020E0201176F000126
:10374000A8EC0EF00101972BF2D728D00001BADDCA
:10375000320E0201176F0001A8EC0EF0050E0101F8
:103760009C6F00012AEC16F0015208E1B2DD020E56
:103770000201176F0001A8EC0EF0F0D70101976B62
:10378000975128080BE30001A4DD020E0201176F18
:103790000001A8EC0EF00101972BF2D7796B786B42
:1037A0000001B8DD120096908D9012000101808D0D
:1037B000809F96928D920001120096948D84100E37
:1037C000006E002EFED7000096948D94010180AD0E
:1037D00004D07C2BD8B47D2B08D07C5302E17D53E0
:1037E00004E07C51D8B47D077C0700011200010180
:1037F000809D808F96928D82000112000101986B4E
:103800000001D1DF320E0201176F0001A8EC0EF0AB
:103810000B0E01019C6F00012AEC16F0012C48D020
:10382000C5DF320E0201176F0001A8EC0EF0010196
:10383000976B97518C080BE30001BFDF040E020168
:10384000176F0001A8EC0EF00101972BF2D70001D1
:10385000CEDF640E0201176F0001A8EC0EF00B0E14
:1038600001019C6F00012AEC16F0015208E1A5DF6E
:10387000040E0201176F0001A8EC0EF0F0D7010151
:10388000976B975124080BE3000197DF040E0201A8
:10389000176F0001A8EC0EF00101972BF2D7000181
:1038A00085DF320E0201176F0001A8EC0EF049D03F
:1038B0001D2C0ED0050E01019C6F00012AEC16F0A4
:1038C000015206E10B0E0101986F016E6DD00001EF
:1038D0001D5002080EE1060E01019C6F00012AEC4A
:1038E00016F0015206E10B0E0101986F016E5CD0DB
:1038F00000017DDF320E0201176F0001A8EC0EF00F
:103900000B0E01019C6F00012AEC16F0015208E138
:1039100054DF020E0201176F0001A8EC0EF0F0D781
:103920000101976B975124080BE3000146DF040E59
:103930000201176F0001A8EC0EF00101972BF2D7DE
:10394000000134DF320E0201176F0001A8EC0EF007
:103950001D2C11D00101976B975151080BE3000109
:103960002CDF040E0201176F0001A8EC0EF001011C
:10397000972BF2D700011D50020811E10101976B4E
:1039800097513A080BE3000118DF040E0201176F8C
:103990000001A8EC0EF00101972BF2D70001010104
:1039A0007D6B7C6B98C101F00001120001019AB19E
:1039B00003D095988C9802D095988C889AB303D0B0
:1039C000949E8B9E02D0949E8B8E9AB503D0949C2D
:1039D0008B9C02D0949C8B8C000112000101946B93
:1039E000966B956B000170EC17F014EC18F001C0A9
:1039F00094F10101945303E094C101F08DD00001D2
:103A00005CEC18F001C094F10101945303E094C1FF
:103A100001F082D00001A9EC18F0ACEC18F0320EE5
:103A20000201176F0001A8EC0EF0080E01019C6F57
:103A300000012AEC16F0012C05D0D7EC18F06DDC53
:103A4000F4DC0DD0070E01019C6F00012AEC16F08A
:103A5000012C03D0EADC61DC02D05FDCE6DCEDDDCA
:103A6000015215E0030E0101A56F010EA66F0001C2
:103A7000C9EC0FF0AE0EF66E140EF76EEDEC12F010
:103A8000C40EF66E140EF76EEDEC12F0E8D7090EC8
:103A900001019C6F00012AEC16F0015206E1010EB3
:103AA0000101946F016E38D00001F1DDA7DE020E36
:103AB00001019A6F00017ADFA9EC18F0ACEC18F064
:103AC000320E0201176F0001A8EC0EF00101966B97
:103AD000956B9651020812E303E19551BB080EE382
:103AE0000001B3EC18F0020E0201176F0001A8EC00
:103AF0000EF00101952BD8B4962BEBD700015FECAB
:103B000019F001DC320E0201176F0001A8EC0EF073
:103B10000101946B94C101F000011200010E01013A
:103B2000A56FA66F0001C9EC0FF00C0E0101A46F88
:103B30000001C3EC12F0020EF66E150EF76EEDECFE
:103B400012F00101A051010A00014EE0030A5FE0FA
:103B5000010AD8B46FD0070AD8B47FD0010AD8B40C
:103B60008FD0030AD8B4AAD0010AD8B4C5D00F0A9E
:103B7000D8B4D5D0010AD8B4E5D0030AD8B400D15E
:103B8000010AD8B40AD1070AD8B414D1010AD8B4AA
:103B90001ED1030AD8B428D1010AD8B432D11F0AE1
:103BA000D8B43CD1010AD8B446D1030AD8B450D114
:103BB000010AD8B45AD1070AD8B464D1010AD8B4DA
:103BC0006ED1030AD8B478D1010AD8B482D10F0AD1
:103BD000D8B48CD1010AD8B496D1030AD8B4A0D1F4
:103BE000010AD8B4AAD1B6D1180EF66E150EF76E2A
:103BF000EDEC12F02E0EF66E150EF76EEDEC12F0E7
:103C0000440EF66E150EF76EEDEC12F0A3D15A0EBF
:103C1000F66E150EF76EEDEC12F0700EF66E150ED8
:103C2000F76EEDEC12F0860EF66E150EF76EEDECFB
:103C300012F090D19C0EF66E150EF76EEDEC12F0B0
:103C4000B20EF66E150EF76EEDEC12F0C80EF66EB3
:103C5000150EF76EEDEC12F07DD1DE0EF66E150E40
:103C6000F76EEDEC12F0F40EF66E150EF76EEDEC4D
:103C700012F00A0EF66E160EF76EEDEC12F06AD127
:103C8000200EF66E160EF76EEDEC12F0360EF66E96
:103C9000160EF76EEDEC12F01D2C06D04C0EF66EE3
:103CA000160EF76EEDEC12F01D50020806E1640EE0
:103CB000F66E160EF76EEDEC12F04CD17A0EF66E33
:103CC000160EF76EEDEC12F0900EF66E160EF76E05
:103CD000EDEC12F01D2C06D0A60EF66E160EF76E49
:103CE000EDEC12F01D50020806E1BC0EF66E160E49
:103CF000F76EEDEC12F02ED1D20EF66E160EF76EB8
:103D0000EDEC12F0E80EF66E160EF76EEDEC12F01A
:103D1000FE0EF66E160EF76EEDEC12F01BD1140EC1
:103D2000F66E170EF76EEDEC12F02A0EF66E170E09
:103D3000F76EEDEC12F0400EF66E170EF76EEDEC2E
:103D400012F008D1560EF66E170EF76EEDEC12F06B
:103D50006C0EF66E170EF76EEDEC12F01D2C06D001
:103D6000820EF66E170EF76EEDEC12F01D50020883
:103D700006E1980EF66E170EF76EEDEC12F0EAD033
:103D8000AE0EF66E170EF76EEDEC12F0C40EF66E78
:103D9000170EF76EEDEC12F0DDD0DA0EF66E170EA0
:103DA000F76EEDEC12F0F00EF66E170EF76EEDEC0E
:103DB00012F0D0D0060EF66E180EF76EEDEC12F083
:103DC0001C0EF66E180EF76EEDEC12F0C3D0320E2C
:103DD000F66E180EF76EEDEC12F0480EF66E180E39
:103DE000F76EEDEC12F0B6D05E0EF66E180EF76EB2
:103DF000EDEC12F0740EF66E180EF76EEDEC12F09C
:103E0000A9D08A0EF66E180EF76EEDEC12F0A00E29
:103E1000F66E180EF76EEDEC12F09CD0B60EF66E44
:103E2000180EF76EEDEC12F0CC0EF66E180EF76E63
:103E3000EDEC12F08FD0E20EF66E180EF76EEDEC90
:103E400012F0F80EF66E180EF76EEDEC12F082D04E
:103E50000E0EF66E190EF76EEDEC12F0240EF66EE5
:103E6000190EF76EEDEC12F075D03A0EF66E190ED3
:103E7000F76EEDEC12F0500EF66E190EF76EEDECDB
:103E800012F068D0660EF66E190EF76EEDEC12F0B9
:103E90007E0EF66E190EF76EEDEC12F05BD0960EFC
:103EA000F66E190EF76EEDEC12F0AE0EF66E190E00
:103EB000F76EEDEC12F04ED0C60EF66E190EF76EE0
:103EC000EDEC12F0DE0EF66E190EF76EEDEC12F060
:103ED00041D0F60EF66E190EF76EEDEC12F00E0EE6
:103EE000F66E1A0EF76EEDEC12F034D0260EF66E6A
:103EF0001A0EF76EEDEC12F03E0EF66E1A0EF76E1D
:103F0000EDEC12F027D0560EF66E1A0EF76EEDECB1
:103F100012F06E0EF66E1A0EF76EEDEC12F01AD06D
:103F2000860EF66E1A0EF76EEDEC12F09C0EF66E23
:103F30001A0EF76EEDEC12F00DD0B20EF66E1A0EF0
:103F4000F76EEDEC12F0C80EF66E1A0EF76EEDEC91
:103F500012F000D0FFD71200016A026A006A036AF9
:103F60000101C55102E1C45118E0100EC66FD8908E
:103F7000C237C33700360336C551035C02E1C45172
:103F8000005C07E3C451005ED8A00306C551035E80
:103F9000D88001360236C62FEAD70001120001018F
:103FA000C351C519800BC76FC3AF05D0C21FC31F54
:103FB000C22BD8B4C32BC5AF05D0C41FC51FC42B9B
:103FC000D8B4C52BC251C403F3CF01F0F4CF00F035
:103FD000C503F3500026C351C403F3500020026E02
:103FE000C7AF05D0011E021E012AD8B4022A000163
:103FF00012000101B351B55DC06FB451B659C16F24
:10400000C1C1C3F1C0C1C2F1C56BB9C1C4F10001E6
:10401000A3DF02C0C1F101C0C0F1010178513C5CD5
:10402000006E79513D5800C0BCF1BD6FBDAF0DD0E1
:10403000BDC1C3F1BCC1C2F1C569C4690001AFDF34
:1040400002C0BDF101C0BCF101017851B75D006E45
:104050007951B85900C0BEF1BF6FBFAF0DD0BFC11D
:10406000C3F1BEC1C2F1C569C469000198DF02C0D5
:10407000BFF101C0BEF10101BDBF05D0BD532FE1AD
:10408000BC51B95D2CE345C015F244C014F2C1C166
:1040900017F2C0C116F20001DFEC13F0015001016C
:1040A000B55DBA6F0250B659BB6FBBC115F2BAC14C
:1040B00014F20201176B050E166F0001DFEC13F00E
:1040C0000150FF080101BA6FFF0E0254BB6FBBC164
:1040D000CFFFBAC1CEFF442AD8B4452A49D0BFBFCA
:1040E00005D0BF532FE1BE51B95D2CE347C015F297
:1040F00046C014F2C1C117F2C0C116F20001DFECD4
:1041000013F001500101B325BA6F0250B421BB6F07
:10411000BBC115F2BAC114F20201176B050E166F7E
:104120000001DFEC13F00150FF080101BA6FFF0E30
:104130000254BB6FBBC1CFFFBAC1CEFF462AD8B471
:10414000472A16D0B4C115F2B3C114F20201176B9D
:10415000050E166F0001DFEC13F00150FF0801019E
:10416000BA6FFF0E0254BB6FBBC1CFFFBAC1CEFF07
:10417000000112000101B351B55DC06FB451B659D1
:10418000C16FC1C1C3F1C0C1C2F1C56BB9C1C4F136
:104190000001E2DE02C0C1F101C0C0F101017A51AB
:1041A0003E5C006E7B513F5800C0BCF1BD6FBDAF9F
:1041B0000DD0BDC1C3F1BCC1C2F1C569C469000164
:1041C000EEDE02C0BDF101C0BCF101017A51B75D64
:1041D000006E7B51B85900C0BEF1BF6FBFAF0DD0AC
:1041E000BFC1C3F1BEC1C2F1C569C4690001D7DE58
:1041F00002C0BFF101C0BEF10101BDBF05D0BD537A
:104200002FE1BC51B95D2CE349C015F248C014F24E
:10421000C1C117F2C0C116F20001DFEC13F001506A
:104220000101B55DBA6F0250B659BB6FBBC115F243
:10423000BAC114F20201176B050E166F0001DFEC14
:1042400013F00150FF080101BA6FFF0E0254BB6F5B
:10425000BBC1B3FFBAC1B2FF482AD8B4492A49D07A
:10426000BFBF05D0BF532FE1BE51B95D2CE34BC09A
:1042700015F24AC014F2C1C117F2C0C116F2000112
:10428000DFEC13F001500101B325BA6F0250B421E5
:10429000BB6FBBC115F2BAC114F20201176B050E58
:1042A000166F0001DFEC13F00150FF080101BA6F37
:1042B000FF0E0254BB6FBBC1B3FFBAC1B2FF4A2AA3
:1042C000D8B44B2A16D0B4C115F2B3C114F202010E
:1042D000176B050E166F0001DFEC13F00150FF089D
:1042E0000101BA6FFF0E0254BB6FBBC1B3FFBAC16D
:1042F000B2FF000112000101AF6BAE6B270EB16F70
:10430000100EB06F79C13DF078C13CF07BC13FF039
:104310007AC13EF0A1C115F2A0C114F20201176BDF
:10432000050E166F0001DFEC13F00150FF08346E2C
:10433000FF0E0254356EA3C115F2A2C114F20201A0
:10434000176B050E166F0001DFEC13F00150FF082C
:10435000366EFF0E0254376E456A446A476A466AF3
:10436000496A486A4B6A4A6A1E881E8A0101785166
:104370009C5D03E179519D5D2AE079519D5D16E3D5
:1043800003E19C51785D12E280A105D0000183EC2D
:1043900019F00AD00101000183EC19F0140E02019A
:1043A000176F0001A8EC0EF011D0010180A305D019
:1043B000000162EC19F00AD00101000162EC19F071
:1043C000140E0201176F0001A8EC0EF001017A51E2
:1043D0009E5D03E17B519F5D2AE07B519F5D16E36B
:1043E00003E19E517A5D12E280A705D00001CDEC79
:1043F00018F00AD001010001CDEC18F0280E0201DE
:10440000176F0001A8EC0EF011D0010180A505D0B6
:104410000001ACEC18F00AD001010001ACEC18F07E
:10442000280E0201176F0001A8EC0EF00101206AAE
:104430001F6A78519C5D0AE179519D5D07E17A51CF
:104440009E5D04E17B519F5DD8B46BD01EA82AD03D
:1044500078519C5D03E179519D5D24E0000169EC98
:1044600019F01E98850ECD6E9D800101AA2D12D0E7
:10447000A1C1B4F1A0C1B3F1A5C1B6F1A4C1B5F118
:104480009DC1B8F19CC1B7F1A8C1B9F10001B1DD7E
:1044900006D0010135C0CFFF34C0CEFF0001C00EF1
:1044A000F21201011EAA2AD07A519E5D03E17B51CE
:1044B0009F5D24E00001B3EC18F01E9A850EB16EEA
:1044C000A0820101AB2D12D0A3C1B4F1A2C1B3F1FE
:1044D000A7C1B6F1A6C1B5F19FC1B8F19EC1B7F1B0
:1044E000A9C1B9F1000146DE06D0010137C0B3FF12
:1044F00036C0B2FF0001C00EF21201011EB804D096
:104500001EBA02D0000E01D0010E000AD8B4F6D7B0
:104510001EA802D09D90CD6A1EAA02D0A092B16AB8
:1045200088D79D90CD6AA092B16A00011200030E57
:104530000101A56F070EA66F0001C9EC0FF029500D
:104540002FE0010A34E0030A39E0010A3EE0070ADD
:1045500043E0010A48E0030A4DE0010A52E00F0A75
:1045600057E0010A5CE0030A61E0010A66E0070A1D
:10457000D8B46AD0010AD8B46ED0030AD8B472D0C5
:10458000010AD8B476D01F0AD8B47AD0010AD8B4B8
:104590007ED0030AD8B482D0010AD8B486D08CD099
:1045A0008E0EF66E0F0EF76EEDEC12F085D0980EB3
:1045B000F66E0F0EF76EEDEC12F07ED0A20EF66ED8
:1045C0000F0EF76EEDEC12F077D0AC0EF66E0F0E0C
:1045D000F76EEDEC12F070D0B60EF66E0F0EF76EB1
:1045E000EDEC12F069D0C00EF66E0F0EF76EEDEC2A
:1045F00012F062D0CA0EF66E0F0EF76EEDEC12F0EE
:104600005BD0D40EF66E0F0EF76EEDEC12F054D0B8
:10461000DE0EF66E0F0EF76EEDEC12F04DD0E80EDA
:10462000F66E0F0EF76EEDEC12F046D0F20EF66E4F
:104630000F0EF76EEDEC12F03FD0FC0EF66E0F0E83
:10464000F76EEDEC12F038D0060EF66E100EF76E27
:10465000EDEC12F031D0100EF66E100EF76EEDECA0
:1046600012F02AD01A0EF66E100EF76EEDEC12F064
:1046700023D0240EF66E100EF76EEDEC12F01CD067
:104680002C0EF66E100EF76EEDEC12F015D0340E07
:10469000F66E100EF76EEDEC12F00ED03C0EF66ECC
:1046A000100EF76EEDEC12F007D0440EF66E100E01
:1046B000F76EEDEC12F000D01200010E0101A56FB3
:1046C000A66F0001C9EC0FF0320EF66E0F0EF76EFA
:1046D000EDEC12F04A0EF66E0F0EF76EEDEC12F0E6
:1046E000620EF66E0F0EF76EEDEC12F07A0EF66EAD
:1046F0000F0EF76EEDEC12F012000101956B976B47
:10470000966B0B0E996FB80E986F956B030EA56F95
:10471000010EA66F0001C9EC0FF0480EF66E120EE6
:10472000F76EEDEC12F0600EF66E120EF76EEDEC19
:1047300012F00101A16B070EA06F0001E9EC17F068
:1047400001019C6B00012AEC16F0015217E1010EE9
:104750000201176F0001A8EC0EF00101962BD8B4EE
:10476000972B9951975D08E303E19851965D04E317
:104770000C0E956F016E26D0E4D700010101976BF6
:10478000966B010E9C6F00012AEC16F0015217E1A6
:10479000010E0201176F0001A8EC0EF00101962B2B
:1047A000D8B4972B9951975D08E303E19851965D32
:1047B00004E30D0E956F016E05D0E3D700010101F2
:1047C00095C101F0000112000101956B976B966B8A
:1047D0002E0E996FE00E986F030EA56F010EA66F57
:1047E0000001C9EC0FF0760EF66E120EF76EEDECCE
:1047F00012F08E0EF66E120EF76EEDEC12F0166AD7
:10480000F2BE168EF29E02011B6B050E1A6F00019E
:10481000CBEC0DF016BEF28E0101A16B060EA06F5F
:104820000001E9EC17F0150E01019C6F00012AEC64
:1048300016F0015217E1010E0201176F0001A8ECFA
:104840000EF00101962BD8B4972B9951975D08E390
:1048500003E19851965D04E31A0E956F016E3AD00C
:104860000001E1D7166AF2BE168EF29E02011B6BA2
:10487000060E1A6F0001CBEC0DF016BEF28E010190
:10488000A16B050EA06F0001E9EC17F00101976B19
:10489000966B030E9C6F00012AEC16F0015217E193
:1048A000010E0201176F0001A8EC0EF00101962B1A
:1048B000D8B4972B9951975D08E303E19851965D21
:1048C00004E31B0E956F016E05D0E3D700010101D3
:1048D00095C101F0000112000101956B976B966B79
:1048E0000B0E996FB80E986F030EA56F010EA66F91
:1048F0000001C9EC0FF0A40EF66E120EF76EEDEC8F
:1049000012F0BC0EF66E120EF76EEDEC12F0010115
:10491000A16B040EA06F0001E9EC17F0040E010179
:104920009C6F00012AEC16F0015217E1010E020102
:10493000176F0001A8EC0EF00101962BD8B4972B4D
:104940009951975D08E303E19851965D04E3110ED8
:10495000956F016E05D00001E1D7010195C101F00D
:10496000000112000101B351B55DC06FB451B659D9
:10497000C16FC1C1C3F1C0C1C2F1C56BB9C1C4F13E
:104980000001ACEC1FF002C0C1F101C0C0F1010197
:104990007C51405C006E7D51415800C0BCF1BD6F40
:1049A000BDAF0ED0BDC1C3F1BCC1C2F1C569C46900
:1049B0000001CFEC1FF002C0BDF101C0BCF101014C
:1049C0007C51B75D006E7D51B85900C0BEF1BF6F1C
:1049D000BFAF0ED0BFC1C3F1BEC1C2F1C569C469CA
:1049E0000001CFEC1FF002C0BFF101C0BEF1010118
:1049F000BDBF05D0BD532FE1BC51B95D2CE34DC007
:104A000015F24CC014F2C1C117F2C0C116F2000178
:104A1000DFEC13F001500101B55DBA6F0250B659D9
:104A2000BB6FBBC115F2BAC114F20201176B050EC0
:104A3000166F0001DFEC13F00150FF080101BA6F9F
:104A4000FF0E0254BB6FBBC1D7FFBAC1D6FF4C2AC1
:104A5000D8B44D2A49D0BFBF05D0BF532FE1BE51B6
:104A6000B95D2CE34FC015F24EC014F2C1C117F26C
:104A7000C0C116F20001DFEC13F001500101B325B3
:104A8000BA6F0250B421BB6FBBC115F2BAC114F2A8
:104A90000201176B050E166F0001DFEC13F00150D9
:104AA000FF080101BA6FFF0E0254BB6FBBC1D7FFF5
:104AB000BAC1D6FF4E2AD8B44F2A16D0B4C115F2C7
:104AC000B3C114F20201176B050E166F0001DFEC83
:104AD00013F00150FF080101BA6FFF0E0254BB6FC3
:104AE000BBC1D7FFBAC1D6FF0001EFEF26F001012D
:104AF000B06BAF6B270EB26F100EB16F79C13DF086
:104B000078C13CF07BC13FF07AC13EF07DC141F0FD
:104B10007CC140F09EC115F29DC114F20201176BD9
:104B2000050E166F0001DFEC13F00150FF08346E24
:104B3000FF0E0254356EA0C115F29FC114F202019E
:104B4000176B050E166F0001DFEC13F00150FF0824
:104B5000366EFF0E0254376EA2C115F2A1C114F2D7
:104B60000201176B050E166F0001DFEC13F0015008
:104B7000FF08386EFF0E0254396E456A446A476A70
:104B8000466A496A486A4B6A4A6A4D6A4C6A4F6A81
:104B90004E6A1E8C1E881E8A1E9401017851975DF4
:104BA00003E17951985D2AE07951985D16E303E1BC
:104BB0009751785D12E280A105D0000183EC19F0D5
:104BC0000AD00101000183EC19F0140E0201176FE5
:104BD0000001A8EC0EF011D0010180A305D0000166
:104BE00062EC19F00AD00101000162EC19F0140E18
:104BF0000201176F0001A8EC0EF001017A51995DD6
:104C000003E17B519A5D2AE07B519A5D16E303E153
:104C100099517A5D12E280A705D00001CDEC18F021
:104C20000AD001010001CDEC18F0280E0201176F27
:104C30000001A8EC0EF011D0010180A505D0000103
:104C4000ACEC18F00AD001010001ACEC18F0280E11
:104C50000201176F0001A8EC0EF001017C519B5D71
:104C600003E17D519C5D2AE07D519C5D16E303E1EB
:104C70009B517C5D12E280AD05D00001D6EC1BF0AB
:104C80000AD001010001D6EC1BF0280E0201176FBB
:104C90000001A8EC0EF011D0010180AF05D0000199
:104CA000F7EC1BF00AD001010001F7EC1BF0280E15
:104CB0000201176F0001A8EC0EF00101206A1F6AC3
:104CC0007851975D10E17951985D0DE17A51995DC8
:104CD0000AE17B519A5D07E17C519B5D04E17D51C6
:104CE0009C5DD8B49FD01EA82BD07851975D03E16E
:104CF0007951985D25E0000169EC19F01E98850E48
:104D0000CD6E9D800101AC2D13D09EC1B4F19DC12B
:104D1000B3F1A4C1B6F1A3C1B5F198C1B8F197C17F
:104D2000B7F1A9C1B9F10001F9EC1FF006D00101FA
:104D300035C0CFFF34C0CEFF0001C00EF21201011A
:104D40001EAA2BD07A51995D03E17B519A5D25E033
:104D50000001B3EC18F01E9A850EB16EA08201011D
:104D6000AD2D13D0A0C1B4F19FC1B3F1A6C1B6F16E
:104D7000A5C1B5F19AC1B8F199C1B7F1AAC1B9F10C
:104D80000001BAEC20F006D0010137C0B3FF36C0F5
:104D9000B2FF0001C00EF21201011EAC2AD07C51FC
:104DA0009B5D03E17D519C5D24E00001DDEC1BF087
:104DB0001E9C880ED56EF28A0101AE2D12D0A2C1C2
:104DC000B4F1A1C1B3F1A8C1B6F1A7C1B5F19CC1BD
:104DD000B8F19BC1B7F1ABC1B9F10001C3D506D0A1
:104DE000010139C0D7FF38C0D6FF0001C00EF21252
:104DF00001011EB806D01EBA04D01EBC02D0000E9F
:104E000001D0010E000AD8B4F4D71EA802D09D909C
:104E1000CD6A1EAA02D0A092B16A1EAC02D0F29A4C
:104E2000D56A4ED79D90CD6AA092B16AF29AD56AA2
:104E30000001120094948B84100E006E002EFED799
:104E4000000094948B94010180A504D07A2BD8B4EF
:104E50007B2B08D07A5302E17B5304E07A51D8B41B
:104E60007B077A07000117EF28F00101AA6BA96BF5
:104E7000270EAC6F100EAB6F79C13DF078C13CF0DE
:104E80007BC13FF07AC13EF09CC115F29BC114F288
:104E90000201176B050E166F0001DFEC13F00150D5
:104EA000FF08346EFF0E0254356E9EC115F29DC18F
:104EB00014F20201176B050E166F0001DFEC13F000
:104EC0000150FF08366EFF0E0254376E456A446A81
:104ED000476A466A496A486A4B6A4A6A1E881E8A55
:104EE00001017851975D03E17951985D2AE079518C
:104EF000985D16E303E19751785D12E280A105D039
:104F0000000183EC19F00AD00101000183EC19F0D3
:104F1000140E0201176F0001A8EC0EF011D0010170
:104F200080A305D0000162EC19F00AD00101000154
:104F300062EC19F0140E0201176F0001A8EC0EF0DC
:104F400001017A51995D03E17B519A5D2AE07B5121
:104F50009A5D16E303E199517A5D12E280A505D0CE
:104F60000001ACEC18F00AD001010001ACEC18F023
:104F7000280E0201176F0001A8EC0EF011D00101FC
:104F800080A705D00001CDEC18F00AD00101000186
:104F9000CDEC18F0280E0201176F0001A8EC0EF0FE
:104FA0000101206A1F6A7851975D0AE17951985D85
:104FB00007E17A51995D04E17B519A5DD8B46CD0D8
:104FC0001EA82BD07851975D03E17951985D25E0BB
:104FD000000169EC19F01E98850ECD6E9D800101CF
:104FE000A52D13D09CC1B4F19BC1B3F1A0C1B6F102
:104FF0009FC1B5F198C1B8F197C1B7F1A3C1B9F19B
:105000000001F9EC1FF006D0010135C0CFFF34C01C
:10501000CEFF0001C00EF21201011EAA2AD07A5161
:10502000995D03E17B519A5D24E0000103D71E9A4C
:10503000850EB16EA0820101A62D13D09EC1B4F1E0
:105040009DC1B3F1A2C1B6F1A1C1B5F19AC1B8F148
:1050500099C1B7F1A4C1B9F10001BAEC20F006D0B2
:10506000010137C0B3FF36C0B2FF0001C00EF2121B
:1050700001011EB804D01EBA02D0000E01D0010EEC
:10508000000AD8B4F6D71EA802D09D90CD6A1EAAF9
:1050900002D0A092B16A87D79D90CD6AA092B16AE2
:1050A0000001120001019AB103D0959E8C9E02D09E
:1050B000959E8C8E9AB303D0959C8C9C02D0959C27
:1050C0008C8C9AB503D0959A8C9A02D0959A8C8A3A
:1050D000000112000101966B030EA56F010EA66F71
:1050E0000001C9EC0FF0A80EF66E100EF76EEDEC95
:1050F00012F0C00EF66E100EF76EEDEC12F001011C
:10510000952D89D0986B976B030E9A6F840E996FCB
:10511000070E9C6F4B0E9B6F010E9E6F2C0E9D6FAA
:10512000010EA06F2C0E9F6F030EA26FE80EA16FF1
:105130000F0EA46FA00EA36F0F0EA66FA00EA56F8B
:105140000F0EA86FA00EA76FC80EA96FAA6FAB6F46
:10515000010EAC6FAD6FAE6F0001C9DC070E01012F
:105160009C6F00012AEC16F0012C06D0020E010102
:10517000966F016E2FD100010E0E01019D6F740E0E
:105180009C6F030E9F6F840E9E6F010EA16F2C0EFD
:10519000A06F010EA36F2C0EA26F070EA56FD00E8D
:1051A000A46F070EA76FD00EA66FC80EA86FA96FC9
:1051B000010EAA6FAB6FAC6BAD6B00017BEC21F005
:1051C0000F0E01019D6F090E9C6F110E9F6F170E40
:1051D0009E6F010EA16F2C0EA06F010EA36F2C0EFF
:1051E000A26F070EA56FD00EA46F070EA76FD00E8B
:1051F000A66FC80EA86FA96F010EAA6FAB6FAC6B3C
:10520000AD6B00017BEC21F0030E01019A6F0001F0
:10521000D6EC1CF0010195510208D8A4D9D00001A8
:10522000A9EC18F0CDEC18F0320E0201176F000156
:10523000A8EC0EF00F0E0101986F3C0E976F9A6B61
:10524000996B010E9C6F2C0E9B6F010E9E6F2C0EA6
:105250009D6F070EA06FD00E9F6F070EA26FD00E2E
:10526000A16FC80EA36FA46F010EA56FA66FA76BE9
:10527000A86B0001FADD0F0E0101986F3C0E976FCD
:105280009A6B996B070E9C6F3F0E9B6F010E9E6F82
:105290002C0E9D6F010EA06F2C0E9F6F030EA26F40
:1052A000E80EA16F0F0EA46FA00EA36F0F0EA66FD6
:1052B000A00EA56F0F0EA86FA00EA76FC80EA96F46
:1052C000AA6FAB6F010EAC6FAD6FAE6F00010FDC5C
:1052D0000F0E01019D6F3C0E9C6F9F6B500E9E6FD9
:1052E000010EA16F2C0EA06F010EA36F2C0EA26FEA
:1052F000070EA56FD00EA46F070EA76FD00EA66F76
:10530000C80EA86FA96F010EAA6FAB6FAC6BAD6B27
:1053100000017BEC21F0640E0201176F0001A8EC84
:105320000EF0070E01019C6F00012AEC16F0012C13
:1053300006D0020E0101966F016E4CD000010101F2
:105340009D6B9C6B9F6B500E9E6F010EA16F2C0E80
:10535000A06F010EA36F2C0EA26F070EA56FD00ECB
:10536000A46F070EA76FD00EA66FC80EA86FA96F07
:10537000010EAA6FAB6FAC6BAD6B00017BEC21F043
:1053800001019D6B9C6B0D0E9F6F7F0E9E6F010E3A
:10539000A16F2C0EA06F010EA36F2C0EA26F070E33
:1053A000A56FD00EA46F070EA76FD00EA66FC80E04
:1053B000A86FA96F010EAA6FAB6FAC6BAD6B00014C
:1053C0007BEC21F0030E01019A6F00016BDE0101FD
:1053D00096C101F000011200F29CF29EF2BEFDD7D0
:1053E0000101A26B29C0A1F1A2C115F229C014F2DA
:1053F0000201176BC80E166F0001DFEC13F0030EED
:1054000001010124556E000E0220566EA26B9AC156
:10541000A1F1A2C115F29AC114F20201176B0C0E90
:10542000166F0001DFEC13F0015055260250562292
:10543000C580C5B0FED7166AF2BE168EF29EA00ECB
:105440000201236F000194EC0DF016BEF28E56C0DF
:10545000A1F10101A26B166AF2BE168EF29E56C031
:1054600023F2000194EC0DF016BEF28E166AF2BE25
:10547000168EF29E55C023F294EC0DF016BEF28EFD
:10548000C582C5B2FED7166AF2BE168EF29EA10E76
:105490000201236F000194EC0DF016BEF28E010E96
:1054A000006E09EC10F001C09BF1010E006E09ECDA
:1054B00010F001C09CF1010E006E09EC10F001C06B
:1054C0009DF1010E006E09EC10F001C09EF1010E7D
:1054D000006E09EC10F001C09FF1006A09EC10F0B9
:1054E00001C0A0F1C584C5B4FED71E7E9BC12BF0C0
:1054F0009CC12AF09DC12DF09EC12CF09FC12FF0C0
:10550000A0C12EF0C00EF21212001D2C44D00101D9
:105510009B510F080BE2FF0A03E19A51CC0806E207
:10552000140EA06F00018EEC1DF001019D511408B6
:105530000BE2FF0A03E19C51A40806E2150EA06FDE
:1055400000018EEC1DF001019F5100080BE2FF0AE3
:1055500003E19E51F40806E2160EA06F00018EECE6
:105560001DF001019B5105080AE303E19A5113085C
:1055700006E3170EA06F00018EEC1DF001019D5196
:1055800003080AE303E19C51E70806E3180EA06F45
:1055900000018EEC1DF001011D5002082AE19B5113
:1055A00004080BE2FF0A03E19A51780806E2140EA0
:1055B000A06F00018EEC1DF001019D510F080BE260
:1055C000FF0A03E19C51970806E2150EA06F000147
:1055D0008EEC1DF001019F5100080BE2FF0A03E170
:1055E0009E512C0806E2160EA06F00018EEC1DF0F5
:1055F0000101000112000101809B80997E519B5D99
:1056000003E17F519C5D10E07F519C5D09E303E164
:105610009B517E5D05E2000145EC17F004D00101CD
:10562000000166EC17F001017E519B5D03E17F51A3
:105630009C5D24E000014CEC17F09EC19FF101013C
:105640009F2B9F07D8B40DD0166AF2BE168EF29E1D
:1056500002011B6900011DEC0EF016BEF28E010165
:10566000F0D7166AF2BE168EF29E9DC11BF20001A3
:105670001DEC0EF016BEF28E0101D6D7000112000D
:1056800001019F6B9E6B9CC124F09BC123F0206A9B
:105690001F6A9D2D0FD0A16B0D0EA06F0001E9ECCC
:1056A00017F00101A16B0C0EA06F0001E9EC17F0DF
:1056B00015D00101A16B0E0EA06F0001E9EC17F0EF
:1056C0000101A16B0D0EA06F0001E9EC17F00101C3
:1056D000A16B0C0EA06F0001E9EC17F01E84EC0E1C
:1056E000226E770E216E1E9C880ED56EF28A22C025
:1056F000D7FF21C0D6FFC00EF21212000101809127
:10570000809379519E5D09E303E19D51785D05E247
:10571000000183EC19F004D00101000162EC19F0E2
:10572000010178519D5D03E179519E5D09E0000121
:1057300069EC19F09FC117F2A8EC0EF0F1D7010146
:1057400000011200EACFA3F1E9CFA2F101019C39D7
:10575000F0099E6F9E27E20F9F6F320FA16F9C5141
:105760000F0B9F279F27A127E90FA06FA027A02736
:105770009B390F0BA027A127A037A137A11FA13765
:105780009B510F0BA1279E37070E9D6F0A0EA00796
:10579000A127FDE39F07A027FDE39E079F27FDE3C9
:1057A0009D079E27FDE3010EEA6E9D0EE96E070E32
:1057B000A215A29DE926000EEA22E950A10803E104
:1057C000EA2C01D0A28DEF50006E08E1A2BD06D0F8
:1057D000A2B916D0A2B702D0200E03D0A287A299F8
:1057E000300E0026EACF9CF1E9CF9BF100C0A4F176
:1057F0000001C3EC12F09CC1EAFF9BC1E9FF01016B
:10580000EE50A2ADDAD70001120001019C6BC80E68
:105810009B6F070E9E6FD00E9D6F0001ECDE2BC0BC
:105820009DF12AC09CF12DC09FF12CC09EF1010E6C
:105830000101A16F2C0EA06F010EA36F2C0EA26FA1
:10584000070EA56FD00EA46F070EA76FD00EA66F20
:10585000C80EA86FA96F010EAA6FAB6FAC6BAD6BD2
:1058600000017BEC21F02FC09CF12EC09BF1070EB4
:1058700001019E6FD00E9D6F0001BDDE01019A2DCA
:105880000FD0A16B0D0EA06F0001E9EC17F0010124
:10589000A16B0C0EA06F0001E9EC17F015D001010F
:1058A000A16B0E0EA06F0001E9EC17F00101A16BD6
:1058B0000D0EA06F0001E9EC17F00101A16B0C0EB9
:1058C000A06F0001E9EC17F0020E01019B6F960E2C
:1058D0000201176F0001A8EC0EF001019B2FF7D712
:1058E000166AF2BE168EF29E02011B6B0E0E1A6F26
:1058F0000001CBEC0DF016BEF28E166AF2BE168ECB
:10590000F29E02011B6B0D0E1A6F0001CBEC0DF025
:1059100016BEF28E166AF2BE168EF29E02011B6B46
:105920000C0E1A6F0001CBEC0DF016BEF28E0C0EB1
:1059300001019B6FFA0E0201176F0001A8EC0EF037
:1059400001019B2FF7D7010E9C6F2C0E9B6F9AC104
:105950009DF1000195DE3C0E2A2401019B6F000E93
:105960002B209C6F9E6F9BC19DF1140E9F6F0001B9
:10597000C5DE5A0E2A2401019B6F000E2B209C6F5E
:105980009E6F9BC19DF1050E9F6F0001B7DE040E57
:105990000101A56F030EA66F0001C9EC0FF0010E07
:1059A000E96E7FC19CF17EC19BF1CCDE120001014A
:1059B0009C6BC80E9B6F070E9E6FD00E9D6F0001F3
:1059C0001ADE2BC09DF12AC09CF12DC09FF12CC086
:1059D0009EF1010E0101A16F2C0EA06F010EA36FAD
:1059E0002C0EA26F070EA56FD00EA46F070EA76F27
:1059F000D00EA66FC80EA86FA96F010EAA6FAB6F6D
:105A0000AC6BAD6B00017BEC21F02FC09CF12EC084
:105A10009BF1070E01019E6FD00E9D6F0001EBDD23
:105A200001019A2D0FD0A16B0D0EA06F0001E9ECC2
:105A300017F00101A16B0C0EA06F0001E9EC17F04B
:105A400015D00101A16B0E0EA06F0001E9EC17F05B
:105A50000101A16B0D0EA06F0001E9EC17F001012F
:105A6000A16B0C0EA06F0001E9EC17F0020E010112
:105A70009B6F960E0201176F0001A8EC0EF001015A
:105A80009B2FF7D7166AF2BE168EF29E02011B6B91
:105A90000E0E1A6F0001CBEC0DF016BEF28E166AD8
:105AA000F2BE168EF29E02011B6B0D0E1A6F0001E4
:105AB000CBEC0DF016BEF28E166AF2BE168EF29E7A
:105AC00002011B6B0C0E1A6F0001CBEC0DF016BE21
:105AD000F28E0C0E01019B6FFA0E0201176F00018E
