:040000002EEF6AF085
:08000800046ED8CF05F0E0CF33
:1000100006F00001E9CF0CF0EACF07F0E1CF08F0DD
:10002000E2CF09F0D9CF0AF0DACF0BF0F3CF12F01C
:10003000F4CF13F0FACF14F000C00EF001C00FF0AF
:1000400002C010F003C011F0F2AA2AEF00F0F2B4DF
:1000500007EF0CF09DA030EF00F09EB0DDEF0EF04A
:100060009DA236EF00F09EB2E1EF0EF0A0A23CEFB1
:1000700000F0A1B27BEF14F00EC000F00FC001F051
:1000800010C002F011C003F00CC0E9FF07C0EAFF86
:10009000078E08C0E1FF09C0E2FF0AC0D9FF0BC00C
:1000A000DAFF12C0F3FF13C0F4FF14C0FAFF0450CC
:1000B00006C0E0FF05C0D8FF10006572726F2064B3
:1000C00065206573637269746120000020202045FB
:1000D0004550524F4D2020202020202000006572E6
:1000E000726F206465206C656974757261202000F0
:1000F0002020202020454550524F4D2020202020F8
:10010000200020202020202020204943545320205C
:100110002020202020200A0D00002020494E53548A
:10012000495455544F2043454E54524F20200A0DF8
:100130000000202020205445434E4F4C4F4749415A
:1001400020454D2020200A0D0000202020202020C6
:10015000534F4654574152452020202020200A0D5D
:1001600000002020202020494E494349414E444F61
:1001700020202020200A0D00202020202020424185
:100180004E44454A415320202020200A0D004D4F67
:1001900056494D454E54414E444F2042414E4445F0
:1001A0004A410A0D00002020202050415241205099
:1001B0004F534943414F202020200A0D00002020AA
:1001C000202020414C494D454E5441444F5220205F
:1001D00020200A0D00004D4F56494D454E54414ECA
:1001E000444F2042414E44454A410A0D0000202020
:1001F00020205041524120504F534943414F20202D
:1002000020200A0D000020202020202020484F4DD3
:10021000452031202020202020200A0D00004D4FB5
:1002200056494D454E54414E444F2042414E44455F
:100230004A410A0D00002020202050415241205008
:100240004F534943414F202020200A0D0000202019
:1002500020202020534F4C444147454D2020202052
:10026000200A0D004D4F56494D454E54414E444FC6
:100270002042414E44454A410A0D000020202020E2
:100280005041524120504F534943414F202020209C
:100290000A0D000020202020202020484F4D45201E
:1002A00032202020202020200A0D00004D4F5649EA
:1002B0004D454E54414E444F2042414E44454A41E3
:1002C0000A0D0000202020205041524120504F5361
:1002D0004943414F202020200A0D000020202020EB
:1002E00044495350454E5341444F52202020202032
:1002F0000A0D000020204553504552414E444F20E6
:1003000042414E44454A41200A0D00002020204928
:1003100052205041524120504F534943414F2020D9
:100320000A0D0000202020205052452D52455155E5
:10033000495349544F2020200A0D00002020204519
:1003400053504552414E444F204F55545241202066
:100350000A0D00002020202020202042414E44454C
:100360004A412020202020200A0D00002020204982
:1003700052205041524120504F534943414F202079
:100380000A0D00002020202020414C494D454E54AC
:1003900041444F52202020200A0D000020202045FB
:1003A00053504552414E444F204F55545241202006
:1003B0000A0D00002020202020202042414E4445EC
:1003C0004A412020202020200A0D00002020204922
:1003D00052205041524120504F534943414F202019
:1003E0000A0D000020202020202020484F4D4520CD
:1003F00031202020202020200A0D00002020204530
:1004000053504552414E444F204F555452412020A5
:100410000A0D00002020202020202042414E44458B
:100420004A412020202020200A0D000020202049C1
:1004300052205041524120504F534943414F2020B8
:100440000A0D00002020202020534F4C44414745F6
:100450004D203120202020200A0D000020202045A2
:1004600053504552414E444F204F55545241202045
:100470000A0D00002020202020202042414E44452B
:100480004A412020202020200A0D00002020204961
:1004900052205041524120504F534943414F202058
:1004A0000A0D000020202020202020484F4D45200C
:1004B00032202020202020200A0D0000202020456E
:1004C00053504552414E444F204F555452412020E5
:1004D0000A0D00002020202020202042414E4445CB
:1004E0004A412020202020200A0D00002020204901
:1004F00052205041524120504F534943414F2020F8
:100500000A0D0000202020202044495350454E531E
:1005100041444F52202020200A0D00002020204579
:1005200053504552414E444F204F55545241202084
:100530000A0D00002020202020202042414E44456A
:100540004A412020202020200A0D00002020205396
:1005500041495220444120504F534943414F2020AC
:100560000A0D000020202020202020204154554149
:100570004C202020202020200A0D000020534F4C2A
:100580004441444F52204155544F4D415449434FEB
:100590000A0D00002020202020204D4F44454C4FC4
:1005A0003A253032752020200A0D0000202020201E
:1005B000204D454E553A4544495441522020202073
:1005C0000A0D00002020454E5445523A4155544FE3
:1005D0004D415449434F20200A0D00002053454C03
:1005E0004543494F4E4520412042414E44454A41F2
:1005F0000A0D00002020202046313A2042414E447E
:10060000454A4120312020200A0D000020202020D2
:1006100046323A2042414E44454A41203220202071
:100620000A0D0000202020204553433A4241434B0D
:1006300020202020202020200A0D00002020202023
:10064000204D414E5554454E43414F2020202020FF
:100650000A0D000020202020202042414E44454A1F
:1006600041203220202020200A0D000020202020C0
:10067000202020202020202020202020202020207A
:100680000A0D00002020202020204553433A4241FB
:10069000434B2020202020200A0D00002020202075
:1006A0004553434F4C484552204143414F20202061
:1006B0000A0D000046313A4544495441522F4D41FC
:1006C0004E5554454E43414F0A0D000046323A45BF
:1006D00058434C5549204D4F44454C4F20200A0D5E
:1006E00000004553433A4241434B20202020202024
:1006F000202020200A0D0000202046313A204544C9
:100700004954415220504F4E544F53200A0D00007F
:10071000202046323A204D414E5554454E43414FDC
:10072000202020200A0D000020204553433A42415A
:10073000434B202020202020202020200A0D0000D4
:1007400020202046313A204E20504F4E544F532007
:10075000202020200A0D0000202046323A20454467
:100760004954415220504F4E544F53200A0D00001F
:1007700020204553433A4241434B20202020202053
:10078000202020200A0D000020204E554D45524FBC
:1007900020444520504F4E544F5320200A0D000056
:1007A000202020202020202530344C75202020209F
:1007B0002020200A0D0020454E5445523A53415600
:1007C000457C4553433A4241434B0A0D00002020EB
:1007D00020444553454A41204558434C55495220F1
:1007E00020200A0D000020202020204F204D4F44C3
:1007F000454C4F203F20202020200A0D00002020C3
:1008000020202020454E5445523A4F4B2020202096
:1008100020200A0D00002020202020204553433AAC
:100820004241434B20202020200A0D005025303229
:1008300075202020202020202020454E543A454479
:1008400049540A0D00005025303275202020202008
:10085000202020204553433A4241434B0A0D0000DB
:1008600050253032752020202020202020202020DC
:100870002020202020200A0D000050253032752035
:100880002020202020202020202020202020202068
:100890000A0D0000583A2530344C7520543A253062
:1008A000344C750A0D00593A2530344C7520483ABD
:1008B0002530344C7520463A2530344C750A0D00ED
:1008C0005A3A2530344C7520493A25303275204C3F
:1008D0003A2530344C750A0D000046313A475241F2
:1008E00056417C46333A50524F580A0D000053315E
:1008F0003A2530344C750A0D000053323A25303415
:100900004C7520453A2530344C750A0D00005333A0
:100910003A2530344C750A0D000046313A524543B1
:100920007C46333A4241434B0A0D000053323A258C
:1009300030344C7520453A2530344C750A0D000092
:1009400053333A2530344C750A0D000046313A5283
:1009500045437C46333A4241434B0A0D0000533134
:100960003A2530344C750A0D000053323A253034A4
:100970004C7520453A2530344C750A0D000046313F
:100980003A5245437C46333A4241434B0A0D0000FC
:1009900053323A2530344C7520453A2530344C7565
:1009A0000A0D000046313A5245437C46333A4241F3
:1009B000434B0A0D0000202020202020564552499C
:1009C000464951554520202020200A0D00002020B6
:1009D0004F5320414C494D454E5441444F5245538D
:1009E00020200A0D000020202020202044452053F4
:1009F0004F4C44412020202020200A0D00002020C0
:100A000020202020454E5445523A4F4B2020202094
:100A100020200A0D00004D414E5554454E43414F94
:100A20002042414E44454A4120310A0D0000202019
:100A3000204A412046494E414C495A414441203FB9
:100A400020200A0D0000202020202020454E544563
:100A5000523A4F4B2020202020200A0D0000202059
:100A600020202020204553433A4E4F202020202094
:100A700020200A0D00002046313A204445425547C7
:100A800020454E545241444153200A0D0000204657
:100A9000323A20204445425547205341494441536E
:100AA00020200A0D000020202020202020202020AF
:100AB000202020202020202020200A0D000020209F
:100AC000202020204553433A4241434B2020202000
:100AD00020200A0D00004530303A2530327520457F
:100AE00030313A25303275204530323A2530327572
:100AF0000A0D00004530333A253032752045303438
:100B00003A25303275204530353A253032750A0D98
:100B100000004530363A25303275204530373A25C9
:100B2000303275204530383A253032750A0D0000D4
:100B30002020203E3A50524F587C4553433A424180
:100B4000434B20200A0D00004530393A25303275DC
:100B5000204531303A25303275204531313A253043
:100B600032750A0D00004531323A25303275204584
:100B700031333A25303275204531343A25303275DB
:100B80000A0D00004531353A2530327520453136A1
:100B90003A25303275204531373A253032750A0D05
:100BA000000020203C7C3E3A50524F587C45534335
:100BB0003A4241434B200A0D00004531383A253076
:100BC0003275204531393A25303275204532303A78
:100BD000253032750A0D00004532313A2530327524
:100BE000204532323A25303275204532333A2530AD
:100BF00032750A0D00004532343A253032752045F1
:100C000032353A25303275204532363A2530327544
:100C10000A0D00004532373A25303275203C3A4102
:100C20004E547C4553433A4241434B0A0D004553D1
:100C300054454952412020202020202020202020DF
:100C400020200A0D00004445444F5320454E545285
:100C5000414441202020202020200A0D0000414C4A
:100C6000494D454E5441444F525F504C4143412001
:100C700020200A0D000046313A4F4E7C46323A4F52
:100C8000467C4553433A4241434B0A0D00005052C3
:100C90004553534F52202020202020202020202068
:100CA00020200A0D00004445444F535F53414944FE
:100CB000412020202020202020200A0D000044492F
:100CC0005350454E5341444F525F504C4143412095
:100CD00020200A0D000046313A4F4E7C46323A4FF2
:100CE000467C4553433A4241434B0A0D0000414C78
:100CF000494D454E5441444F525F534F4C4441205F
:100D000020200A0D00004C494D5041444F525F4293
:100D100049434F202020202020200A0D0000464576
:100D200052524F535F44455F534F4C444120202063
:100D300020200A0D000046313A4F4E7C46323A4F91
:100D4000467C4553433A4241434B0A0D0000202064
:100D500020583A2530344C752020593A2530344CEF
:100D60007520200A0D002020205A3A2530344C7579
:100D70002020463A2530344C7520200A0D002020D2
:100D80002020202020494E433A2532752020202063
:100D9000200A0D00202020202020204553433A42E5
:100DA00041434B2020202020200A0D00204558459B
:100DB000435554414E444F2050524F4752414D41AC
:100DC0000A0D000020202020204D4F44454C4F3A72
:100DD00025303275202020200A0D00002020202000
:100DE0002020202020202020202020202020202003
:100DF0000A0D00002020202020204553433A535460
:100E00004F502020202020200A0D00002020504F8D
:100E1000534943414F204952524547554C41522076
:100E20000A0D0000202020582044455645205345F7
:100E300052203E20302020200A0D00002020592082
:100E40004445564520534552203E2037303020201F
:100E50000A0D00002020434152524547414E444F65
:100E6000204D4F44454C4F200A0D000020204341A7
:100E700052524547414E444F204D4F44454C4F2020
:100E80000A0D00002020204553504552414E444F4A
:100E900020504C4143412020200A0D0020202020DA
:100EA000204E4120455354454952412020202020C6
:100EB0000A0D000020564552494649515545204FDC
:100EC000204E554D45524F200A0D0000204445202C
:100ED000504F4E544F53204E4F204D4F44454C4F92
:100EE0000A0D000020202047524156414E444F2019
:100EF000504F4E544F5320200A0D0000504F4E5477
:100F00004F5320415455414C495A41444F530A0DC7
:100F1000000020204558434C55494E444F204D4F2A
:100F200044454C4F20200A0D00002020204D4F4406
:100F3000454C4F204558435549444F2020200A0D29
:100F4000000020202047524156414E444F20504F30
:100F50004E544F2020200A0D000020202020504F0A
:100F60004E544F204752415641444F2020200A0DF5
:100F700000002020202053454D20534F4C44412059
:100F80004E4F532020200A0D000020202020414CED
:100F9000494D454E5441444F5245532020200A0D9F
:100FA000000020202047524156414E444F20504FD0
:100FB0004E544F2020200A0D000020202020504FAA
:100FC0004E544F204752415641444F2020200A0D95
:100FD00000002020202053454D20534F4C444120F9
:100FE0004E4F532020200A0D000020202020414C8D
:100FF000494D454E5441444F5245532020200A0D3F
:101000000000202056455249464943414E444F2056
:10101000534F4C4441200A0D00002056455249468A
:1010200049515545204E4F56414D454E54450A0DA8
:101030000000202020202020204120534F4C4441FC
:101040002020202020200A0D000020202020202009
:10105000534F4C4441204F4B2020202020200A0D8C
:1010600000005245494E4943494F20444F205052B9
:101070004F4752414D410A0D0000202020414F2092
:1010800046494D20444F204349434C4F20200A0DF0
:1010900000002020204553504552414E444F2050DF
:1010A0004C4143412020200A0D0020202020204ECA
:1010B00041204553544549524120202020200A0D0B
:1010C00000005245494E4943494F20444F20505259
:1010D0004F4752414D410A0D0000202020414F2032
:1010E00046494D20444F204349434C4F20200A0D90
:1010F000000020202020202053454D20504C41430B
:101100004120202020200A0D000020202020204EF9
:10111000412042414E44454A4120202020200A0DD2
:1011200000005245494E4943494F20444F205052F8
:101130004F4752414D410A0D0000202020414F20D1
:1011400046494D20444F204349434C4F20200A0D2F
:1011500000005245494E4943494F20444F205052C8
:101160004F4752414D410A0D0000202020414F20A1
:1011700046494D20444F204349434C4F20200A0DFF
:1011800000005245494E4943494F20444F20505298
:101190004F4752414D410A0D0000202020414F2071
:1011A00046494D20444F204349434C4F20200A0DCF
:1011B00000005245494E4943494F20444F20505268
:1011C0004F4752414D410A0D0000202020414F2041
:1011D00046494D20444F204349434C4F20200A0D9F
:1011E00000005245494E4943494F20444F20505238
:1011F0004F4752414D410A0D0000202020414F2011
:1012000046494D20444F204349434C4F20200A0D6E
:1012100000005245494E4943494F20444F20505207
:101220004F4752414D410A0D0000202020414F20E0
:1012300046494D20444F204349434C4F20200A0D3E
:1012400000005245494E4943494F20444F205052D7
:101250004F4752414D410A0D0000202020414F20B0
:1012600046494D20444F204349434C4F20200A0D0E
:1012700000000201E953D8A497D0E951040DF350BE
:10128000036A890FE96E020E0320EA6EEFCF00F0C9
:10129000ECCF01F0ECCF02F0ECCF03F00050DD5DBD
:1012A00060E10150DE5D5DE102525BE1035259E114
:1012B000E951040DF350036A890FE96E020E032011
:1012C000EA6EEFCFA6F5ECCFA7F5ECCFA8F5ECCF03
:1012D000A9F5010EE925040DF350036A890FE96EA3
:1012E000020E0320EA6EEFCF00F0ECCF01F0ECCF5E
:1012F00002F0ECCF03F00501A6510026A751012210
:10130000A8510222A951032200500201E5270150F1
:10131000E6230250E7230350E823E92BE951040DAB
:10132000F350036A390FE96E020E0320EA6EEFCF25
:1013300000F0ECCF01F0ECCF02F0ECCF03F0FF0EA9
:10134000D88000540501A66FFF0E0154A76F000E50
:101350000254000E0354A7C5D7FFA6C5D6FF22D05E
:101360000201E951040DF350036A390FE96E020ED0
:101370000320EA6EEFCF00F0ECCF01F0ECCF02F0EB
:10138000ECCF03F0FF0ED88000540501A66FFF0ECE
:101390000154A76F000E0254000E0354A7C5D7FFD7
:1013A000A6C5D6FF8FD00201EA51E95D23E1E951DC
:1013B000040DF350036A390FE96E020E0320EA6E42
:1013C000EFCF00F0ECCF01F0ECCF02F0ECCF03F068
:1013D000FF0ED88000540501A66FFF0E0154A76FC1
:1013E000000E0254000E0354A7C5D7FFA6C5D6FFB2
:1013F00069D00201E551DD5D44E1E651DE5D41E188
:10140000E7533FE1E8533DE1E92BE951040DF35087
:10141000036A890FE96E020E0320EA6EEFCF00F037
:10142000ECCF01F0ECCF02F0ECCF03F00050E52759
:101430000150E6230250E7230350E823E951040D4D
:10144000F350036A390FE96E020E0320EA6EEFCF04
:1014500000F0ECCF01F0ECCF02F0ECCF03F0FF0E88
:10146000D88000540501A66FFF0E0154A76F000E2F
:101470000254000E0354A7C5D7FFA6C5D6FF22D03D
:101480000201E951040DF350036A390FE96E020EAF
:101490000320EA6EEFCF00F0ECCF01F0ECCF02F0CA
:1014A000ECCF03F0FF0ED88000540501A66FFF0EAD
:1014B0000154A76F000E0254000E0354A7C5D7FFB6
:1014C000A6C5D6FF000112000201E95323E1E9514C
:1014D000040DF350036A390FE96E020E0320EA6E21
:1014E000EFCF00F0ECCF01F0ECCF02F0ECCF03F047
:1014F000FF0ED88000540501A66FFF0E0154A76FA0
:10150000000E0254000E0354A7C5D7FFA6C5D6FF90
:101510001DD10201EA51E95DD8A4B0D0E951040D12
:10152000F350036A890FE96E020E0320EA6EEFCFD3
:1015300000F0ECCF01F0ECCF02F0ECCF03F0DF5184
:101540000026E0510122000E022203220050DD5D40
:1015500072E10150DE5D6FE102526DE103526BE119
:10156000E951040DF350036A890FE96E020E03205E
:10157000EA6EEFCF00F0ECCF01F0ECCF02F0ECCF51
:1015800003F00050DF250501A66F01500201E021A4
:101590000501A76F000E0220A86F000E0320A96F9F
:1015A000010E0201E95D040DF350036A890FE96E33
:1015B000020E0320EA6EEFCF00F0ECCF01F0ECCF8B
:1015C00002F0ECCF03F000500501A6250201E56F03
:1015D00001500501A7210201E66F02500501A82173
:1015E0000201E76F03500501A9210201E86FE90735
:1015F000E951040DF350036A390FE96E020E03201E
:10160000EA6EEFCF00F0ECCF01F0ECCF02F0ECCFC0
:1016100003F0FF0ED88000540501A66FFF0E0154A1
:10162000A76F000E0254000E0354A7C5D7FFA6C52E
:10163000D6FF22D00201E951040DF350036A390F9D
:10164000E96E020E0320EA6EEFCF00F0ECCF01F05E
:10165000ECCF02F0ECCF03F0FF0ED8800054050170
:10166000A66FFF0E0154A76F000E0254000E035424
:10167000A7C5D7FFA6C5D6FF69D00201E551DD5D3C
:1016800044E1E651DE5D41E1E7533FE1E8533DE1EE
:10169000E907E951040DF350036A890FE96E020E60
:1016A0000320EA6EEFCF00F0ECCF01F0ECCF02F0B8
:1016B000ECCF03F00050E5270150E6230250E7236A
:1016C0000350E823E951040DF350036A390FE96E22
:1016D000020E0320EA6EEFCF00F0ECCF01F0ECCF6A
:1016E00002F0ECCF03F0FF0ED88000540501A66F86
:1016F000FF0E0154A76F000E0254000E0354A7C53D
:10170000D7FFA6C5D6FF22D00201E951040DF35040
:10171000036A390FE96E020E0320EA6EEFCF00F084
:10172000ECCF01F0ECCF02F0ECCF03F0FF0ED8804D
:1017300000540501A66FFF0E0154A76F000E02545E
:10174000000E0354A7C5D7FFA6C5D6FF0001D3EFEF
:101750000BF00201DC51010A000105E0020A22E05F
:10176000010A2EE03CD085DD0201E351DD5D16E18A
:10177000E451DE5D13E1D890D935026EDA35036E9F
:1017800002C001F00350E25D07E303E1E151015CB7
:1017900003E2020EDC6F02D0030EDC6F95948C74B2
:1017A0000C7D21D091D60201E151DD5D05E1E251D0
:1017B000DE5D02E1040EDC6F95948C740C7D13D019
:1017C00058DD0201DF51DD5D05E1E051DE5D02E142
:1017D000030EDC6F95948C740C7D05D00001020122
:1017E000DC6BF29A0C9BDC530FE0DC5104080CE03C
:1017F0000CAD0AD0036ADB51E8BE03060427035090
:101800000523DD2BD8B4DE2B000108EF0CF0A1D7A7
:10181000F2943CEF00F00301C553D8A497D0C55112
:10182000040DF350036A640FE96E030E0320EA6EA1
:10183000EFCF00F0ECCF01F0ECCF02F0ECCF03F0F3
:101840000050B95D60E10150BA5D5DE102525BE1BB
:10185000035259E1C551040DF350036A640FE96E58
:10186000030E0320EA6EEFCFA6F5ECCFA7F5ECCF81
:10187000A8F5ECCFA9F5010EC525040DF350036AB8
:10188000640FE96E030E0320EA6EEFCF00F0ECCF99
:1018900001F0ECCF02F0ECCF03F00501A6510026D9
:1018A000A7510122A8510222A9510322005003018D
:1018B000C1270150C2230250C3230350C423C52BA8
:1018C000C551040DF350036A140FE96E030E032093
:1018D000EA6EEFCF00F0ECCF01F0ECCF02F0ECCFEE
:1018E00003F0FF0ED88000540501A66FFF0E0154CF
:1018F000A76F000E0254000E0354A7C5CFFFA6C564
:10190000CEFF22D00301C551040DF350036A140F1A
:10191000E96E030E0320EA6EEFCF00F0ECCF01F08A
:10192000ECCF02F0ECCF03F0FF0ED880005405019D
:10193000A66FFF0E0154A76F000E0254000E035451
:10194000A7C5CFFFA6C5CEFF8FD00301C651C55D89
:1019500023E1C551040DF350036A140FE96E030E21
:101960000320EA6EEFCF00F0ECCF01F0ECCF02F0F5
:10197000ECCF03F0FF0ED88000540501A66FFF0ED8
:101980000154A76F000E0254000E0354A7C5CFFFE9
:10199000A6C5CEFF69D00301C151B95D44E1C25172
:1019A000BA5D41E1C3533FE1C4533DE1C52BC5518D
:1019B000040DF350036A640FE96E030E0320EA6E10
:1019C000EFCF00F0ECCF01F0ECCF02F0ECCF03F062
:1019D0000050C1270150C2230250C3230350C42327
:1019E000C551040DF350036A140FE96E030E032072
:1019F000EA6EEFCF00F0ECCF01F0ECCF02F0ECCFCD
:101A000003F0FF0ED88000540501A66FFF0E0154AD
:101A1000A76F000E0254000E0354A7C5CFFFA6C542
:101A2000CEFF22D00301C551040DF350036A140FF9
:101A3000E96E030E0320EA6EEFCF00F0ECCF01F069
:101A4000ECCF02F0ECCF03F0FF0ED880005405017C
:101A5000A66FFF0E0154A76F000E0254000E035430
:101A6000A7C5CFFFA6C5CEFF000112000301C553D5
:101A700023E1C551040DF350036A140FE96E030E00
:101A80000320EA6EEFCF00F0ECCF01F0ECCF02F0D4
:101A9000ECCF03F0FF0ED88000540501A66FFF0EB7
:101AA0000154A76F000E0254000E0354A7C5CFFFC8
:101AB000A6C5CEFF1DD10301C651C55DD8A4B0D0C7
:101AC000C551040DF350036A640FE96E030E032041
:101AD000EA6EEFCF00F0ECCF01F0ECCF02F0ECCFEC
:101AE00003F0BB510026BC510122000E022203224A
:101AF0000050B95D72E10150BA5D6FE102526DE1D3
:101B000003526BE1C551040DF350036A640FE96E93
:101B1000030E0320EA6EEFCF00F0ECCF01F0ECCF24
:101B200002F0ECCF03F00050BB250501A66F015079
:101B30000301BC210501A76F000E0220A86F000E53
:101B40000320A96F010E0301C55D040DF350036A64
:101B5000640FE96E030E0320EA6EEFCF00F0ECCFC6
:101B600001F0ECCF02F0ECCF03F000500501A62508
:101B70000301C16F01500501A7210301C26F02508B
:101B80000501A8210301C36F03500501A921030129
:101B9000C46FC507C551040DF350036A140FE96EF5
:101BA000030E0320EA6EEFCF00F0ECCF01F0ECCF94
:101BB00002F0ECCF03F0FF0ED88000540501A66FB1
:101BC000FF0E0154A76F000E0254000E0354A7C568
:101BD000CFFFA6C5CEFF22D00301C551040DF3509F
:101BE000036A140FE96E030E0320EA6EEFCF00F0D4
:101BF000ECCF01F0ECCF02F0ECCF03F0FF0ED88079
:101C000000540501A66FFF0E0154A76F000E025489
:101C1000000E0354A7C5CFFFA6C5CEFF69D00301B0
:101C2000C151B95D44E1C251BA5D41E1C3533FE1E5
:101C3000C4533DE1C507C551040DF350036A640F59
:101C4000E96E030E0320EA6EEFCF00F0ECCF01F057
:101C5000ECCF02F0ECCF03F00050C1270150C223BB
:101C60000250C3230350C423C551040DF350036A2B
:101C7000140FE96E030E0320EA6EEFCF00F0ECCFF5
:101C800001F0ECCF02F0ECCF03F0FF0ED88000544F
:101C90000501A66FFF0E0154A76F000E0254000E3F
:101CA0000354A7C5CFFFA6C5CEFF22D00301C5515F
:101CB000040DF350036A140FE96E030E0320EA6E5D
:101CC000EFCF00F0ECCF01F0ECCF02F0ECCF03F05F
:101CD000FF0ED88000540501A66FFF0E0154A76FB8
:101CE000000E0254000E0354A7C5CFFFA6C5CEFFB9
:101CF0000001A7EF0EF00301B751010A000105E052
:101D0000020A24E0010A30E03ED094948B7403016F
:101D1000B871000180DD0301BF51B95D16E1C0510A
:101D2000BA5D13E1D890B435026EB535036E02C0CA
:101D300001F00350BE5D07E303E1BD51015C03E226
:101D4000020EB76F02D0030EB76F24D08FD60301F7
:101D5000BD51B95D05E1BE51BA5D02E1040EB76F38
:101D600094948B74B87116D056DD0301BB51B95DE4
:101D700005E1BC51BA5D02E1030EB76F94948B7418
:101D8000B87108D000010301B76BB8939D900201B0
:101D90000C9F0301B7530EE0B8A10CD0036AB651F3
:101DA000E8BE030602010627035007230301B92BEF
:101DB000D8B4BA2B0001DEEF0EF09DD79E903CEF19
:101DC00000F0CC68010E2926D8B02A2AD8B42B2AD4
:101DD000D8B42C2A9E923CEF00F004019A53D8A468
:101DE00097D09A51040DF350036A3A0FE96E040E2E
:101DF0000320EA6EEFCF00F0ECCF01F0ECCF02F061
:101E0000ECCF03F000508E5D60E101508F5D5DE12D
:101E100002525BE1035259E19A51040DF350036AF7
:101E20003A0FE96E040E0320EA6EEFCFA6F5ECCF71
:101E3000A7F5ECCFA8F5ECCFA9F5010E9A25040D76
:101E4000F350036A3A0FE96E040E0320EA6EEFCFF7
:101E500000F0ECCF01F0ECCF02F0ECCF03F0050185
:101E6000A6510026A7510122A8510222A9510322FE
:101E700000500401962701509723025098230350E5
:101E800099239A2B9A51040DF350036AEA0FE96ED5
:101E9000030E0320EA6EEFCF00F0ECCF01F0ECCFA1
:101EA00002F0ECCF03F0FF0ED88000540501A66FBE
:101EB000FF0E0154A76F000E0254000E0354A7C575
:101EC000B3FFA6C5B2FF22D004019A51040DF3500E
:101ED000036AEA0FE96E030E0320EA6EEFCF00F00B
:101EE000ECCF01F0ECCF02F0ECCF03F0FF0ED88086
:101EF00000540501A66FFF0E0154A76F000E025497
:101F0000000E0354A7C5B3FFA6C5B2FF8FD00401CE
:101F10009B519A5D23E19A51040DF350036AEA0F35
:101F2000E96E030E0320EA6EEFCF00F0ECCF01F074
:101F3000ECCF02F0ECCF03F0FF0ED8800054050187
:101F4000A66FFF0E0154A76F000E0254000E03543B
:101F5000A7C5B3FFA6C5B2FF69D0040196518E5D37
:101F600044E197518F5D41E198533FE199533DE141
:101F70009A2B9A51040DF350036A3A0FE96E040E3E
:101F80000320EA6EEFCF00F0ECCF01F0ECCF02F0CF
:101F9000ECCF03F00050962701509723025098236E
:101FA000035099239A51040DF350036AEA0FE96E26
:101FB000030E0320EA6EEFCF00F0ECCF01F0ECCF80
:101FC00002F0ECCF03F0FF0ED88000540501A66F9D
:101FD000FF0E0154A76F000E0254000E0354A7C554
:101FE000B3FFA6C5B2FF22D004019A51040DF350ED
:101FF000036AEA0FE96E030E0320EA6EEFCF00F0EA
:10200000ECCF01F0ECCF02F0ECCF03F0FF0ED88064
:1020100000540501A66FFF0E0154A76F000E025475
:10202000000E0354A7C5B3FFA6C5B2FF00011200FE
:1020300004019A5323E19A51040DF350036AEA0F05
:10204000E96E030E0320EA6EEFCF00F0ECCF01F053
:10205000ECCF02F0ECCF03F0FF0ED8800054050166
:10206000A66FFF0E0154A76F000E0254000E03541A
:10207000A7C5B3FFA6C5B2FF1DD104019B519A5D50
:10208000D8A4B0D09A51040DF350036A3A0FE96E08
:10209000040E0320EA6EEFCF00F0ECCF01F0ECCF9E
:1020A00002F0ECCF03F09051002691510122000E76
:1020B0000222032200508E5D72E101508F5D6FE1BC
:1020C00002526DE103526BE19A51040DF350036A21
:1020D0003A0FE96E040E0320EA6EEFCF00F0ECCF6A
:1020E00001F0ECCF02F0ECCF03F000509025050199
:1020F000A66F0150040191210501A76F000E022077
:10210000A86F000E0320A96F010E04019A5D040D53
:10211000F350036A3A0FE96E040E0320EA6EEFCF24
:1021200000F0ECCF01F0ECCF02F0ECCF03F0005068
:102130000501A6250401966F01500501A7210401A0
:10214000976F02500501A8210401986F0350050103
:10215000A9210401996F9A079A51040DF350036A5B
:10216000EA0FE96E030E0320EA6EEFCF00F0ECCF2A
:1021700001F0ECCF02F0ECCF03F0FF0ED88000545A
:102180000501A66FFF0E0154A76F000E0254000E4A
:102190000354A7C5B3FFA6C5B2FF22D004019A51CC
:1021A000040DF350036AEA0FE96E030E0320EA6E92
:1021B000EFCF00F0ECCF01F0ECCF02F0ECCF03F06A
:1021C000FF0ED88000540501A66FFF0E0154A76FC3
:1021D000000E0254000E0354A7C5B3FFA6C5B2FFFC
:1021E00069D0040196518E5D44E197518F5D41E1C4
:1021F00098533FE199533DE19A079A51040DF350EA
:10220000036A3A0FE96E040E0320EA6EEFCF00F086
:10221000ECCF01F0ECCF02F0ECCF03F000509627AA
:102220000150972302509823035099239A51040D8B
:10223000F350036AEA0FE96E030E0320EA6EEFCF54
:1022400000F0ECCF01F0ECCF02F0ECCF03F0FF0E8A
:10225000D88000540501A66FFF0E0154A76F000E31
:102260000254000E0354A7C5B3FFA6C5B2FF22D087
:1022700004019A51040DF350036AEA0FE96E030E4C
:102280000320EA6EEFCF00F0ECCF01F0ECCF02F0CC
:10229000ECCF03F0FF0ED88000540501A66FFF0EAF
:1022A0000154A76F000E0254000E0354A7C5B3FFDC
:1022B000A6C5B2FF00018EEF11F004018D51010A95
:1022C000000105E0020A24E0010A32E042D0929ABD
:1022D000897A0301B877000180DD040194518E5D95
:1022E00016E195518F5D13E1D8908A35026E8B35DA
:1022F000036E02C001F00350935D07E303E19251C6
:10230000015C03E2020E8D6F02D0030E8D6F27D0A9
:10231000929A897A0301B87700018AD60401925112
:102320008E5D05E193518F5D02E1040E8D6F17D034
:10233000929A897A0301B87700014FDD0401905128
:102340008E5D05E191518F5D02E1030E8D6F07D027
:10235000000104018D6BA0920301B89504018D5317
:1023600010E00301B8A70ED0036A04018C51E8BE47
:10237000030602010A2703500B2304018E2BD8B455
:102380008F2B030100017EEF14F005016F53D8A4D9
:1023900091D06F51040DF350036A0F0FE96E050ED3
:1023A0000320EA6EEFCF00F0ECCF01F0ECCF02F0AB
:1023B000ECCF03F00050635D5CE10150645D59E1D6
:1023C000025257E1035255E16F51040DF350036A75
:1023D0000F0FE96E050E0320EA6EEFCFA6F5ECCFE6
:1023E000A7F5ECCFA8F5ECCFA9F5010E6F25040DEC
:1023F000F350036A0F0FE96E050E0320EA6EEFCF6C
:1024000000F0ECCF01F0ECCF02F0ECCF03F0A651DE
:102410000026A7510122A8510222A95103220050EF
:102420006B2701506C2302506D2303506E236F2BDA
:102430006F51040DF350036ABF0FE96E040E0320C1
:10244000EA6EEFCF00F0ECCF01F0ECCF02F0ECCF72
:1024500003F0FF0ED8800054A66FFF0E0154A76F43
:10246000000E0254000E0354A7C5B3FFA6C5B2FF69
:1024700020D06F51040DF350036ABF0FE96E040EB4
:102480000320EA6EEFCF00F0ECCF01F0ECCF02F0CA
:10249000ECCF03F0FF0ED8800054A66FFF0E01545E
:1024A000A76F000E0254000E0354A7C5B3FFA6C5C4
:1024B000B2FF89D070516F5D21E16F51040DF3506F
:1024C000036ABF0FE96E040E0320EA6EEFCF00F03F
:1024D000ECCF01F0ECCF02F0ECCF03F0FF0ED88090
:1024E0000054A66FFF0E0154A76F000E0254000E99
:1024F0000354A7C5B3FFA6C5B2FF65D06B51635D9A
:1025000042E16C51645D3FE16D533DE16E533BE14F
:102510006F2B6F51040DF350036A0F0FE96E050E18
:102520000320EA6EEFCF00F0ECCF01F0ECCF02F029
:10253000ECCF03F000506B2701506C2302506D2349
:1025400003506E236F51040DF350036ABF0FE96E01
:10255000040E0320EA6EEFCF00F0ECCF01F0ECCFD9
:1025600002F0ECCF03F0FF0ED8800054A66FFF0EF0
:102570000154A76F000E0254000E0354A7C5B3FF09
:10258000A6C5B2FF20D06F51040DF350036ABF0FF0
:10259000E96E040E0320EA6EEFCF00F0ECCF01F0FD
:1025A000ECCF02F0ECCF03F0FF0ED8800054A66F02
:1025B000FF0E0154A76F000E0254000E0354A7C56E
:1025C000B3FFA6C5B2FF0001120005016F5321E160
:1025D0006F51040DF350036ABF0FE96E040E032020
:1025E000EA6EEFCF00F0ECCF01F0ECCF02F0ECCFD1
:1025F00003F0FF0ED8800054A66FFF0E0154A76FA2
:10260000000E0254000E0354A7C5B3FFA6C5B2FFC7
:1026100009D170516F5DD8A4A0D06F51040DF35053
:10262000036A0F0FE96E050E0320EA6EEFCF00F08C
:10263000ECCF01F0ECCF02F0ECCF03F065510026B7
:1026400066510122000E022203220050635D64E104
:102650000150645D61E102525FE103525DE16F513F
:10266000040DF350036A0F0FE96E050E0320EA6EA6
:10267000EFCF00F0ECCF01F0ECCF02F0ECCF03F0A5
:1026800000506525A66F01506621A76F000E02203D
:10269000A86F000E0320A96F010E6F5D040DF350AB
:1026A000036A0F0FE96E050E0320EA6EEFCF00F00C
:1026B000ECCF01F0ECCF02F0ECCF03F00050A625F8
:1026C0006B6F0150A7216C6F0250A8216D6F0350F2
:1026D000A9216E6F6F076F51040DF350036ABF0F8E
:1026E000E96E040E0320EA6EEFCF00F0ECCF01F0AC
:1026F000ECCF02F0ECCF03F0FF0ED8800054A66FB1
:10270000FF0E0154A76F000E0254000E0354A7C51C
:10271000B3FFA6C5B2FF20D06F51040DF350036A7A
:10272000BF0FE96E040E0320EA6EEFCF00F0ECCF8E
:1027300001F0ECCF02F0ECCF03F0FF0ED880005494
:10274000A66FFF0E0154A76F000E0254000E035433
:10275000A7C5B3FFA6C5B2FF65D06B51635D42E16B
:102760006C51645D3FE16D533DE16E533BE16F079A
:102770006F51040DF350036A0F0FE96E050E03202D
:10278000EA6EEFCF00F0ECCF01F0ECCF02F0ECCF2F
:1027900003F000506B2701506C2302506D2303504F
:1027A0006E236F51040DF350036ABF0FE96E040EE0
:1027B0000320EA6EEFCF00F0ECCF01F0ECCF02F097
:1027C000ECCF03F0FF0ED8800054A66FFF0E01542B
:1027D000A76F000E0254000E0354A7C5B3FFA6C591
:1027E000B2FF20D06F51040DF350036ABF0FE96EA2
:1027F000040E0320EA6EEFCF00F0ECCF01F0ECCF37
:1028000002F0ECCF03F0FF0ED8800054A66FFF0E4D
:102810000154A76F000E0254000E0354A7C5B3FF66
:10282000A6C5B2FF000146EF14F005016251010A8E
:10283000000105E0020A24E0010A32E042D0969449
:102840008D740301B8790001A0DD05016951635D54
:1028500016E16A51645D13E1D8905F35026E603510
:10286000036E02C001F00350685D07E303E16751A6
:10287000015C03E2020E626F02D0030E626F25D08C
:1028800096948D740301B87900019FD605016751B4
:10289000635D05E16851645D02E1040E626F15D06D
:1028A00096948D740301B87900016FDD05016551BF
:1028B000635D05E16651645D02E1030E626F05D060
:1028C00000010501626BA0922D96625310E0030196
:1028D000B8A90ED0036A05016151E8BE03060201E2
:1028E0000827035009230501632BD8B4642B030187
:1028F000000180EF14F02DA402D0DFD401D095D7D1
:10290000A1923CEF00F0C69E9E9698C5C9FF020EAC
:10291000C6BE05D09EA6FED7000EC5BC010E016E38
:102920001200C580C5B0FED7D89005018C3540098E
:102930008E6F986F0001E7DF01502D9801B02D8850
:102940008DC598F5E0DF01502D9801B02D88C58424
:10295000C5B4FED72D781200050EEA6E920EE96E10
:10296000EF500DE0060E016E006A002EFED7012E1C
:10297000FBD77B0E006E002EFED7EF2EF3D7120092
:10298000310E006E002EFED700D005018C6B8BC57A
:102990008DF50001C6DF310E006E002EFED700D08F
:1029A00092908980310E006E002EFED700D092905A
:1029B0008990310E006E002EFED700D01200939A3F
:1029C0008A9A8AC58BF5DCDF120005018C6B8D6954
:1029D0000001A7DF92908990939A8A8A0F0E0501D1
:1029E000926F0001B9DF380E05018A6F0001E7DF41
:1029F0000F0E0501926F0001AFDF0C0E05018A6F0B
:102A00000001DDDF0F0E0501926F0001A5DF060E4C
:102A100005018A6F0001D3DF0F0E0501926F0001DF
:102A20009BDF010E0201006F016F0001D9EF6BF017
:102A3000C580C5B0FED7D890050193354009976F82
:102A4000986F000160DF01502D9801B02D8894C56A
:102A500098F559DF01502D9801B02D8896C598F54D
:102A600052DF01502D9801B02D8895C598F54BDFA8
:102A700001502D9801B02D88C584C5B4FED72D789E
:102A80001200010E0501936F060E946F9569F80E02
:102A9000966F0001CDDF010E0501936F020E946F5A
:102AA000956B070E966F0001C3DFDBEF6BF0030E33
:102AB0000501936F060E946F956996690001B8DF62
:102AC000DDEF6BF0020E0501936F060E946F956BB0
:102AD000966B0001ADDFDFEF6BF002010369026965
:102AE00002C275F5050103C276F50501020E936F6A
:102AF000946F76C595F575C596F5000199DFE1EF00
:102B00006BF0F29CF29EF2BEFDD7C580C5B0FED739
:102B1000A00E0501986F0001F6DE01502D9801B05E
:102B20002D8881C584F50501856B81C598F5000167
:102B3000EADE01502D9801B02D8880C598F5E3DEBE
:102B400001502D9801B02D8882C598F5DCDE01502A
:102B50002D9801B02D88C584C5B4FED72D78050EFB
:102B60000501926F0001F8DEC00EF2121200010E94
:102B700005018A6F000123DF050E0501926F000138
:102B8000EBDE120088C500F287C501F20501872D32
:102B900003D0010E885D896F8751020804E1400E61
:102BA0008825FF0F896F8751030804E1140E8825DB
:102BB000FF0F896F8751040804E1540E8825FF0F29
:102BC000896F898F89C58AF50001F9DEA60E006E2E
:102BD000002EFED700001200939A8A8A87C58BF5D3
:102BE000CFDE12000900F5520CE0F6CF76F5F7CFF4
:102BF00077F5F5CF87F5F0DF76C5F6FF77C5F7FFF8
:102C0000F1D71200C69CC586C5B6FED700B0C59ADE
:102C100000A0C58AC588C5B8FED7C9CF01F012008B
:102C2000F29CF29EF2BEFDD7C580C5B0FED7A00EC5
:102C30000501986F000167DE86C589F505018A6B7D
:102C400086C598F500015FDE85C598F55CDEC58216
:102C5000C5B2FED7A10E0501986F000154DE006ACF
:102C6000D1DF0501886B01C087F5C584C5B4FED7E7
:102C70002D78050E926F00016FDEC00EF212050175
:102C800087C501F088C502F000011200948694887F
:102C90000501816B8069836BAA0E826F000131DFB1
:102CA0002DB819D064DF010E0501876F886F000110
:102CB00069DFBA0EF66E000EF76E94DF020E0501A4
:102CC000876F010E886F00015DDFCC0EF66E000E7F
:102CD000F76E88DFFFD7050E0501926F00013CDE1D
:102CE0000501866B856900019BDF01C075F5050153
:102CF0007551AA081BE000013ADF010E0501876F3C
:102D0000886F00013FDFDE0EF66E000EF76E6ADFA1
:102D1000020E0501876F010E886F000133DFF00E90
:102D2000F66E000EF76E5EDFFFD705010001E3EFE0
:102D30006BF0050186510C0A000105E0060A09E066
:102D4000070A11E01AD013DF010E0201016F006FB4
:102D500018D00201012B01C287F500C288F50001DD
:102D600011DF02010ED001C287F5010E0501886F47
:102D7000000108DF020105D0000186C587F52CDFC0
:102D80000201000112000900F5520CE0F6CF7DF5BA
:102D9000F7CF7EF5F5CF86F5CCDF7DC5F6FF7EC596
:102DA000F7FFF1D712000C0E0501866F0001C1DF9D
:102DB000020EF66E010EF76EE6DF1A0EF66E010ECB
:102DC000F76EE1DF320EF66E010EF76EDCDF4A0EB3
:102DD000F66E010EF76ED7DFE5EF6BF0036A010EBA
:102DE000026E05018F51006E05E0D8900236033661
:102DF000002EFBD70250020102130350031302C23C
:102E000091F5050103C292F50501020E936F946FCF
:102E100092C595F591C596F500010ADE1200036A88
:102E2000010E026E05018F51006E05E0D89002364A
:102E30000336002EFBD70250FF0A006EFF0E031A66
:102E40000050020102170350031702C291F5050159
:102E500003C292F50501020E936F946F92C595F52A
:102E600091C596F50001E4DD12000501906B070E97
:102E70008F6F0001B3DF0501906B010E8F6F0001B2
:102E8000ADDF0501906B030E8F6F0001A7DF050119
:102E9000906B020E8F6F0001A1DF0501906B040E95
:102EA0008F6F00019BDF0501906B080E8F6F000193
:102EB00095DF0501906B090E8F6F00018FDF050113
:102EC000906B050E8F6F0001AADF0501906B0F0E4E
:102ED0008F6F0001A4DF0A0E0501756FFA0E926F65
:102EE00000013ADD0501752FF9D7906B050E8F6F44
:102EF000000174DF0501906B0F0E8F6F00016EDF14
:102F000012000C0E0501866F000113DF620EF66ED3
:102F1000010EF76E38DF780EF66E010EF76E33DFB6
:102F2000E9EF6BF005019051D8B471D0006E945167
:102F3000D8B46DD0002604E3810E002668E204D0E8
:102F40007F0E005E64E363E091C598F59551981B90
:102F5000918F958F93519703F4CF9AF592519603E1
:102F6000F4CF03F0F3CF99F59703F3509A27F45079
:102F70009923000E032293519603F3509A27F4509D
:102F80009923000E026A0322022291519703F35003
:102F90009927F4500322000E022291519603F35018
:102FA0000326F4500222000E016A01229351950378
:102FB000F3509927F4500322000E0222012292516D
:102FC0009503F3500326F4500222000E0122915182
:102FD0009503F3500226F4500122002A01BE05D0C9
:102FE00099370336023601360006000E99AF0AD033
:102FF000032A02220122015005E1025003E103509D
:1030000001E1002A98BF018E98AF019E04D0006AAA
:10301000016A026A036A0001120005019651D8B4E0
:10302000A5D0A26F9A51D8B4A1D0A25F05E37F0EBC
:10303000A227D8B09BD006D0810EA25FD8A096D090
:10304000D8B494D0A2C500F0016A026A036AA16BE9
:1030500097C5A0F5A08F98C59FF599C59EF5190E47
:10306000A26F9D519E5F0DE2010E9F5F0AE2A05F7D
:1030700008E2A15F06E2A12BA02B9F2B9D519E276A
:1030800028D09C519F5F12E2010EA05F0FE2A15F6A
:103090000DE2A12BA02B9C519F279D519E2719E348
:1030A0009F2B17E1A02B15E1A12B13D09B51800979
:1030B000A05F0EE2010EA15F0BE2A12B9B518009E4
:1030C000A0279C519F27E9E3A02BE7E1A12BE5D79F
:1030D0000380A22F01D00BD0D8909E379F37A03706
:1030E000A137D890033602360136A337BAD7A3A149
:1030F00006D0D890013202320332A33302D0000648
:1031000035E0A3BF1ED0D8909E379F37A037A13798
:103110009D519E5F07E2010E9F5F04E2A05F02E205
:10312000A15F1AE39C519F5F05E2010EA05F02E2DE
:10313000A15F12E39B518009A05F03E2010EA15F32
:103140000BE3032A09E1022A07E1012A05E1002A2B
:103150000DE001320232033297C5A2F59B51A21B4A
:10316000A2AF02D0018E06D0019E04D0006A016A8F
:10317000026A036A000112008E0E006E91C501F012
:1031800090C502F0036A015209E102C001F0026A2F
:10319000080E005E015202E1006A08D0D89001BE1C
:1031A00004D0023601360006F9D7019E1200800EC7
:1031B000D8A202D005019B1B0501A06BA16B97C58E
:1031C0009FF59B519F1B9651D8B4DFD09E6F006E28
:1031D0009A51D8B4E3D09E5FD8B483D03EE39BC568
:1031E000A4F5A48F9CC5A3F59DC5A2F5A16BD890AD
:1031F000A433A333A233A1339E2FF8D79FAF03D0BC
:10320000A081E0D0A0919E91A089050EEA6E990E52
:10321000E96EEBD0A0999FBF0AD09EA113D0A43332
:10322000A333A233A133002AD8B4C7D00BD0A4BF94
:103230000CD0D890A137A237A337A4370006D8B452
:10324000BCD0F5D7A08D6DD0A09D97C59FF597AF49
:1032500002D0A48FABD0A49FA9D09AC59EF59AC5E1
:1032600000F096519E5F97C5A4F5A48F98C5A3F56D
:1032700099C5A2F5A16BD890A433A333A233A1338F
:103280009E2FF8D79FAF03D0A0839CD0A0939E9190
:10329000A08B050EEA6E9D0EE96EA7D0A09B9FBF86
:1032A0000AD09EA113D0A433A333A233A133002AA2
:1032B000D8B483D00BD0A4BF0CD0D890A137A237FC
:1032C000A337A4370006D8B478D0F5D7A08F29D07B
:1032D000A09F9BC59FF59BAF02D0A48F67D0A49FF2
:1032E00065D09BC5A4F5A48F9CC5A3F59DC5A2F58B
:1032F0009FAF04D0A49FA08565D0A095A16B9E919F
:10330000050EEA6E990EE96E70D09FBF1CD097C56E
:103310009FF59EA106D0A433A333A233A133002A84
:103320004CE0A1AF0BD0A22B09E1A32B07E1A42B0A
:1033300005E1A433A333A233002A3FE0A0BD84D724
:10334000A0BFC6D71CD0800EA41BA4AF04D03AD017
:103350009BC59FF50AD097C59FF5A45306E1A353DB
:1033600004E1A25302E1006A21D0A4BF08D0D890A2
:10337000A137A237A337A437002EF7D71ED09FAFAF
:1033800002D0A48F13D0A49F11D09AC500F09BC582
:10339000A4F59CC5A3F59DC5A2F508D096C500F07F
:1033A00097C5A4F598C5A3F599C5A2F5A4C501F0E4
:1033B000A3C502F0A2C503F034D0006A016A026A14
:1033C000036A2FD0A16BA21FA31FA41FA11FA12BB3
:1033D00005E1A22B03E1A32B01E1A42BA0B112D79D
:1033E000A0B354D7A0B589D7B3D7EF50A22705E330
:1033F000A32B03E1A42BD8B49E81ED52EF50A32759
:1034000003E3A42BD8B49E81ED52EF50EFBE01D060
:10341000800AA427D8B09E81A0B9FCD6A0BB3ED715
:1034200074D70001120005018E6B8F6B010E906F37
:10343000DA6AD96A050E936F860E926F050EEA6EF0
:103440008A0EE96E93C5E2FF92C5E1FF90C591F542
:10345000D890E550EE02F3508E23F4508F23912F35
:10346000F7D78EC5DEFF8FC58EF58F6BD8B08F2B4B
:10347000922BD8B4932B902B90510508DFE10001DB
:103480001200B60E006E036A026A016A05019651C7
:1034900097119811991102E1006A0DD0D89001BEE0
:1034A00009D0963797379837993703360236013661
:1034B000002EF4D7019E0001120005019651B608B6
:1034C000966F036A97C59AF5978FD890973398337C
:1034D00099330332023201320032962FF6D79AAF77
:1034E0000BD0001E011E021E031E002AD8B4012AA2
:1034F000D8B4022AD8B4032A00011200F80E956E3F
:1035000095948C8495908C8095928C8213C293F5BF
:1035100012C292F511C291F510C290F517C297F53B
:1035200016C296F515C295F514C294F5FBDC03C0DE
:1035300085F502C084F501C083F500C082F503C0A3
:1035400093F502C092F501C091F500C090F51BC241
:1035500097F51AC296F519C295F518C294F5E2DCF2
:103560001FC299F51EC298F51DC297F51CC296F5AB
:1035700003C09DF502C09CF501C09BF500C09AF503
:103580004CDD03C02FF202C02EF201C02DF200C0AC
:103590002CF223C299F522C298F521C297F520C2D8
:1035A00096F52FC29DF52EC29CF52DC29BF52CC21F
:1035B0009AF533DD03C034F202C033F201C032F2B7
:1035C00000C031F20501916B30C290F50001D4DDED
:1035D0002BC293F52AC292F529C291F528C290F523
:1035E00003C097F502C096F501C095F500C094F5AB
:1035F00099DC03C078F502C077F501C076F500C00C
:1036000075F5D88223C299F522C298F521C297F5A3
:1036100020C296F527C29DF526C29CF525C29BF5D2
:1036200024C29AF5C4DD03C085F502C084F501C04B
:1036300083F500C082F503C093F502C092F501C086
:1036400091F500C090F50501976B240E966F740EEE
:10365000956F920E946F000165DC03C07CF502C08B
:103660007BF501C07AF500C079F57CC599F57BC57D
:1036700098F57AC597F579C596F578C59DF577C51E
:103680009CF576C59BF575C59AF5C7DC03C080F53A
:1036900002C07FF501C07EF500C07DF50501816B9C
:1036A000010E816F81510201305DD8A091D1010ED0
:1036B0000501815D040DF350036A390FE96E020EB6
:1036C0000320EA6EEACF85F5E9CF84F5896B0F0E0A
:1036D000886F420E876F400E866F8D6B8C6B8B6B85
:1036E00030C28AF500019FDE85C5EAFF84C5E9FF87
:1036F00003C089F502C088F501C087F500C086F5D2
:10370000EACF8BF5E9CF8AF5D88234C299F533C276
:1037100098F532C297F531C296F538C29DF537C299
:103720009CF536C29BF535C29AF541DD8BC5EAFFA3
:103730008AC5E9FF03C08FF502C08EF501C08DF583
:1037400000C08CF50501916B81C590F5000114DD79
:1037500003C093F502C092F501C091F500C090F549
:103760008FC597F58EC596F58DC595F58CC594F5E5
:1037700092EC17F003C093F502C092F501C091F5E9
:1037800000C090F5EACF95F5E9CF94F5D89203C043
:1037900099F502C098F501C097F500C096F538C2BA
:1037A0009DF537C29CF536C29BF535C29AF5FFDC14
:1037B00095C5EAFF94C5E9FF03C093F502C092F5F1
:1037C00001C091F500C090F589C599F588C598F5B7
:1037D00087C597F586C596F554DE03C099F502C0F6
:1037E00098F501C097F500C096F593C59DF592C573
:1037F0009CF591C59BF590C59AF50FDC03C099F532
:1038000002C098F501C097F500C096F556DE00C0DD
:10381000EFFF01C0ECFF02C0ECFF03C0ECFF010EA4
:103820000501815D040DF350036A890F016E020EDC
:10383000032201C082F503C083F5936B926B916BF9
:10384000800E906F80C597F57FC596F57EC595F57E
:103850007DC594F5000192EC17F003C087F502C016
:1038600086F501C085F500C084F5010E0501815D76
:10387000040DF350036A390FE96E020E0320EA6E5D
:10388000EFCF00F0ECCF01F0ECCF02F0ECCF03F083
:1038900003C099F502C098F501C097F500C096F5F0
:1038A0000001EFDD87C599F586C598F585C597F5C3
:1038B00084C596F503C09DF502C09CF501C09BF53B
:1038C00000C09AF50DEC18F003C099F502C098F508
:1038D00001C097F500C096F5F0DD83C5EAFF82C50B
:1038E000E9FF00C0EFFF01C0ECFF02C0ECFF03C026
:1038F000ECFF010E0501815D040DF350036A890F91
:10390000E96E020E0320EA6EEFCF00F0ECCF01F07B
:10391000ECCF02F0ECCF03F000500201D9270150A8
:10392000DA23010E0501815D040DF350036A390F9E
:10393000016E020E032201C082F503C083F5010E61
:10394000815D040DF350036A390FE96E020E032006
:10395000EA6EEFCF84F5ECCF85F5ECCF86F5ECCFB2
:1039600087F587C599F586C598F585C597F584C50A
:1039700096F5000186DD03C099F502C098F501C0F7
:1039800097F500C096F5CD0E05019D6FCC0E9C6F8E
:103990004C0E9B6F800E9A6F00010DEC18F003C067
:1039A00099F502C098F501C097F500C096F585DD40
:1039B00083C5EAFF82C5E9FF00C0EFFF01C0ECFF4D
:1039C00002C0ECFF03C0ECFF0501812B6BD60201A6
:1039D0000001EBEF6BF0F80E946E94948B8494904E
:1039E0008B8094928B82EEC293F5EDC292F5ECC27D
:1039F00091F5EBC290F5F2C297F5F1C296F5F0C2DF
:103A000095F5EFC294F592EC17F003C085F502C06E
:103A100084F501C083F500C082F503C093F502C0B0
:103A200092F501C091F500C090F5F6C297F5F5C288
:103A300096F5F4C295F5F3C294F592EC17F0FAC23C
:103A400099F5F9C298F5F8C297F5F7C296F503C053
:103A50009DF502C09CF501C09BF500C09AF50DECE8
:103A600018F003C00AF302C009F301C008F300C054
:103A700007F3FEC299F5FDC298F5FCC297F5FBC2AB
:103A800096F50AC39DF509C39CF508C39BF507C3CA
:103A90009AF50DEC18F003C00FF302C00EF301C04D
:103AA0000DF300C00CF30501916B0BC390F5000101
:103AB000BCEC18F006C393F505C392F504C391F569
:103AC00003C390F503C097F502C096F501C095F5C4
:103AD00000C094F592EC17F003C078F502C077F5BA
:103AE00001C076F500C075F5D882FEC299F5FDC219
:103AF00098F5FCC297F5FBC296F502C39DF501C38C
:103B00009CF500C39BF5FFC29AF5D7EC18F003C0F3
:103B100085F502C084F501C083F500C082F503C0BD
:103B200093F502C092F501C091F500C090F5050132
:103B3000976B240E966F740E956F920E946F000122
:103B400092EC17F003C07CF502C07BF501C07AF55A
:103B500000C079F57CC599F57BC598F57AC597F5D0
:103B600079C596F578C59DF577C59CF576C59BF525
:103B700075C59AF50DEC18F003C080F502C07FF50D
:103B800001C07EF500C07DF50501816B010E816FDE
:103B9000815103010B5DD8A09BD1010E0501815D10
:103BA000040DF350036A140FE96E030E0320EA6E4E
:103BB000EACF85F5E9CF84F5896B0F0E886F420E49
:103BC000876F400E866F8D6B8C6B8B6B0BC38AF58A
:103BD000000129DC85C5EAFF84C5E9FF03C089F53A
:103BE00002C088F501C087F500C086F5EACF8BF5E5
:103BF000E9CF8AF5D8820FC399F50EC398F50DC3A6
:103C000097F50CC396F513C39DF512C39CF511C32C
:103C10009BF510C39AF5D7EC18F08BC5EAFF8AC55F
:103C2000E9FF03C08FF502C08EF501C08DF500C01D
:103C30008CF50501916B81C590F50001BCEC18F085
:103C400003C093F502C092F501C091F500C090F554
:103C50008FC597F58EC596F58DC595F58CC594F5F0
:103C600092EC17F003C093F502C092F501C091F5F4
:103C700000C090F5EACF95F5E9CF94F5D89203C04E
:103C800099F502C098F501C097F500C096F513C3E9
:103C90009DF512C39CF511C39BF510C39AF5D7ECA3
:103CA00018F095C5EAFF94C5E9FF03C093F502C07B
:103CB00092F501C091F500C090F589C599F588C5C8
:103CC00098F587C597F586C596F541EC1AF003C0BF
:103CD00099F502C098F501C097F500C096F593C517
:103CE0009DF592C59CF591C59BF590C59AF50DEC97
:103CF00018F003C099F502C098F501C097F500C00F
:103D000096F55DEC1AF000C0EFFF01C0ECFF02C0B9
:103D1000ECFF03C0ECFF010E0501815D040DF350C3
:103D2000036A640F016E030E032201C082F503C013
:103D300083F5936B926B916B800E906F80C597F5B6
:103D40007FC596F57EC595F57DC594F5000192EC8D
:103D500017F003C087F502C086F501C085F500C0E5
:103D600084F5010E0501815D040DF350036A140F03
:103D7000E96E030E0320EA6EEFCF00F0ECCF01F006
:103D8000ECCF02F0ECCF03F003C099F502C098F538
:103D900001C097F500C096F5000141EC1AF087C507
:103DA00099F586C598F585C597F584C596F503C040
:103DB0009DF502C09CF501C09BF500C09AF50DEC85
:103DC00018F003C099F502C098F501C097F500C03E
:103DD00096F55DEC1AF083C5EAFF82C5E9FF00C0E5
:103DE000EFFF01C0ECFF02C0ECFF03C0ECFF010ECF
:103DF0000501815D040DF350036A640FE96E030E43
:103E00000320EA6EEFCF00F0ECCF01F0ECCF02F030
:103E1000ECCF03F000500301B4270150B523010E8D
:103E20000501815D040DF350036A140F016E030E4A
:103E3000032201C082F503C083F5010E815D040DEC
:103E4000F350036A140FE96E030E0320EA6EEFCFFE
:103E500084F5ECCF85F5ECCF86F5ECCF87F587C5FB
:103E600099F586C598F585C597F584C596F5000141
:103E700041EC1AF003C099F502C098F501C097F51E
:103E800000C096F5CD0E05019D6FCC0E9C6F4C0EBB
:103E90009B6F800E9A6F00010DEC18F003C099F52E
:103EA00002C098F501C097F500C096F55DEC1AF0D8
:103EB00083C5EAFF82C5E9FF00C0EFFF01C0ECFF48
:103EC00002C0ECFF03C0ECFF0501812B61D60301AA
:103ED0000001EDEF6BF0000E926E929A898A929635
:103EE000898692988988CCC393F5CBC392F5CAC3CF
:103EF00091F5C9C390F5D0C397F5CFC396F5CEC35E
:103F000095F5CDC394F592EC17F003C085F502C08A
:103F100084F501C083F500C082F503C093F502C0AB
:103F200092F501C091F500C090F5D4C397F5D3C3C5
:103F300096F5D2C395F5D1C394F592EC17F0D8C39A
:103F400099F5D7C398F5D6C397F5D5C396F503C0B1
:103F50009DF502C09CF501C09BF500C09AF50DECE3
:103F600018F003C0E4F302C0E3F301C0E2F300C0C1
:103F7000E1F3DCC399F5DBC398F5DAC397F5D9C350
:103F800096F5E4C39DF5E3C39CF5E2C39BF5E1C35D
:103F90009AF50DEC18F003C0E9F302C0E8F301C094
:103FA000E7F300C0E6F30501916BE5C390F500016E
:103FB000BCEC18F0E0C393F5DFC392F5DEC391F5D6
:103FC000DDC390F503C097F502C096F501C095F5E5
:103FD00000C094F592EC17F003C078F502C077F5B5
:103FE00001C076F500C075F5DCC393F5DBC392F52F
:103FF000DAC391F5D9C390F50501976B240E966F3E
:10400000740E956F920E946F000192EC17F003C03E
:104010007CF502C07BF501C07AF500C079F57CC55E
:1040200099F57BC598F57AC597F579C596F578C564
:104030009DF577C59CF576C59BF575C59AF50DEC94
:1040400018F003C080F502C07FF501C07EF500C006
:104050007DF50501816B010E816F81510301E55DE5
:10406000D8A056D1010E0501815D040DF350036AFD
:10407000EA0FE96E030E0320EA6EEACF85F5E9CF79
:1040800084F5896B0F0E886F420E876F400E866F26
:104090008D6B8C6B8B6BE5C38AF5000113EC1AF00A
:1040A00085C5EAFF84C5E9FF03C089F502C088F52C
:1040B00001C087F500C086F50501916B81C590F5BB
:1040C0000001BCEC18F003C093F502C092F501C0EA
:1040D00091F500C090F5E9C397F5E8C396F5E7C3FD
:1040E00095F5E6C394F592EC17F003C08DF502C088
:1040F0008CF501C08BF500C08AF589C599F588C596
:1041000098F587C597F586C596F541EC1AF003C07A
:1041100099F502C098F501C097F500C096F58DC5D8
:104120009DF58CC59CF58BC59BF58AC59AF50DEC64
:1041300018F003C099F502C098F501C097F500C0CA
:1041400096F55DEC1AF000C0EFFF01C0ECFF02C075
:10415000ECFF03C0ECFF010E0501815D040DF3507F
:10416000036A3A0F016E040E032201C082F503C0F8
:1041700083F5936B926B916B800E906F80C597F572
:104180007FC596F57EC595F57DC594F5000192EC49
:1041900017F003C087F502C086F501C085F500C0A1
:1041A00084F5010E0501815D040DF350036AEA0FE9
:1041B000E96E030E0320EA6EEFCF00F0ECCF01F0C2
:1041C000ECCF02F0ECCF03F003C099F502C098F5F4
:1041D00001C097F500C096F5000141EC1AF087C5C3
:1041E00099F586C598F585C597F584C596F503C0FC
:1041F0009DF502C09CF501C09BF500C09AF50DEC41
:1042000018F003C099F502C098F501C097F500C0F9
:1042100096F55DEC1AF083C5EAFF82C5E9FF00C0A0
:10422000EFFF01C0ECFF02C0ECFF03C0ECFF010E8A
:104230000501815D040DF350036A3A0FE96E040E27
:104240000320EA6EEFCF00F0ECCF01F0ECCF02F0EC
:10425000ECCF03F0005004018A2701508B23010E9C
:104260000501815D040DF350036AEA0F016E030E30
:10427000032201C082F503C083F5010E815D040DA8
:10428000F350036AEA0FE96E030E0320EA6EEFCFE4
:1042900084F5ECCF85F5ECCF86F5ECCF87F587C5B7
:1042A00099F586C598F585C597F584C596F50001FD
:1042B00041EC1AF003C099F502C098F501C097F5DA
:1042C00000C096F5CD0E05019D6FCC0E9C6F4C0E77
:1042D0009B6F800E9A6F00010DEC18F003C099F5EA
:1042E00002C098F501C097F500C096F55DEC1AF094
:1042F00083C5EAFF82C5E9FF00C0EFFF01C0ECFF04
:1043000002C0ECFF03C0ECFF0501812BA6D6030120
:104310000001EFEF6BF0000E926E96948D849690F4
:104320008D8096928D82A1C493F5A0C492F59FC40E
:1043300091F59EC490F5A5C497F5A4C496F5A3C4C1
:1043400095F5A2C494F592EC17F003C085F502C070
:1043500084F501C083F500C082F503C093F502C067
:1043600092F501C091F500C090F5A9C497F5A8C4D5
:1043700096F5A7C495F5A6C494F592EC17F0ADC4D4
:1043800099F5ACC498F5ABC497F5AAC496F503C0EB
:104390009DF502C09CF501C09BF500C09AF50DEC9F
:1043A00018F003C0B9F402C0B8F401C0B7F400C0FB
:1043B000B6F4B1C499F5B0C498F5AFC497F5AEC4DE
:1043C00096F5B9C49DF5B8C49CF5B7C49BF5B6C4C1
:1043D0009AF50DEC18F003C0BEF402C0BDF401C0A4
:1043E000BCF400C0BBF40501916BBAC490F50001A8
:1043F000BCEC18F0B5C493F5B4C492F5B3C491F510
:10440000B2C490F503C097F502C096F501C095F5CA
:1044100000C094F592EC17F003C078F502C077F570
:1044200001C076F500C075F5B1C493F5B0C492F53E
:10443000AFC491F5AEC490F50501976B240E966F4D
:10444000740E956F920E946F000192EC17F003C0FA
:104450007CF502C07BF501C07AF500C079F57CC51A
:1044600099F57BC598F57AC597F579C596F578C520
:104470009DF577C59CF576C59BF575C59AF50DEC50
:1044800018F003C080F502C07FF501C07EF500C0C2
:104490007DF50501816B010E816F81510401BA5DCB
:1044A000D8A054D1010E0501815D040DF350036ABB
:1044B000BF0FE96E040E0320EA6EEACF85F5E9CF5F
:1044C00084F5896B0F0E886F420E876F400E866FE2
:1044D0008D6B8C6B8B6BBAC48AF5000113EC1AF0F0
:1044E00085C5EAFF84C5E9FF03C089F502C088F5E8
:1044F00001C087F500C086F50501916B81C590F577
:104500000001BCEC18F003C093F502C092F501C0A5
:1045100091F500C090F5BEC497F5BDC496F5BCC436
:1045200095F5BBC494F592EC17F003C08DF502C06D
:104530008CF501C08BF500C08AF589C599F588C551
:1045400098F587C597F586C596F541EC1AF003C036
:1045500099F502C098F501C097F500C096F58DC594
:104560009DF58CC59CF58BC59BF58AC59AF50DEC20
:1045700018F003C099F502C098F501C097F500C086
:1045800096F55DEC1AF000C0EFFF01C0ECFF02C031
:10459000ECFF03C0ECFF010E0501815D040DF3503B
:1045A000036A0F0F016E050E032201C082F503C0DE
:1045B00083F5936B926B916B800E906F80C597F52E
:1045C0007FC596F57EC595F57DC594F5000192EC05
:1045D00017F003C087F502C086F501C085F500C05D
:1045E00084F5010E0501815D040DF350036ABF0FD0
:1045F000E96E040E0320EA6EEFCF00F0ECCF01F07D
:10460000ECCF02F0ECCF03F003C099F502C098F5AF
:1046100001C097F500C096F5000141EC1AF087C57E
:1046200099F586C598F585C597F584C596F503C0B7
:104630009DF502C09CF501C09BF500C09AF50DECFC
:1046400018F003C099F502C098F501C097F500C0B5
:1046500096F55DEC1AF083C5EAFF82C5E9FF00C05C
:10466000EFFF01C0ECFF02C0ECFF03C0ECFF010E46
:104670000501815D040DF350036A0F0FE96E050E0D
:104680000320EA6EEFCF00F0ECCF01F0ECCF02F0A8
:10469000ECCF03F000505F2701506023010E815DD5
:1046A000040DF350036ABF0F016E040E032201C014
:1046B00082F503C083F5010E815D040DF350036A9A
:1046C000BF0FE96E040E0320EA6EEFCF84F5ECCF46
:1046D00085F5ECCF86F5ECCF87F587C599F586C5CE
:1046E00098F585C597F584C596F5000141EC1AF05B
:1046F00003C099F502C098F501C097F500C096F582
:10470000CD0E05019D6FCC0E9C6F4C0E9B6F800EE5
:104710009A6F00010DEC18F003C099F502C098F5EE
:1047200001C097F500C096F55DEC1AF083C5EAFF6D
:1047300082C5E9FF00C0EFFF01C0ECFF02C0ECFF43
:1047400003C0ECFF0501812BA8D604010001F1EFA5
:104750006BF005017951FA0F2DE2060F0001DCEF35
:1047600023F0959E8C9E959C8C9C959A8C9A050125
:1047700021D0959E8C8E959C8C9C959A8C9A050147
:1047800019D0959E8C9E959C8C8C959A8C9A05013F
:1047900011D0959E8C8E959C8C8C959A8C9A050147
:1047A00009D0959E8C9E959C8C9C959A8C8A05012F
:1047B00001D0050100011200F2CF0DF0F29EE824B5
:1047C000F76AF736DD0FF66E470EF7220A00F5504E
:1047D000FA6E0800F5500DBEF28EF96E6247724710
:1047E000B24782479247A24705017951FA0FD8B0E4
:1047F00087D0060F000182EF24F00C0E0501866FB2
:10480000000199EC16F08E0EF66E010EF76EC3ECF9
:1048100016F0A60EF66E010EF76EC3EC16F0BE0E85
:10482000F66E010EF76EC3EC16F0050169D00C0EA2
:104830000501866F000199EC16F0D60EF66E010E9A
:10484000F76EC3EC16F0EE0EF66E010EF76EC3ECCB
:1048500016F0060EF66E020EF76EC3EC16F00501AA
:104860004FD00C0E0501866F000199EC16F01E0E5C
:10487000F66E020EF76EC3EC16F0360EF66E020EF2
:10488000F76EC3EC16F04E0EF66E020EF76EC3EC2A
:1048900016F0050135D00C0E0501866F000199EC6C
:1048A00016F0640EF66E020EF76EC3EC16F07C0E78
:1048B000F66E020EF76EC3EC16F0940EF66E020E54
:1048C000F76EC3EC16F005011BD00C0E0501866FC8
:1048D000000199EC16F0AC0EF66E020EF76EC3EC0A
:1048E00016F0C40EF66E020EF76EC3EC16F0DC0E78
:1048F000F66E020EF76EC3EC16F0050101D005014D
:1049000000011200F2CF0DF0F29EE824F76AF736AC
:10491000290FF66E490EF7220A00F550FA6E0800CC
:10492000F5500DBEF28EF96EFA472E48FE486248E9
:104930009648CA489296899648EF26F00501896BF9
:10494000886B8A6BC580C5B0FED7D8908635400984
:104950008B6F986F000183EC14F001502D9801B01B
:104960002D8887C598F583EC14F001502D9801B07F
:104970002D88C582C5B2FED7D8900501863541097C
:104980008B6F986F000183EC14F001502D9801B0EB
:104990002D88010E006E02EC16F001C08AF5006A47
:1049A00002EC16F001C089F50501886BC584C5B419
:1049B000FED72D788A51881388C501F089C502F089
:1049C00000011200C580C5B0FED7D89005017F3523
:1049D0007109816F986F000183EC14F0006A02EC9A
:1049E00016F001C080F5C584C5B4FED72D78050149
:1049F00080C501F0000148EF25F005017D6B7C6B5F
:104A00007E6B7A510F083AE3030E866F876B0001C5
:104A100095DF02C07DF501C07CF57DC503F0050181
:104A20007CC502F07A51006E05E0D8900332023264
:104A3000002EFBD7025002B01DD0310E006E002EAA
:104A4000FED700D07DC503F07CC502F07A51006E20
:104A500005E0D89003320232002EFBD7025002B09C
:104A600004D07B81010E016ECED07B91000E016ED1
:104A7000CAD004D07B91000E016EC5D07A510F08C8
:104A800038E27A51170835E3040E7F6F00019AD798
:104A900001C07EF5100E05017A5D7F6F7EC500F0C6
:104AA0007F51016E04E0D8900032012EFCD700B097
:104AB0001CD0310E006E002EFED700D0100E7A5D95
:104AC0007F6F7EC500F07F51016E04E0D890003208
:104AD000012EFCD700B004D07B81010E016E93D073
:104AE0007B91000E016E8FD004D07B91000E016E81
:104AF0008AD07A511708D8B086D07A511B08D8A02E
:104B000082D0180E7A5DFC0FD8B07DD0040F000162
:104B100005EF26F0938081B013D0310E006E002E89
:104B2000FED700D0938081B00AD005017B81010EB1
:104B3000016E69D07B91000E016E65D0000106D038
:104B400005017B91000E016E5ED0000105015BD076
:104B5000938281B213D0310E006E002EFED700D0AA
:104B6000938281B20AD005017B81010E016E4BD088
:104B70007B91000E016E47D0000106D005017B91AC
:104B8000000E016E40D0000105013DD0938681B634
:104B900013D0310E006E002EFED700D0938681B662
:104BA0000AD005017B81010E016E2DD07B91000E94
:104BB000016E29D0000106D005017B91000E016E27
:104BC00022D0000105011FD0938881B813D0310E87
:104BD000006E002EFED700D0938881B80AD0050160
:104BE0007B81010E016E0FD07B91000E016E0BD008
:104BF000000106D005017B91000E016E04D000017A
:104C0000050101D0050100011200F2CF0DF0F29E66
:104C1000E824F76AF7362F0FF66E4C0EF7220A00DB
:104C2000F550FA6E0800F5500DBEF28EF96E144B79
:104C3000504B8C4BC84B02010C930C859298898881
:104C400000011200929A898A100E006E002EFED783
:104C50000000929A899A02010CA504D00A2BD8B4BC
:104C60000B2B08D00A5302E10B5304E00A51D8B4CD
:104C70000B070A070001120002010C830C959298A1
:104C800089980001120092968996C0EF26F052D6BC
:104C9000320E0501926F0001ACEC14F00D0E05010F
:104CA0007A6F0001AADE012C40D0C5DF320E05016B
:104CB000926F0001ACEC14F00501756B7551320870
:104CC0000BE30001BFDF020E0501926F0001ACECA7
:104CD00014F00501752BF2D70001CEDF320E05016D
:104CE000926F0001ACEC14F00D0E05017A6F00011B
:104CF00084DE015208E1A6DF020E0501926F000179
:104D0000ACEC14F0F1D70501756B755112080BE38B
:104D1000000198DF020E0501926F0001ACEC14F067
:104D20000501752BF2D727D00001A6DF320E050151
:104D3000926F0001ACEC14F00D0E05017A6F0001CA
:104D40005CDE015208E17EDF020E0501926F000178
:104D5000ACEC14F0F1D70501756B755112080BE33B
:104D6000000170DF020E0501926F0001ACEC14F03F
:104D70000501752BF2D702010B6B0A6B000183D77B
:104D800012002D8E02010C9194928B920001120060
:104D900094908B90120094948B84100E006E002ED1
:104DA000FED7000094948B9402010CA104D0062B32
:104DB000D8B4072B08D0065302E1075304E006518C
:104DC000D8B407070607000112002D9E02010C81CE
:104DD00094928B820001120094908B901200D8DF85
:104DE000320E0501926F0001ACEC14F0080E0501C3
:104DF0007A6F000102DE012C4FD0C3DF320E0501B5
:104E0000926F0001ACEC14F0080E05017A6F0001FE
:104E1000F4DD012C08D0BFDF020E0501926F000106
:104E2000ACEC14F0F1D70501756B755128080BE354
:104E30000001B1DF020E0501926F0001ACEC14F02D
:104E40000501752BF2D70001C0DF320E0501926F0C
:104E50000001ACEC14F0080E05017A6F0001CDDD05
:104E6000015208E198DF020E0501926F0001ACECDF
:104E700014F0F1D70501756B755128080BE300019B
:104E80008ADF020E0501926F0001ACEC14F00501FF
:104E9000752BF2D727D0000198DF320E0501926FF3
:104EA0000001ACEC14F0080E05017A6F0001A5DDDD
:104EB000015208E170DF020E0501926F0001ACECB7
:104EC00014F0F1D70501756B755128080BE300014B
:104ED00062DF020E0501926F0001ACEC14F00501D7
:104EE000752BF2D70201076B066B000175DF12000C
:104EF00095908C90A7EF27F02D9A2D8C95928C820F
:104F0000120095948C84100E006E002EFED70000C7
:104F100095948C942DAC06D00201042BD8B4052BAB
:104F20000AD000010201045302E1055304E00451D8
:104F3000D8B405070407000112002D8A2D9C959214
:104F40008C92120095908C902EEF28F0D1D7320ED3
:104F50000501926F0001ACEC14F0050E05017A6FAB
:104F600000014BDD012C4FD0C7DF320E0501926FDF
:104F70000001ACEC14F0050E05017A6F00013DDD77
:104F8000012C08D0BEDF020E0501926F0001ACECCF
:104F900014F0F1D70501756B755128080BE300017A
:104FA000B0DF020E0501926F0001ACEC14F00501B8
:104FB000752BF2D70001C1DF320E0501926F00019F
:104FC000ACEC14F0050E05017A6F000116DD0152FC
:104FD00008E197DF020E0501926F0001ACEC14F0BE
:104FE000F1D70501756B755128080BE3000189DFC6
:104FF000020E0501926F0001ACEC14F00501752B57
:10500000F2D727D0000199DF320E0501926F00011F
:10501000ACEC14F0050E05017A6F0001EEDC0152D4
:1050200008E16FDF020E0501926F0001ACEC14F095
:10503000F1D70501756B755128080BE3000161DF9D
:10504000020E0501926F0001ACEC14F00501752B06
:10505000F2D70201056B046B000174D7120098DED1
:10506000320E0501926F0001ACEC14F0070E050141
:105070007A6F0001C2DC012C4FD0A7DE320E050191
:10508000926F0001ACEC14F0070E05017A6F00017D
:10509000B4DC012C08D07FDE020E0501926F000106
:1050A000ACEC14F0F1D70501756B755128080BE3D2
:1050B000000171DE020E0501926F0001ACEC14F0EC
:1050C0000501752BF2D700015CDE320E0501926FEF
:1050D0000001ACEC14F0070E05017A6F00018DDCC5
:1050E000015208E158DE020E0501926F0001ACEC9E
:1050F00014F0F1D70501756B755128080BE3000119
:105100004ADE020E0501926F0001ACEC14F00501BD
:10511000752BF2D727D0000134DE320E0501926FD5
:105120000001ACEC14F0070E05017A6F000165DC9C
:10513000015208E130DE020E0501926F0001ACEC75
:1051400014F0F1D70501756B755128080BE30001C8
:1051500022DE020E0501926F0001ACEC14F0050195
:10516000752BF2D70201076B066B000135DE1200CA
:1051700005017E51070B006E7E31016E0132013256
:105180001F0E011601508025E96E000E8121EA6E86
:10519000016A012A002A01D00136002EFDD77F5373
:1051A00003E00150EF1203D0011E0150EF16000181
:1051B000120005017E51070B006E7E31016E013237
:1051C00001321F0E011601507F25E96E000E80216D
:1051D000EA6EEFCF01F0002A01D00132002EFDD798
:1051E000000112007CC57EF5010E05017F6F0F0ED8
:1051F000816F920E806F0001BBDF7CC57EF50F0EC4
:105200000501806F800E7F6F0001D3DF01A00BD0FE
:1052100005017D81010E016E26D0310E006E002E3B
:10522000FED700D000017CC57EF5010E05017F6F21
:105230000F0E816F920E806F00019ADF7CC57EF5A4
:105240000F0E0501806F800E7F6F0001B2DF01B08D
:105250000BD005017D91000E016E05D0310E006E60
:10526000002EFED700D0000112001C0E05017C6F3D
:105270000001B8DF01C079F5170E05017C6F000150
:10528000B1DF01C07AF5160E05017C6F0001AADFBF
:1052900001C07BF505017B51000A000103E0010A12
:1052A0002DE04CD005017A51000A000103E0010A0B
:1052B00012E023D005017951000A000103E0010A40
:1052C00005E008D002010D6B000104D0010E0201BF
:1052D0000D6F000112D005017951000A000103E0B1
:1052E000010A06E009D0030E02010D6F000104D08F
:1052F000040E02010D6F000100D020D005017A518B
:10530000000A000103E0010A0FE018D005017951FD
:10531000000A000103E0010A06E005D0050E0201C3
:105320000D6F000100D00AD005017951000A00017B
:1053300003E0010A02E001D000D000D002010DC25A
:1053400001F00001120081C59BF404018B6B8A6B94
:105350002DB6EFD02D840AC200F00BC201F0026A14
:10536000036A01AE02D00206030603BE37D0050170
:105370008051035CD8B002D0040130D014E17F51D9
:10538000025CD8B002D0040129D00DE17E51015C4D
:10539000D8B002D0040122D006E100507D5DD8A033
:1053A00002D004011BD0929889980AC200F00BC267
:1053B00001F0026A036A01AE02D0020603067D51C3
:1053C000005E7E51015A7F51025A8051035A01C03A
:1053D00093F400C092F404018C6938D00AC200F042
:1053E0000BC201F0026A036A01AE02D00206030694
:1053F000005005017D5D09E101507E5D06E102502E
:105400007F5D03E10350805D1FE0929889880AC2A6
:1054100000F00BC201F0026A036A01AE02D002067C
:10542000030600507D5D006E01507E59016E0250F2
:105430007F590350805901C093F400C092F4010ECB
:1054400004018C6F03D0050173D004010501826B48
:105450008251815D19E38251040DF350036A3A0FC2
:10546000E96E040E0320EA6EEFCF00F0ECCF01F0FE
:10547000ECCF02F0ECCF03F0005004018A2701507A
:105480008B230501822BE4D7D89004018A35026E64
:105490008B35036E02C001F00350935D0FE303E10F
:1054A0009251015C0BE28BC495F48AC494F48A5146
:1054B000925D906F8B519359916F15D0010E925D53
:1054C0000501836F000E040193590501846FD89084
:1054D00084310401956F050183310401946F95C4F3
:1054E00091F494C490F48F6B8E6B996B986B976B5F
:1054F000966B9A6B010E8D6F0301B8859296899613
:10550000B50EB16EFF0ED880EA550501836FFF0E10
:105510000301EB550501846F000E0301EC55000EED
:105520000301ED55050184C5B3FF83C5B2FFA08219
:105530000401000112000C0E0501866F000199ECB8
:1055400016F0F40EF66E020EF76EC3EC16F00C0EAB
:10555000F66E030EF76EC3EC16F0240EF66E030E15
:10556000F76EC3EC16F012000C0E0501866F0001F9
:1055700099EC16F01C0EF66E050EF76EC3EC16F0E5
:10558000340EF66E050EF76EC3EC16F04C0EF66E8A
:10559000050EF76EC3EC16F0640EF66E050EF76E90
:1055A000C3EC16F0120081C5C6F30301B56BB46BF2
:1055B00006C200F007C201F0026A036A01AE02D01F
:1055C0000206030603BE37D005018051035CD8B044
:1055D00002D0030130D014E17F51025CD8B002D078
:1055E000030129D00DE17E51015CD8B002D0030146
:1055F00022D006E100507D5DD8A002D003011BD06F
:1056000094928B9206C200F007C201F0026A036A0C
:1056100001AE02D0020603067D51005E7E51015AA2
:105620007F51025A8051035A01C0BEF300C0BDF33E
:105630000301B66938D006C200F007C201F0026A61
:10564000036A01AE02D002060306005005017D5D2B
:1056500009E101507E5D06E102507F5D03E10350E8
:10566000805D1FE094928B8206C200F007C201F0B9
:10567000026A036A01AE02D00206030600507D5D95
:10568000006E01507E59016E02507F5903508059BF
:1056900001C0BEF300C0BDF3010E0301B66F03D01D
:1056A000050174D003010501826B8251815D19E30C
:1056B0008251040DF350036A640FE96E030E032058
:1056C000EA6EEFCF00F0ECCF01F0ECCF02F0ECCFC0
:1056D00003F000500301B4270150B5230501822BCC
:1056E000E4D7D8900301B435026EB535036E02C01D
:1056F00001F00350BE5D0FE303E1BD51015C0BE21D
:10570000B5C3C0F3B4C3BFF3B451BD5DBB6FB551F6
:10571000BE59BC6F15D0010EBD5D0501836F000E33
:105720000301BE590501846FD89084310301C06F15
:10573000050183310301BF6FC0C3BCF3BFC3BBF31B
:10574000BA6BB96BC46BC36BC26BC16BC56B010E1B
:10575000B76F02010C8F94908B90B50ECD6EFF0E3B
:10576000D880030114550501836FFF0E0301155501
:105770000501846F000E03011655000E0301175535
:10578000050184C5CFFF83C5CEFF9D8000011200B7
:1057900081C570F50501606B5F6B0301B8B5E2D0A0
:1057A0002D9408C200F009C201F0026A036A01AE3A
:1057B00002D00206030603BE37D005018051035C08
:1057C000D8B002D0030130D014E17F51025CD8B0D0
:1057D00002D0030129D00DE17E51015CD8B002D086
:1057E000030122D006E100507D5DD8A002D0030164
:1057F0001BD096928D8208C200F009C201F0026AA5
:10580000036A01AE02D0020603067D51005E7E519E
:10581000015A7F51025A8051035A01C068F500C0F5
:1058200067F5616936D0030108C200F009C201F0D2
:10583000026A036A01AE02D00206030600500501A7
:105840007D5D09E101507E5D06E102507F5D03E16F
:105850000350805D1DE096928D9208C200F009C24F
:1058600001F0026A036A01AE02D00206030600508C
:105870007D5D006E01507E59016E02507F590350CC
:10588000805901C068F500C067F5010E616F01D055
:1058900068D0826B8251815D17E38251040DF35011
:1058A000036A0F0FE96E050E0320EA6EEFCF00F0DA
:1058B000ECCF01F0ECCF02F0ECCF03F000505F270B
:1058C00001506023822BE6D7D8905F35026E603599
:1058D000036E02C001F00350685D0FE303E16751FE
:1058E000015C0BE260C56AF55FC569F55F51675DF4
:1058F000656F60516859666F0FD0010E675D836FE9
:10590000000E6859846FD89084316A6F8331696F53
:105910006AC566F569C565F5646B636B6E6B6D6B27
:105920006C6B6B6B6F6B010E626F2D8696908D901A
:10593000B50EB16EFF0ED8800401BF550501836F0F
:10594000FF0E0401C0550501846F000E0401C1550E
:10595000000E0401C255050184C5B3FF83C5B2FF23
:10596000A08203010001120081C5EAF20201DA6B94
:10597000D96B04C200F005C201F0026A036A05AFE8
:1059800002D00206030603BE37D005018051035C36
:10599000D8B002D0020130D014E17F51025CD8B0FF
:1059A00002D0020129D00DE17E51015CD8B002D0B5
:1059B000020122D006E100507D5DD8A002D0020194
:1059C0001BD095928C9204C200F005C201F0026ACD
:1059D000036A01AE02D0020603067D51005E7E51CD
:1059E000015A7F51025A8051035A01C0E2F200C0AD
:1059F000E1F20201DB6938D004C200F005C201F017
:105A0000026A036A05AF02D00206030600500501D0
:105A10007D5D09E101507E5D06E102507F5D03E19D
:105A20000350805D1FE095928C8204C200F005C295
:105A300001F0026A036A01AE02D0020603060050BA
:105A40007D5D006E01507E59016E02507F590350FA
:105A5000805901C0E2F200C0E1F2010E0201DB6FE9
:105A600003D0050172D002010501826B8251815D74
:105A700019E38251040DF350036A890FE96E020E97
:105A80000320EA6EEFCF00F0ECCF01F0ECCF02F094
:105A9000ECCF03F000500201D9270150DA230501B1
:105AA000822BE4D7D8900201D935026EDA35036E25
:105AB00002C001F00350E25D0FE303E1E151015C3C
:105AC0000BE2DAC2E4F2D9C2E3F2D951E15DDF6F51
:105AD000DA51E259E06F15D0010EE15D0501836FE7
