:0400000032EF53F098
:08000800046ED8CF05F0E0CF33
:1000100006F00001E9CF0CF0EACF07F0E1CF08F0DD
:10002000E2CF09F0D9CF0AF0DACF0BF0F3CF12F01C
:10003000F4CF13F0FACF14F000C00EF001C00FF0AF
:1000400002C010F003C011F0F2AA2AEF00F0F2B4DF
:100050005CEF0AF09DA030EF00F09EB03EEF0DF097
:100060009DA236EF00F09EB242EF0DF0A0A23CEF51
:1000700000F0A1B20AEF10F00EC000F00FC001F0C6
:1000800010C002F011C003F00CC0E9FF07C0EAFF86
:10009000078E08C0E1FF09C0E2FF0AC0D9FF0BC00C
:1000A000DAFF12C0F3FF13C0F4FF14C0FAFF0450CC
:1000B00006C0E0FF05C0D8FF10006572726F2064B3
:1000C00065206573637269746120000020202045FB
:1000D0004550524F4D2020202020202000006572E6
:1000E000726F206465206C656974757261202000F0
:1000F0002020202020454550524F4D2020202020F8
:10010000200020202020202020204943545320205C
:100110002020202020200A0D00002020494E53548A
:10012000495455544F2043454E54524F20200A0DF8
:100130000000202020205445434E4F4C4F4749415A
:1001400020454D2020200A0D0000202020202020C6
:10015000534F4654574152452020202020200A0D5D
:1001600000002020202020494E494349414E444F61
:1001700020202020200A0D002020202020204D417A
:100180005155494E4120202020200A0D00004D4F9E
:1001900056494D454E54414E444F204D41515549CD
:1001A0004E410A0D00002020202050415241205095
:1001B0004F534943414F202020200A0D00002020AA
:1001C000202020414C494D454E5441444F5220205F
:1001D00020200A0D00004D4F56494D454E54414ECA
:1001E000444F204D415155494E410A0D00002020F9
:1001F00020205041524120504F534943414F20202D
:1002000020200A0D000020202020202020484F4DD3
:10021000452031202020202020200A0D00004D4FB5
:1002200056494D454E54414E444F204D415155493C
:100230004E410A0D00002020202050415241205004
:100240004F534943414F202020200A0D0000202019
:1002500020202020534F4C444147454D2020202052
:10026000200A0D004D4F56494D454E54414E444FC6
:10027000204D415155494E410A0D000020202020BB
:100280005041524120504F534943414F202020209C
:100290000A0D000020202020202020484F4D45201E
:1002A00032202020202020200A0D00004D4F5649EA
:1002B0004D454E54414E444F204D415155494E41BC
:1002C0000A0D0000202020205041524120504F5361
:1002D0004943414F202020200A0D000020202020EB
:1002E00044495350454E5341444F52202020202032
:1002F0000A0D00004D4F56494D454E54414E444F56
:10030000204D415155494E410A0D0000202020202A
:100310005041524120504F534943414F202020200B
:100320000A0D0000202020202020204C494D50455F
:100330005A412020202020200A0D00004D4F564910
:100340004D454E54414E444F204D415155494E412B
:100350000A0D0000202020205041524120504F53D0
:100360004943414F202020200A0D0000202020205A
:10037000204C494D50455A415F32202020202020FA
:100380000A0D000020204553504552414E444F2055
:100390004D415155494E41200A0D00002020204971
:1003A00052205041524120504F534943414F202049
:1003B0000A0D0000202020205052452D5245515555
:1003C000495349544F2020200A0D00002020204589
:1003D00053504552414E444F204F555452412020D6
:1003E0000A0D0000202020202020204D4151554999
:1003F0004E412020202020200A0D000020202049EE
:1004000052205041524120504F534943414F2020E8
:100410000A0D00002020202020414C494D454E541B
:1004200041444F52202020200A0D0000202020456A
:1004300053504552414E444F204F55545241202075
:100440000A0D0000202020202020204D4151554938
:100450004E412020202020200A0D0000202020498D
:1004600052205041524120504F534943414F202088
:100470000A0D000020202020202020484F4D45203C
:1004800031202020202020200A0D0000202020459F
:1004900053504552414E444F204F55545241202015
:1004A0000A0D0000202020202020204D41515549D8
:1004B0004E412020202020200A0D0000202020492D
:1004C00052205041524120504F534943414F202028
:1004D0000A0D00002020202020534F4C4441474566
:1004E0004D203120202020200A0D00002020204512
:1004F00053504552414E444F204F555452412020B5
:100500000A0D0000202020202020204D4151554977
:100510004E412020202020200A0D000020202049CC
:1005200052205041524120504F534943414F2020C7
:100530000A0D000020202020202020484F4D45207B
:1005400032202020202020200A0D000020202045DD
:1005500053504552414E444F204F55545241202054
:100560000A0D0000202020202020204D4151554917
:100570004E412020202020200A0D0000202020496C
:1005800052205041524120504F534943414F202067
:100590000A0D0000202020202044495350454E538E
:1005A00041444F52202020200A0D000020202045E9
:1005B00053504552414E444F204F555452412020F4
:1005C0000A0D0000202020202020204D41515549B7
:1005D0004E412020202020200A0D0000202020490C
:1005E00052205041524120504F534943414F202007
:1005F0000A0D0000202020202020204C494D50458D
:100600005A412020202020200A0D000020202045D3
:1006100053504552414E444F204F55545241202093
:100620000A0D0000202020202020204D4151554956
:100630004E412020202020200A0D000020202049AB
:1006400052205041524120504F534943414F2020A6
:100650000A0D00002020202020204C494D50455AF2
:10066000415F3220202020200A0D0000202020455C
:1006700053504552414E444F204F55545241202033
:100680000A0D0000202020202020204D41515549F6
:100690004E412020202020200A0D00002020205341
:1006A00041495220444120504F534943414F20205B
:1006B0000A0D0000202020202020202041545541F8
:1006C0004C202020202020200A0D000020534F4CD9
:1006D0004441444F52204155544F4D415449434F9A
:1006E0000A0D00002020202020204D4F44454C4F73
:1006F0003A253032752020200A0D00005E2F3F3A47
:100700004D4F44454C4F7C4D454E553A444255471C
:100710000A0D00002020202020454E5445523A4D1D
:1007200041494E20202020200A0D00002053454C36
:100730004543494F4E452041204D415155494E4179
:100740000A0D00002020202046313A204D4151550D
:10075000494E4120312020200A0D00002020202079
:1007600046323A204D415155494E412032202020F9
:100770000A0D0000202020204553433A4241434BBC
:1007800020202020202020200A0D000020202020D2
:10079000204D414E5554454E43414F2020202020AE
:1007A0000A0D00002020202020204D415155494EA7
:1007B00041203220202020200A0D0000202020206F
:1007C0002020202020202020202020202020202029
:1007D0000A0D00002020202020204553433A4241AA
:1007E000434B2020202020200A0D00002020202024
:1007F0004553434F4C484552204143414F20202010
:100800000A0D0000202046313A2045444954415207
:10081000204D4F44454C4F200A0D00002020463209
:100820003A204558434C5549204D4F44454C4F20A4
:100830000A0D000020204553433A4241434B2020FB
:1008400020202020202020200A0D000020204631DA
:100850003A2045444954415220504F4E544F532062
:100860000A0D0000202046323A204D414E55544595
:100870004E43414F202020200A0D00002020463307
:100880003A20514E545F504F4E544F532020202059
:100890000A0D000020204553433A4241434B20209B
:1008A00020202020202020200A0D00002020504F52
:1008B0004E544F53204E4F204D4F44454C4F202017
:1008C0000A0D00002020202020202020202530326A
:1008D00075202020202020200A0D0000202020202C
:1008E0003F2F3F3A4E5F504F4E544F532020200A27
:1008F0000D0020454E5445523A534156457C4553D0
:10090000433A4241434B0A0D000020202044455306
:10091000454A41204558434C5549522020200A0D54
:10092000000020202020204F204D4F44454C4F20D8
:100930003F20202020200A0D000020202020202001
:10094000454E5445523D4F4B2020202020200A0D7B
:100950000000202020204553433A4E4F2F42414370
:100960004B20202020200A0D000050253032752019
:100970002020202020202020454E543D454449542D
:100980000A0D000050253032752020202020202024
:1009900020204553433D4241434B0A0D0000502562
:1009A00030327520202020202020202020202020D0
:1009B000202020200A0D00005025303275202020F4
:1009C00020202020202020202020202020200A0D50
:1009D0000000583A2530344C7520593A2530344CB3
:1009E00075205A3A2530344C750A0D002020545F8A
:1009F000533A2530344C7520545F453A2530344CF9
:100A000075200A0D00002020205449504F3A25300F
:100A10003275204841423A253032752020200A0D97
:100A2000000046313A47524156417C454E544552AA
:100A30003A54455354450A0D00002046313A2044AB
:100A40004542554720454E545241444153200A0DDA
:100A500000002046323A2020444542554720534169
:100A60004944415320200A0D00002020202020204E
:100A700020202020202020202020202020200A0D9F
:100A800000002020202020204553433A4241434B80
:100A90002020202020200A0D00004530303A25304B
:100AA0003275204530313A25303275204530323AA2
:100AB000253032750A0D00004530333A2530327545
:100AC000204530343A25303275204530353A2530CE
:100AD00032750A0D00004530363A25303275204512
:100AE00030373A25303275204530383A2530327566
:100AF0000A0D00002020203E3A50524F587C4553AA
:100B0000433A4241434B20200A0D00004530393A18
:100B100025303275204531303A2530327520453147
:100B2000313A253032750A0D00004531323A253010
:100B30003275204531333A25303275204531343A0B
:100B4000253032750A0D00004531353A25303275B1
:100B5000204531363A25303275204531373A253037
:100B600032750A0D000020203C7C3E3A50524F580E
:100B70007C4553433A4241434B200A0D0000453126
:100B8000383A25303275204531393A2530327520D2
:100B90004532303A253032750A0D00004532313A7F
:100BA00025303275204532323A25303275204532B3
:100BB000333A253032750A0D00004532343A25307B
:100BC0003275204532353A25303275204532363A75
:100BD000253032750A0D00004532373A253032751E
:100BE000203C3A414E547C4553433A4241434B0AE0
:100BF0000D004553544549524120202020202020FB
:100C00002020202020200A0D00004445444F53207E
:100C1000454E5452414441202020202020200A0DDE
:100C20000000414C494D454E5441444F525F504C99
:100C30004143412020200A0D000046313A4F4E7CAE
:100C400046323A4F467C4553433A4241434B0A0DA4
:100C5000000050524553534F522020202020202086
:100C60002020202020200A0D00004445444F535FDF
:100C700053414944412020202020202020200A0DDB
:100C8000000044495350454E5341444F525F504C2D
:100C90004143412020200A0D000046313A4F4E7C4E
:100CA00046323A4F467C4553433A4241434B0A0D44
:100CB0000000414C494D454E5441444F525F534F03
:100CC0004C44412020200A0D00004C494D50414425
:100CD0004F525F4249434F202020202020200A0D00
:100CE0000000464552524F535F44455F534F4C44BA
:100CF0004120202020200A0D000046313A4F4E7C32
:100D000046323A4F467C4553433A4241434B0A0DE3
:100D10000000202020583A2530344C752020593AC4
:100D20002530344C7520200A0D002020205A3A2509
:100D300030344C752020463A2530344C7520200A3A
:100D40000D0020205E7C3F7C7C3E7C3C7C46317CE0
:100D500046327C387C30200A0D00202020202020C4
:100D6000204553433A4241434B2020202020200A73
:100D70000D0020455845435554414E444F20505294
:100D80004F4752414D410A0D000020202020204DA8
:100D90004F44454C4F3A25303275202020200A0D13
:100DA0000000202020202020202020202020202083
:100DB0002020202020200A0D00002020202020209C
:100DC0004553433A53544F502020202020200A0DF1
:100DD00000002020504F534943414F204952524573
:100DE00047554C4152200A0D000020202058204435
:100DF00045564520534552203E20302020200A0DE4
:100E00000000202059204445564520534552203E9D
:100E10002037303020200A0D00002020434152525C
:100E20004547414E444F204D4F44454C4F200A0DFD
:100E300000002020434152524547414E444F204D2F
:100E40004F44454C4F200A0D0000504F4E544F5315
:100E500020415455414C495A41444F530A0D00001A
:100E600020204558434C55494E444F204D4F444552
:100E70004C4F20200A0D00002020204D4F44454CAF
:100E80004F204558435549444F2020200A0D00006B
:100E900047524156414E444F20504F4E544F0A0D39
:100EA0000000504F4E544F204752415641444F0A84
:100EB0000D002020204553504552414E444F2050B4
:100EC0004C4143412020200A0D0020202020204EAC
:100ED00041204553544549524120202020200A0DED
:100EE000000020202020202053454D20504C41431D
:100EF0004120202020200A0D000020202020204E0C
:100F0000412042414E44454A4120202020200A0DE4
:100F100000000101F753D8A497D0F751040DF35006
:100F2000036A970FE96E010E0320EA6EEFCF00F01F
:100F3000ECCF01F0ECCF02F0ECCF03F00050EB5D12
:100F400060E10150EC5D5DE102525BE1035259E169
:100F5000F751040DF350036A970FE96E010E032059
:100F6000EA6EEFCFDEF3ECCFDFF3ECCFE0F3ECCFC4
:100F7000E1F3010EF725040DF350036A970FE96EB4
:100F8000010E0320EA6EEFCF00F0ECCF01F0ECCFC2
:100F900002F0ECCF03F00301DE510026DF51012205
:100FA000E0510222E151032200500101F3270150D8
:100FB000F4230250F5230350F623F72BF751040DC9
:100FC000F350036A470FE96E010E0320EA6EEFCF7C
:100FD00000F0ECCF01F0ECCF02F0ECCF03F0FF0E0D
:100FE000D88000540301DE6FFF0E0154DF6F000E46
:100FF0000254000E0354DFC3D7FFDEC3D6FF22D056
:101000000101F751040DF350036A470FE96E010E19
:101010000320EA6EEFCF00F0ECCF01F0ECCF02F04E
:10102000ECCF03F0FF0ED88000540301DE6FFF0EFB
:101030000154DF6F000E0254000E0354DFC3D7FFCC
:10104000DEC3D6FF8FD00101F851F75D23E1F751E0
:10105000040DF350036A470FE96E010E0320EA6E98
:10106000EFCF00F0ECCF01F0ECCF02F0ECCF03F0CB
:10107000FF0ED88000540301DE6FFF0E0154DF6FB6
:10108000000E0254000E0354DFC3D7FFDEC3D6FFA9
:1010900069D00101F351EB5D44E1F451EC5D41E1B4
:1010A000F5533FE1F6533DE1F72BF751040DF350B3
:1010B000036A970FE96E010E0320EA6EEFCF00F08E
:1010C000ECCF01F0ECCF02F0ECCF03F00050F327AF
:1010D0000150F4230250F5230350F623F751040D79
:1010E000F350036A470FE96E010E0320EA6EEFCF5B
:1010F00000F0ECCF01F0ECCF02F0ECCF03F0FF0EEC
:10110000D88000540301DE6FFF0E0154DF6F000E24
:101110000254000E0354DFC3D7FFDEC3D6FF22D034
:101120000101F751040DF350036A470FE96E010EF8
:101130000320EA6EEFCF00F0ECCF01F0ECCF02F02D
:10114000ECCF03F0FF0ED88000540301DE6FFF0EDA
:101150000154DF6F000E0254000E0354DFC3D7FFAB
:10116000DEC3D6FF000112000101F75323E1F7515E
:10117000040DF350036A470FE96E010E0320EA6E77
:10118000EFCF00F0ECCF01F0ECCF02F0ECCF03F0AA
:10119000FF0ED88000540301DE6FFF0E0154DF6F95
:1011A000000E0254000E0354DFC3D7FFDEC3D6FF88
:1011B0001DD10101F851F75DD8A4B0D0F751040D4D
:1011C000F350036A970FE96E010E0320EA6EEFCF2A
:1011D00000F0ECCF01F0ECCF02F0ECCF03F0ED51DA
:1011E0000026EE510122000E022203220050EB5D88
:1011F00072E10150EC5D6FE102526DE103526BE16F
:10120000F751040DF350036A970FE96E010E0320A6
:10121000EA6EEFCF00F0ECCF01F0ECCF02F0ECCFB4
:1012200003F00050ED250301DE6F01500101EE21B6
:101230000301DF6F000E0220E06F000E0320E16F5C
:10124000010E0101F75D040DF350036A970FE96E7B
:10125000010E0320EA6EEFCF00F0ECCF01F0ECCFEF
:1012600002F0ECCF03F000500301DE250101F36F23
:1012700001500301DF210101F46F02500301E0215D
:101280000101F56F03500301E1210101F66FF7073A
:10129000F751040DF350036A470FE96E010E032066
:1012A000EA6EEFCF00F0ECCF01F0ECCF02F0ECCF24
:1012B00003F0FF0ED88000540301DE6FFF0E0154CF
:1012C000DF6F000E0254000E0354DFC3D7FFDEC3EE
:1012D000D6FF22D00101F751040DF350036A470FE6
:1012E000E96E010E0320EA6EEFCF00F0ECCF01F0C3
:1012F000ECCF02F0ECCF03F0FF0ED88000540301D6
:10130000DE6FFF0E0154DF6F000E0254000E035417
:10131000DFC3D7FFDEC3D6FF69D00101F351EB5D18
:1013200044E1F451EC5D41E1F5533FE1F6533DE119
:10133000F707F751040DF350036A970FE96E010E9A
:101340000320EA6EEFCF00F0ECCF01F0ECCF02F01B
:10135000ECCF03F00050F3270150F4230250F523A3
:101360000350F623F751040DF350036A470FE96E5B
:10137000010E0320EA6EEFCF00F0ECCF01F0ECCFCE
:1013800002F0ECCF03F0FF0ED88000540301DE6FB3
:10139000FF0E0154DF6F000E0254000E0354DFC332
:1013A000D7FFDEC3D6FF22D00101F751040DF35061
:1013B000036A470FE96E010E0320EA6EEFCF00F0DB
:1013C000ECCF01F0ECCF02F0ECCF03F0FF0ED880B1
:1013D00000540301DE6FFF0E0154DF6F000E025454
:1013E000000E0354DFC3D7FFDEC3D6FF000123EF97
:1013F0000AF00101EA51010A000105E0020A22E0B7
:10140000010A2EE03CD085DD0101F151EB5D16E1D2
:10141000F251EC5D13E1D890E735026EE835036ECA
:1014200002C001F00350F05D07E303E1EF51015CFE
:1014300003E2020EEA6F02D0030EEA6F95948C74F9
:101440001A7B21D091D60101EF51EB5D05E1F051FE
:10145000EC5D02E1040EEA6F95948C741A7B13D054
:1014600058DD0101ED51EB5D05E1EE51EC5D02E16E
:10147000030EEA6F95948C741A7B05D0000101016C
:10148000EA6BF29A1A99EA5314E0EA51040811E05F
:101490001AAB0FD0036AE951E8BE03061225016EAC
:1014A0001351032201C012F103C013F1EB2BD8B486
:1014B000EC2B00015DEF0AF09CD7F2943CEF00F0BA
:1014C0000201D353D8A497D0D351040DF350036A2B
:1014D000720FE96E020E0320EA6EEFCF00F0ECCF40
:1014E00001F0ECCF02F0ECCF03F00050C75D60E1FB
:1014F0000150C85D5DE102525BE1035259E1D351F5
:10150000040DF350036A720FE96E020E0320EA6EB7
:10151000EFCFDEF3ECCFDFF3ECCFE0F3ECCFE1F392
:10152000010ED325040DF350036A720FE96E020E0B
:101530000320EA6EEFCF00F0ECCF01F0ECCF02F029
:10154000ECCF03F00301DE510026DF510122E05110
:101550000222E151032200500201CF270150D02383
:101560000250D1230350D223D32BD351040DF35077
:10157000036A220FE96E020E0320EA6EEFCF00F03D
:10158000ECCF01F0ECCF02F0ECCF03F0FF0ED880EF
:1015900000540301DE6FFF0E0154DF6F000E025492
:1015A000000E0354DFC3CFFFDEC3CEFF22D0020103
:1015B000D351040DF350036A220FE96E020E03208B
:1015C000EA6EEFCF00F0ECCF01F0ECCF02F0ECCF01
:1015D00003F0FF0ED88000540301DE6FFF0E0154AC
:1015E000DF6F000E0254000E0354DFC3CFFFDEC3D3
:1015F000CEFF8FD00201D451D35D23E1D351040D2E
:10160000F350036A220FE96E020E0320EA6EEFCF59
:1016100000F0ECCF01F0ECCF02F0ECCF03F0FF0EC6
:10162000D88000540301DE6FFF0E0154DF6F000EFF
:101630000254000E0354DFC3CFFFDEC3CEFF69D0D8
:101640000201CF51C75D44E1D051C85D41E1D153A2
:101650003FE1D2533DE1D32BD351040DF350036A44
:10166000720FE96E020E0320EA6EEFCF00F0ECCFAE
:1016700001F0ECCF02F0ECCF03F00050CF27015087
:10168000D0230250D1230350D223D351040DF35061
:10169000036A220FE96E020E0320EA6EEFCF00F01C
:1016A000ECCF01F0ECCF02F0ECCF03F0FF0ED880CE
:1016B00000540301DE6FFF0E0154DF6F000E025471
:1016C000000E0354DFC3CFFFDEC3CEFF22D00201E2
:1016D000D351040DF350036A220FE96E020E03206A
:1016E000EA6EEFCF00F0ECCF01F0ECCF02F0ECCFE0
:1016F00003F0FF0ED88000540301DE6FFF0E01548B
:10170000DF6F000E0254000E0354DFC3CFFFDEC3B1
:10171000CEFF000112000201D35323E1D351040D87
:10172000F350036A220FE96E020E0320EA6EEFCF38
:1017300000F0ECCF01F0ECCF02F0ECCF03F0FF0EA5
:10174000D88000540301DE6FFF0E0154DF6F000EDE
:101750000254000E0354DFC3CFFFDEC3CEFF1DD102
:101760000201D451D35DD8A4B0D0D351040DF350AD
:10177000036A720FE96E020E0320EA6EEFCF00F0EB
:10178000ECCF01F0ECCF02F0ECCF03F0C951002612
:10179000CA510122000E022203220050C75D72E1ED
:1017A0000150C85D6FE102526DE103526BE1D3510C
:1017B000040DF350036A720FE96E020E0320EA6E05
:1017C000EFCF00F0ECCF01F0ECCF02F0ECCF03F064
:1017D0000050C9250301DE6F01500201CA21030137
:1017E000DF6F000E0220E06F000E0320E16F010E9C
:1017F0000201D35D040DF350036A720FE96E020E0D
:101800000320EA6EEFCF00F0ECCF01F0ECCF02F056
:10181000ECCF03F000500301DE250201CF6F015031
:101820000301DF210201D06F02500301E021020118
:10183000D16F03500301E1210201D26FD307D351CD
:10184000040DF350036A220FE96E020E0320EA6EC4
:10185000EFCF00F0ECCF01F0ECCF02F0ECCF03F0D3
:10186000FF0ED88000540301DE6FFF0E0154DF6FBE
:10187000000E0254000E0354DFC3CFFFDEC3CEFFC1
:1018800022D00201D351040DF350036A220FE96EF6
:10189000020E0320EA6EEFCF00F0ECCF01F0ECCFA8
:1018A00002F0ECCF03F0FF0ED88000540301DE6F8E
:1018B000FF0E0154DF6F000E0254000E0354DFC30D
:1018C000CFFFDEC3CEFF69D00201CF51C75D44E137
:1018D000D051C85D41E1D1533FE1D2533DE1D3073F
:1018E000D351040DF350036A720FE96E020E032008
:1018F000EA6EEFCF00F0ECCF01F0ECCF02F0ECCFCE
:1019000003F00050CF270150D0230250D1230350C1
:10191000D223D351040DF350036A220FE96E020E55
:101920000320EA6EEFCF00F0ECCF01F0ECCF02F035
:10193000ECCF03F0FF0ED88000540301DE6FFF0EE2
:101940000154DF6F000E0254000E0354DFC3CFFFBB
:10195000DEC3CEFF22D00201D351040DF350036A3F
:10196000220FE96E020E0320EA6EEFCF00F0ECCFFB
:1019700001F0ECCF02F0ECCF03F0FF0ED880005462
:101980000301DE6FFF0E0154DF6F000E0254000EE4
:101990000354DFC3CFFFDEC3CEFF0001FCEF0CF02A
:1019A0000201C551010A000105E0020A24E0010A12
:1019B00032E042D094948B7401011A7F000180DDE3
:1019C0000201CD51C75D16E1CE51C85D13E1D8903B
:1019D000C235026EC335036E02C001F00350CC5D08
:1019E00007E303E1CB51015C03E2020EC56F02D0B5
:1019F000030EC56F28D08FD60201CB51C75D05E11C
:101A0000CC51C85D02E1040EC56F94948B74010142
:101A10001A7F020118D054DD0201C951C75D05E1EA
:101A2000CA51C85D02E1030EC56F94948B74010125
:101A30001A7F020108D000010201C56BC6919D907A
:101A400001011A9D0201C55315E001011AAF13D01F
:101A5000036A0201C451E8BE030601011425016EA8
:101A60001551032201C014F103C015F10201C72B67
:101A7000D8B4C82B010100013FEF0DF091D79E9023
:101A80003CEF00F0010E2826D8B0292AD8B42A2A23
:101A9000D8B42B2A9E923CEF00F00301A853D8A49F
:101AA00091D0A851040DF350036A480FE96E030E5C
:101AB0000320EA6EEFCF00F0ECCF01F0ECCF02F0A4
:101AC000ECCF03F000509C5D5CE101509D5D59E15D
:101AD000025257E1035255E1A851040DF350036A35
:101AE000480FE96E030E0320EA6EEFCFDEF3ECCF72
:101AF000DFF3ECCFE0F3ECCFE1F3010EA825040D0A
:101B0000F350036A480FE96E030E0320EA6EEFCF2D
:101B100000F0ECCF01F0ECCF02F0ECCF03F0DE519F
:101B20000026DF510122E0510222E1510322005040
:101B3000A4270150A5230250A6230350A723A82BB6
:101B4000A851040DF350036AF80FE96E020E03204A
:101B5000EA6EEFCF00F0ECCF01F0ECCF02F0ECCF6B
:101B600003F0FF0ED8800054DE6FFF0E0154DF6FCC
:101B7000000E0254000E0354DFC3B3FFDEC3B2FFF6
:101B800020D0A851040DF350036AF80FE96E020E3D
:101B90000320EA6EEFCF00F0ECCF01F0ECCF02F0C3
:101BA000ECCF03F0FF0ED8800054DE6FFF0E01541F
:101BB000DF6F000E0254000E0354DFC3B3FFDEC319
:101BC000B2FF89D0A951A85D21E1A851040DF350BD
:101BD000036AF80FE96E020E0320EA6EEFCF00F001
:101BE000ECCF01F0ECCF02F0ECCF03F0FF0ED88089
:101BF0000054DE6FFF0E0154DF6F000E0254000E22
:101C00000354DFC3B3FFDEC3B2FF65D0A4519C5DB4
:101C100042E1A5519D5D3FE1A6533DE1A7533BE164
:101C2000A82BA851040DF350036A480FE96E030E68
:101C30000320EA6EEFCF00F0ECCF01F0ECCF02F022
:101C4000ECCF03F00050A4270150A5230250A62397
:101C50000350A723A851040DF350036AF80FE96E4F
:101C6000020E0320EA6EEFCF00F0ECCF01F0ECCFD4
:101C700002F0ECCF03F0FF0ED8800054DE6FFF0EB1
:101C80000154DF6F000E0254000E0354DFC3B3FF94
:101C9000DEC3B2FF20D0A851040DF350036AF80F41
:101CA000E96E020E0320EA6EEFCF00F0ECCF01F0F8
:101CB000ECCF02F0ECCF03F0FF0ED8800054DE6FC3
:101CC000FF0E0154DF6F000E0254000E0354DFC3F9
:101CD000B3FFDEC3B2FF000112000301A85321E1EC
:101CE000A851040DF350036AF80FE96E020E0320A9
:101CF000EA6EEFCF00F0ECCF01F0ECCF02F0ECCFCA
:101D000003F0FF0ED8800054DE6FFF0E0154DF6F2A
:101D1000000E0254000E0354DFC3B3FFDEC3B2FF54
:101D200009D1A951A85DD8A4A0D0A851040DF350A1
:101D3000036A480FE96E030E0320EA6EEFCF00F04E
:101D4000ECCF01F0ECCF02F0ECCF03F09E51002677
:101D50009F510122000E0222032200509C5D64E18B
:101D600001509D5D61E102525FE103525DE1A851C6
:101D7000040DF350036A480FE96E030E0320EA6E68
:101D8000EFCF00F0ECCF01F0ECCF02F0ECCF03F09E
:101D900000509E25DE6F01509F21DF6F000E022054
:101DA000E06F000E0320E16F010EA85D040DF350FB
:101DB000036A480FE96E030E0320EA6EEFCF00F0CE
:101DC000ECCF01F0ECCF02F0ECCF03F00050DE25B9
:101DD000A46F0150DF21A56F0250E021A66F0350D0
:101DE000E121A76FA807A851040DF350036AF80F6B
:101DF000E96E020E0320EA6EEFCF00F0ECCF01F0A7
:101E0000ECCF02F0ECCF03F0FF0ED8800054DE6F71
:101E1000FF0E0154DF6F000E0254000E0354DFC3A7
:101E2000B3FFDEC3B2FF20D0A851040DF350036A04
:101E3000F80FE96E020E0320EA6EEFCF00F0ECCF50
:101E400001F0ECCF02F0ECCF03F0FF0ED88000548D
:101E5000DE6FFF0E0154DF6F000E0254000E0354BC
:101E6000DFC3B3FFDEC3B2FF65D0A4519C5D42E186
:101E7000A5519D5D3FE1A6533DE1A7533BE1A80776
:101E8000A851040DF350036A480FE96E030E0320B6
:101E9000EA6EEFCF00F0ECCF01F0ECCF02F0ECCF28
:101EA00003F00050A4270150A5230250A62303509D
:101EB000A723A851040DF350036AF80FE96E020E30
:101EC0000320EA6EEFCF00F0ECCF01F0ECCF02F090
:101ED000ECCF03F0FF0ED8800054DE6FFF0E0154EC
:101EE000DF6F000E0254000E0354DFC3B3FFDEC3E6
:101EF000B2FF20D0A851040DF350036AF80FE96E29
:101F0000020E0320EA6EEFCF00F0ECCF01F0ECCF31
:101F100002F0ECCF03F0FF0ED8800054DE6FFF0E0E
:101F20000154DF6F000E0254000E0354DFC3B3FFF1
:101F3000DEC3B2FF0001CEEF0FF003019B51010A97
:101F4000000105E0020A24E0010A32E042D0929A40
:101F5000897A0201C6750001A0DD0301A2519C5DD2
:101F600016E1A3519D5D13E1D8909835026E993525
:101F7000036E02C001F00350A15D07E303E1A0512D
:101F8000015C03E2020E9B6F02D0030E9B6F27D011
:101F9000929A897A0201C67500019FD60301A05169
:101FA0009C5D05E1A1519D5D02E1040E9B6F17D080
:101FB000929A897A0201C67500016FDD03019E5174
:101FC0009C5D05E19F519D5D02E1030E9B6F07D073
:101FD000000103019B6BA0920201C69303019B5376
:101FE00015E00201C6A513D0036A03019A51E8BEA9
:101FF000030601011825016E1951032201C018F1D1
:1020000003C019F103019C2BD8B49D2B02010001E0
:102010000BEF10F092D7A1923CEF00F0C69E9E9677
:10202000C6C3C9FF020EC6BE05D09EA6FED7000ECF
:10203000C5BC010E016E1200C580C5B0FED7D89098
:102040000301C3354009C56FC66F0001E7DF0150CA
:102050002C9601B02C86C4C3C6F3E0DF01502C9649
:1020600001B02C86C584C5B4FED72C761200030EB1
:10207000EA6EBE0EE96EEF500DE0060E016E006ACC
:10208000002EFED7012EFBD77B0E006E002EFED752
:10209000EF2EF3D71200310E006E002EFED700D0C7
:1020A0000301C36BC2C3C4F30001C6DF310E006E6F
:1020B000002EFED700D092908980310E006E002E47
:1020C000FED700D092908990310E006E002EFED780
:1020D00000D01200939A8A9AC1C3C2F3DCDF1200C7
:1020E0000301C36BC4690001A7DF92908990939AA2
:1020F0008A8A0F0E0301BE6F0001B9DF380E03019B
:10210000C16F0001E7DF0F0E0301BE6F0001AFDFFB
:102110000C0E0301C16F0001DDDF0F0E0301BE6F66
:102120000001A5DF060E0301C16F0001D3DF0F0E12
:102130000301BE6F00019BDF010E01010E6F0F6FE7
:10214000000169EF54F0C580C5B0FED7D8900301F7
:10215000BB354009BF6FC66F000160DF01502C9690
:1021600001B02C86BCC3C6F359DF01502C9601B0D8
:102170002C86BEC3C6F352DF01502C9601B02C86CC
:10218000BDC3C6F34BDF01502C9601B02C86C5842D
:10219000C5B4FED72C761200010E0301BB6F060EEC
:1021A000BC6FBD69F80EBE6F0001CDDF010E0301EB
:1021B000BB6F020EBC6FBD6B070EBE6F0001C3DFAD
:1021C0006BEF54F0030E0301BB6F060EBC6FBD69CD
:1021D000BE690001B8DF6DEF54F0020E0301BB6F62
:1021E000060EBC6FBD6BBE6B0001ADDF6FEF54F030
:1021F00001011169106910C1ADF3030111C1AEF302
:102200000301020EBB6FBC6FAEC3BDF3ADC3BEF323
:10221000000199DF71EF54F0F29CF29EF2BEFDD7FF
:10222000C580C5B0FED7A00E0301C66F0001F6DE63
:1022300001502C9601B02C86B6C3B8F30301B96BDC
:10224000B6C3C6F30001EADE01502C9601B02C861D
:10225000B5C3C6F3E3DE01502C9601B02C86B7C39C
:10226000C6F3DCDE01502C9601B02C86C584C5B4C3
:10227000FED72C76050E0301BE6F0001F8DEC00EFE
:10228000F2121200010E0301C16F000123DF050EDF
:102290000301BE6F0001EBDE1200BFC30EF1BEC32F
:1022A0000FF10301BE2D03D0010EBF5DC06FBE5103
:1022B000020804E1400EBF25FF0FC06FBE510308A6
:1022C00004E1140EBF25FF0FC06FBE51040804E1E6
:1022D000540EBF25FF0FC06FC08FC0C3C1F30001F4
:1022E000F9DEA60E006E002EFED700001200939AB3
:1022F0008A8ABEC3C2F3CFDE12000900F5520CE099
:10230000F6CFAEF3F7CFAFF3F5CFBEF3F0DFAEC34A
:10231000F6FFAFC3F7FFF1D71200C69CC586C5B65E
:10232000FED700B0C59A00A0C58AC588C5B8FED73B
:10233000C9CF01F01200F29CF29EF2BEFDD7C5801B
:10234000C5B0FED7A00E0301C66F000167DEB8C39B
:10235000BAF30301BB6BB8C3C6F300015FDEB7C3BA
:10236000C6F35CDEC582C5B2FED7A10E0301C66FFF
:10237000000154DE006AD1DF01C0B9F3C584C5B4E1
:10238000FED72C76050E0301BE6F000170DEC00E75
:10239000F2120301B9C301F000011200948694887F
:1023A0000301B66BB569AA0EB76F000135DF2CB615
:1023B00019D068DF010E0301BE6FBF6F00016DDF32
:1023C000BA0EF66E000EF76E98DF020E0301BE6FB6
:1023D000010EBF6F000161DFCC0EF66E000EF76ECE
:1023E0008CDFFFD7050E0301BE6F000140DE030145
:1023F000B86BB76900019FDF01C0ADF30301AD51B8
:10240000AA081BE000013EDF010E0301BE6FBF6F93
:10241000000143DFDE0EF66E000EF76E6EDF020E79
:102420000301BE6F010EBF6F000137DFF00EF66EC5
:10243000000EF76E62DFFFD70301000173EF54F067
:102440000301BD510C0A000105E0060A09E0070A74
:1024500011E01AD017DF010E01010F6F0E6F18D0B7
:1024600001010F2B0FC1BEF30EC1BFF3000115DF39
:1024700001010ED00FC1BEF3010E0301BF6F0001B9
:102480000CDF010105D00001BDC3BEF330DF010147
:10249000000112000900F5520CE0F6CFB2F3F7CFBD
:1024A000B3F3F5CFBDF3CCDFB2C3F6FFB3C3F7FF91
:1024B000F1D712000C0E0301BD6F0001C1DF020E47
:1024C000F66E010EF76EE6DF1A0EF66E010EF76E6F
:1024D000E1DF320EF66E010EF76EDCDF4A0EF66EAD
:1024E000010EF76ED7DF75EF54F0036A010E026E2E
:1024F0000301B751006E05E0D89002360336002E76
:10250000FBD70250010110130350111310C1B9F38E
:10251000030111C1BAF30301020EBB6FBC6FBAC352
:10252000BDF3B9C3BEF300010EDE1200036A010E53
:10253000026E0301B751006E05E0D89002360336F3
:10254000002EFBD70250FF0A006EFF0E031A005048
:10255000010110170350111710C1B9F3030111C184
:10256000BAF30301020EBB6FBC6FBAC3BDF3B9C3AC
:10257000BEF30001E8DD12000301B86B070EB76F70
:102580000001B3DF0301B86B010EB76F0001ADDFCF
:102590000301B86B030EB76F0001A7DF0301B86B2F
:1025A000020EB76F0001A1DF0301B86B040EB76F15
:1025B00000019BDF0301B86B080EB76F000195DFC8
:1025C0000301B86B090EB76F00018FDF0301B86B11
:1025D000050EB76F0001AADF0301B86B0F0EB76FCE
:1025E0000001A4DF0A0E0301AD6FFA0EBE6F0001F9
:1025F0003EDD0301AD2FF9D7B86B050EB76F0001B3
:1026000074DF0301B86B0F0EB76F00016EDF1200AD
:102610000C0E0301BD6F000113DF620EF66E010E9A
:10262000F76E38DF780EF66E010EF76E33DF79EF56
:1026300054F00301C851D8B471D0006ECC51D8B455
:102640006DD0002604E3810E002668E204D07F0EE0
:10265000005E64E363E0C9C3D0F3CD51D01BC98FE2
:10266000CD8FCB51CF03F4CFD2F3CA51CE03F4CFE9
:1026700003F0F3CFD1F3CF03F350D227F450D1239B
:10268000000E0322CB51CE03F350D227F450D123B6
:10269000000E026A03220222C951CF03F350D12750
:1026A000F4500322000E0222C951CE03F350032638
:1026B000F4500222000E016A0122CB51CD03F350E7
:1026C000D127F4500322000E02220122CA51CD0369
:1026D000F3500326F4500222000E0122C951CD030B
:1026E000F3500226F4500122002A01BE05D0D13752
:1026F0000336023601360006000ED1AF0AD0032A97
:1027000002220122015005E1025003E1035001E1E0
:10271000002AD0BF018ED0AF019E04D0006A016AAA
:10272000026A036A000112000301CE51D8B4A5D099
:10273000DA6FD251D8B4A1D0DA5F05E37F0EDA2781
:10274000D8B09BD006D0810EDA5FD8A096D0D8B48E
:1027500094D0DAC300F0016A026A036AD96BCFC36E
:10276000D8F3D88FD0C3D7F3D1C3D6F3190EDA6F0D
:10277000D551D65F0DE2010ED75F0AE2D85F08E2BD
:10278000D95F06E2D92BD82BD72BD551D62728D005
:10279000D451D75F12E2010ED85F0FE2D95F0DE28C
:1027A000D92BD82BD451D727D551D62719E3D72BDE
:1027B00017E1D82B15E1D92B13D0D3518009D85F5D
:1027C0000EE2010ED95F0BE2D92BD3518009D82735
:1027D000D451D727E9E3D82BE7E1D92BE5D70380FC
:1027E000DA2F01D00BD0D890D637D737D837D93792
:1027F000D890033602360136DB37BAD7DBA106D0D4
:10280000D890013202320332DB3302D0000635E0C9
:10281000DBBF1ED0D890D637D737D837D937D55168
:10282000D65F07E2010ED75F04E2D85F02E2D95F0C
:102830001AE3D451D75F05E2010ED85F02E2D95FF7
:1028400012E3D3518009D85F03E2010ED95F0BE395
:10285000032A09E1022A07E1012A05E1002A0DE025
:10286000013202320332CFC3DAF3D351DA1BDAAFCB
:1028700002D0018E06D0019E04D0006A016A026A6D
:10288000036A000112008E0E006EC9C301F0C8C3B6
:1028900002F0036A015209E102C001F0026A080E67
:1028A000005E015202E1006A08D0D89001BE04D057
:1028B000023601360006F9D7019E1200800ED8A21A
:1028C00002D00301D31B0301D86BD96BCFC3D7F35D
:1028D000D351D71BCE51D8B4DFD0D66F006ED251B2
:1028E000D8B4E3D0D65FD8B483D03EE3D3C3DCF30F
:1028F000DC8FD4C3DBF3D5C3DAF3D96BD890DC33E8
:10290000DB33DA33D933D62FF8D7D7AF03D0D8811A
:10291000E0D0D891D691D889030EEA6ED10EE96E37
:10292000EBD0D899D7BF0AD0D6A113D0DC33DB3394
:10293000DA33D933002AD8B4C7D00BD0DCBF0CD0DF
:10294000D890D937DA37DB37DC370006D8B4BCD0BB
:10295000F5D7D88D6DD0D89DCFC3D7F3CFAF02D0E8
:10296000DC8FABD0DC9FA9D0D2C3D6F3D2C300F0AA
:10297000CE51D65FCFC3DCF3DC8FD0C3DBF3D1C342
:10298000DAF3D96BD890DC33DB33DA33D933D62F93
:10299000F8D7D7AF03D0D8839CD0D893D691D88B13
:1029A000030EEA6ED50EE96EA7D0D89BD7BF0AD02A
:1029B000D6A113D0DC33DB33DA33D933002AD8B4D1
:1029C00083D00BD0DCBF0CD0D890D937DA37DB37C7
:1029D000DC370006D8B478D0F5D7D88F29D0D89F67
:1029E000D3C3D7F3D3AF02D0DC8F67D0DC9F65D0E1
:1029F000D3C3DCF3DC8FD4C3DBF3D5C3DAF3D7AFB7
:102A000004D0DC9FD88565D0D895D96BD691030EBC
:102A1000EA6ED10EE96E70D0D7BF1CD0CFC3D7F30A
:102A2000D6A106D0DC33DB33DA33D933002A4CE0CD
:102A3000D9AF0BD0DA2B09E1DB2B07E1DC2B05E169
:102A4000DC33DB33DA33002A3FE0D8BD84D7D8BF8C
:102A5000C6D71CD0800EDC1BDCAF04D03AD0D3C369
:102A6000D7F30AD0CFC3D7F3DC5306E1DB5304E13D
:102A7000DA5302E1006A21D0DCBF08D0D890D93700
:102A8000DA37DB37DC37002EF7D71ED0D7AF02D0CE
:102A9000DC8F13D0DC9F11D0D2C300F0D3C3DCF3A2
:102AA000D4C3DBF3D5C3DAF308D0CEC300F0CFC371
:102AB000DCF3D0C3DBF3D1C3DAF3DCC301F0DBC357
:102AC00002F0DAC303F034D0006A016A026A036AD2
:102AD0002FD0D96BDA1FDB1FDC1FD91FD92B05E1E3
:102AE000DA2B03E1DB2B01E1DC2BD8B112D7D8B311
:102AF00054D7D8B589D7B3D7EF50DA2705E3DB2B06
:102B000003E1DC2BD8B4D681ED52EF50DB2703E391
:102B1000DC2BD8B4D681ED52EF50EFBE01D0800A45
:102B2000DC27D8B0D681D8B9FCD6D8BB3ED774D76D
:102B3000000112000301C66BC76B010EC86FDA6A91
:102B4000D96A030ECB6FBE0ECA6F030EEA6EC20EB9
:102B5000E96ECBC3E2FFCAC3E1FFC8C3C9F3D89093
:102B6000E550EE02F350C623F450C723C92FF7D720
:102B7000C6C3DEFFC7C3C6F3C76BD8B0C72BCA2B0B
:102B8000D8B4CB2BC82BC8510508DFE100011200D7
:102B9000B60E006E036A026A016A0301CE51CF11BC
:102BA000D011D11102E1006A0DD0D89001BE09D038
:102BB000CE37CF37D037D137033602360136002E25
:102BC000F4D7019E000112000301CE51B608CE6F6A
:102BD000036ACFC3D2F3CF8FD890CF33D033D13362
:102BE0000332023201320032CE2FF6D7D2AF0BD0F1
:102BF000001E011E021E031E002AD8B4012AD8B4EA
:102C0000022AD8B4032A00011200F80E956E95949A
:102C10008C8495908C8095928C8221C1CBF320C1BD
:102C2000CAF31FC1C9F31EC1C8F325C1CFF324C124
:102C3000CEF323C1CDF322C1CCF3FBDC03C0BDF343
:102C400002C0BCF301C0BBF300C0BAF303C0CBF3B6
:102C500002C0CAF301C0C9F300C0C8F329C1CFF351
:102C600028C1CEF327C1CDF326C1CCF3E2DC2DC1C0
:102C7000D1F32CC1D0F32BC1CFF32AC1CEF303C0C3
:102C8000D5F302C0D4F301C0D3F300C0D2F34CDDBE
:102C900003C03DF102C03CF101C03BF100C03AF17C
:102CA00031C1D1F330C1D0F32FC1CFF32EC1CEF358
:102CB0003DC1D5F33CC1D4F33BC1D3F33AC1D2F308
:102CC00033DD03C042F102C041F101C040F100C058
:102CD0003FF10301C96B3EC1C8F30001D4DD39C126
:102CE000CBF338C1CAF337C1C9F336C1C8F303C047
:102CF000CFF302C0CEF301C0CDF300C0CCF399DC1A
:102D000003C0B0F302C0AFF301C0AEF300C0ADF337
:102D1000D88231C1D1F330C1D0F32FC1CFF32EC14E
:102D2000CEF335C1D5F334C1D4F333C1D3F332C1BB
:102D3000D2F3C4DD03C0BDF302C0BCF301C0BBF3DA
:102D400000C0BAF303C0CBF302C0CAF301C0C9F399
:102D500000C0C8F30301CF6B240ECE6F740ECD6F8D
:102D6000920ECC6F000165DC03C0B4F302C0B3F374
:102D700001C0B2F300C0B1F3B4C3D1F3B3C3D0F315
:102D8000B2C3CFF3B1C3CEF3B0C3D5F3AFC3D4F363
:102D9000AEC3D3F3ADC3D2F3C7DC03C0B8F302C0F4
:102DA000B7F301C0B6F300C0B5F30301B96B010E70
:102DB000B96FB95101013E5DD8A091D1010E030157
:102DC000B95D040DF350036A470FE96E010E03204D
:102DD000EA6EEACFBDF3E9CFBCF3C16B0F0EC06F53
:102DE000420EBF6F400EBE6FC56BC46BC36B3EC15E
:102DF000C2F300019FDEBDC3EAFFBCC3E9FF03C00D
:102E0000C1F302C0C0F301C0BFF300C0BEF3EACFFC
:102E1000C3F3E9CFC2F3D88242C1D1F341C1D0F3A9
:102E200040C1CFF33FC1CEF346C1D5F345C1D4F382
:102E300044C1D3F343C1D2F341DDC3C3EAFFC2C3EC
:102E4000E9FF03C0C7F302C0C6F301C0C5F300C069
:102E5000C4F30301C96BB9C3C8F3000114DD03C097
:102E6000CBF302C0CAF301C0C9F300C0C8F3C7C3A3
:102E7000CFF3C6C3CEF3C5C3CDF3C4C3CCF319ECB3
:102E800013F003C0CBF302C0CAF301C0C9F300C002
:102E9000C8F3EACFCDF3E9CFCCF3D89203C0D1F396
:102EA00002C0D0F301C0CFF300C0CEF346C1D5F3CA
:102EB00045C1D4F344C1D3F343C1D2F3FFDCCDC346
:102EC000EAFFCCC3E9FF03C0CBF302C0CAF301C0E1
:102ED000C9F300C0C8F3C1C3D1F3C0C3D0F3BFC3AB
:102EE000CFF3BEC3CEF354DE03C0D1F302C0D0F3A0
:102EF00001C0CFF300C0CEF3CBC3D5F3CAC3D4F324
:102F0000C9C3D3F3C8C3D2F30FDC03C0D1F302C0EB
:102F1000D0F301C0CFF300C0CEF356DE00C0EFFF08
:102F200001C0ECFF02C0ECFF03C0ECFF010E030187
:102F3000B95D040DF350036A970F016E010E032271
:102F400001C0BAF303C0BBF3CB6BCA6BC96B800E75
:102F5000C86FB8C3CFF3B7C3CEF3B6C3CDF3B5C311
:102F6000CCF3000119EC13F003C0BFF302C0BEF3B1
:102F700001C0BDF300C0BCF3010E0301B95D040D37
:102F8000F350036A470FE96E010E0320EA6EEFCF9C
:102F900000F0ECCF01F0ECCF02F0ECCF03F003C077
:102FA000D1F302C0D0F301C0CFF300C0CEF30001D3
:102FB000EFDDBFC3D1F3BEC3D0F3BDC3CFF3BCC3FA
:102FC000CEF303C0D5F302C0D4F301C0D3F300C0E5
:102FD000D2F394EC13F003C0D1F302C0D0F301C0DC
:102FE000CFF300C0CEF3F0DDBBC3EAFFBAC3E9FF05
:102FF00000C0EFFF01C0ECFF02C0ECFF03C0ECFF1C
:10300000010E0301B95D040DF350036A970FE96ED9
:10301000010E0320EA6EEFCF00F0ECCF01F0ECCF11
:1030200002F0ECCF03F000500101E7270150E82344
:10303000010E0301B95D040DF350036A470F016EE1
:10304000010E032201C0BAF303C0BBF3010EB95D48
:10305000040DF350036A470FE96E010E0320EA6E78
:10306000EFCFBCF3ECCFBDF3ECCFBEF3ECCFBFF3AF
:10307000BFC3D1F3BEC3D0F3BDC3CFF3BCC3CEF344
:10308000000186DD03C0D1F302C0D0F301C0CFF34D
:1030900000C0CEF3CD0E0301D56FCC0ED46F4C0E15
:1030A000D36F800ED26F000194EC13F003C0D1F304
:1030B00002C0D0F301C0CFF300C0CEF385DDBBC3A7
:1030C000EAFFBAC3E9FF00C0EFFF01C0ECFF02C096
:1030D000ECFF03C0ECFF0301B92B6BD60101030128
:1030E000B92B00017BEF54F0F80E946E94948B840E
:1030F00094908B8094928B82FCC1CBF3FBC1CAF37A
:10310000FAC1C9F3F9C1C8F300C2CFF3FFC1CEF3CE
:10311000FEC1CDF3FDC1CCF319EC13F003C0BDF338
:1031200002C0BCF301C0BBF300C0BAF303C0CBF3D1
:1031300002C0CAF301C0C9F300C0C8F304C2CFF390
:1031400003C2CEF302C2CDF301C2CCF319EC13F0EB
:1031500008C2D1F307C2D0F306C2CFF305C2CEF343
:1031600003C0D5F302C0D4F301C0D3F300C0D2F33F
:1031700094EC13F003C018F202C017F201C016F26B
:1031800000C015F20CC2D1F30BC2D0F30AC2CFF3C8
:1031900009C2CEF318C2D5F317C2D4F316C2D3F3C3
:1031A00015C2D2F394EC13F003C01DF202C01CF25E
:1031B00001C01BF200C01AF20301C96B19C2C8F3A7
:1031C000000143EC14F014C2CBF313C2CAF312C2D1
:1031D000C9F311C2C8F303C0CFF302C0CEF301C0DC
:1031E000CDF300C0CCF319EC13F003C0B0F302C070
:1031F000AFF301C0AEF300C0ADF3D8820CC2D1F37F
:103200000BC2D0F30AC2CFF309C2CEF310C2D5F37A
:103210000FC2D4F30EC2D3F30DC2D2F35EEC14F09E
:1032200003C0BDF302C0BCF301C0BBF300C0BAF3DE
:1032300003C0CBF302C0CAF301C0C9F300C0C8F396
:103240000301CF6B240ECE6F740ECD6F920ECC6F38
:10325000000119EC13F003C0B4F302C0B3F301C0D2
:10326000B2F300C0B1F3B4C3D1F3B3C3D0F3B2C36C
:10327000CFF3B1C3CEF3B0C3D5F3AFC3D4F3AEC372
:10328000D3F3ADC3D2F394EC13F003C0B8F302C090
:10329000B7F301C0B6F300C0B5F30301B96B010E7B
:1032A000B96FB9510201195DD8A09BD1010E03017C
:1032B000B95D040DF350036A220FE96E020E03207C
:1032C000EA6EEACFBDF3E9CFBCF3C16B0F0EC06F5E
:1032D000420EBF6F400EBE6FC56BC46BC36B19C28D
:1032E000C2F3000127DCBDC3EAFFBCC3E9FF03C092
:1032F000C1F302C0C0F301C0BFF300C0BEF3EACF08
:10330000C3F3E9CFC2F3D8821DC2D1F31CC2D0F3FC
:103310001BC2CFF31AC2CEF321C2D5F320C2D4F31D
:103320001FC2D3F31EC2D2F35EEC14F0C3C3EAFF94
:10333000C2C3E9FF03C0C7F302C0C6F301C0C5F3AF
:1033400000C0C4F30301C96BB9C3C8F3000143EC67
:1033500014F003C0CBF302C0CAF301C0C9F300C02C
:10336000C8F3C7C3CFF3C6C3CEF3C5C3CDF3C4C33D
:10337000CCF319EC13F003C0CBF302C0CAF301C0C5
:10338000C9F300C0C8F3EACFCDF3E9CFCCF3D892AC
:1033900003C0D1F302C0D0F301C0CFF300C0CEF31D
:1033A00021C2D5F320C2D4F31FC2D3F31EC2D2F37D
:1033B0005EEC14F0CDC3EAFFCCC3E9FF03C0CBF34E
:1033C00002C0CAF301C0C9F300C0C8F3C1C3D1F33E
:1033D000C0C3D0F3BFC3CFF3BEC3CEF3C8EC15F068
:1033E00003C0D1F302C0D0F301C0CFF300C0CEF3CD
:1033F000CBC3D5F3CAC3D4F3C9C3D3F3C8C3D2F381
:1034000094EC13F003C0D1F302C0D0F301C0CFF3AA
:1034100000C0CEF3E4EC15F000C0EFFF01C0ECFFFC
:1034200002C0ECFF03C0ECFF010E0301B95D040D07
:10343000F350036A720F016E020E032201C0BAF349
:1034400003C0BBF3CB6BCA6BC96B800EC86FB8C32C
:10345000CFF3B7C3CEF3B6C3CDF3B5C3CCF30001FE
:1034600019EC13F003C0BFF302C0BEF301C0BDF3FB
:1034700000C0BCF3010E0301B95D040DF350036AF3
:10348000220FE96E020E0320EA6EEFCF00F0ECCFC0
:1034900001F0ECCF02F0ECCF03F003C0D1F302C097
:1034A000D0F301C0CFF300C0CEF30001C8EC15F09B
:1034B000BFC3D1F3BEC3D0F3BDC3CFF3BCC3CEF300
:1034C00003C0D5F302C0D4F301C0D3F300C0D2F3DC
:1034D00094EC13F003C0D1F302C0D0F301C0CFF3DA
:1034E00000C0CEF3E4EC15F0BBC3EAFFBAC3E9FFBA
:1034F00000C0EFFF01C0ECFF02C0ECFF03C0ECFF17
:10350000010E0301B95D040DF350036A720FE96EF9
:10351000020E0320EA6EEFCF00F0ECCF01F0ECCF0B
:1035200002F0ECCF03F000500201C2270150C32388
:10353000010E0301B95D040DF350036A220F016E01
:10354000020E032201C0BAF303C0BBF3010EB95D42
:10355000040DF350036A220FE96E020E0320EA6E97
:10356000EFCFBCF3ECCFBDF3ECCFBEF3ECCFBFF3AA
:10357000BFC3D1F3BEC3D0F3BDC3CFF3BCC3CEF33F
:103580000001C8EC15F003C0D1F302C0D0F301C0B4
:10359000CFF300C0CEF3CD0E0301D56FCC0ED46FA8
:1035A0004C0ED36F800ED26F000194EC13F003C069
:1035B000D1F302C0D0F301C0CFF300C0CEF3E4ECEE
:1035C00015F0BBC3EAFFBAC3E9FF00C0EFFF01C0BB
:1035D000ECFF02C0ECFF03C0ECFF0301B92B61D686
:1035E000020100017DEF54F0000E926E929A898ADA
:1035F0009296898692988988DAC2CBF3D9C2CAF3A7
:10360000D8C2C9F3D7C2C8F3DEC2CFF3DDC2CEF34E
:10361000DCC2CDF3DBC2CCF319EC13F003C0BDF375
:1036200002C0BCF301C0BBF300C0BAF303C0CBF3CC
:1036300002C0CAF301C0C9F300C0C8F3E2C2CFF3AD
:10364000E1C2CEF3E0C2CDF3DFC2CCF319EC13F04C
:10365000E6C2D1F3E5C2D0F3E4C2CFF3E3C2CEF3C6
:1036600003C0D5F302C0D4F301C0D3F300C0D2F33A
:1036700094EC13F003C0F2F202C0F1F201C0F0F2D8
:1036800000C0EFF2EAC2D1F3E9C2D0F3E8C2CFF34F
:10369000E7C2CEF3F2C2D5F3F1C2D4F3F0C2D3F352
:1036A000EFC2D2F394EC13F003C0F7F202C0F6F2CB
:1036B00001C0F5F200C0F4F20301C96BF3C2C8F314
:1036C000000143EC14F0EEC2CBF3EDC2CAF3ECC23E
:1036D000C9F3EBC2C8F303C0CFF302C0CEF301C0FD
:1036E000CDF300C0CCF319EC13F003C0B0F302C06B
:1036F000AFF301C0AEF300C0ADF3EAC2CBF3E9C251
:10370000CAF3E8C2C9F3E7C2C8F30301CF6B240EC2
:10371000CE6F740ECD6F920ECC6F000119EC13F0CA
:1037200003C0B4F302C0B3F301C0B2F300C0B1F3FD
:10373000B4C3D1F3B3C3D0F3B2C3CFF3B1C3CEF3A9
:10374000B0C3D5F3AFC3D4F3AEC3D3F3ADC3D2F399
:1037500094EC13F003C0B8F302C0B7F301C0B6F3A2
:1037600000C0B5F30301B96B010EB96FB951020185
:10377000F35DD8A054D1010E0301B95D040DF350DF
:10378000036AF80FE96E020E0320EA6EEACFBDF37A
:10379000E9CFBCF3C16B0F0EC06F420EBF6F400E7E
:1037A000BE6FC56BC46BC36BF3C2C2F300019AEC6E
:1037B00015F0BDC3EAFFBCC3E9FF03C0C1F302C0FB
:1037C000C0F301C0BFF300C0BEF30301C96BB9C3AE
:1037D000C8F3000143EC14F003C0CBF302C0CAF3FA
:1037E00001C0C9F300C0C8F3F7C2CFF3F6C2CEF3ED
:1037F000F5C2CDF3F4C2CCF319EC13F003C0C5F35A
:1038000002C0C4F301C0C3F300C0C2F3C1C3D1F30B
:10381000C0C3D0F3BFC3CFF3BEC3CEF3C8EC15F023
:1038200003C0D1F302C0D0F301C0CFF300C0CEF388
:10383000C5C3D5F3C4C3D4F3C3C3D3F3C2C3D2F354
:1038400094EC13F003C0D1F302C0D0F301C0CFF366
:1038500000C0CEF3E4EC15F000C0EFFF01C0ECFFB8
:1038600002C0ECFF03C0ECFF010E0301B95D040DC3
:10387000F350036A480F016E030E032201C0BAF32E
:1038800003C0BBF3CB6BCA6BC96B800EC86FB8C3E8
:10389000CFF3B7C3CEF3B6C3CDF3B5C3CCF30001BA
:1038A00019EC13F003C0BFF302C0BEF301C0BDF3B7
:1038B00000C0BCF3010E0301B95D040DF350036AAF
:1038C000F80FE96E020E0320EA6EEFCF00F0ECCFA6
:1038D00001F0ECCF02F0ECCF03F003C0D1F302C053
:1038E000D0F301C0CFF300C0CEF30001C8EC15F057
:1038F000BFC3D1F3BEC3D0F3BDC3CFF3BCC3CEF3BC
:1039000003C0D5F302C0D4F301C0D3F300C0D2F397
:1039100094EC13F003C0D1F302C0D0F301C0CFF395
:1039200000C0CEF3E4EC15F0BBC3EAFFBAC3E9FF75
:1039300000C0EFFF01C0ECFF02C0ECFF03C0ECFFD2
:10394000010E0301B95D040DF350036A480FE96EDF
:10395000030E0320EA6EEFCF00F0ECCF01F0ECCFC6
:1039600002F0ECCF03F00050982701509923010E8C
:10397000B95D040DF350036AF80F016E020E0322C5
:1039800001C0BAF303C0BBF3010EB95D040DF350DF
:10399000036AF80FE96E020E0320EA6EEFCFBCF364
:1039A000ECCFBDF3ECCFBEF3ECCFBFF3BFC3D1F38D
:1039B000BEC3D0F3BDC3CFF3BCC3CEF30001C8EC8C
:1039C00015F003C0D1F302C0D0F301C0CFF300C0A3
:1039D000CEF3CD0E0301D56FCC0ED46F4C0ED36F4A
:1039E000800ED26F000194EC13F003C0D1F302C03B
:1039F000D0F301C0CFF300C0CEF3E4EC15F0BBC3AD
:103A0000EAFFBAC3E9FF00C0EFFF01C0ECFF02C04C
:103A1000ECFF03C0ECFF0301B92BA8D602010001A3
:103A20007FEF54F00301B551070B006EB531016E05
:103A3000013201321F0E01160150B725E96E000E4A
:103A4000B821EA6E016A012A002A01D00136002E4F
:103A5000FDD7B65303E00150EF1203D0011E015011
:103A6000EF16000112000301B551070B006EB531CE
:103A7000016E013201321F0E01160150B625E96EAA
:103A8000000EB721EA6EEFCF01F0002A01D001321B
:103A9000002EFDD700011200B3C3B5F3010E0301E0
:103AA000B66F0F0EB86F920EB76F0001BBDFB3C3D6
:103AB000B5F30F0E0301B76F800EB66F0001D3DFB1
:103AC00001A00BD00301B481010E016E26D0310E8E
:103AD000006E002EFED700D00001B3C3B5F3010E77
:103AE0000301B66F0F0EB86F920EB76F00019ADF29
:103AF000B3C3B5F30F0E0301B76F800EB66F0001AD
:103B0000B2DF01B00BD00301B491000E016E05D0FD
:103B1000310E006E002EFED700D0000112001F0EE5
:103B20000301B36F0001B8DF01C0B0F31E0E030143
:103B3000B36F0001B1DF01C0B1F31D0E0301B36F1C
:103B40000001AADF01C0B2F30301B251000A000173
:103B500003E0010A2DE058D00301B151000A000131
:103B600003E0010A12E023D00301B051000A000172
:103B700003E0010A05E008D001011B6B000104D03D
:103B8000010E01011B6F000112D00301B051000AA8
:103B9000000103E0010A06E009D0030E01011B6FDA
:103BA000000104D0040E01011B6F000100D02CD0D5
:103BB0000301B151000A000103E0010A13E024D01F
:103BC0000301B051000A000103E0010A06E009D038
:103BD000050E01011B6F000104D0060E01011B6FD1
:103BE000000112D00301B051000A000103E0010AF4
:103BF00006E009D0070E01011B6F000104D0080E7A
:103C000001011B6F000100D001011BC101F0000187
:103C100012000301B051F80FD8B0E3D0080F000133
:103C2000F4EF1EF00C0E0301BD6F000120EC12F04A
:103C3000CC0EF66E030EF76E4AEC12F0E40EF66E42
:103C4000030EF76E4AEC12F0FC0EF66E030EF76EE2
:103C50004AEC12F0140EF66E040EF76E4AEC12F0F7
:103C60000C0E0301BD6F000120EC12F02C0EF66E5D
:103C7000040EF76E4AEC12F0440EF66E040EF76E68
:103C80004AEC12F05C0EF66E040EF76E4AEC12F07F
:103C9000740EF66E040EF76E4AEC12F00301A1D01A
:103CA0000C0E0301BD6F000120EC12F08C0EF66EBD
:103CB000040EF76E4AEC12F0A40EF66E040EF76EC8
:103CC0004AEC12F0BC0EF66E040EF76E4AEC12F0DF
:103CD000D40EF66E040EF76E4AEC12F0030181D09A
:103CE0000C0E0301BD6F000120EC12F0EC0EF66E1D
:103CF000040EF76E4AEC12F0040EF66E050EF76E27
:103D00004AEC12F01C0EF66E050EF76E4AEC12F03D
:103D1000340EF66E050EF76E4AEC12F0030161D018
:103D20000C0E0301BD6F000120EC12F04C0EF66E7C
:103D3000050EF76E4AEC12F0640EF66E050EF76E85
:103D40004AEC12F07C0EF66E050EF76E4AEC12F09D
:103D5000940EF66E050EF76E4AEC12F0030141D098
:103D60000C0E0301BD6F000120EC12F0AC0EF66EDC
:103D7000050EF76E4AEC12F0C40EF66E050EF76EE5
:103D80004AEC12F0DC0EF66E050EF76E4AEC12F0FD
:103D9000F40EF66E050EF76E4AEC12F0030121D018
:103DA0000C0E0301BD6F000120EC12F00C0EF66E3C
:103DB000060EF76E4AEC12F0240EF66E060EF76E43
:103DC0004AEC12F03C0EF66E060EF76E4AEC12F05C
:103DD000540EF66E060EF76E4AEC12F0030101D097
:103DE000030100018AEF26F0F2CF0DF0F29EE824E5
:103DF000F76AF7360D0FF66E3E0EF7220A00F55001
:103E0000FA6E0800F5500DBEF28EF96E243C603C4F
:103E1000E03DA03CE03C203D603DA03D0301B051B1
:103E2000F80FD8B0BBD0080F0001D0EF1FF00C0E78
:103E30000301BD6F000120EC12F08E0EF66E010E34
:103E4000F76E4AEC12F0A60EF66E010EF76E4AEC13
:103E500012F0BE0EF66E010EF76E4AEC12F0030180
:103E60009DD00C0E0301BD6F000120EC12F0D60EA8
:103E7000F66E010EF76E4AEC12F0EE0EF66E010EC3
:103E8000F76E4AEC12F0060EF66E020EF76E4AEC72
:103E900012F0030183D00C0E0301BD6F000120EC72
:103EA00012F01E0EF66E020EF76E4AEC12F0360E8F
:103EB000F66E020EF76E4AEC12F04E0EF66E020E21
:103EC000F76E4AEC12F0030169D00C0E0301BD6FCE
:103ED000000120EC12F0640EF66E020EF76E4AEC52
:103EE00012F07C0EF66E020EF76E4AEC12F0940E93
:103EF000F66E020EF76E4AEC12F003014FD00C0E74
:103F00000301BD6F000120EC12F0AC0EF66E020E44
:103F1000F76E4AEC12F0C40EF66E020EF76E4AEC23
:103F200012F0DC0EF66E020EF76E4AEC12F0030190
:103F300035D00C0E0301BD6F000120EC12F0F40E21
:103F4000F66E020EF76E4AEC12F00C0EF66E030ED1
:103F5000F76E4AEC12F0240EF66E030EF76E4AEC82
:103F600012F003011BD00C0E0301BD6F000120EC09
:103F700012F03C0EF66E030EF76E4AEC12F0540E81
:103F8000F66E030EF76E4AEC12F06C0EF66E030E30
:103F9000F76E4AEC12F0030101D003010001120098
:103FA000F2CF0DF0F29EE824F76AF736C50FF66EF1
:103FB0003F0EF7220A00F550FA6E0800F5500DBECC
:103FC000F28EF96E2E3E623E9A3F963ECA3EFE3E0D
:103FD000323F663F9296899698EF21F00301BB6BC2
:103FE000BA6BBC6BC580C5B0FED7D890B835400958
:103FF000BD6FC66F00010EEC10F001502C9601B0A1
:104000002C86B9C3C6F30EEC10F001502C9601B00B
:104010002C86C582C5B2FED7D8900301B8354109B8
:10402000BD6FC66F00010EEC10F001502C9601B070
:104030002C86010E006E8DEC11F001C0BCF3006AFD
:104040008DEC11F001C0BBF30301BA6BC584C5B49C
:10405000FED72C76BC51BA13BAC301F0BBC302F031
:1040600000011200C580C5B0FED7D8900301B73556
:104070007109B96FC66F00010EEC10F0006A8DEC8B
:1040800011F001C0B8F3C584C5B4FED72C76030186
:10409000B8C301F0000198EF20F00301B56BB46BD9
:1040A000B66BB2510F083AE3030EB86FB96B00015B
:1040B00095DF02C0B5F301C0B4F3B5C303F003014B
:1040C000B4C302F0B251006E05E0D8900332023260
:1040D000002EFBD7025002B01DD0310E006E002E14
:1040E000FED700D0B5C303F0B4C302F0B251006EE6
:1040F00005E0D89003320232002EFBD7025002B006
:1041000004D0B381010E016ECED0B391000E016ECA
:10411000CAD004D0B391000E016EC5D0B2510F08C1
:1041200038E2B251170835E3040EB76F00019AD791
:1041300001C0B6F3100E0301B25DB76FB6C300F055
:10414000B751016E04E0D8900032012EFCD700B0C8
:104150001CD0310E006E002EFED700D0100EB25DC6
:10416000B76FB6C300F0B751016E04E0D8900032CB
:10417000012EFCD700B004D0B381010E016E93D0A4
:10418000B391000E016E8FD004D0B391000E016E7A
:104190008AD0B2511708D8B086D0B2511B08D8A027
:1041A00082D0180EB25DFC0FD8B07DD0040F000194
:1041B00055EF21F0938081B013D0310E006E002EA8
:1041C000FED700D0938081B00AD00301B381010EE5
:1041D000016E69D0B391000E016E65D0000106D06A
:1041E0000301B391000E016E5ED0000103015BD0AC
:1041F000938281B213D0310E006E002EFED700D014
:10420000938281B20AD00301B381010E016E4BD0BB
:10421000B391000E016E47D0000106D00301B391A7
:10422000000E016E40D0000103013DD0938681B69F
:1042300013D0310E006E002EFED700D0938681B6CB
:104240000AD00301B381010E016E2DD0B391000E8F
:10425000016E29D0000106D00301B391000E016E5A
:1042600022D0000103011FD0938881B813D0310EF2
:10427000006E002EFED700D0938881B80AD00301CB
:10428000B381010E016E0FD0B391000E016E0BD001
:10429000000106D00301B391000E016E04D00001AD
:1042A000030101D0030100011200F2CF0DF0F29ED4
:1042B000E824F76AF736CF0FF66E420EF7220A00AF
:1042C000F550FA6E0800F5500DBEF28EF96EB4414D
:1042D000F0412C42684201011A911A839298898810
:1042E00000011200929A898A100E006E002EFED7ED
:1042F0000000929A899A01011AA304D0182BD8B40D
:10430000192B08D0185302E1195304E01851D8B4FE
:10431000190718070001120001011A811A939298D7
:104320008998000112009296899610EF22F052D6D9
:10433000320E0301BE6F000137EC10F00D0E0301C9
:10434000B26F0001AADE012C40D0C5DF320E03019E
:10435000BE6F000137EC10F00301B06BB0513208B2
:104360000BE30001BFDF020E0301BE6F000137EC5B
:1043700010F00301B02BF2D70001CEDF320E0301A3
:10438000BE6F000137EC10F00D0E0301B26F00019B
:1043900084DE015208E1A6DF020E0301BE6F0001B8
:1043A00037EC10F0F1D70301B06BB05112080BE3FA
:1043B000000198DF020E0301BE6F000137EC10F020
:1043C0000301B02BF2D727D00001A6DF320E030184
:1043D000BE6F000137EC10F00D0E0301B26F00014B
:1043E0005CDE015208E17EDF020E0301BE6F0001B8
:1043F00037EC10F0F1D70301B06BB05112080BE3AA
:10440000000170DF020E0301BE6F000137EC10F0F7
:104410000301B02BF2D70101196B186B000183D790
:104420009AEF26F094908B9012002C8C2C9E9492F4
:104430008B92120094948B84100E006E002EFED787
:10444000000094948B942CAE06D00101142BD8B4A8
:10445000152B0AD000010101145302E1155304E0A9
:104460001451D8B415071407000112002C9C2C8E8F
:1044700094928B82120094908B901200D3DF320EB4
:104480000301BE6F000137EC10F0080E0301B26F9C
:10449000000103DE012C4FD0C8DF320E0301BE6FD6
:1044A000000137EC10F0080E0301B26F0001F5DDDA
:1044B000012C08D0BFDF020E0301BE6F000137ECF4
:1044C00010F0F1D70301B06BB05128080BE30001E5
:1044D000B1DF020E0301BE6F000137EC10F00301E3
:1044E000B02BF2D70001C2DF320E0301BE6F000114
:1044F00037EC10F0080E0301B26F0001CEDD01525F
:1045000008E198DF020E0301BE6F000137EC10F0E6
:10451000F1D70301B06BB05128080BE300018ADF2B
:10452000020E0301BE6F000137EC10F00301B02B47
:10453000F2D727D000019ADF320E0301BE6F0001CF
:1045400037EC10F0080E0301B26F0001A6DD015236
:1045500008E170DF020E0301BE6F000137EC10F0BE
:10456000F1D70301B06BB05128080BE3000162DF03
:10457000020E0301BE6F000137EC10F00301B02BF7
:10458000F2D70101156B146B000175DFA4EF26F063
:1045900095908C9012002C882C9A95928C921200F7
:1045A00095948C84100E006E002EFED7000095941A
:1045B0008C942CAA06D00101122BD8B4132B0AD04C
:1045C00000010101125302E1135304E01251D8B467
:1045D00013071207000112002C982C8A95928C82E6
:1045E000120095908C901200D3DF320E0301BE6F43
:1045F000000137EC10F0060E0301B26F00014DDD33
:10460000012C4FD0C8DF320E0301BE6F000137EC22
:1046100010F0060E0301B26F00013FDD012C08D03F
:10462000BFDF020E0301BE6F000137EC10F0F1D7BF
:104630000301B06BB05128080BE30001B1DF020E9B
:104640000301BE6F000137EC10F00301B02BF2D76D
:104650000001C2DF320E0301BE6F000137EC10F023
:10466000060E0301B26F000118DD015208E198DF68
:10467000020E0301BE6F000137EC10F0F1D7030109
:10468000B06BB05128080BE300018ADF020E030172
:10469000BE6F000137EC10F00301B02BF2D727D02A
:1046A00000019ADF320E0301BE6F000137EC10F0FB
:1046B000060E0301B26F0001F0DC015208E170DF69
:1046C000020E0301BE6F000137EC10F0F1D70301B9
:1046D000B06BB05128080BE3000162DF020E03014A
:1046E000BE6F000137EC10F00301B02BF2D70101CF
:1046F000136B126B000175DF120094DE320E0301A2
:10470000BE6F000137EC10F0070E0301B26F00011D
:10471000C4DC012C4FD0AADE320E0301BE6F0001B3
:1047200037EC10F0070E0301B26F0001B6DC012C6C
:1047300008D080DE020E0301BE6F000137EC10F0DE
:10474000F1D70301B06BB05128080BE3000172DE12
:10475000020E0301BE6F000137EC10F00301B02B15
:10476000F2D7000162DE320E0301BE6F000137ECAA
:1047700010F0070E0301B26F00018FDC015208E157
:1047800059DE020E0301BE6F000137EC10F0F1D7C5
:104790000301B06BB05128080BE300014BDE020EA1
:1047A0000301BE6F000137EC10F00301B02BF2D70C
:1047B00027D000013ADE320E0301BE6F000137EC54
:1047C00010F0070E0301B26F000167DC015208E12F
:1047D00031DE020E0301BE6F000137EC10F0F1D79D
:1047E0000301B06BB05128080BE3000123DE020E79
:1047F0000301BE6F000137EC10F00301B02BF2D7BC
:104800000101156B146B000136DE1200C1DE320EA1
:104810000301BE6F000137EC10F0050E0301B26F0B
:1048200000013BDC012C4FD0D7DE320E0301BE6FFE
:10483000000137EC10F0050E0301B26F00012DDC12
:10484000012C08D0ADDE020E0301BE6F000137EC73
:1048500010F0F1D70301B06BB05128080BE3000151
:104860009FDE020E0301BE6F000137EC10F0030162
:10487000B02BF2D700018FDE320E0301BE6F0001B4
:1048800037EC10F0050E0301B26F000106DC015297
:1048900008E186DE020E0301BE6F000137EC10F066
:1048A000F1D70301B06BB05128080BE3000178DEAB
:1048B000020E0301BE6F000137EC10F00301B02BB4
:1048C000F2D728D0000167DE320E0301BE6F00016F
:1048D00037EC10F0050E0301B26F00014DEC20F033
:1048E000015208E15DDE020E0301BE6F000137ECEC
:1048F00010F0F0D70301B06BB05128080BE30001B2
:104900004FDE020E0301BE6F000137EC10F0030111
:10491000B02BF2D70101136B126B000162DEB5EF11
:1049200026F096908D90C1EF24F001011A851A9718
:1049300096928D920001120096948D84100E006E56
:10494000002EFED7000096948D9401011AA504D084
:10495000162BD8B4172B08D0165302E1175304E0D6
:104960001651D8B4170716070001120001011A9555
:104970001A8796928D82000112000301B16B00012B
:10498000D0D7320E0301BE6F000137EC10F00B0ED2
:104990000301B26F00014DEC20F0012C48D0C5DFBF
:1049A000320E0301BE6F000137EC10F00301B06B53
:1049B000B0518C080BE30001BFDF040E0301BE6F92
:1049C000000137EC10F00301B02BF2D70001CEDF6D
:1049D000640E0301BE6F000137EC10F00B0E0301F3
:1049E000B26F00014DEC20F0015208E1A5DF040E8A
:1049F0000301BE6F000137EC10F0F0D70301B06B7C
:104A0000B05124080BE3000197DF040E0301BE6FD1
:104A1000000137EC10F00301B02BF2D7000185DF65
:104A2000320E0301BE6F000137EC10F028D09EDF7C
:104A3000320E0301BE6F000137EC10F00B0E0301C4
:104A4000B26F00014DEC20F0015208E175DF020E5B
:104A50000301BE6F000137EC10F0F0D70301B06B1B
:104A6000B05124080BE3000167DF040E0301BE6FA1
:104A7000000137EC10F00301B02BF2D7000155DF35
:104A8000320E0301BE6F000137EC10F00301B06B72
:104A9000B05147080BE300014FDF040E0301BE6F66
:104AA000000137EC10F00301B02BF2D70101176BB6
:104AB000166B0301B1C301F000011200B8C3F8F195
:104AC0000101E86BE76B0301B7531DE1B6531BE12E
:104AD000B5510101135DD8B002D0030114D005E136
:104AE00012510301B45D0FE2010195928C92030112
:104AF000B4510101125DEF6F0301B551010113596A
:104B0000F06FE96921D0010112510301B45D09E19F
:104B1000010113510301B55D04E1B65302E1B7533E
:104B200011E095928C82010112510301B45D0101E3
:104B3000EF6F13510301B5590101F06F010EE96FD9
:104B400003D0030172D001010301B96BB951B85D03
:104B500019E3B951040DF350036A970FE96E010E82
:104B60000320EA6EEFCF00F0ECCF01F0ECCF02F0C3
:104B7000ECCF03F000500101E7270150E8230301C7
:104B8000B92BE4D7D8900101E735026EE835036E02
:104B900002C001F00350F05D0FE303E1EF51015C4F
:104BA0000BE2E8C1F2F1E7C1F1F1E751EF5DED6F22
:104BB000E851F059EE6F15D0010EEF5D0301BA6FA9
:104BC000000E0101F0590301BB6FD890BB31010108
:104BD000F26F0301BA310101F16FF2C1EEF1F1C1DF
:104BE000EDF1EC6BEB6BF66BF56BF46BF36BF76B5A
:104BF000010EEA6F1A8995908C90820ED56EFF0E89
:104C0000D88047550301BA6FFF0E010148550301D3
:104C1000BB6F000E01014955000E01014A55030109
:104C2000BBC3D7FFBAC3D6FFF28A0001120003014B
:104C3000B051F70F45E2090F000162EF26F0959899
:104C40008C98949E8B9E949C8B9C030139D0959854
:104C50008C88949E8B9E949C8B9C030131D095985C
:104C60008C98949E8B8E949C8B9C030129D0959854
:104C70008C88949E8B8E949C8B9C030121D095985C
:104C80008C98949E8B9E949C8B8C030119D0959844
:104C90008C88949E8B9E949C8B8C030111D095984C
:104CA0008C98949E8B8E949C8B8C030109D0959844
:104CB0008C88949E8B8E949C8B8C030101D0030175
:104CC00000011200F2CF0DF0F29EE824F76AF736E9
:104CD000E90FF66E4C0EF7220A00F550FA6E080046
:104CE000F5500DBEF28EF96E3E4C4E4CBE4C5E4CF5
:104CF0006E4C7E4C8E4C9E4CAE4C8FEC1DF001C029
:104D0000ADF30301AD2D01D00BD0010EB06F00014A
:104D100009EF1EF08FEC1DF001C0ADF3F2D70301D7
:104D2000B06B00010EEC1FF00301AF6BAE6B000126
:104D300097EF21F0080E0301B26F00014DEC20F057
:104D4000012C05D03EEF22F04FDCD7DC0DD0070E52
:104D50000301B26F00014DEC20F0012C03D0CDDC3B
:104D600043DC02D041DCC9DC51D507DE12EC22F075
:104D700015EC22F0320E0301BE6F000137EC10F08B
:104D80000301AF6BAE6BAF51020812E303E1AE510A
:104D9000BB080EE300011AEC22F0020E0301BE6F05
:104DA000000137EC10F00301AE2BD8B4AF2BEBD7DA
:104DB0000001C8EC22F010DC320E0301BE6F0001CE
:104DC00037EC10F00101136B126B156B146B176B42
:104DD000166B196B186B0301B76BB66BB56B320EA4
:104DE000B46F130EB86F000169DE256A0301B06B62
:104DF00000011DDF12000900F6CFB5F3F7CFB6F3BF
:104E0000F5CFBDF320EC12F0B5C3F6FFB6C3F7FF44
:104E10000301B42F01D002D00001EDD70001120030
:104E20000301B451016AB35D03E2B3C300F00CD0D7
:104E3000006A080EB56FB3370036B451005CD8B0C5
:104E4000006E0136B52FF7D7000112000150B1C333
:104E5000B3F3640E0301B46F0001E2DF00C0B1F3ED
:104E60000150300E08E10301B2A310D0B2B70ED04A
:104E7000B2B9200E04D00301B297B299B2810126D3
:104E800001C0BDF3000120EC12F00301B1C3B3F384
:104E90000A0EB46F0001C4DF00C0B1F30150300E40
:104EA00008E10301B2B70BD0B2A109D0B2B9200E0C
:104EB0000001012601C0BDF320EC12F00301300E09
:104EC000B127B1C3BDF3000120EC12F012000C0EAB
:104ED0000301BD6F000120EC12F0CC0EF66E060E41
:104EE000F76E4AEC12F0E40EF66E060EF76E0D0E3B
:104EF0000301B46F00017FDF2DC0B1F3010E030188
:104F0000B26F0001A3DFF50EF66E060EF76E050E0A
:104F10000301B46F00016FDFFC0EF66E060EF76E34
:104F20004AEC12F0140EF66E070EF76E4AEC12F011
:104F30001200D8B204D0030EEA6EB90EE96E006A10
:104F4000016A026A036A0301B96BBA6BBB6BBC6B83
:104F5000B851B711B611B5112CE0200EBD6FD89025
:104F6000B137B237B337B437B937BA37BB37BC37D5
:104F7000B851BC5D08E1B751BB5D05E1B651BA5D02
:104F800002E1B551B95D0FE3B551B95FB651D8A093
:104F9000B63DBA5FB751D8A0B73DBB5FB851D8A0F6
:104FA000B83DBC5FD8800036013602360336BD2FCF
:104FB000D6D7B9C3EFFFBAC3ECFFBBC3ECFFBCC38A
:104FC000ECFF00019BEF54F00301B36BB26B060ED4
:104FD000B46F7F0EB56FB76BB66BB75339E1B6518F
:104FE000020836E3B651B45F010EBB6F020EBC6F10
:104FF000BD6BB4C3BEF30001A3EC10F0010E0301BE
:10500000B86FB96B0001EEEC1FF003010230B36F13
:105010000130B26FB333B233B333B2331F0EB317B1
:10502000B551B217B36B7F0ED880B257000EB3578D
:10503000B25302E1B35308E0B6C3B7F3B66BB6514F
:10504000B213B751B31304D0B62BD8B4B72BC5D70E
:10505000B2C301F0B3C302F0000135EF28F0030141
:10506000B06BAF6BB16B0001AFD702C0B0F301C042
:10507000AFF30301AF5306E1B05304E1B169B1C32B
:1050800001F00CD1AF51006EB051036E010E035C04
:1050900006E1400E005C0001D8B4ABD00301035020
:1050A00006E1080E005C0001D8B4A6D00301010E91
:1050B000035C06E1080E005C0001D8B4A1D0030136
:1050C000020E035C06E1080E005C0001D8B49CD01F
:1050D0000301035006E1100E005C0001D8B498D023
:1050E0000301010E035C06E1100E005C0001D8B460
:1050F00093D00301020E035C06E1100E005C000178
:10510000D8B48ED00301035006E1200E005C0001EC
:10511000D8B48AD00301010E035C06E1200E005CC6
:105120000001D8B485D00301020E035C06E1200E15
:10513000005C0001D8B480D00301035006E1010EE9
:10514000005C0001D8B47CD00301020E035C06E1D0
:10515000010E005C0001D8B477D00301035006E1D2
:10516000040E005C0001D8B473D00301020E035C8E
:1051700006E1040E005C0001D8B46ED003010350B8
:1051800006E1400E005C0001D8B46AD00301020EB3
:10519000035C06E1400E005C0001D8B465D0030159
:1051A000010E035C06E1010E005C0001D8B460D082
:1051B0000301035005E1020E005C00015DE0030104
:1051C000020E035C05E1020E005C000159E00301E0
:1051D000010E035C05E1040E005C000155E00301D3
:1051E000010E035C05E1020E005C000151E00301C9
:1051F00053D00301B16B50D0010E0301B16F4CD0FD
:10520000020E0301B16F48D0030E0301B16F44D009
:10521000040E0301B16F40D0050E0301B16F3CD005
:10522000060E0301B16F38D0070E0301B16F34D001
:10523000080E0301B16F30D0090E0301B16F2CD0FD
:105240000A0E0301B16F28D00B0E0301B16F24D0F9
:105250000C0E0301B16F20D00D0E0301B16F1CD0F5
:10526000120E0301B16F18D0130E0301B16F14D0E9
:105270000E0E0301B16F10D0110E0301B16F0CD0EF
:10528000100E0301B16F08D00F0E0301B16F04D0EF
:10529000140E0301B16F00D0B1C301F00001120080
:1052A0000301AE6BAF6B010EAD5DAC03F350B16BA0
:1052B000B06FB1C3B8F3B0C3B7F300019BEC11F00A
:1052C00001C00AF10301B02BD8B4B12BB0C3AEF3C7
:1052D000AC51B025B36F000EB121B46F010EB35DB8
:1052E000006E000EB459036E00C001F0035204E1D9
:1052F0000150AE5DD8B0F1D0D890AF35036A2E0F13
:10530000016E000E032201C0B3F303C0B4F3B86B07
:10531000AEC3B7F300019BEC11F001C0B5F3010E71
:105320000301AE25B66FB86BB76F00019BEC11F0AF
:10533000B4C3EAFFB3C3E9FFB5C3ECFFED5201C04C
:10534000EFFFD8900301AF35036A560F016E000ED0
:10535000032201C0B3F303C0B4F3020EAE25B56F50
:10536000B86BB76F00019BEC11F001C0B5F3030EF1
:105370000301AE25B66FB86BB76F00019BEC11F05F
:10538000B4C3EAFFB3C3E9FFB5C3ECFFED5201C0FC
:10539000EFFFD8900301AF35036A7E0F016E000E58
:1053A000032201C0B3F303C0B4F3040EAE25B56FFE
:1053B000B86BB76F00019BEC11F001C0B5F3050E9F
:1053C0000301AE25B66FB86BB76F00019BEC11F00F
:1053D000B4C3EAFFB3C3E9FFB5C3ECFFED5201C0AC
:1053E000EFFFD8900301AF35036AA60F016E000EE0
:1053F000032201C0B3F303C0B4F3060EAE25B56FAC
:10540000B86BB76F00019BEC11F001C0B5F3070E4C
:105410000301AE25B66FB86BB76F00019BEC11F0BE
:10542000B4C3EAFFB3C3E9FFB5C3ECFFED5201C05B
:10543000EFFFD8900301AF35036ACE0F016E000E67
:10544000032201C0B3F303C0B4F3080EAE25B56F59
:10545000B86BB76F00019BEC11F001C0B5F3090EFA
:105460000301AE25B66FB86BB76F00019BEC11F06E
:10547000B4C3EAFFB3C3E9FFB5C3ECFFED5201C00B
:10548000EFFF0A0E0301AE25B36FB86BB76F0001D3
:105490009BEC11F001C0B2F3036A0301AF51F60FA8
:1054A000E96E000E0320EA6EB251060B006ED89032
:1054B000003200C0EFFFB251010BB36FAFC3B5F3C1
:1054C000B66F010EB86F0B0EB76F000112EC1DF036
:1054D0000301AF2B0B0EAE27FBD6000112000C0E02
:1054E0000301BD6F000120EC12F02C0EF66E070ECA
:1054F000F76E4AEC12F0440EF66E070EF76E4AECA9
:1055000012F05C0EF66E070EF76E4AEC12F0740E97
:10551000F66E070EF76E4AEC12F012000C0E030145
:10552000BD6F000120EC12F0720EF66E0D0EF76EDC
:105530004AEC12F08A0EF66E0D0EF76E0C0E030199
:10554000B46F000158DC2DC0B1F3010E0301B26F3E
:1055500000017CDC9A0EF66E0D0EF76E060E03014E
:10556000B46F000148DCA20EF66E0D0EF76E4AEC29
:1055700012F0BA0EF66E0D0EF76E4AEC12F000EF56
:105580002BF06DDD0150140A07E0070A18E01D0A30
:105590002AE0010A2FE034D00C0E0301BD6F000198
:1055A00020EC12F01A0EF66E0E0EF76E4AEC12F0A8
:1055B0002DC0ADF375DE010E1C6E91DF21D00C0EF7
:1055C0000301BD6F000120EC12F0320EF66E0E0EDC
:1055D000F76E4AEC12F02DC0ADF362DE2C820C0E99
:1055E0001C6E9CD70DD02D50030801E32D2A1C6A98
:1055F0006EDC06D02D50010801E22D061C6A67DC26
:10560000B5EF54F00C0E0301BD6F000120EC12F059
:10561000EC0EF66E070EF76E4AEC12F0040EF66E04
:10562000080EF76E4AEC12F01C0EF66E080EF76EBE
:105630004AEC12F0340EF66E080EF76E4AEC12F0D9
:105640001200B8C3A9F30301996B986BB7531EE11D
:10565000B6531CE1B5510101195DD8B002D0030168
:1056600015D005E118510301B45D10E201019298D3
:1056700089980301B4510101185D0301A06FB55170
:10568000010119590301A16F9A691ED00101185136
:105690000301B45D09E1010119510301B55D04E1A4
:1056A000B65302E1B7530FE092988988010118516F
:1056B0000301B45DA06F010119510301B559A16F38
:1056C000010E9A6F01D068D0B96BB951B85D17E37C
:1056D000B951040DF350036A480FE96E030E03201D
:1056E000EA6EEFCF00F0ECCF01F0ECCF02F0ECCFA0
:1056F00003F00050982701509923B92BE6D7D89092
:105700009835026E9935036E02C001F00350A15D19
:105710000FE303E1A051015C0BE299C3A3F398C32B
:10572000A2F39851A05D9E6F9951A1599F6F0FD020
:10573000010EA05DBA6F000EA159BB6FD890BB31AE
:10574000A36FBA31A26FA3C39FF3A2C39EF39D6B55
:105750009C6BA76BA66BA56BA46BA86B010E9B6FD4
:105760000201C68392968996B50EB16EFF0ED8805F
:10577000F8550301BA6FFF0E0201F9550301BB6F23
:10578000000E0201FA55000E0201FB550301BBC3D6
:10579000B3FFBAC3B2FFA082000112000C0E0301D6
:1057A000BD6F000120EC12F0840EF66E030EF76E52
:1057B0004AEC12F09C0EF66E030EF76E4AEC12F0F5
:1057C000B40EF66E030EF76E4AEC12F012000C0ED9
:1057D0000301BD6F000120EC12F06C0EF66E060E98
:1057E000F76E4AEC12F0840EF66E060EF76E4AEC77
:1057F00012F09C0EF66E060EF76E4AEC12F0B40E26
:10580000F66E060EF76E4AEC12F01200B8C3D4F230
:105810000201C36BC26B0301B7531FE1B6531DE115
:10582000B5510101155DD8B002D0030116D005E1D4
:1058300014510301B45D11E2010194928B920301B2
:10584000B4510101145D0201CB6F0301B551010197
:1058500015590201CC6FC46922D001011451030112
:10586000B45D09E1010115510301B55D04E1B653D1
:1058700002E1B75312E094928B82010114510301AB
:10588000B45D0201CB6F010115510301B55902014D
:10589000CC6F010EC46F03D0030174D00201030169
:1058A000B96BB951B85D19E3B951040DF350036AEE
:1058B000720FE96E020E0320EA6EEFCF00F0ECCF1C
:1058C00001F0ECCF02F0ECCF03F000500201C22750
:1058D0000150C3230301B92BE4D7D8900201C2358C
:1058E000026EC335036E02C001F00350CC5D0FE3BE
:1058F00003E1CB51015C0BE2C3C2CEF2C2C2CDF2D6
:10590000C251CB5DC96FC351CC59CA6F15D0010EBE
:10591000CB5D0301BA6F000E0201CC590301BB6FCE
:10592000D890BB310201CE6F0301BA310201CD6FB5
:10593000CEC2CAF2CDC2C9F2C86BC76BD26BD16BF3
:10594000D06BCF6BD36B010EC56F01011A8D949094
:105950008B90B50ECD6EFF0ED8800201225503014B
:10596000BA6FFF0E020123550301BB6F000E020147
:105970002455000E020125550301BBC3CFFFBAC356
:10598000CEFF9D800001120001011A951A97175150
:105990000301B15D0EE308E1B0510101165DD8A02D
:1059A00002D0030106D00301000195EC24F004D0DD
:1059B00003010001B6EC24F0010116510301B05DB2
:1059C00005E1010117510301B15D0BE000019CEC01
:1059D00024F0020E0301BE6F000137EC10F0ECD78B
:1059E0000301000112000301B76BB66BB56BB46B1A
:1059F000130EB86F000125DE0201C6B3FED7030106
:105A0000AF51F80FD8B0CDEF31F0080F0001CFEF54
:105A100031F025524EE0252C01D002D0BFDEFBD75D
:105A20008FEC1DF001C027F02750060805E0275035
:105A3000070802E0275206E1CADE8FEC1DF001C024
:105A400027F0F2D70301B06B000117EC26F0030139
:105A5000B06B00010EEC1FF00301B76BB66BB56BBA
:105A6000B46B130EB86F00015EEC25F001011AB99A
:105A7000FED70001BDEC24F00301B76BB66BB56B2C
:105A8000B46B130EB86F0001C1DE01011ABDFED761
:105A90000301B76BB66BB56B320EB46F130EB86FF4
:105AA00000015EEC25F001011AB9FED7256A0DD080
:105AB0000001020E0301B06F960EBE6F000137ECBD
:105AC00010F00301B02FF8D701010301CDEF31F041
:105AD000252C01D065D12550050802E15FDEFBD7FA
