:040000004CEF6BF066
:08000800046ED8CF05F0E0CF33
:1000100006F00001E9CF0CF0EACF07F0E1CF08F0DD
:10002000E2CF09F0D9CF0AF0DACF0BF0F3CF12F01C
:10003000F4CF13F0FACF14F000C00EF001C00FF0AF
:1000400002C010F003C011F0F2AA2AEF00F0F2B4DF
:1000500006EF0CF09DA030EF00F09EB0DCEF0EF04C
:100060009DA236EF00F09EB2E0EF0EF0A0A23CEFB2
:1000700000F0A1B279EF14F00EC000F00FC001F053
:1000800010C002F011C003F00CC0E9FF07C0EAFF86
:10009000078E08C0E1FF09C0E2FF0AC0D9FF0BC00C
:1000A000DAFF12C0F3FF13C0F4FF14C0FAFF0450CC
:1000B00006C0E0FF05C0D8FF10006572726F2064B3
:1000C00065206573637269746120000020202045FB
:1000D0004550524F4D2020202020202000006572E6
:1000E000726F206465206C656974757261202000F0
:1000F0002020202020454550524F4D2020202020F8
:10010000200020202020202020204943545320205C
:100110002020202020200A0D00002020494E53548A
:10012000495455544F2043454E54524F20200A0DF8
:100130000000202020205445434E4F4C4F4749415A
:1001400020454D2020200A0D0000202020202020C6
:10015000534F4654574152452020202020200A0D5D
:1001600000002020202020494E494349414E444F61
:1001700020202020200A0D00202020202020424185
:100180004E44454A415320202020200A0D004D4F67
:1001900056494D454E54414E444F2042414E4445F0
:1001A0004A410A0D00002020202050415241205099
:1001B0004F534943414F202020200A0D00002020AA
:1001C000202020414C494D454E5441444F5220205F
:1001D00020200A0D00004D4F56494D454E54414ECA
:1001E000444F2042414E44454A410A0D0000202020
:1001F00020205041524120504F534943414F20202D
:1002000020200A0D000020202020202020484F4DD3
:10021000452031202020202020200A0D00004D4FB5
:1002200056494D454E54414E444F2042414E44455F
:100230004A410A0D00002020202050415241205008
:100240004F534943414F202020200A0D0000202019
:1002500020202020534F4C444147454D2020202052
:10026000200A0D004D4F56494D454E54414E444FC6
:100270002042414E44454A410A0D000020202020E2
:100280005041524120504F534943414F202020209C
:100290000A0D000020202020202020484F4D45201E
:1002A00032202020202020200A0D00004D4F5649EA
:1002B0004D454E54414E444F2042414E44454A41E3
:1002C0000A0D0000202020205041524120504F5361
:1002D0004943414F202020200A0D000020202020EB
:1002E00044495350454E5341444F52202020202032
:1002F0000A0D000020204553504552414E444F20E6
:1003000042414E44454A41200A0D00002020204928
:1003100052205041524120504F534943414F2020D9
:100320000A0D0000202020205052452D52455155E5
:10033000495349544F2020200A0D00002020204519
:1003400053504552414E444F204F55545241202066
:100350000A0D00002020202020202042414E44454C
:100360004A412020202020200A0D00002020204982
:1003700052205041524120504F534943414F202079
:100380000A0D00002020202020414C494D454E54AC
:1003900041444F52202020200A0D000020202045FB
:1003A00053504552414E444F204F55545241202006
:1003B0000A0D00002020202020202042414E4445EC
:1003C0004A412020202020200A0D00002020204922
:1003D00052205041524120504F534943414F202019
:1003E0000A0D000020202020202020484F4D4520CD
:1003F00031202020202020200A0D00002020204530
:1004000053504552414E444F204F555452412020A5
:100410000A0D00002020202020202042414E44458B
:100420004A412020202020200A0D000020202049C1
:1004300052205041524120504F534943414F2020B8
:100440000A0D00002020202020534F4C44414745F6
:100450004D203120202020200A0D000020202045A2
:1004600053504552414E444F204F55545241202045
:100470000A0D00002020202020202042414E44452B
:100480004A412020202020200A0D00002020204961
:1004900052205041524120504F534943414F202058
:1004A0000A0D000020202020202020484F4D45200C
:1004B00032202020202020200A0D0000202020456E
:1004C00053504552414E444F204F555452412020E5
:1004D0000A0D00002020202020202042414E4445CB
:1004E0004A412020202020200A0D00002020204901
:1004F00052205041524120504F534943414F2020F8
:100500000A0D0000202020202044495350454E531E
:1005100041444F52202020200A0D00002020204579
:1005200053504552414E444F204F55545241202084
:100530000A0D00002020202020202042414E44456A
:100540004A412020202020200A0D00002020205396
:1005500041495220444120504F534943414F2020AC
:100560000A0D000020202020202020204154554149
:100570004C202020202020200A0D000020534F4C2A
:100580004441444F52204155544F4D415449434FEB
:100590000A0D00002020202020204D4F44454C4FC4
:1005A0003A253032752020200A0D0000202020201E
:1005B000204D454E553A4544495441522020202073
:1005C0000A0D00002020454E5445523A4155544FE3
:1005D0004D415449434F20200A0D00002053454C03
:1005E0004543494F4E4520412042414E44454A41F2
:1005F0000A0D00002020202046313A2042414E447E
:10060000454A4120312020200A0D000020202020D2
:1006100046323A2042414E44454A41203220202071
:100620000A0D0000202020204553433A4241434B0D
:1006300020202020202020200A0D00002020202023
:10064000204D414E5554454E43414F2020202020FF
:100650000A0D000020202020202042414E44454A1F
:1006600041203220202020200A0D000020202020C0
:10067000202020202020202020202020202020207A
:100680000A0D00002020202020204553433A4241FB
:10069000434B2020202020200A0D00002020202075
:1006A0004553434F4C484552204143414F20202061
:1006B0000A0D000046313A4544495441522F4D41FC
:1006C0004E5554454E43414F0A0D000046323A45BF
:1006D00058434C5549204D4F44454C4F20200A0D5E
:1006E00000004553433A4241434B20202020202024
:1006F000202020200A0D0000202046313A204544C9
:100700004954415220504F4E544F53200A0D00007F
:10071000202046323A204D414E5554454E43414FDC
:10072000202020200A0D000020204553433A42415A
:10073000434B202020202020202020200A0D0000D4
:1007400020202046313A204E20504F4E544F532007
:10075000202020200A0D0000202046323A20454467
:100760004954415220504F4E544F53200A0D00001F
:1007700020204553433A4241434B20202020202053
:10078000202020200A0D000020204E554D45524FBC
:1007900020444520504F4E544F5320200A0D000056
:1007A0002020202020202020202530344C7520209F
:1007B00020202020200A0D0020454E5445523A5357
:1007C0004156457C4553433A4241434B0A0D000094
:1007D000202020444553454A41204558434C554923
:1007E000522020200A0D000020202020204F204DE4
:1007F0004F44454C4F203F20202020200A0D000070
:10080000202020202020454E5445523A4F4B202096
:10081000202020200A0D00002020202020204553E9
:10082000433A4241434B20202020200A0D0050250E
:10083000303275202020202020202020454E543AA0
:10084000454449540A0D00005025303275202020BF
:100850002020202020204553433A4241434B0A0D9B
:10086000000050253032752020202020202020201C
:1008700020202020202020200A0D0000502530328A
:100880007520202020202020202020202020202013
:1008900020200A0D0000583A2530344C7520543A77
:1008A0002530344C750A0D00593A2530344C7520EA
:1008B000483A2530344C7520463A2530344C750A78
:1008C0000D005A3A2530344C7520493A253032759E
:1008D000204C3A2530344C750A0D000046313A4719
:1008E000524156417C46333A50524F580A0D00004F
:1008F00053313A2530344C750A0D000053323A25F5
:1009000030344C7520453A2530344C750A0D0000C2
:1009100053333A2530344C7520493A253032750A24
:100920000D0046313A5245437C46333A4241434BEF
:100930000A0D000053323A2530344C7520453A25D3
:1009400030344C750A0D000053333A2530344C7561
:1009500020493A253032750A0D0046313A52454356
:100960007C46333A4241434B0A0D000053313A254D
:1009700030344C750A0D000053323A2530344C7532
:1009800020453A2530344C750A0D000020202020E7
:10099000202020493A253032750A0D0046313A525E
:1009A00045437C46333A4241434B0A0D00005332E3
:1009B0003A2530344C7520453A2530344C750A0DB3
:1009C000000020202020202020493A253032750ABE
:1009D0000D0046313A5245437C46333A4241434B3F
:1009E0000A0D00002020202020205645524946496B
:1009F00051554520202020200A0D000020204F5373
:100A000020414C494D454E5441444F5245532020BE
:100A10000A0D0000202020202020444520534F4C68
:100A200044412020202020200A0D000020202020EA
:100A30002020454E5445523A4F4B20202020202064
:100A40000A0D00004D414E5554454E43414F204242
:100A5000414E44454A4120320A0D00002020204AE0
:100A6000412046494E414C495A414441203F2020B3
:100A70000A0D0000202020202020454E5445523AE7
:100A80004F4B2020202020200A0D00002020202075
:100A90002020204553433A4E4F2020202020202064
:100AA0000A0D00002046313A204445425547204572
:100AB0004E545241444153200A0D00002046323A20
:100AC000202044454255472053414944415320206A
:100AD0000A0D00002020202020202020202020207F
:100AE00020202020202020200A0D0000202020206F
:100AF00020204553433A4241434B202020202020D0
:100B00000A0D00004530303A25303275204530312D
:100B10003A25303275204530323A253032750A0D8B
:100B200000004530333A25303275204530343A25BF
:100B3000303275204530353A253032750A0D0000C7
:100B40004530363A25303275204530373A25303237
:100B500075204530383A253032750A0D00002020C6
:100B6000203E3A50524F587C4553433A4241434B02
:100B700020200A0D00004530393A253032752045D5
:100B800031303A25303275204531313A25303275D1
:100B90000A0D00004531323A253032752045313397
:100BA0003A25303275204531343A253032750A0DF8
:100BB00000004531353A25303275204531363A2529
:100BC000303275204531373A253032750A0D000034
:100BD00020203C7C3E3A50524F587C4553433A4289
:100BE00041434B200A0D00004531383A253032751B
:100BF000204531393A25303275204532303A25309A
:100C000032750A0D00004532313A253032752045E3
:100C100032323A25303275204532333A253032753A
:100C20000A0D00004532343A253032752045323500
:100C30003A25303275204532363A253032750A0D64
:100C400000004532373A25303275203C3A414E5447
:100C50007C4553433A4241434B0A0D0045535445AA
:100C60004952412020202020202020202020202008
:100C70000A0D00004445444F5320454E5452414410
:100C800041202020202020200A0D0000414C494D09
:100C9000454E5441444F525F504C41434120202027
:100CA0000A0D000046313A4F4E7C46323A4F467CA0
:100CB0004553433A4241434B0A0D000050524553BD
:100CC000534F522020202020202020202020202090
:100CD0000A0D00004445444F535F534149444120AD
:100CE00020202020202020200A0D000044495350BD
:100CF000454E5341444F525F504C414341202020C8
:100D00000A0D000046313A4F4E7C46323A4F467C3F
:100D10004553433A4241434B0A0D0000414C494D73
:100D2000454E5441444F525F534F4C444120202084
:100D30000A0D00004C494D5041444F525F42494317
:100D40004F202020202020200A0D0000464552522E
:100D50004F535F44455F534F4C4441202020202097
:100D60000A0D000046313A4F4E7C46323A4F467CDF
:100D70004553433A4241434B0A0D0000202020587E
:100D80003A2530344C752020593A2530344C7520A2
:100D9000200A0D002020205A3A2530344C7520209E
:100DA000463A2530344C7520200A0D0020202020A2
:100DB000202020494E433A25327520202020200A49
:100DC0000D00202020202020204553433A4241435B
:100DD0004B2020202020200A0D0020455845435557
:100DE00054414E444F2050524F4752414D410A0DFD
:100DF000000020202020204D4F44454C4F3A253004
:100E00003275202020200A0D0000202020202020E4
:100E100020202020202020202020202020200A0DFB
:100E200000002020202020204553433A53544F50A7
:100E30002020202020200A0D00002020504F534960
:100E400043414F204952524547554C4152200A0DCB
:100E5000000020202058204445564520534552206C
:100E60003E20302020200A0D00002020592044453B
:100E7000564520534552203E2037303020200A0D61
:100E800000002020434152524547414E444F204DDF
:100E90004F44454C4F200A0D000020204341525240
:100EA0004547414E444F204D4F44454C4F200A0D7D
:100EB00000002020204553504552414E444F2050C1
:100EC0004C4143412020200A0D0020202020204EAC
:100ED00041204553544549524120202020200A0DED
:100EE000000020564552494649515545204F204E55
:100EF000554D45524F200A0D000020444520504FCB
:100F00004E544F53204E4F204D4F44454C4F0A0DE9
:100F1000000020202047524156414E444F20504F60
:100F20004E544F5320200A0D0000504F4E544F5343
:100F300020415455414C495A41444F530A0D000039
:100F400020204558434C55494E444F204D4F444571
:100F50004C4F20200A0D00002020204D4F44454CCE
:100F60004F204558435549444F2020200A0D00008A
:100F700020202047524156414E444F20504F4E545E
:100F80004F2020200A0D000020202020504F4E54DA
:100F90004F204752415641444F2020200A0D000067
:100FA0002020202053454D20534F4C4441204E4F8C
:100FB000532020200A0D000020202020414C494DC4
:100FC000454E5441444F5245532020200A0D000005
:100FD00020202047524156414E444F20504F4E54FE
:100FE0004F2020200A0D000020202020504F4E547A
:100FF0004F204752415641444F2020200A0D000007
:101000002020202053454D20534F4C4441204E4F2B
:10101000532020200A0D000020202020414C494D63
:10102000454E5441444F5245532020200A0D0000A4
:10103000202056455249464943414E444F20534F84
:101040004C4441200A0D0000205645524946495162
:101050005545204E4F56414D454E54450A0D000012
:10106000202020202020204120534F4C444120208C
:10107000202020200A0D0000202020202020534F77
:101080004C4441204F4B2020202020200A0D0000FE
:101090002020204553504552414E444F20504C4152
:1010A00043412020200A0D0020202020204E4120F6
:1010B0004553544549524120202020200A0D00006C
:1010C0005245494E4943494F20444F2050524F47C3
:1010D00052414D410A0D0000202020414F20464939
:1010E0004D20444F204349434C4F20200A0D00001F
:1010F00020202020202053454D20504C41434120AA
:10110000202020200A0D000020202020204E4120F9
:1011100042414E44454A4120202020200A0D000033
:101120005245494E4943494F20444F2050524F4762
:1011300052414D410A0D0000202020414F204649D8
:101140004D20444F204349434C4F20200A0D0000BE
:101150005245494E4943494F20444F2050524F4732
:1011600052414D410A0D0000202020414F204649A8
:101170004D20444F204349434C4F20200A0D00008E
:101180005245494E4943494F20444F2050524F4702
:1011900052414D410A0D0000202020414F20464978
:1011A0004D20444F204349434C4F20200A0D00005E
:1011B0005245494E4943494F20444F2050524F47D2
:1011C00052414D410A0D0000202020414F20464948
:1011D0004D20444F204349434C4F20200A0D00002E
:1011E0005245494E4943494F20444F2050524F47A2
:1011F00052414D410A0D0000202020414F20464918
:101200004D20444F204349434C4F20200A0D0000FD
:101210005245494E4943494F20444F2050524F4771
:1012200052414D410A0D0000202020414F204649E7
:101230004D20444F204349434C4F20200A0D0000CD
:101240005245494E4943494F20444F2050524F4741
:1012500052414D410A0D0000202020414F204649B7
:101260004D20444F204349434C4F20200A0D00009D
:101270000201E853D8A497D0E851040DF350036A53
:10128000880FE96E020E0320EA6EEFCF00F0ECCF7C
:1012900001F0ECCF02F0ECCF03F00050DC5D60E138
:1012A0000150DD5D5DE102525BE1035259E1E8511D
:1012B000040DF350036A880FE96E020E0320EA6EF4
:1012C000EFCFA5F5ECCFA6F5ECCFA7F5ECCFA8F5C1
:1012D000010EE825040DF350036A880FE96E020E33
:1012E0000320EA6EEFCF00F0ECCF01F0ECCF02F07C
:1012F000ECCF03F00501A5510026A6510122A7510C
:101300000222A851032200500201E4270150E523E4
:101310000250E6230350E723E82BE851040DF35075
:10132000036A380FE96E020E0320EA6EEFCF00F079
:10133000ECCF01F0ECCF02F0ECCF03F0FF0ED88041
:1013400000540501A56FFF0E0154A66F000E025454
:10135000000E0354A6C5D7FFA5C5D6FF22D00201B3
:10136000E851040DF350036A380FE96E020E0320B2
:10137000EA6EEFCF00F0ECCF01F0ECCF02F0ECCF53
:1013800003F0FF0ED88000540501A56FFF0E015435
:10139000A66F000E0254000E0354A6C5D7FFA5C5C4
:1013A000D6FF8FD00201E951E85D23E1E851040D39
:1013B000F350036A380FE96E020E0320EA6EEFCF96
:1013C00000F0ECCF01F0ECCF02F0ECCF03F0FF0E19
:1013D000D88000540501A56FFF0E0154A66F000EC2
:1013E0000254000E0354A6C5D7FFA5C5D6FF69D089
:1013F0000201E451DC5D44E1E551DD5D41E1E6538C
:101400003FE1E7533DE1E82BE851040DF350036A57
:10141000880FE96E020E0320EA6EEFCF00F0ECCFEA
:1014200001F0ECCF02F0ECCF03F00050E4270150C4
:10143000E5230250E6230350E723E851040DF3505F
:10144000036A380FE96E020E0320EA6EEFCF00F058
:10145000ECCF01F0ECCF02F0ECCF03F0FF0ED88020
:1014600000540501A56FFF0E0154A66F000E025433
:10147000000E0354A6C5D7FFA5C5D6FF22D0020192
:10148000E851040DF350036A380FE96E020E032091
:10149000EA6EEFCF00F0ECCF01F0ECCF02F0ECCF32
:1014A00003F0FF0ED88000540501A56FFF0E015414
:1014B000A66F000E0254000E0354A6C5D7FFA5C5A3
:1014C000D6FF000112000201E85323E1E851040DA8
:1014D000F350036A380FE96E020E0320EA6EEFCF75
:1014E00000F0ECCF01F0ECCF02F0ECCF03F0FF0EF8
:1014F000D88000540501A56FFF0E0154A66F000EA1
:101500000254000E0354A6C5D7FFA5C5D6FF1DD1B2
:101510000201E951E85DD8A4B0D0E851040DF350C0
:10152000036A880FE96E020E0320EA6EEFCF00F027
:10153000ECCF01F0ECCF02F0ECCF03F0DE5100264F
:10154000DF510122000E022203220050DC5D72E115
:101550000150DD5D6FE102526DE103526BE1E85134
:10156000040DF350036A880FE96E020E0320EA6E41
:10157000EFCF00F0ECCF01F0ECCF02F0ECCF03F0B6
:101580000050DE250501A56F01500201DF21050194
:10159000A66F000E0220A76F000E0320A86F010E99
:1015A0000201E85D040DF350036A880FE96E020E34
:1015B0000320EA6EEFCF00F0ECCF01F0ECCF02F0A9
:1015C000ECCF03F000500501A5250201E46F0150A6
:1015D0000501A6210201E56F02500501A7210201C4
:1015E000E66F03500501A8210201E76FE807E85103
:1015F000040DF350036A380FE96E020E0320EA6E01
:10160000EFCF00F0ECCF01F0ECCF02F0ECCF03F025
:10161000FF0ED88000540501A56FFF0E0154A66F80
:10162000000E0254000E0354A6C5D7FFA5C5D6FF71
:1016300022D00201E851040DF350036A380FE96E1D
:10164000020E0320EA6EEFCF00F0ECCF01F0ECCFFA
:1016500002F0ECCF03F0FF0ED88000540501A56F17
:10166000FF0E0154A66F000E0254000E0354A6C5CF
:10167000D7FFA5C5D6FF69D00201E451DC5D44E186
:10168000E551DD5D41E1E6533FE1E7533DE1E80728
:10169000E851040DF350036A880FE96E020E03202F
:1016A000EA6EEFCF00F0ECCF01F0ECCF02F0ECCF20
:1016B00003F00050E4270150E5230250E6230350D5
:1016C000E723E851040DF350036A380FE96E020E68
:1016D0000320EA6EEFCF00F0ECCF01F0ECCF02F088
:1016E000ECCF03F0FF0ED88000540501A56FFF0E6C
:1016F0000154A66F000E0254000E0354A6C5D7FF76
:10170000A5C5D6FF22D00201E851040DF350036AAB
:10171000380FE96E020E0320EA6EEFCF00F0ECCF37
:1017200001F0ECCF02F0ECCF03F0FF0ED8800054B4
:101730000501A56FFF0E0154A66F000E0254000EA6
:101740000354A6C5D7FFA5C5D6FF0001D2EF0BF005
:101750000201DB51010A000105E0020A22E0010A50
:101760002EE03CD085DD0201E251DC5D16E1E35163
:10177000DD5D13E1D890D835026ED935036E02C015
:1017800001F00350E15D07E303E1E051015C03E296
:10179000020EDB6F02D0030EDB6F95948C740B7D11
:1017A00021D091D60201E051DC5D05E1E151DD5D22
:1017B00002E1040EDB6F95948C740B7D13D058DD21
:1017C0000201DE51DC5D05E1DF51DD5D02E1030E6A
:1017D000DB6F95948C740B7D05D000010201DB6BEF
:1017E000F29A0B9BDB530FE0DB5104080CE00BADCE
:1017F0000AD0036ADA51E8BE030603270350042324
:10180000DC2BD8B4DD2B000107EF0CF0A1D7F2944C
:101810003CEF00F00301C453D8A497D0C451040D89
:10182000F350036A630FE96E030E0320EA6EEFCFF5
:1018300000F0ECCF01F0ECCF02F0ECCF03F0005061
:10184000B85D60E10150B95D5DE102525BE10352B8
:1018500059E1C451040DF350036A630FE96E030E9E
:101860000320EA6EEFCFA5F5ECCFA6F5ECCFA7F5F8
:10187000ECCFA8F5010EC425040DF350036A630FE5
:10188000E96E030E0320EA6EEFCF00F0ECCF01F01B
:10189000ECCF02F0ECCF03F00501A5510026A651D4
:1018A0000122A7510222A851032200500301C027A0
:1018B0000150C1230250C2230350C323C42BC4517F
:1018C000040DF350036A130FE96E030E0320EA6E52
:1018D000EFCF00F0ECCF01F0ECCF02F0ECCF03F053
:1018E000FF0ED88000540501A56FFF0E0154A66FAE
:1018F000000E0254000E0354A6C5CFFFA5C5CEFFAF
:1019000022D00301C451040DF350036A130FE96E92
:10191000030E0320EA6EEFCF00F0ECCF01F0ECCF26
:1019200002F0ECCF03F0FF0ED88000540501A56F44
:10193000FF0E0154A66F000E0254000E0354A6C5FC
:10194000CFFFA5C5CEFF8FD00301C551C45D23E1F4
:10195000C451040DF350036A130FE96E030E032004
:10196000EA6EEFCF00F0ECCF01F0ECCF02F0ECCF5D
:1019700003F0FF0ED88000540501A56FFF0E01543F
:10198000A66F000E0254000E0354A6C5CFFFA5C5D6
:10199000CEFF69D00301C051B85D44E1C151B95DCA
:1019A00041E1C2533FE1C3533DE1C42BC451040D97
:1019B000F350036A630FE96E030E0320EA6EEFCF64
:1019C00000F0ECCF01F0ECCF02F0ECCF03F00050D0
:1019D000C0270150C1230250C2230350C323C45166
:1019E000040DF350036A130FE96E030E0320EA6E31
:1019F000EFCF00F0ECCF01F0ECCF02F0ECCF03F032
:101A0000FF0ED88000540501A56FFF0E0154A66F8C
:101A1000000E0254000E0354A6C5CFFFA5C5CEFF8D
:101A200022D00301C451040DF350036A130FE96E71
:101A3000030E0320EA6EEFCF00F0ECCF01F0ECCF05
:101A400002F0ECCF03F0FF0ED88000540501A56F23
:101A5000FF0E0154A66F000E0254000E0354A6C5DB
:101A6000CFFFA5C5CEFF000112000301C45323E13F
:101A7000C451040DF350036A130FE96E030E0320E3
:101A8000EA6EEFCF00F0ECCF01F0ECCF02F0ECCF3C
:101A900003F0FF0ED88000540501A56FFF0E01541E
:101AA000A66F000E0254000E0354A6C5CFFFA5C5B5
:101AB000CEFF1DD10301C551C45DD8A4B0D0C4511F
:101AC000040DF350036A630FE96E030E0320EA6E00
:101AD000EFCF00F0ECCF01F0ECCF02F0ECCF03F051
:101AE000BA510026BB510122000E022203220050EF
:101AF000B85D72E10150B95D6FE102526DE10352D0
:101B00006BE1C451040DF350036A630FE96E030ED9
:101B10000320EA6EEFCF00F0ECCF01F0ECCF02F043
:101B2000ECCF03F00050BA250501A56F0150030169
:101B3000BB210501A66F000E0220A76F000E032037
:101B4000A86F010E0301C45D040DF350036A630F17
:101B5000E96E030E0320EA6EEFCF00F0ECCF01F048
:101B6000ECCF02F0ECCF03F000500501A5250301F6
:101B7000C06F01500501A6210301C16F025005018C
:101B8000A7210301C26F03500501A8210301C36F00
:101B9000C407C451040DF350036A130FE96E030E1A
:101BA0000320EA6EEFCF00F0ECCF01F0ECCF02F0B3
:101BB000ECCF03F0FF0ED88000540501A56FFF0E97
:101BC0000154A66F000E0254000E0354A6C5CFFFA9
:101BD000A5C5CEFF22D00301C451040DF350036A02
:101BE000130FE96E030E0320EA6EEFCF00F0ECCF87
:101BF00001F0ECCF02F0ECCF03F0FF0ED8800054E0
:101C00000501A56FFF0E0154A66F000E0254000ED1
:101C10000354A6C5CFFFA5C5CEFF69D00301C051AF
:101C2000B85D44E1C151B95D41E1C2533FE1C353E5
:101C30003DE1C407C451040DF350036A630FE96E1C
:101C4000030E0320EA6EEFCF00F0ECCF01F0ECCFF3
:101C500002F0ECCF03F00050C0270150C123025026
:101C6000C2230350C323C451040DF350036A130F5E
:101C7000E96E030E0320EA6EEFCF00F0ECCF01F027
:101C8000ECCF02F0ECCF03F0FF0ED880005405013A
:101C9000A56FFF0E0154A66F000E0254000E0354F0
:101CA000A6C5CFFFA5C5CEFF22D00301C451040DA8
:101CB000F350036A130FE96E030E0320EA6EEFCFB1
:101CC00000F0ECCF01F0ECCF02F0ECCF03F0FF0E10
:101CD000D88000540501A56FFF0E0154A66F000EB9
:101CE0000254000E0354A6C5CFFFA5C5CEFF0001C8
:101CF000A6EF0EF00301B651010A000105E0020A49
:101D000024E0010A30E03ED094948B740301B77153
:101D1000000180DD0301BE51B85D16E1BF51B95D20
:101D200013E1D890B335026EB435036E02C001F0F2
:101D30000350BD5D07E303E1BC51015C03E2020E09
:101D4000B66F02D0030EB66F24D08FD60301BC51FC
:101D5000B85D05E1BD51B95D02E1040EB66F949422
:101D60008B74B77116D056DD0301BA51B85D05E129
:101D7000BB51B95D02E1030EB66F94948B74B771D9
:101D800008D000010301B66BB7939D9002010B9F31
:101D90000301B6530EE0B7A10CD0036AB551E8BEFB
:101DA000030602010527035006230301B82BD8B40C
:101DB000B92B0001DDEF0EF09DD79E903CEF00F0B7
:101DC000010E2926D8B02A2AD8B42B2AD8B42C2A16
:101DD0009E923CEF00F004019953D8A497D09951FA
:101DE000040DF350036A390FE96E040E0320EA6E06
:101DF000EFCF00F0ECCF01F0ECCF02F0ECCF03F02E
:101E000000508D5D60E101508E5D5DE102525BE14D
:101E1000035259E19951040DF350036A390FE96EE9
:101E2000040E0320EA6EEFCFA5F5ECCFA6F5ECCFBC
:101E3000A7F5ECCFA8F5010E9925040DF350036A20
:101E4000390FE96E040E0320EA6EEFCF00F0ECCFFD
:101E500001F0ECCF02F0ECCF03F00501A551002614
:101E6000A6510122A7510222A851032200500401C9
:101E70009527015096230250972303509823992BBE
:101E80009951040DF350036AE90FE96E030E032024
:101E9000EA6EEFCF00F0ECCF01F0ECCF02F0ECCF28
:101EA00003F0FF0ED88000540501A56FFF0E01540A
:101EB000A66F000E0254000E0354A6C5B3FFA5C5BD
:101EC000B2FF22D004019951040DF350036AE90FC7
:101ED000E96E030E0320EA6EEFCF00F0ECCF01F0C5
:101EE000ECCF02F0ECCF03F0FF0ED88000540501D8
:101EF000A56FFF0E0154A66F000E0254000E03548E
:101F0000A6C5B3FFA5C5B2FF8FD004019A51995D54
:101F100023E19951040DF350036AE90FE96E030EB2
:101F20000320EA6EEFCF00F0ECCF01F0ECCF02F02F
:101F3000ECCF03F0FF0ED88000540501A56FFF0E13
:101F40000154A66F000E0254000E0354A6C5B3FF41
:101F5000A5C5B2FF69D0040195518D5D44E196514C
:101F60008E5D41E197533FE198533DE1992B9951A3
:101F7000040DF350036A390FE96E040E0320EA6E74
:101F8000EFCF00F0ECCF01F0ECCF02F0ECCF03F09C
:101F90000050952701509623025097230350982311
:101FA0009951040DF350036AE90FE96E030E032003
:101FB000EA6EEFCF00F0ECCF01F0ECCF02F0ECCF07
:101FC00003F0FF0ED88000540501A56FFF0E0154E9
:101FD000A66F000E0254000E0354A6C5B3FFA5C59C
:101FE000B2FF22D004019951040DF350036AE90FA6
:101FF000E96E030E0320EA6EEFCF00F0ECCF01F0A4
:10200000ECCF02F0ECCF03F0FF0ED88000540501B6
:10201000A56FFF0E0154A66F000E0254000E03546C
:10202000A6C5B3FFA5C5B2FF000112000401995374
:1020300023E19951040DF350036AE90FE96E030E91
:102040000320EA6EEFCF00F0ECCF01F0ECCF02F00E
:10205000ECCF03F0FF0ED88000540501A56FFF0EF2
:102060000154A66F000E0254000E0354A6C5B3FF20
:10207000A5C5B2FF1DD104019A51995DD8A4B0D075
:102080009951040DF350036A390FE96E040E0320D1
:10209000EA6EEFCF00F0ECCF01F0ECCF02F0ECCF26
:1020A00003F08F51002690510122000E02220322DC
:1020B00000508D5D72E101508E5D6FE102526DE165
:1020C00003526BE19951040DF350036A390FE96E25
:1020D000040E0320EA6EEFCF00F0ECCF01F0ECCF5E
:1020E00002F0ECCF03F000508F250501A56F0150E1
:1020F000040190210501A66F000E0220A76F000EBB
:102100000320A86F010E0401995D040DF350036ACA
:10211000390FE96E040E0320EA6EEFCF00F0ECCF2A
:1021200001F0ECCF02F0ECCF03F000500501A52543
:102130000401956F01500501A6210401966F02501C
:102140000501A7210401976F03500501A82104018F
:10215000986F99079951040DF350036AE90FE96EDE
:10216000030E0320EA6EEFCF00F0ECCF01F0ECCFCE
:1021700002F0ECCF03F0FF0ED88000540501A56FEC
:10218000FF0E0154A66F000E0254000E0354A6C5A4
:10219000B3FFA5C5B2FF22D004019951040DF3503D
:1021A000036AE90FE96E030E0320EA6EEFCF00F039
:1021B000ECCF01F0ECCF02F0ECCF03F0FF0ED880B3
:1021C00000540501A56FFF0E0154A66F000E0254C6
:1021D000000E0354A6C5B3FFA5C5B2FF69D0040124
:1021E00095518D5D44E196518E5D41E197533FE1FC
:1021F00098533DE199079951040DF350036A390F43
:10220000E96E040E0320EA6EEFCF00F0ECCF01F090
:10221000ECCF02F0ECCF03F000509527015096234D
:1022200002509723035098239951040DF350036AE9
:10223000E90FE96E030E0320EA6EEFCF00F0ECCF5A
:1022400001F0ECCF02F0ECCF03F0FF0ED880005489
:102250000501A56FFF0E0154A66F000E0254000E7B
:102260000354A6C5B3FFA5C5B2FF22D004019951FE
:10227000040DF350036AE90FE96E030E0320EA6EC2
:10228000EFCF00F0ECCF01F0ECCF02F0ECCF03F099
:10229000FF0ED88000540501A56FFF0E0154A66FF4
:1022A000000E0254000E0354A6C5B3FFA5C5B2FF2D
:1022B00000018CEF11F004018C51010A000105E0CE
:1022C000020A24E0010A32E042D0929A897A03019C
:1022D000B777000180DD040193518D5D16E19451C3
:1022E0008E5D13E1D8908935026E8A35036E02C087
:1022F00001F00350925D07E303E19151015C03E2B9
:10230000020E8C6F02D0030E8C6F27D0929A897ABE
:102310000301B77700018AD6040191518D5D05E173
:1023200092518E5D02E1040E8C6F17D0929A897AD9
:102330000301B77700014FDD04018F518D5D05E189
:1023400090518E5D02E1030E8C6F07D000010401F5
:102350008C6BA0920301B79504018C5310E003012C
:10236000B7A70ED0036A04018B51E8BE0306020131
:10237000092703500A2304018D2BD8B48E2B0301A7
:1023800000017CEF14F005016E53D8A491D06E517A
:10239000040DF350036A0E0FE96E050E0320EA6E7A
:1023A000EFCF00F0ECCF01F0ECCF02F0ECCF03F078
:1023B0000050625D5CE10150635D59E1025257E1FA
:1023C000035255E16E51040DF350036A0E0FE96E8E
:1023D000050E0320EA6EEFCFA5F5ECCFA6F5ECCF06
:1023E000A7F5ECCFA8F5010E6E25040DF350036A96
:1023F0000E0FE96E050E0320EA6EEFCF00F0ECCF72
:1024000001F0ECCF02F0ECCF03F0A5510026A6516D
:102410000122A7510222A851032200506A2701502D
:102420006B2302506C2303506D236E2B6E51040DF1
:10243000F350036ABE0FE96E040E0320EA6EEFCF7D
:1024400000F0ECCF01F0ECCF02F0ECCF03F0FF0E88
:10245000D8800054A56FFF0E0154A66F000E0254E1
:10246000000E0354A6C5B3FFA5C5B2FF20D06E5120
:10247000040DF350036ABE0FE96E040E0320EA6EEA
:10248000EFCF00F0ECCF01F0ECCF02F0ECCF03F097
:10249000FF0ED8800054A56FFF0E0154A66F000EEA
:1024A0000254000E0354A6C5B3FFA5C5B2FF89D0E0
:1024B0006F516E5D21E16E51040DF350036ABE0F42
:1024C000E96E040E0320EA6EEFCF00F0ECCF01F0CE
:1024D000ECCF02F0ECCF03F0FF0ED8800054A56FD4
:1024E000FF0E0154A66F000E0254000E0354A6C541
:1024F000B3FFA5C5B2FF65D06A51625D42E16B5181
:10250000635D3FE16C533DE16D533BE16E2B6E51DA
:10251000040DF350036A0E0FE96E050E0320EA6EF8
:10252000EFCF00F0ECCF01F0ECCF02F0ECCF03F0F6
:1025300000506A2701506B2302506C2303506D2317
:102540006E51040DF350036ABE0FE96E040E0320B2
:10255000EA6EEFCF00F0ECCF01F0ECCF02F0ECCF61
:1025600003F0FF0ED8800054A56FFF0E0154A66F34
:10257000000E0254000E0354A6C5B3FFA5C5B2FF5A
:1025800020D06E51040DF350036ABE0FE96E040EA5
:102590000320EA6EEFCF00F0ECCF01F0ECCF02F0B9
:1025A000ECCF03F0FF0ED8800054A56FFF0E01544E
:1025B000A66F000E0254000E0354A6C5B3FFA5C5B6
:1025C000B2FF0001120005016E5321E16E51040DAE
:1025D000F350036ABE0FE96E040E0320EA6EEFCFDC
:1025E00000F0ECCF01F0ECCF02F0ECCF03F0FF0EE7
:1025F000D8800054A56FFF0E0154A66F000E025440
:10260000000E0354A6C5B3FFA5C5B2FF09D16F5193
:102610006E5DD8A4A0D06E51040DF350036A0E0F66
:10262000E96E050E0320EA6EEFCF00F0ECCF01F06B
:10263000ECCF02F0ECCF03F064510026655101228B
:10264000000E022203220050625D64E10150635DCE
:1026500061E102525FE103525DE16E51040DF350FE
:10266000036A0E0FE96E050E0320EA6EEFCF00F04D
:10267000ECCF01F0ECCF02F0ECCF03F0005064257A
:10268000A56F01506521A66F000E0220A76F000EF6
:102690000320A86F010E6E5D040DF350036A0E0F48
:1026A000E96E050E0320EA6EEFCF00F0ECCF01F0EB
:1026B000ECCF02F0ECCF03F00050A5256A6F01507B
:1026C000A6216B6F0250A7216C6F0350A8216D6F7C
:1026D0006E076E51040DF350036ABE0FE96E040ECF
:1026E0000320EA6EEFCF00F0ECCF01F0ECCF02F068
:1026F000ECCF03F0FF0ED8800054A56FFF0E0154FD
:10270000A66F000E0254000E0354A6C5B3FFA5C564
:10271000B2FF20D06E51040DF350036ABE0FE96E74
:10272000040E0320EA6EEFCF00F0ECCF01F0ECCF07
:1027300002F0ECCF03F0FF0ED8800054A56FFF0E1F
:102740000154A66F000E0254000E0354A6C5B3FF39
:10275000A5C5B2FF65D06A51625D42E16B51635D10
:102760003FE16C533DE16D533BE16E076E51040D4B
:10277000F350036A0E0FE96E050E0320EA6EEFCFE9
:1027800000F0ECCF01F0ECCF02F0ECCF03F0005002
:102790006A2701506B2302506C2303506D236E5146
:1027A000040DF350036ABE0FE96E040E0320EA6EB7
:1027B000EFCF00F0ECCF01F0ECCF02F0ECCF03F064
:1027C000FF0ED8800054A56FFF0E0154A66F000EB7
:1027D0000254000E0354A6C5B3FFA5C5B2FF20D016
:1027E0006E51040DF350036ABE0FE96E040E032010
:1027F000EA6EEFCF00F0ECCF01F0ECCF02F0ECCFBF
:1028000003F0FF0ED8800054A56FFF0E0154A66F91
:10281000000E0254000E0354A6C5B3FFA5C5B2FFB7
:10282000000144EF14F005016151010A000105E0C7
:10283000020A24E0010A32E042D096948D7403012A
:10284000B7790001A0DD05016851625D16E16951AB
:10285000635D13E1D8905E35026E5F35036E02C092
:1028600001F00350675D07E303E16651015C03E299
:10287000020E616F02D0030E616F25D096948D74A5
:102880000301B77900019FD605016651625D05E13C
:102890006751635D02E1040E616F15D096948D74EB
:1028A0000301B77900016FDD05016451625D05E147
:1028B0006551635D02E1030E616F05D00001050102
:1028C000616BA0922D96615310E00301B7A90ED061
:1028D000036A05016051E8BE0306020107270350A1
:1028E00008230501622BD8B4632B030100017EEF9E
:1028F00014F02DA402D0DFD401D095D7A1923CEFE3
:1029000000F0C69E9E9697C5C9FF020EC6BE05D0B2
:102910009EA6FED7000EC5BC010E016E1200C5803A
:10292000C5B0FED7D89005018B3540098D6F976FE4
:102930000001E7DF01502D9801B02D888CC597F577
:10294000E0DF01502D9801B02D88C584C5B4FED7B5
:102950002D781200050EEA6E910EE96EEF500DE033
:10296000060E016E006A002EFED7012EFBD77B0EED
:10297000006E002EFED7EF2EF3D71200310E006E40
:10298000002EFED700D005018B6B8AC58CF50001A7
:10299000C6DF310E006E002EFED700D092908980E7
:1029A000310E006E002EFED700D092908990310E2D
:1029B000006E002EFED700D01200939A8A9A89C525
:1029C0008AF5DCDF120005018B6B8C690001A7DF43
:1029D00092908990939A8A8A0F0E0501916F000157
:1029E000B9DF380E0501896F0001E7DF0F0E050121
:1029F000916F0001AFDF0C0E0501896F0001DDDF73
:102A00000F0E0501916F0001A5DF060E0501896F0C
:102A10000001D3DF0F0E0501916F00019BDF010E56
:102A20000101FF6F0201006F0001F5EF6CF0C5803E
:102A3000C5B0FED7D890050192354009966F976FC3
:102A400000015FDF01502D9801B02D8893C597F5E7
:102A500058DF01502D9801B02D8895C597F551DFAD
:102A600001502D9801B02D8894C597F54ADF01508B
:102A70002D9801B02D88C584C5B4FED72D781200DD
:102A8000010E0501926F060E936F9469F80E956F13
:102A90000001CDDF010E0501926F020E936F946B62
:102AA000070E956F0001C3DFF7EF6CF0030E050111
:102AB000926F060E936F946995690001B8DFF9EF84
:102AC0006CF0020E0501926F060E936F946B956B7E
:102AD0000001ADDFFBEF6CF002010269016901C288
:102AE00074F5050102C275F50501020E926F936F30
:102AF00075C594F574C595F5000199DFFDEF6CF08F
:102B0000F29CF29EF2BEFDD7C580C5B0FED7A00EE6
:102B10000501976F0001F5DE01502D9801B02D8859
:102B200080C583F50501846B80C597F50001E9DE5A
:102B300001502D9801B02D887FC597F5E2DE015038
:102B40002D9801B02D8881C597F5DBDE01502D98B9
:102B500001B02D88C584C5B4FED72D78050E0501BA
:102B6000916F0001F7DEC00EF2121200010E050196
:102B7000896F000122DF050E0501916F0001EADE79
:102B8000120087C5FFF186C500F20501862D03D02E
:102B9000010E875D886F8651020804E1400E87258B
:102BA000FF0F886F8651030804E1140E8725FF0F7D
:102BB000886F8651040804E1540E8725FF0F886F43
:102BC000888F88C589F50001F8DEA60E006E002EFC
:102BD000FED700001200939A8A8A86C58AF5CEDE57
:102BE00012000900F5520CE0F6CF75F5F7CF76F537
:102BF000F5CF86F5F0DF75C5F6FF76C5F7FFF1D79F
:102C00001200C69CC586C5B6FED700B0C59A00A006
:102C1000C58AC588C5B8FED7C9CF01F01200F29C9D
:102C2000F29EF2BEFDD7C580C5B0FED7A00E05014D
:102C3000976F000166DE85C588F50501896B85C53E
:102C400097F500015EDE84C597F55BDEC582C5B2EF
:102C5000FED7A10E0501976F000153DE006AD1DF98
:102C60000501876B01C086F5C584C5B4FED72D78F4
:102C7000050E916F00016EDEC00EF212050186C5D1
:102C800001F087C502F000011200948694880501C6
:102C9000806B7F69826BAA0E816F000131DF2DB8D6
:102CA00019D064DF010E0501866F876F000169DFAF
:102CB000BA0EF66E000EF76E94DF020E0501866FF7
:102CC000010E876F00015DDFCC0EF66E000EF76E11
:102CD00088DFFFD7050E0501916F00013BDE05017E
:102CE000856B846900019BDF01C074F50501745197
:102CF000AA081BE000013ADF010E0501866F876F0D
:102D000000013FDFDE0EF66E000EF76E6ADF020E88
:102D10000501866F010E876F000133DFF00EF66E3E
:102D2000000EF76E5EDFFFD705010001FFEF6CF0CC
:102D3000050185510C0A000105E0060A0AE0070AB0
:102D400012E01BD013DF010E0201006F0101FF6FC3
:102D500018D00201002B00C286F5FFC187F50001E3
:102D600010DF01010ED000C286F5010E0501876F4C
:102D7000000107DF010105D0000185C586F52BDFC5
:102D80000101000112000900F5520CE0F6CF7CF5BC
:102D9000F7CF7DF5F5CF85F5CBDF7CC5F6FF7DC59B
:102DA000F7FFF1D712000C0E0501856F0001C0DF9F
:102DB000020EF66E010EF76EE6DF1A0EF66E010ECB
:102DC000F76EE1DF320EF66E010EF76EDCDF4A0EB3
:102DD000F66E010EF76ED7DF01EF6DF0036A010E9C
:102DE000026E05018E51006E05E0D8900236033662
:102DF000002EFBD70250020101130350021301C23F
:102E000090F5050102C291F50501020E926F936FD4
:102E100091C594F590C595F5000109DE1200036A8D
:102E2000010E026E05018E51006E05E0D89002364B
:102E30000336002EFBD70250FF0A006EFF0E031A66
:102E40000050020101170350021701C290F505015D
:102E500002C291F50501020E926F936F91C594F530
:102E600090C595F50001E3DD120005018F6B070E9B
:102E70008E6F0001B3DF05018F6B010E8E6F0001B5
:102E8000ADDF05018F6B030E8E6F0001A7DF05011B
:102E90008F6B020E8E6F0001A1DF05018F6B040E98
:102EA0008E6F00019BDF05018F6B080E8E6F000196
:102EB00095DF05018F6B090E8E6F00018FDF050115
:102EC0008F6B050E8E6F0001AADF05018F6B0F0E51
:102ED0008E6F0001A4DF080E0501746FE10E916F83
:102EE000000138DD0501742FF9D78F6B050E8E6F49
:102EF000000174DF05018F6B0F0E8E6F00016EDF16
:102F000012000C0E0501856F000112DF620EF66ED5
:102F1000010EF76E38DF780EF66E010EF76E33DFB6
:102F200005EF6DF005018F51D8B471D0006E93514B
:102F3000D8B46DD0002604E3810E002668E204D0E8
:102F40007F0E005E64E363E090C597F59451971B94
:102F5000908F948F92519603F4CF99F591519503E8
:102F6000F4CF03F0F3CF98F59603F3509927F4507C
:102F70009823000E032292519503F3509927F450A1
:102F80009823000E026A0322022290519603F35006
:102F90009827F4500322000E022290519503F3501B
:102FA0000326F4500222000E016A0122925194037A
:102FB000F3509827F4500322000E0222012291516F
:102FC0009403F3500326F4500222000E0122905184
:102FD0009403F3500226F4500122002A01BE05D0CA
:102FE00098370336023601360006000E98AF0AD035
:102FF000032A02220122015005E1025003E103509D
:1030000001E1002A97BF018E97AF019E04D0006AAC
:10301000016A026A036A0001120005019551D8B4E1
:10302000A5D0A16F9951D8B4A1D0A15F05E37F0EBF
:10303000A127D8B09BD006D0810EA15FD8A096D092
:10304000D8B494D0A1C500F0016A026A036AA06BEB
:1030500096C59FF59F8F97C59EF598C59DF5190E4E
:10306000A16F9C519D5F0DE2010E9E5F0AE29F5F82
:1030700008E2A05F06E2A02B9F2B9E2B9C519D2770
:1030800028D09B519E5F12E2010E9F5F0FE2A05F6E
:103090000DE2A02B9F2B9B519E279C519D2719E34E
:1030A0009E2B17E19F2B15E1A02B13D09A5180097D
:1030B0009F5F0EE2010EA05F0BE2A02B9A518009E8
:1030C0009F279B519E27E9E39F2BE7E1A02BE5D7A4
:1030D0000380A12F01D00BD0D8909D379E379F370A
:1030E000A037D890033602360136A237BAD7A2A14C
:1030F00006D0D890013202320332A23302D0000649
:1031000035E0A2BF1ED0D8909D379E379F37A0379D
:103110009C519D5F07E2010E9E5F04E29F5F02E209
:10312000A05F1AE39B519E5F05E2010E9F5F02E2E2
:10313000A05F12E39A5180099F5F03E2010EA05F36
:103140000BE3032A09E1022A07E1012A05E1002A2B
:103150000DE001320232033296C5A1F59A51A11B4E
:10316000A1AF02D0018E06D0019E04D0006A016A90
:10317000026A036A000112008E0E006E90C501F013
:103180008FC502F0036A015209E102C001F0026A30
:10319000080E005E015202E1006A08D0D89001BE1C
:1031A00004D0023601360006F9D7019E1200800EC7
:1031B000D8A202D005019A1B05019F6BA06B96C592
:1031C0009EF59A519E1B9551D8B4DFD09D6F006E2D
:1031D0009951D8B4E3D09D5FD8B483D03EE39AC56B
:1031E000A3F5A38F9BC5A2F59CC5A1F5A06BD890B4
:1031F000A333A233A133A0339D2FF8D79EAF03D0C2
:103200009F81E0D09F919D919F89050EEA6E980E57
:10321000E96EEBD09F999EBF0AD09DA113D0A33336
:10322000A233A133A033002AD8B4C7D00BD0A3BF98
:103230000CD0D890A037A137A237A3370006D8B456
:10324000BCD0F5D79F8D6DD09F9D96C59EF596AF4E
:1032500002D0A38FABD0A39FA9D099C59DF599C5E6
:1032600000F095519D5F96C5A3F5A38F97C5A2F574
:1032700098C5A1F5A06BD890A333A233A133A03396
:103280009D2FF8D79EAF03D09F839CD09F939D9195
:103290009F8B050EEA6E9C0EE96EA7D09F9B9EBF8A
:1032A0000AD09DA113D0A333A233A133A033002AA7
:1032B000D8B483D00BD0A3BF0CD0D890A037A137FF
:1032C000A237A3370006D8B478D0F5D79F8F29D07E
:1032D0009F9F9AC59EF59AAF02D0A38F67D0A39FF8
:1032E00065D09AC5A3F5A38F9BC5A2F59CC5A1F592
:1032F0009EAF04D0A39F9F8565D09F95A06B9D91A5
:10330000050EEA6E980EE96E70D09EBF1CD096C571
:103310009EF59DA106D0A333A233A133A033002A8A
:103320004CE0A0AF0BD0A12B09E1A22B07E1A32B0E
:1033300005E1A333A233A133002A3FE09FBD84D728
:103340009FBFC6D71CD0800EA31BA3AF04D03AD01A
:103350009AC59EF50AD096C59EF5A35306E1A253E1
:1033600004E1A15302E1006A21D0A3BF08D0D890A4
:10337000A037A137A237A337002EF7D71ED09EAFB4
:1033800002D0A38F13D0A39F11D099C500F09AC586
:10339000A3F59BC5A2F59CC5A1F508D095C500F085
:1033A00096C5A3F597C5A2F598C5A1F5A3C501F0EB
:1033B000A2C502F0A1C503F034D0006A016A026A16
:1033C000036A2FD0A06BA11FA21FA31FA01FA02BB9
:1033D00005E1A12B03E1A22B01E1A32B9FB112D7A1
:1033E0009FB354D79FB589D7B3D7EF50A12705E333
:1033F000A22B03E1A32BD8B49D81ED52EF50A2275D
:1034000003E3A32BD8B49D81ED52EF50EFBE01D062
:10341000800AA327D8B09D819FB9FCD69FBB3ED719
:1034200074D70001120005018D6B8E6B010E8F6F3A
:10343000DA6AD96A050E926F850E916F050EEA6EF3
:10344000890EE96E92C5E2FF91C5E1FF8FC590F547
:10345000D890E550EE02F3508D23F4508E23902F38
:10346000F7D78DC5DEFF8EC58DF58E6BD8B08E2B50
:10347000912BD8B4922B8F2B8F510508DFE10001DF
:103480001200B60E006E036A026A016A05019551C8
:1034900096119711981102E1006A0DD0D89001BEE3
:1034A00009D0953796379737983703360236013665
:1034B000002EF4D7019E0001120005019551B608B7
:1034C000956F036A96C599F5968FD8909633973382
:1034D00098330332023201320032952FF6D799AF7A
:1034E0000BD0001E011E021E031E002AD8B4012AA2
:1034F000D8B4022AD8B4032A00011200F80E956E3F
:1035000095948C8495908C8095928C8212C292F5C1
:1035100011C291F510C290F50FC28FF516C296F543
:1035200015C295F514C294F513C293F5FBDC03C0E4
:1035300084F502C083F501C082F500C081F503C0A7
:1035400092F502C091F501C090F500C08FF51AC246
:1035500096F519C295F518C294F517C293F5E2DCF9
:103560001EC298F51DC297F51CC296F51BC295F5B3
:1035700003C09CF502C09BF501C09AF500C099F507
:103580004CDD03C02EF202C02DF201C02CF200C0AF
:103590002BF222C298F521C297F520C296F51FC2E0
:1035A00095F52EC29CF52DC29BF52CC29AF52BC227
:1035B00099F533DD03C033F202C032F201C031F2BB
:1035C00000C030F20501906B2FC28FF50001D4DDF1
:1035D0002AC292F529C291F528C290F527C28FF52B
:1035E00003C096F502C095F501C094F500C093F5AF
:1035F00099DC03C077F502C076F501C075F500C00F
:1036000074F5D88222C298F521C297F520C296F5AA
:103610001FC295F526C29CF525C29BF524C29AF5DA
:1036200023C299F5C4DD03C084F502C083F501C04F
:1036300082F500C081F503C092F502C091F501C08A
:1036400090F500C08FF50501966B240E956F740EF2
:10365000946F920E936F000165DC03C07BF502C08E
:103660007AF501C079F500C078F57BC598F57AC583
:1036700097F579C596F578C595F577C59CF576C526
:103680009BF575C59AF574C599F5C7DC03C07FF540
:1036900002C07EF501C07DF500C07CF50501806BA0
:1036A000010E806F805102012F5DD8A091D1010ED3
:1036B0000501805D040DF350036A380FE96E020EB8
:1036C0000320EA6EEACF84F5E9CF83F5886B0F0E0D
:1036D000876F420E866F400E856F8C6B8B6B8A6B8B
:1036E0002FC289F500019FDE84C5EAFF83C5E9FF8B
:1036F00003C088F502C087F501C086F500C085F5D6
:10370000EACF8AF5E9CF89F5D88233C298F532C27B
:1037100097F531C296F530C295F537C29CF536C2A1
:103720009BF535C29AF534C299F541DD8AC5EAFFA9
:1037300089C5E9FF03C08EF502C08DF501C08CF587
:1037400000C08BF50501906B80C58FF5000114DD7D
:1037500003C092F502C091F501C090F500C08FF54D
:103760008EC596F58DC595F58CC594F58BC593F5ED
:1037700092EC17F003C092F502C091F501C090F5EC
:1037800000C08FF5EACF94F5E9CF93F5D89203C046
:1037900098F502C097F501C096F500C095F537C2BF
:1037A0009CF536C29BF535C29AF534C299F5FFDC1B
:1037B00094C5EAFF93C5E9FF03C092F502C091F5F5
:1037C00001C090F500C08FF588C598F587C597F5BD
:1037D00086C596F585C595F554DE03C098F502C0FB
:1037E00097F501C096F500C095F592C59CF591C579
:1037F0009BF590C59AF58FC599F50FDC03C098F538
:1038000002C097F501C096F500C095F556DE00C0E0
:10381000EFFF01C0ECFF02C0ECFF03C0ECFF010EA4
:103820000501805D040DF350036A880F016E020EDE
:10383000032201C081F503C082F5926B916B906BFE
:10384000800E8F6F7FC596F57EC595F57DC594F585
:103850007CC593F5000192EC17F003C086F502C019
:1038600085F501C084F500C083F5010E0501805D7A
:10387000040DF350036A380FE96E020E0320EA6E5E
:10388000EFCF00F0ECCF01F0ECCF02F0ECCF03F083
:1038900003C098F502C097F501C096F500C095F5F4
:1038A0000001EFDD86C598F585C597F584C596F5C9
:1038B00083C595F503C09CF502C09BF501C09AF540
:1038C00000C099F50DEC18F003C098F502C097F50B
:1038D00001C096F500C095F5F0DD82C5EAFF81C50F
:1038E000E9FF00C0EFFF01C0ECFF02C0ECFF03C026
:1038F000ECFF010E0501805D040DF350036A880F93
:10390000E96E020E0320EA6EEFCF00F0ECCF01F07B
:10391000ECCF02F0ECCF03F000500201D8270150A9
:10392000D923010E0501805D040DF350036A380FA1
:10393000016E020E032201C081F503C082F5010E63
:10394000805D040DF350036A380FE96E020E032008
:10395000EA6EEFCF83F5ECCF84F5ECCF85F5ECCFB5
:1039600086F586C598F585C597F584C596F583C512
:1039700095F5000186DD03C098F502C097F501C0FA
:1039800096F500C095F5CD0E05019C6FCC0E9B6F92
:103990004C0E9A6F800E996F00010DEC18F003C069
:1039A00098F502C097F501C096F500C095F585DD44
:1039B00082C5EAFF81C5E9FF00C0EFFF01C0ECFF4F
:1039C00002C0ECFF03C0ECFF0501802B6BD60201A7
:1039D000000107EF6DF0F80E946E94948B84949030
:1039E0008B8094928B82EDC292F5ECC291F5EBC282
:1039F00090F5EAC28FF5F1C296F5F0C295F5EFC2E7
:103A000094F5EEC293F592EC17F003C084F502C072
:103A100083F501C082F500C081F503C092F502C0B4
:103A200091F501C090F500C08FF5F5C296F5F4C28E
:103A300095F5F3C294F5F2C293F592EC17F0F9C242
:103A400098F5F8C297F5F7C296F5F6C295F503C05A
:103A50009CF502C09BF501C09AF500C099F50DECEC
:103A600018F003C009F302C008F301C007F300C057
:103A700006F3FDC298F5FCC297F5FBC296F5FAC2B3
:103A800095F509C39CF508C39BF507C39AF506C3D2
:103A900099F50DEC18F003C00EF302C00DF301C050
:103AA0000CF300C00BF30501906B0AC38FF5000106
:103AB000BCEC18F005C392F504C391F503C390F56F
:103AC00002C38FF503C096F502C095F501C094F5C9
:103AD00000C093F592EC17F003C077F502C076F5BD
:103AE00001C075F500C074F5D882FDC298F5FCC21E
:103AF00097F5FBC296F5FAC295F501C39CF500C394
:103B00009BF5FFC29AF5FEC299F5D7EC18F003C0F9
:103B100084F502C083F501C082F500C081F503C0C1
:103B200092F502C091F501C090F500C08FF5050136
:103B3000966B240E956F740E946F920E936F000126
:103B400092EC17F003C07BF502C07AF501C079F55D
:103B500000C078F57BC598F57AC597F579C596F5D7
:103B600078C595F577C59CF576C59BF575C59AF52D
:103B700074C599F50DEC18F003C07FF502C07EF511
:103B800001C07DF500C07CF50501806B010E806FE2
:103B9000805103010A5DD8A09BD1010E0501805D13
:103BA000040DF350036A130FE96E030E0320EA6E4F
:103BB000EACF84F5E9CF83F5886B0F0E876F420E4D
:103BC000866F400E856F8C6B8B6B8A6B0AC389F591
:103BD000000129DC84C5EAFF83C5E9FF03C088F53D
:103BE00002C087F501C086F500C085F5EACF8AF5E9
:103BF000E9CF89F5D8820EC398F50DC397F50CC3AC
:103C000096F50BC395F512C39CF511C39BF510C334
:103C10009AF50FC399F5D7EC18F08AC5EAFF89C564
:103C2000E9FF03C08EF502C08DF501C08CF500C020
:103C30008BF50501906B80C58FF50001BCEC18F089
:103C400003C092F502C091F501C090F500C08FF558
:103C50008EC596F58DC595F58CC594F58BC593F5F8
:103C600092EC17F003C092F502C091F501C090F5F7
:103C700000C08FF5EACF94F5E9CF93F5D89203C051
:103C800098F502C097F501C096F500C095F512C3EE
:103C90009CF511C39BF510C39AF50FC399F5D7ECAA
:103CA00018F094C5EAFF93C5E9FF03C092F502C07E
:103CB00091F501C090F500C08FF588C598F587C5CE
:103CC00097F586C596F585C595F541EC1AF003C0C4
:103CD00098F502C097F501C096F500C095F592C51C
:103CE0009CF591C59BF590C59AF58FC599F50DEC9E
:103CF00018F003C098F502C097F501C096F500C012
:103D000095F55DEC1AF000C0EFFF01C0ECFF02C0BA
:103D1000ECFF03C0ECFF010E0501805D040DF350C4
:103D2000036A630F016E030E032201C081F503C015
:103D300082F5926B916B906B800E8F6F7FC596F5BD
:103D40007EC595F57DC594F57CC593F5000192EC93
:103D500017F003C086F502C085F501C084F500C0E8
:103D600083F5010E0501805D040DF350036A130F06
:103D7000E96E030E0320EA6EEFCF00F0ECCF01F006
:103D8000ECCF02F0ECCF03F003C098F502C097F53A
:103D900001C096F500C095F5000141EC1AF086C50A
:103DA00098F585C597F584C596F583C595F503C047
:103DB0009CF502C09BF501C09AF500C099F50DEC89
:103DC00018F003C098F502C097F501C096F500C041
:103DD00095F55DEC1AF082C5EAFF81C5E9FF00C0E8
:103DE000EFFF01C0ECFF02C0ECFF03C0ECFF010ECF
:103DF0000501805D040DF350036A630FE96E030E45
:103E00000320EA6EEFCF00F0ECCF01F0ECCF02F030
:103E1000ECCF03F000500301B3270150B423010E8F
:103E20000501805D040DF350036A130F016E030E4C
:103E3000032201C081F503C082F5010E805D040DEF
:103E4000F350036A130FE96E030E0320EA6EEFCFFF
:103E500083F5ECCF84F5ECCF85F5ECCF86F586C500
:103E600098F585C597F584C596F583C595F5000148
:103E700041EC1AF003C098F502C097F501C096F521
:103E800000C095F5CD0E05019C6FCC0E9B6F4C0EBE
:103E90009A6F800E996F00010DEC18F003C098F531
:103EA00002C097F501C096F500C095F55DEC1AF0DB
:103EB00082C5EAFF81C5E9FF00C0EFFF01C0ECFF4A
:103EC00002C0ECFF03C0ECFF0501802B61D60301AB
:103ED000000109EF6DF0000E926E929A898A929617
:103EE000898692988988CBC392F5CAC391F5C9C3D4
:103EF00090F5C8C38FF5CFC396F5CEC395F5CDC366
:103F000094F5CCC393F592EC17F003C084F502C08E
:103F100083F501C082F500C081F503C092F502C0AF
:103F200091F501C090F500C08FF5D3C396F5D2C3CB
:103F300095F5D1C394F5D0C393F592EC17F0D7C3A0
:103F400098F5D6C397F5D5C396F5D4C395F503C0B8
:103F50009CF502C09BF501C09AF500C099F50DECE7
:103F600018F003C0E3F302C0E2F301C0E1F300C0C4
:103F7000E0F3DBC398F5DAC397F5D9C396F5D8C358
:103F800095F5E3C39CF5E2C39BF5E1C39AF5E0C365
:103F900099F50DEC18F003C0E8F302C0E7F301C097
:103FA000E6F300C0E5F30501906BE4C38FF5000173
:103FB000BCEC18F0DFC392F5DEC391F5DDC390F5DC
:103FC000DCC38FF503C096F502C095F501C094F5EA
:103FD00000C093F592EC17F003C077F502C076F5B8
:103FE00001C075F500C074F5DBC392F5DAC391F535
:103FF000D9C390F5D8C38FF50501966B240E956F44
:10400000740E946F920E936F000192EC17F003C040
:104010007BF502C07AF501C079F500C078F57BC563
:1040200098F57AC597F579C596F578C595F577C56C
:104030009CF576C59BF575C59AF574C599F50DEC9B
:1040400018F003C07FF502C07EF501C07DF500C009
:104050007CF50501806B010E806F80510301E45DEA
:10406000D8A056D1010E0501805D040DF350036AFE
:10407000E90FE96E030E0320EA6EEACF84F5E9CF7B
:1040800083F5886B0F0E876F420E866F400E856F2B
:104090008C6B8B6B8A6BE4C389F5000113EC1AF00F
:1040A00084C5EAFF83C5E9FF03C088F502C087F530
:1040B00001C086F500C085F50501906B80C58FF5C0
:1040C0000001BCEC18F003C092F502C091F501C0EC
:1040D00090F500C08FF5E8C396F5E7C395F5E6C304
:1040E00094F5E5C393F592EC17F003C08CF502C08C
:1040F0008BF501C08AF500C089F588C598F587C59C
:1041000097F586C596F585C595F541EC1AF003C07F
:1041100098F502C097F501C096F500C095F58CC5DD
:104120009CF58BC59BF58AC59AF589C599F50DEC6B
:1041300018F003C098F502C097F501C096F500C0CD
:1041400095F55DEC1AF000C0EFFF01C0ECFF02C076
:10415000ECFF03C0ECFF010E0501805D040DF35080
:10416000036A390F016E040E032201C081F503C0FA
:1041700082F5926B916B906B800E8F6F7FC596F579
:104180007EC595F57DC594F57CC593F5000192EC4F
:1041900017F003C086F502C085F501C084F500C0A4
:1041A00083F5010E0501805D040DF350036AE90FEC
:1041B000E96E030E0320EA6EEFCF00F0ECCF01F0C2
:1041C000ECCF02F0ECCF03F003C098F502C097F5F6
:1041D00001C096F500C095F5000141EC1AF086C5C6
:1041E00098F585C597F584C596F583C595F503C003
:1041F0009CF502C09BF501C09AF500C099F50DEC45
:1042000018F003C098F502C097F501C096F500C0FC
:1042100095F55DEC1AF082C5EAFF81C5E9FF00C0A3
:10422000EFFF01C0ECFF02C0ECFF03C0ECFF010E8A
:104230000501805D040DF350036A390FE96E040E29
:104240000320EA6EEFCF00F0ECCF01F0ECCF02F0EC
:10425000ECCF03F000500401892701508A23010E9E
:104260000501805D040DF350036AE90F016E030E32
:10427000032201C081F503C082F5010E805D040DAB
:10428000F350036AE90FE96E030E0320EA6EEFCFE5
:1042900083F5ECCF84F5ECCF85F5ECCF86F586C5BC
:1042A00098F585C597F584C596F583C595F5000104
:1042B00041EC1AF003C098F502C097F501C096F5DD
:1042C00000C095F5CD0E05019C6FCC0E9B6F4C0E7A
:1042D0009A6F800E996F00010DEC18F003C098F5ED
:1042E00002C097F501C096F500C095F55DEC1AF097
:1042F00082C5EAFF81C5E9FF00C0EFFF01C0ECFF06
:1043000002C0ECFF03C0ECFF0501802BA6D6030121
:1043100000010BEF6DF0000E926E96948D849690D6
:104320008D8096928D82A0C492F59FC491F59EC413
:1043300090F59DC48FF5A4C496F5A3C495F5A2C4C9
:1043400094F5A1C493F592EC17F003C084F502C074
:1043500083F501C082F500C081F503C092F502C06B
:1043600091F501C090F500C08FF5A8C496F5A7C4DB
:1043700095F5A6C494F5A5C493F592EC17F0ACC4DA
:1043800098F5ABC497F5AAC496F5A9C495F503C0F2
:104390009CF502C09BF501C09AF500C099F50DECA3
:1043A00018F003C0B8F402C0B7F401C0B6F400C0FE
:1043B000B5F4B0C498F5AFC497F5AEC496F5ADC4E6
:1043C00095F5B8C49CF5B7C49BF5B6C49AF5B5C4C9
:1043D00099F50DEC18F003C0BDF402C0BCF401C0A7
:1043E000BBF400C0BAF40501906BB9C48FF50001AD
:1043F000BCEC18F0B4C492F5B3C491F5B2C490F516
:10440000B1C48FF503C096F502C095F501C094F5CF
:1044100000C093F592EC17F003C077F502C076F573
:1044200001C075F500C074F5B0C492F5AFC491F544
:10443000AEC490F5ADC48FF50501966B240E956F53
:10444000740E946F920E936F000192EC17F003C0FC
:104450007BF502C07AF501C079F500C078F57BC51F
:1044600098F57AC597F579C596F578C595F577C528
:104470009CF576C59BF575C59AF574C599F50DEC57
:1044800018F003C07FF502C07EF501C07DF500C0C5
:104490007CF50501806B010E806F80510401B95DD0
:1044A000D8A054D1010E0501805D040DF350036ABC
:1044B000BE0FE96E040E0320EA6EEACF84F5E9CF61
:1044C00083F5886B0F0E876F420E866F400E856FE7
:1044D0008C6B8B6B8A6BB9C489F5000113EC1AF0F5
:1044E00084C5EAFF83C5E9FF03C088F502C087F5EC
:1044F00001C086F500C085F50501906B80C58FF57C
:104500000001BCEC18F003C092F502C091F501C0A7
:1045100090F500C08FF5BDC496F5BCC495F5BBC43D
:1045200094F5BAC493F592EC17F003C08CF502C071
:104530008BF501C08AF500C089F588C598F587C557
:1045400097F586C596F585C595F541EC1AF003C03B
:1045500098F502C097F501C096F500C095F58CC599
:104560009CF58BC59BF58AC59AF589C599F50DEC27
:1045700018F003C098F502C097F501C096F500C089
:1045800095F55DEC1AF000C0EFFF01C0ECFF02C032
:10459000ECFF03C0ECFF010E0501805D040DF3503C
:1045A000036A0E0F016E050E032201C081F503C0E0
:1045B00082F5926B916B906B800E8F6F7FC596F535
:1045C0007EC595F57DC594F57CC593F5000192EC0B
:1045D00017F003C086F502C085F501C084F500C060
:1045E00083F5010E0501805D040DF350036ABE0FD3
:1045F000E96E040E0320EA6EEFCF00F0ECCF01F07D
:10460000ECCF02F0ECCF03F003C098F502C097F5B1
:1046100001C096F500C095F5000141EC1AF086C581
:1046200098F585C597F584C596F583C595F503C0BE
:104630009CF502C09BF501C09AF500C099F50DEC00
:1046400018F003C098F502C097F501C096F500C0B8
:1046500095F55DEC1AF082C5EAFF81C5E9FF00C05F
:10466000EFFF01C0ECFF02C0ECFF03C0ECFF010E46
:104670000501805D040DF350036A0E0FE96E050E0F
:104680000320EA6EEFCF00F0ECCF01F0ECCF02F0A8
:10469000ECCF03F000505E2701505F23010E805DD8
:1046A000040DF350036ABE0F016E040E032201C015
:1046B00081F503C082F5010E805D040DF350036A9D
:1046C000BE0FE96E040E0320EA6EEFCF83F5ECCF48
:1046D00084F5ECCF85F5ECCF86F586C598F585C5D4
:1046E00097F584C596F583C595F5000141EC1AF060
:1046F00003C098F502C097F501C096F500C095F586
:10470000CD0E05019C6FCC0E9B6F4C0E9A6F800EE8
:10471000996F00010DEC18F003C098F502C097F5F1
:1047200001C096F500C095F55DEC1AF082C5EAFF70
:1047300081C5E9FF00C0EFFF01C0ECFF02C0ECFF44
:1047400003C0ECFF0501802BA8D6040100010DEF8A
:104750006DF005017851FA0F2DE2060F0001DCEF34
:1047600023F095988C98949E8B9E949C8B9C05012D
:1047700021D095988C88949E8B9E949C8B9C05014F
:1047800019D095988C98949E8B8E949C8B9C050147
:1047900011D095988C88949E8B8E949C8B9C05014F
:1047A00009D095988C98949E8B9E949C8B8C050137
:1047B00001D0050100011200F2CF0DF0F29EE824B5
:1047C000F76AF736DD0FF66E470EF7220A00F5504E
:1047D000FA6E0800F5500DBEF28EF96E6247724710
:1047E000B24782479247A24705017851FA0FD8B0E5
:1047F00087D0060F000182EF24F00C0E0501856FB3
:10480000000198EC16F08E0EF66E010EF76EC3ECFA
:1048100016F0A60EF66E010EF76EC3EC16F0BE0E85
:10482000F66E010EF76EC3EC16F0050169D00C0EA2
:104830000501856F000198EC16F0D60EF66E010E9C
:10484000F76EC3EC16F0EE0EF66E010EF76EC3ECCB
:1048500016F0060EF66E020EF76EC3EC16F00501AA
:104860004FD00C0E0501856F000198EC16F01E0E5E
:10487000F66E020EF76EC3EC16F0360EF66E020EF2
:10488000F76EC3EC16F04E0EF66E020EF76EC3EC2A
:1048900016F0050135D00C0E0501856F000198EC6E
:1048A00016F0640EF66E020EF76EC3EC16F07C0E78
:1048B000F66E020EF76EC3EC16F0940EF66E020E54
:1048C000F76EC3EC16F005011BD00C0E0501856FC9
:1048D000000198EC16F0AC0EF66E020EF76EC3EC0B
:1048E00016F0C40EF66E020EF76EC3EC16F0DC0E78
:1048F000F66E020EF76EC3EC16F0050101D005014D
:1049000000011200F2CF0DF0F29EE824F76AF736AC
:10491000290FF66E490EF7220A00F550FA6E0800CC
:10492000F5500DBEF28EF96EFA472E48FE486248E9
:104930009648CA489296899648EF26F00501886BFA
:10494000876B896BC580C5B0FED7D8908535400987
:104950008A6F976F000181EC14F001502D9801B01F
:104960002D8886C597F581EC14F001502D9801B083
:104970002D88C582C5B2FED7D8900501853541097D
:104980008A6F976F000181EC14F001502D9801B0EF
:104990002D88010E006E01EC16F001C089F5006A49
:1049A00001EC16F001C088F50501876BC584C5B41C
:1049B000FED72D788951871387C501F088C502F08D
:1049C00000011200C580C5B0FED7D89005017D3525
:1049D00071097F6F976F000181EC14F0006A01ECA0
:1049E00016F001C07EF5C584C5B4FED72D7805014B
:1049F0007EC501F0000148EF25F005017B6B7A6B65
:104A00007C6B78510F083AE3030E856F866B0001CB
:104A100095DF02C07BF501C07AF57BC503F0050187
:104A20007AC502F07851006E05E0D8900332023268
:104A3000002EFBD7025002B01DD0310E006E002EAA
:104A4000FED700D07BC503F07AC502F07851006E26
:104A500005E0D89003320232002EFBD7025002B09C
:104A600004D07981010E016ECED07991000E016ED5
:104A7000CAD004D07991000E016EC5D078510F08CC
:104A800038E27851170835E3040E7D6F00019AD79C
:104A900001C07CF5100E0501785D7D6F7CC500F0CE
:104AA0007D51016E04E0D8900032012EFCD700B099
:104AB0001CD0310E006E002EFED700D0100E785D97
:104AC0007D6F7CC500F07D51016E04E0D89000320E
:104AD000012EFCD700B004D07981010E016E93D075
:104AE0007991000E016E8FD004D07991000E016E85
:104AF0008AD078511708D8B086D078511B08D8A032
:104B000082D0180E785DFC0FD8B07DD0040F000164
:104B100005EF26F0938081B013D0310E006E002E89
:104B2000FED700D0938081B00AD005017981010EB3
:104B3000016E69D07991000E016E65D0000106D03A
:104B400005017991000E016E5ED0000105015BD078
:104B5000938281B213D0310E006E002EFED700D0AA
:104B6000938281B20AD005017981010E016E4BD08A
:104B70007991000E016E47D0000106D005017991B0
:104B8000000E016E40D0000105013DD0938681B634
:104B900013D0310E006E002EFED700D0938681B662
:104BA0000AD005017981010E016E2DD07991000E98
:104BB000016E29D0000106D005017991000E016E29
:104BC00022D0000105011FD0938881B813D0310E87
:104BD000006E002EFED700D0938881B80AD0050160
:104BE0007981010E016E0FD07991000E016E0BD00C
:104BF000000106D005017991000E016E04D000017C
:104C0000050101D0050100011200F2CF0DF0F29E66
:104C1000E824F76AF7362F0FF66E4C0EF7220A00DB
:104C2000F550FA6E0800F5500DBEF28EF96E144B79
:104C3000504B8C4BC84B02010B930B859298898883
:104C400000011200929A898A100E006E002EFED783
:104C50000000929A899A02010BA504D0092BD8B4BE
:104C60000A2B08D0095302E10A5304E00951D8B4D1
:104C70000A0709070001120002010B830B959298A5
:104C800089980001120092968996C0EF26F052D6BC
:104C9000320E0501916F0001AAEC14F00D0E050112
:104CA000786F0001AADE012C40D0C5DF320E05016D
:104CB000916F0001AAEC14F00501766B7651320871
:104CC0000BE30001BFDF020E0501916F0001AAECAA
:104CD00014F00501762BF2D70001CEDF320E05016C
:104CE000916F0001AAEC14F00D0E0501786F000120
:104CF00084DE015208E1A6DF020E0501916F00017A
:104D0000AAEC14F0F1D70501766B765112080BE38B
:104D1000000198DF020E0501916F0001AAEC14F06A
:104D20000501762BF2D727D00001A6DF320E050150
:104D3000916F0001AAEC14F00D0E0501786F0001CF
:104D40005CDE015208E17EDF020E0501916F000179
:104D5000AAEC14F0F1D70501766B765112080BE33B
:104D6000000170DF020E0501916F0001AAEC14F042
:104D70000501762BF2D702010A6B096B000183D77C
:104D8000120094908B9012002D8E02010B91949240
:104D90008B920001120094948B84100E006E002EF2
:104DA000FED7000094948B9402010BA104D0052B34
:104DB000D8B4062B08D0055302E1065304E0055190
:104DC000D8B406070507000112002D9E02010B81D1
:104DD00094928B820001120094908B901200D1DF8C
:104DE000320E0501916F0001AAEC14F0080E0501C6
:104DF000786F000102DE012C4FD0C6DF320E0501B4
:104E0000916F0001AAEC14F0080E0501786F000103
:104E1000F4DD012C08D0BFDF020E0501916F000107
:104E2000AAEC14F0F1D70501766B765128080BE354
:104E30000001B1DF020E0501916F0001AAEC14F030
:104E40000501762BF2D70001C0DF320E0501916F0C
:104E50000001AAEC14F0080E0501786F0001CDDD09
:104E6000015208E198DF020E0501916F0001AAECE2
:104E700014F0F1D70501766B765128080BE3000199
:104E80008ADF020E0501916F0001AAEC14F0050102
:104E9000762BF2D727D0000198DF320E0501916FF3
:104EA0000001AAEC14F0080E0501786F0001A5DDE1
:104EB000015208E170DF020E0501916F0001AAECBA
:104EC00014F0F1D70501766B765128080BE3000149
:104ED00062DF020E0501916F0001AAEC14F00501DA
:104EE000762BF2D70201066B056B000175DF12000D
:104EF00095908C9012002D8A2D9C95928C92120088
:104F000095948C84100E006E002EFED700009594B0
:104F10008C942DAC06D00201032BD8B4042B0AD0FC
:104F200000010201035302E1045304E00351D8B429
:104F300004070307000112002D9A2D8C95928C8294
:104F4000120095908C901200D3DF320E0501916F04
:104F50000001AAEC14F0060E0501786F00014DDD8A
:104F6000012C4FD0C8DF320E0501916F0001AAEC71
:104F700014F0060E0501786F00013FDD012C08D00A
:104F8000BFDF020E0501916F0001AAEC14F0F1D70A
:104F90000501766B765128080BE30001B1DF020EA4
:104FA0000501916F0001AAEC14F00501762BF2D7F0
:104FB0000001C2DF320E0501916F0001AAEC14F06E
:104FC000060E0501786F000118DD015208E198DF37
:104FD000020E0501916F0001AAEC14F0F1D7050152
:104FE000766B765128080BE300018ADF020E05017B
:104FF000916F0001AAEC14F00501762BF2D727D0AF
:1050000000019ADF320E0501916F0001AAEC14F045
:10501000060E0501786F0001F0DC015208E170DF37
:10502000020E0501916F0001AAEC14F0F1D7050101
:10503000766B765128080BE3000162DF020E050152
:10504000916F0001AAEC14F00501762BF2D7020152
:10505000046B036B000175DF120093DE320E050155
:10506000916F0001AAEC14F0070E0501786F0001A2
:10507000C4DC012C4FD0A9DE320E0501916F000176
:10508000AAEC14F0070E0501786F0001B6DC012CC4
:1050900008D081DE020E0501916F0001AAEC14F028
:1050A000F1D70501766B765128080BE3000173DE1A
:1050B000020E0501916F0001AAEC14F00501762B98
:1050C000F2D7000161DE320E0501916F0001AAECFA
:1050D00014F0070E0501786F00018FDC015208E122
:1050E0005ADE020E0501916F0001AAEC14F0F1D70F
:1050F0000501766B765128080BE300014CDE020EA9
:105100000501916F0001AAEC14F00501762BF2D78E
:1051100027D0000139DE320E0501916F0001AAECA3
:1051200014F0070E0501786F000167DC015208E1F9
:1051300032DE020E0501916F0001AAEC14F0F1D7E6
:105140000501766B765128080BE3000124DE020E80
:105150000501916F0001AAEC14F00501762BF2D73E
:105160000201066B056B000137DE120005017D515F
:10517000070B006E7D31016E013201321F0E0116E8
:1051800001507F25E96E000E8021EA6E016A012A36
:10519000002A01D00136002EFDD77E5303E00150D6
:1051A000EF1203D0011E0150EF160001120005019D
:1051B0007D51070B006E7D31016E013201321F0EF1
:1051C000011601507E25E96E000E7F21EA6EEFCFB9
:1051D00001F0002A01D00132002EFDD7000112009B
:1051E0007BC57DF5010E05017E6F0F0E806F920E5F
:1051F0007F6F0001BBDF7BC57DF50F0E05017F6F63
:10520000800E7E6F0001D3DF01A00BD005017C81F1
:10521000010E016E26D0310E006E002EFED700D09A
:1052200000017BC57DF5010E05017E6F0F0E806FBD
:10523000920E7F6F00019ADF7BC57DF50F0E050191
:105240007F6F800E7E6F0001B2DF01B00BD00501D1
:105250007C91000E016E05D0310E006E002EFED73F
:1052600000D0000112001F0E05017B6F0001B8DFA6
:1052700001C078F51E0E05017B6F0001B1DF01C092
:1052800079F51D0E05017B6F0001AADF01C07AF5DB
:1052900005017A51000A000103E0010A2DE04CD01B
:1052A00005017951000A000103E0010A12E023D050
:1052B00005017851000A000103E0010A05E008D069
:1052C00002010C6B000104D0010E02010C6F000101
:1052D00012D005017851000A000103E0010A06E03E
:1052E00009D0030E02010C6F000104D0040E02016C
:1052F0000C6F000100D020D005017951000A000197
:1053000003E0010A0FE018D005017851000A0001FE
:1053100003E0010A06E005D0050E02010C6F000152
:1053200000D00AD005017851000A000103E0010A0B
:1053300002E001D000D000D002010CC201F0000157
:105340001200D6DD320E0501916F0001AAEC14F0B7
:10535000050E0501786F0001FDEC24F0012C51D001
:10536000EBDD320E0501916F0001AAEC14F0050E81
:105370000501786F0001FDEC24F0012C08D0C0DDA0
:10538000020E0501916F0001AAEC14F0F0D705019F
:10539000766B765128080BE30001B2DD020E0501A1
:1053A000916F0001AAEC14F00501762BF2D70001F1
:1053B000A2DD320E0501916F0001AAEC14F0050E7A
:1053C0000501786F0001FDEC24F0015208E198DD41
:1053D000020E0501916F0001AAEC14F0F0D705014F
:1053E000766B765128080BE300018ADD020E050179
:1053F000916F0001AAEC14F00501762BF2D728D0AA
:10540000000179DD320E0501916F0001AAEC14F064
:10541000050E0501786F0001FDEC24F0015208E152
:105420006FDD020E0501916F0001AAEC14F0F0D7B8
:105430000501766B765128080BE3000161DD020E51
:105440000501916F0001AAEC14F00501762BF2D74B
:105450000201046B036B000174DD120096908D90C5
:105460005EEF2AF002010B870B9996928D92000154
:10547000120096948D84100E006E002EFED7000050
:1054800096948D9402010BA704D0072BD8B4082B57
:1054900008D0075302E1085304E00751D8B40807C5
:1054A00007070001120002010B970B8996928D826B
:1054B000000112000501776B0001D0D7320E050103
:1054C000916F0001AAEC14F00B0E0501786F00013A
:1054D000FDEC24F0012C48D0C5DF320E0501916FA0
:1054E0000001AAEC14F00501766B76518C080BE3F1
:1054F0000001BFDF040E0501916F0001AAEC14F05A
:105500000501762BF2D70001CEDF640E0501916F05
:105510000001AAEC14F00B0E0501786F0001FDEC00
:1055200024F0015208E1A5DF040E0501916F00018E
:10553000AAEC14F0F0D70501766B765124080BE342
:10554000000197DF040E0501916F0001AAEC14F031
:105550000501762BF2D7000185DF320E0501916F30
:105560000001AAEC14F028D09EDF320E0501916FE5
:105570000001AAEC14F00B0E0501786F0001FDECA0
:1055800024F0015208E175DF020E0501916F000160
:10559000AAEC14F0F0D70501766B765124080BE3E2
:1055A000000167DF040E0501916F0001AAEC14F001
:1055B0000501762BF2D7000155DF320E0501916F00
:1055C0000001AAEC14F00501766B765147080BE355
:1055D00000014FDF040E0501916F0001AAEC14F0E9
:1055E0000501762BF2D70201086B076B050177C521
:1055F00001F00001120080C5E9F20201D96BD86BFD
:1056000003C200F004C201F0026A036A04AF02D0D0
:105610000206030603BE37D005017F51035CD8B0F4
:1056200002D0020130D014E17E51025CD8B002D029
:10563000020129D00DE17D51015CD8B002D00201F8
:1056400022D006E100507C5DD8A002D002011BD020
:1056500095928C9203C200F004C201F0026A036AC0
:1056600001AE02D0020603067C51005E7D51015A54
:105670007E51025A7F51035A01C0E1F200C0E0F2AC
:105680000201DA6938D003C200F004C201F0026AF4
:10569000036A04AF02D002060306005005017C5DD8
:1056A00009E101507D5D06E102507E5D03E103509A
:1056B0007F5D1FE095928C8203C200F004C201F06E
:1056C000026A036A01AE02D00206030600507C5D46
:1056D000006E01507D59016E02507E5903507F5972
:1056E00001C0E1F200C0E0F2010E0201DA6F03D066
:1056F000050172D002010501816B8151805D19E3C2
:105700008151040DF350036A880FE96E020E0320E5
:10571000EA6EEFCF00F0ECCF01F0ECCF02F0ECCF6F
:1057200003F000500201D8270150D9230501812B35
:10573000E4D7D8900201D835026ED935036E02C085
:1057400001F00350E15D0FE303E1E051015C0BE286
:10575000D9C2E3F2D8C2E2F2D851E05DDE6FD9518E
:10576000E159DF6F15D0010EE05D0501826F000E7B
:105770000201E1590501836FD89083310201E36F83
:10578000050182310201E26FE3C2DFF2E2C2DEF222
:10579000DD6BDC6BE76BE66BE56BE46BE86B010ED6
:1057A000DB6F0B8B95908C90820ED56EFF0ED880A0
:1057B00038550501826FFF0E020139550501836FCF
:1057C000000E02013A55000E02013B55050183C54A
:1057D000D7FF82C5D6FFF28A000112000501786B5F
:1057E0000001A9EC23F00501786B0001F4EC23F033
:1057F0000501756B746B000147EC26F0080E05017E
:10580000786F0001FDEC24F0012C06D0EFEC26F0BF
:10581000A4EC27F022DC0FD0070E0501786F000101
:10582000FDEC24F0012C04D018DCA4EC27F003D00C
:10583000A4EC27F012DC010E266E0501786F000142
:10584000A9EC23F010DD01C028F0285204E00BDDA4
:1058500001C028F0FAD707DD01C028F0282C01D0BC
:1058600004D001DD01C028F0F9D76BDD23DEC1ECE7
:1058700026F0C4EC26F0320E0501916F0001AAEC6F
:1058800014F00501756B746B7551020812E303E1A6
:105890007451BB080EE30001CBEC26F0020E0501AB
:1058A000916F0001AAEC14F00501742BD8B4752B8C
:1058B000EBD7000178EC27F09CEC27F0320E0501C5
:1058C000916F0001AAEC14F00201046B036B066BEC
:1058D000056B086B076B0A6B096B05017F6B7E6BB1
:1058E0007D6B320E7C6F130E806F000184DE266AA2
:1058F0000501786B0001A9EC23F00FEF6DF00900B2
:10590000F6CF7DF5F7CF7EF5F5CF85F598EC16F05F
:105910007DC5F6FF7EC5F7FF05017C2F01D002D0C3
:105920000001EDD70001120005017F51016A7E5D83
:1059300003E27EC500F00CD0006A080E806F7E374F
:1059400000367F51005CD8B0006E0136802FF7D74B
:105950000001120001507CC57EF5640E05017F6FC9
:105960000001E2DF00C07CF50150300E08E10501C6
:105970007DA310D07DB70ED07DB9200E04D00501D7
:105980007D977D997D81012601C085F5000198EC08
:1059900016F005017CC57EF50A0E7F6F0001C4DF9D
:1059A00000C07CF50150300E08E105017DB70BD039
:1059B0007DA109D07DB9200E0001012601C085F529
:1059C00098EC16F00501300E7C277CC585F50001AA
:1059D00098EC16F012000C0E0501856F000198EC92
:1059E00016F07C0EF66E050EF76EC3EC16F0940EF4
:1059F000F66E050EF76E0D0E05017C6F00017FDF60
:105A00002EC07CF5010E05017D6F0001A3DFA50E00
:105A1000F66E050EF76E050E05017C6F00016FDF57
:105A2000AC0EF66E050EF76EC3EC16F0C40EF66EF5
:105A3000050EF76EC3EC16F01200D8B204D0050EB6
:105A4000EA6E800EE96E006A016A026A036A050165
:105A5000806B816B826B836B7F517E117D117C111A
:105A60002CE0200E846FD890783779377A377B37DF
:105A700080378137823783377F51835D08E17E51DC
:105A8000825D05E17D51815D02E17C51805D0FE326
:105A90007C51805F7D51D8A07D3D815F7E51D8A033
:105AA0007E3D825F7F51D8A07F3D835FD8800036E6
:105AB000013602360336842FD6D780C5EFFF81C565
:105AC000ECFF82C5ECFF83C5ECFF000129EF6DF010
:105AD0000501806B7F6B060E816F7F0E826F846B7A
